{
  "abi": [
    {
      "inputs": [
        {
          "internalType": "contract IWorld",
          "name": "_world",
          "type": "address"
        },
        {
          "internalType": "address",
          "name": "_components",
          "type": "address"
        }
      ],
      "stateMutability": "nonpayable",
      "type": "constructor"
    },
    {
      "inputs": [],
      "name": "Ownable__NotOwner",
      "type": "error"
    },
    {
      "inputs": [],
      "name": "Ownable__NotTransitiveOwner",
      "type": "error"
    },
    {
      "anonymous": false,
      "inputs": [
        {
          "indexed": true,
          "internalType": "address",
          "name": "previousOwner",
          "type": "address"
        },
        {
          "indexed": true,
          "internalType": "address",
          "name": "newOwner",
          "type": "address"
        }
      ],
      "name": "OwnershipTransferred",
      "type": "event"
    },
    {
      "inputs": [
        {
          "internalType": "bytes",
          "name": "arguments",
          "type": "bytes"
        }
      ],
      "name": "execute",
      "outputs": [
        {
          "internalType": "bytes",
          "name": "",
          "type": "bytes"
        }
      ],
      "stateMutability": "nonpayable",
      "type": "function"
    },
    {
      "inputs": [
        {
          "internalType": "uint256",
          "name": "startTime",
          "type": "uint256"
        },
        {
          "internalType": "uint32",
          "name": "rechargeTime",
          "type": "uint32"
        },
        {
          "internalType": "uint32",
          "name": "initialGridDim",
          "type": "uint32"
        },
        {
          "internalType": "uint32",
          "name": "secondsPerGridShrink",
          "type": "uint32"
        },
        {
          "internalType": "int256",
          "name": "perlinDenom",
          "type": "int256"
        },
        {
          "internalType": "uint16",
          "name": "perlinThresholdBanana",
          "type": "uint16"
        },
        {
          "internalType": "uint16",
          "name": "perlinSeed",
          "type": "uint16"
        },
        {
          "internalType": "uint8",
          "name": "perlinPrecision",
          "type": "uint8"
        }
      ],
      "name": "executeTyped",
      "outputs": [
        {
          "internalType": "uint256",
          "name": "",
          "type": "uint256"
        }
      ],
      "stateMutability": "nonpayable",
      "type": "function"
    },
    {
      "inputs": [],
      "name": "owner",
      "outputs": [
        {
          "internalType": "address",
          "name": "",
          "type": "address"
        }
      ],
      "stateMutability": "view",
      "type": "function"
    },
    {
      "inputs": [
        {
          "internalType": "address",
          "name": "account",
          "type": "address"
        }
      ],
      "name": "transferOwnership",
      "outputs": [],
      "stateMutability": "nonpayable",
      "type": "function"
    }
  ],
  "bytecode": {
    "object": "0x60806040523480156200001157600080fd5b5060405162000f0438038062000f0483398101604081905262000034916200022c565b818162000041336200010f565b6001600160a01b03811615620000585780620000bd565b816001600160a01b031663ba62fbe46040518163ffffffff1660e01b8152600401602060405180830381865afa15801562000097573d6000803e3d6000fd5b505050506040513d601f19601f82011682018060405250810190620000bd91906200026b565b600080546001600160a01b03199081166001600160a01b0393841690811790925560018054909116928516928317905562000105919062000183602090811b6200044617901c565b5050505062000292565b600062000126620001ef60201b620004d71760201c565b80546040519192506001600160a01b03808516929116907f8be0079c531659141344cd1fd0a4f28419497f9722a3daafe3b4186f6b6457e090600090a380546001600160a01b0319166001600160a01b0392909216919091179055565b7ff67304f10c7772c78e439bc5cb07781db345424de8878c18100fdaa64d197a8780546001600160a01b039384166001600160a01b0319918216179091557ff67304f10c7772c78e439bc5cb07781db345424de8878c18100fdaa64d197a868054929093169116179055565b7f8a22373512790c48b83a1fe2efdd2888d4a917bcdc24d0adf63e60f67168046090565b6001600160a01b03811681146200022957600080fd5b50565b600080604083850312156200024057600080fd5b82516200024d8162000213565b6020840151909250620002608162000213565b809150509250929050565b6000602082840312156200027e57600080fd5b81516200028b8162000213565b9392505050565b610c6280620002a26000396000f3fe608060405234801561001057600080fd5b506004361061004c5760003560e01c806309c5eabe1461005157806348ca14141461007a5780638da5cb5b1461009b578063f2fde38b146100c8575b600080fd5b61006461005f36600461077d565b6100dd565b6040516100719190610830565b60405180910390f35b61008d6100883660046108cd565b6102f6565b604051908152602001610071565b6100a3610385565b60405173ffffffffffffffffffffffffffffffffffffffff9091168152602001610071565b6100db6100d6366004610964565b6103ca565b005b6060600080600080600080600080898060200190518101906100ff91906109a1565b975097509750975097509750975097506000600160009054906101000a900473ffffffffffffffffffffffffffffffffffffffff1673ffffffffffffffffffffffffffffffffffffffff1663614bfa6e6040518163ffffffff1660e01b8152600401602060405180830381865afa15801561017e573d6000803e3d6000fd5b505050506040513d601f19601f820116820180604052508101906101a29190610a2c565b60008054919250906101ea9073ffffffffffffffffffffffffffffffffffffffff167f4c5443efce5b9ecc79a1896dd0de307031c10094a3b3fc9a5d2b086c5b792de06104fb565b90508073ffffffffffffffffffffffffffffffffffffffff1663f6fa94db836040518061012001604052808e81526020018d63ffffffff1681526020018c61ffff1681526020018b61ffff1681526020018a81526020018961ffff1681526020018861ffff1681526020018760ff1681526020016000600281111561027157610271610a45565b8152506040518363ffffffff1660e01b8152600401610291929190610aaf565b600060405180830381600087803b1580156102ab57600080fd5b505af11580156102bf573d6000803e3d6000fd5b50505050816040516020016102d691815260200190565b6040516020818303038152906040529a5050505050505050505050919050565b60408051602081018a905263ffffffff808a16928201929092528188166060820152908616608082015260a0810185905261ffff80851660c0830152831660e082015260ff8216610100820152600090819061036490610120016040516020818303038152906040526100dd565b8060200190518101906103779190610a2c565b9a9950505050505050505050565b60006103c57f8a22373512790c48b83a1fe2efdd2888d4a917bcdc24d0adf63e60f6716804605473ffffffffffffffffffffffffffffffffffffffff1690565b905090565b7f8a22373512790c48b83a1fe2efdd2888d4a917bcdc24d0adf63e60f6716804605473ffffffffffffffffffffffffffffffffffffffff16331461043a576040517f2f7a8ee100000000000000000000000000000000000000000000000000000000815260040160405180910390fd5b6104438161064b565b50565b7ff67304f10c7772c78e439bc5cb07781db345424de8878c18100fdaa64d197a87805473ffffffffffffffffffffffffffffffffffffffff9384167fffffffffffffffffffffffff0000000000000000000000000000000000000000918216179091557ff67304f10c7772c78e439bc5cb07781db345424de8878c18100fdaa64d197a868054929093169116179055565b7f8a22373512790c48b83a1fe2efdd2888d4a917bcdc24d0adf63e60f67168046090565b6040517ffbdfa1ea00000000000000000000000000000000000000000000000000000000815260048101829052600090819073ffffffffffffffffffffffffffffffffffffffff85169063fbdfa1ea90602401600060405180830381865afa15801561056b573d6000803e3d6000fd5b505050506040513d6000823e601f3d9081017fffffffffffffffffffffffffffffffffffffffffffffffffffffffffffffffe01682016040526105b19190810190610b57565b90508051600003610622576040517f08c379a000000000000000000000000000000000000000000000000000000000815260206004820152601160248201527f6964206e6f742072656769737465726564000000000000000000000000000000604482015260640160405180910390fd5b6106438160008151811061063857610638610bfd565b602002602001015190565b949350505050565b7f8a22373512790c48b83a1fe2efdd2888d4a917bcdc24d0adf63e60f6716804608054604051610443928492909173ffffffffffffffffffffffffffffffffffffffff8085169216907f8be0079c531659141344cd1fd0a4f28419497f9722a3daafe3b4186f6b6457e090600090a380547fffffffffffffffffffffffff00000000000000000000000000000000000000001673ffffffffffffffffffffffffffffffffffffffff92909216919091179055565b7f4e487b7100000000000000000000000000000000000000000000000000000000600052604160045260246000fd5b604051601f82017fffffffffffffffffffffffffffffffffffffffffffffffffffffffffffffffe016810167ffffffffffffffff81118282101715610775576107756106ff565b604052919050565b6000602080838503121561079057600080fd5b823567ffffffffffffffff808211156107a857600080fd5b818501915085601f8301126107bc57600080fd5b8135818111156107ce576107ce6106ff565b6107fe847fffffffffffffffffffffffffffffffffffffffffffffffffffffffffffffffe0601f8401160161072e565b9150808252868482850101111561081457600080fd5b8084840185840137600090820190930192909252509392505050565b600060208083528351808285015260005b8181101561085d57858101830151858201604001528201610841565b5060006040828601015260407fffffffffffffffffffffffffffffffffffffffffffffffffffffffffffffffe0601f8301168501019250505092915050565b63ffffffff8116811461044357600080fd5b61ffff8116811461044357600080fd5b60ff8116811461044357600080fd5b600080600080600080600080610100898b0312156108ea57600080fd5b8835975060208901356108fc8161089c565b9650604089013561090c8161089c565b9550606089013561091c8161089c565b94506080890135935060a0890135610933816108ae565b925060c0890135610943816108ae565b915060e0890135610953816108be565b809150509295985092959890939650565b60006020828403121561097657600080fd5b813573ffffffffffffffffffffffffffffffffffffffff8116811461099a57600080fd5b9392505050565b600080600080600080600080610100898b0312156109be57600080fd5b8851975060208901516109d08161089c565b60408a01519097506109e1816108ae565b60608a01519096506109f2816108ae565b60808a015160a08b01519196509450610a0a816108ae565b60c08a0151909350610a1b816108ae565b60e08a0151909250610953816108be565b600060208284031215610a3e57600080fd5b5051919050565b7f4e487b7100000000000000000000000000000000000000000000000000000000600052602160045260246000fd5b60038110610aab577f4e487b7100000000000000000000000000000000000000000000000000000000600052602160045260246000fd5b9052565b6000610140820190508382528251602083015263ffffffff602084015116604083015261ffff60408401511660608301526060830151610af5608084018261ffff169052565b50608083015160a083015260a0830151610b1560c084018261ffff169052565b5060c083015161ffff811660e08401525060e0830151610100610b3c8185018360ff169052565b8401519050610b4f610120840182610a74565b509392505050565b60006020808385031215610b6a57600080fd5b825167ffffffffffffffff80821115610b8257600080fd5b818501915085601f830112610b9657600080fd5b815181811115610ba857610ba86106ff565b8060051b9150610bb984830161072e565b8181529183018401918481019088841115610bd357600080fd5b938501935b83851015610bf157845182529385019390850190610bd8565b98975050505050505050565b7f4e487b7100000000000000000000000000000000000000000000000000000000600052603260045260246000fdfea264697066735822122020212a2fbec6ebfbd491b031d1de6d23a6d176e4f94cd16ae500dd558f7d534164736f6c63430008110033",
    "linkReferences": {}
  },
  "methodIdentifiers": {
    "execute(bytes)": "09c5eabe",
    "executeTyped(uint256,uint32,uint32,uint32,int256,uint16,uint16,uint8)": "48ca1414",
    "owner()": "8da5cb5b",
    "transferOwnership(address)": "f2fde38b"
  },
  "id": 74
}