{
  "abi": [
    {
      "inputs": [
        {
          "internalType": "contract IWorld",
          "name": "_world",
          "type": "address"
        },
        {
          "internalType": "address",
          "name": "_components",
          "type": "address"
        }
      ],
      "stateMutability": "nonpayable",
      "type": "constructor"
    },
    {
      "anonymous": false,
      "inputs": [
        {
          "indexed": true,
          "internalType": "address",
          "name": "previousOwner",
          "type": "address"
        },
        {
          "indexed": true,
          "internalType": "address",
          "name": "newOwner",
          "type": "address"
        }
      ],
      "name": "OwnershipTransferred",
      "type": "event"
    },
    {
      "inputs": [
        {
          "internalType": "bytes",
          "name": "arguments",
          "type": "bytes"
        }
      ],
      "name": "execute",
      "outputs": [
        {
          "internalType": "bytes",
          "name": "",
          "type": "bytes"
        }
      ],
      "stateMutability": "nonpayable",
      "type": "function"
    },
    {
      "inputs": [
        {
          "internalType": "uint256",
          "name": "startTime",
          "type": "uint256"
        },
        {
          "internalType": "uint32",
          "name": "rechargeTime",
          "type": "uint32"
        },
        {
          "internalType": "uint32",
          "name": "initialGridDim",
          "type": "uint32"
        },
        {
          "internalType": "uint32",
          "name": "secondsPerGridShrink",
          "type": "uint32"
        }
      ],
      "name": "executeTyped",
      "outputs": [
        {
          "internalType": "uint256",
          "name": "",
          "type": "uint256"
        }
      ],
      "stateMutability": "nonpayable",
      "type": "function"
    },
    {
      "inputs": [],
      "name": "owner",
      "outputs": [
        {
          "internalType": "address",
          "name": "",
          "type": "address"
        }
      ],
      "stateMutability": "view",
      "type": "function"
    },
    {
      "inputs": [
        {
          "internalType": "address",
          "name": "newOwner",
          "type": "address"
        }
      ],
      "name": "transferOwnership",
      "outputs": [],
      "stateMutability": "nonpayable",
      "type": "function"
    }
  ],
  "bytecode": {
    "object": "0x608060405234801561001057600080fd5b50604051610b85380380610b8583398101604081905261002f9161010b565b600280546001600160a01b0319163317905581816001600160a01b0381161561005857806100ba565b816001600160a01b031663ba62fbe46040518163ffffffff1660e01b8152600401602060405180830381865afa158015610096573d6000803e3d6000fd5b505050506040513d601f19601f820116820180604052508101906100ba9190610145565b600080546001600160a01b039283166001600160a01b031991821617909155600180549490921693169290921790915550610169915050565b6001600160a01b038116811461010857600080fd5b50565b6000806040838503121561011e57600080fd5b8251610129816100f3565b602084015190925061013a816100f3565b809150509250929050565b60006020828403121561015757600080fd5b8151610162816100f3565b9392505050565b610a0d806101786000396000f3fe608060405234801561001057600080fd5b506004361061004c5760003560e01c806309c5eabe14610051578063567b53991461007a5780638da5cb5b1461009b578063f2fde38b146100c3575b600080fd5b61006461005f366004610606565b6100d8565b60405161007191906106b9565b60405180910390f35b61008d61008836600461073a565b6102bb565b604051908152602001610071565b60025460405173ffffffffffffffffffffffffffffffffffffffff9091168152602001610071565b6100d66100d136600461078d565b610328565b005b6060600080600080858060200190518101906100f491906107e1565b93509350935093506000600160009054906101000a900473ffffffffffffffffffffffffffffffffffffffff1673ffffffffffffffffffffffffffffffffffffffff1663614bfa6e6040518163ffffffff1660e01b8152600401602060405180830381865afa15801561016b573d6000803e3d6000fd5b505050506040513d601f19601f8201168201806040525081019061018f9190610830565b60008054919250906101d79073ffffffffffffffffffffffffffffffffffffffff167f4c5443efce5b9ecc79a1896dd0de307031c10094a3b3fc9a5d2b086c5b792de061043c565b90508073ffffffffffffffffffffffffffffffffffffffff1663a23d6820836040518060a001604052808a81526020018963ffffffff1681526020018861ffff1681526020018761ffff1681526020016000600281111561023a5761023a610849565b8152506040518363ffffffff1660e01b815260040161025a929190610878565b600060405180830381600087803b15801561027457600080fd5b505af1158015610288573d6000803e3d6000fd5b505050508160405160200161029f91815260200190565b6040516020818303038152906040529650505050505050919050565b60008061030b868686866040516020016102f7949392919093845263ffffffff9283166020850152908216604084015216606082015260800190565b6040516020818303038152906040526100d8565b80602001905181019061031e9190610830565b9695505050505050565b60025473ffffffffffffffffffffffffffffffffffffffff1633146103ae576040517f08c379a000000000000000000000000000000000000000000000000000000000815260206004820152600a60248201527f4f4e4c595f4f574e45520000000000000000000000000000000000000000000060448201526064015b60405180910390fd5b60025460405173ffffffffffffffffffffffffffffffffffffffff8084169216907f8be0079c531659141344cd1fd0a4f28419497f9722a3daafe3b4186f6b6457e090600090a3600280547fffffffffffffffffffffffff00000000000000000000000000000000000000001673ffffffffffffffffffffffffffffffffffffffff92909216919091179055565b6040517ffbdfa1ea00000000000000000000000000000000000000000000000000000000815260048101829052600090819073ffffffffffffffffffffffffffffffffffffffff85169063fbdfa1ea90602401600060405180830381865afa1580156104ac573d6000803e3d6000fd5b505050506040513d6000823e601f3d9081017fffffffffffffffffffffffffffffffffffffffffffffffffffffffffffffffe01682016040526104f29190810190610902565b9050805160000361055f576040517f08c379a000000000000000000000000000000000000000000000000000000000815260206004820152601160248201527f6964206e6f74207265676973746572656400000000000000000000000000000060448201526064016103a5565b61058081600081518110610575576105756109a8565b602002602001015190565b949350505050565b7f4e487b7100000000000000000000000000000000000000000000000000000000600052604160045260246000fd5b604051601f82017fffffffffffffffffffffffffffffffffffffffffffffffffffffffffffffffe016810167ffffffffffffffff811182821017156105fe576105fe610588565b604052919050565b6000602080838503121561061957600080fd5b823567ffffffffffffffff8082111561063157600080fd5b818501915085601f83011261064557600080fd5b81358181111561065757610657610588565b610687847fffffffffffffffffffffffffffffffffffffffffffffffffffffffffffffffe0601f840116016105b7565b9150808252868482850101111561069d57600080fd5b8084840185840137600090820190930192909252509392505050565b600060208083528351808285015260005b818110156106e6578581018301518582016040015282016106ca565b5060006040828601015260407fffffffffffffffffffffffffffffffffffffffffffffffffffffffffffffffe0601f8301168501019250505092915050565b63ffffffff8116811461073757600080fd5b50565b6000806000806080858703121561075057600080fd5b84359350602085013561076281610725565b9250604085013561077281610725565b9150606085013561078281610725565b939692955090935050565b60006020828403121561079f57600080fd5b813573ffffffffffffffffffffffffffffffffffffffff811681146107c357600080fd5b9392505050565b805161ffff811681146107dc57600080fd5b919050565b600080600080608085870312156107f757600080fd5b84519350602085015161080981610725565b9250610817604086016107ca565b9150610825606086016107ca565b905092959194509250565b60006020828403121561084257600080fd5b5051919050565b7f4e487b7100000000000000000000000000000000000000000000000000000000600052602160045260246000fd5b600060c0820190508382528251602083015263ffffffff6020840151166040830152604083015161ffff808216606085015280606086015116608085015250506080830151600381106108f4577f4e487b7100000000000000000000000000000000000000000000000000000000600052602160045260246000fd5b8060a0840152509392505050565b6000602080838503121561091557600080fd5b825167ffffffffffffffff8082111561092d57600080fd5b818501915085601f83011261094157600080fd5b81518181111561095357610953610588565b8060051b91506109648483016105b7565b818152918301840191848101908884111561097e57600080fd5b938501935b8385101561099c57845182529385019390850190610983565b98975050505050505050565b7f4e487b7100000000000000000000000000000000000000000000000000000000600052603260045260246000fdfea26469706673582212204a549c4cda7266bd18159c8ba67c11eac19badb9ce9bebd9a8cf5498df98dbf064736f6c63430008110033",
    "linkReferences": {}
  },
  "methodIdentifiers": {
    "execute(bytes)": "09c5eabe",
    "executeTyped(uint256,uint32,uint32,uint32)": "567b5399",
    "owner()": "8da5cb5b",
    "transferOwnership(address)": "f2fde38b"
  },
  "id": 53
}