{
  "abi": [
    {
      "inputs": [
        {
          "internalType": "contract IWorld",
          "name": "_world",
          "type": "address"
        },
        {
          "internalType": "address",
          "name": "_components",
          "type": "address"
        }
      ],
      "stateMutability": "nonpayable",
      "type": "constructor"
    },
    {
      "anonymous": false,
      "inputs": [
        {
          "indexed": true,
          "internalType": "address",
          "name": "previousOwner",
          "type": "address"
        },
        {
          "indexed": true,
          "internalType": "address",
          "name": "newOwner",
          "type": "address"
        }
      ],
      "name": "OwnershipTransferred",
      "type": "event"
    },
    {
      "inputs": [
        {
          "internalType": "bytes",
          "name": "arguments",
          "type": "bytes"
        }
      ],
      "name": "execute",
      "outputs": [
        {
          "internalType": "bytes",
          "name": "",
          "type": "bytes"
        }
      ],
      "stateMutability": "nonpayable",
      "type": "function"
    },
    {
      "inputs": [
        {
          "internalType": "uint256",
          "name": "startTime",
          "type": "uint256"
        },
        {
          "internalType": "uint32",
          "name": "rechargeTime",
          "type": "uint32"
        }
      ],
      "name": "executeTyped",
      "outputs": [
        {
          "internalType": "uint256",
          "name": "",
          "type": "uint256"
        }
      ],
      "stateMutability": "nonpayable",
      "type": "function"
    },
    {
      "inputs": [],
      "name": "owner",
      "outputs": [
        {
          "internalType": "address",
          "name": "",
          "type": "address"
        }
      ],
      "stateMutability": "view",
      "type": "function"
    },
    {
      "inputs": [
        {
          "internalType": "address",
          "name": "newOwner",
          "type": "address"
        }
      ],
      "name": "transferOwnership",
      "outputs": [],
      "stateMutability": "nonpayable",
      "type": "function"
    }
  ],
  "bytecode": {
    "object": "0x608060405234801561001057600080fd5b50604051610ac8380380610ac883398101604081905261002f9161010b565b600280546001600160a01b0319163317905581816001600160a01b0381161561005857806100ba565b816001600160a01b031663ba62fbe46040518163ffffffff1660e01b8152600401602060405180830381865afa158015610096573d6000803e3d6000fd5b505050506040513d601f19601f820116820180604052508101906100ba9190610145565b600080546001600160a01b039283166001600160a01b031991821617909155600180549490921693169290921790915550610169915050565b6001600160a01b038116811461010857600080fd5b50565b6000806040838503121561011e57600080fd5b8251610129816100f3565b602084015190925061013a816100f3565b809150509250929050565b60006020828403121561015757600080fd5b8151610162816100f3565b9392505050565b610950806101786000396000f3fe608060405234801561001057600080fd5b506004361061004c5760003560e01c806309c5eabe146100515780638da5cb5b1461007a578063e60f3a76146100a2578063f2fde38b146100c3575b600080fd5b61006461005f3660046105cb565b6100d8565b604051610071919061067e565b60405180910390f35b60025460405173ffffffffffffffffffffffffffffffffffffffff9091168152602001610071565b6100b56100b03660046106ff565b61029e565b604051908152602001610071565b6100d66100d136600461072f565b6102f5565b005b6060600080838060200190518101906100f1919061076c565b915091506000600160009054906101000a900473ffffffffffffffffffffffffffffffffffffffff1673ffffffffffffffffffffffffffffffffffffffff1663614bfa6e6040518163ffffffff1660e01b8152600401602060405180830381865afa158015610164573d6000803e3d6000fd5b505050506040513d601f19601f820116820180604052508101906101889190610791565b60008054919250906101d09073ffffffffffffffffffffffffffffffffffffffff167f4c5443efce5b9ecc79a1896dd0de307031c10094a3b3fc9a5d2b086c5b792de0610409565b90508073ffffffffffffffffffffffffffffffffffffffff1663072b055e8360405180606001604052808881526020018763ffffffff1681526020016000600281111561021f5761021f6107aa565b8152506040518363ffffffff1660e01b815260040161023f9291906107d9565b600060405180830381600087803b15801561025957600080fd5b505af115801561026d573d6000803e3d6000fd5b505050508160405160200161028491815260200190565b604051602081830303815290604052945050505050919050565b6000806102da84846040516020016102c692919091825263ffffffff16602082015260400190565b6040516020818303038152906040526100d8565b8060200190518101906102ed9190610791565b949350505050565b60025473ffffffffffffffffffffffffffffffffffffffff16331461037b576040517f08c379a000000000000000000000000000000000000000000000000000000000815260206004820152600a60248201527f4f4e4c595f4f574e45520000000000000000000000000000000000000000000060448201526064015b60405180910390fd5b60025460405173ffffffffffffffffffffffffffffffffffffffff8084169216907f8be0079c531659141344cd1fd0a4f28419497f9722a3daafe3b4186f6b6457e090600090a3600280547fffffffffffffffffffffffff00000000000000000000000000000000000000001673ffffffffffffffffffffffffffffffffffffffff92909216919091179055565b6040517ffbdfa1ea00000000000000000000000000000000000000000000000000000000815260048101829052600090819073ffffffffffffffffffffffffffffffffffffffff85169063fbdfa1ea90602401600060405180830381865afa158015610479573d6000803e3d6000fd5b505050506040513d6000823e601f3d9081017fffffffffffffffffffffffffffffffffffffffffffffffffffffffffffffffe01682016040526104bf9190810190610845565b9050805160000361052c576040517f08c379a000000000000000000000000000000000000000000000000000000000815260206004820152601160248201527f6964206e6f7420726567697374657265640000000000000000000000000000006044820152606401610372565b6102ed81600081518110610542576105426108eb565b602002602001015190565b7f4e487b7100000000000000000000000000000000000000000000000000000000600052604160045260246000fd5b604051601f82017fffffffffffffffffffffffffffffffffffffffffffffffffffffffffffffffe016810167ffffffffffffffff811182821017156105c3576105c361054d565b604052919050565b600060208083850312156105de57600080fd5b823567ffffffffffffffff808211156105f657600080fd5b818501915085601f83011261060a57600080fd5b81358181111561061c5761061c61054d565b61064c847fffffffffffffffffffffffffffffffffffffffffffffffffffffffffffffffe0601f8401160161057c565b9150808252868482850101111561066257600080fd5b8084840185840137600090820190930192909252509392505050565b600060208083528351808285015260005b818110156106ab5785810183015185820160400152820161068f565b5060006040828601015260407fffffffffffffffffffffffffffffffffffffffffffffffffffffffffffffffe0601f8301168501019250505092915050565b63ffffffff811681146106fc57600080fd5b50565b6000806040838503121561071257600080fd5b823591506020830135610724816106ea565b809150509250929050565b60006020828403121561074157600080fd5b813573ffffffffffffffffffffffffffffffffffffffff8116811461076557600080fd5b9392505050565b6000806040838503121561077f57600080fd5b825191506020830151610724816106ea565b6000602082840312156107a357600080fd5b5051919050565b7f4e487b7100000000000000000000000000000000000000000000000000000000600052602160045260246000fd5b60006080820190508382528251602083015263ffffffff6020840151166040830152604083015160038110610837577f4e487b7100000000000000000000000000000000000000000000000000000000600052602160045260246000fd5b806060840152509392505050565b6000602080838503121561085857600080fd5b825167ffffffffffffffff8082111561087057600080fd5b818501915085601f83011261088457600080fd5b8151818111156108965761089661054d565b8060051b91506108a784830161057c565b81815291830184019184810190888411156108c157600080fd5b938501935b838510156108df578451825293850193908501906108c6565b98975050505050505050565b7f4e487b7100000000000000000000000000000000000000000000000000000000600052603260045260246000fdfea264697066735822122058f82bb48ca2971b53218700e41b21e0d72ccace265f4e5b0988572855d3af3464736f6c63430008110033",
    "linkReferences": {}
  },
  "methodIdentifiers": {
    "execute(bytes)": "09c5eabe",
    "executeTyped(uint256,uint32)": "e60f3a76",
    "owner()": "8da5cb5b",
    "transferOwnership(address)": "f2fde38b"
  },
  "id": 51
}