{
  "abi": [
    {
      "inputs": [
        {
          "internalType": "address",
          "name": "world",
          "type": "address"
        }
      ],
      "stateMutability": "nonpayable",
      "type": "constructor"
    },
    {
      "inputs": [],
      "name": "BareComponent__NotImplemented",
      "type": "error"
    },
    {
      "inputs": [],
      "name": "OwnableWritable__NotWriter",
      "type": "error"
    },
    {
      "inputs": [],
      "name": "Ownable__NotOwner",
      "type": "error"
    },
    {
      "inputs": [],
      "name": "Ownable__NotTransitiveOwner",
      "type": "error"
    },
    {
      "anonymous": false,
      "inputs": [
        {
          "indexed": true,
          "internalType": "address",
          "name": "previousOwner",
          "type": "address"
        },
        {
          "indexed": true,
          "internalType": "address",
          "name": "newOwner",
          "type": "address"
        }
      ],
      "name": "OwnershipTransferred",
      "type": "event"
    },
    {
      "inputs": [
        {
          "internalType": "address",
          "name": "writer",
          "type": "address"
        }
      ],
      "name": "authorizeWriter",
      "outputs": [],
      "stateMutability": "nonpayable",
      "type": "function"
    },
    {
      "inputs": [],
      "name": "getEntities",
      "outputs": [
        {
          "internalType": "uint256[]",
          "name": "",
          "type": "uint256[]"
        }
      ],
      "stateMutability": "view",
      "type": "function"
    },
    {
      "inputs": [
        {
          "components": [
            {
              "internalType": "uint256",
              "name": "startTime",
              "type": "uint256"
            },
            {
              "internalType": "uint32",
              "name": "rechargeTime",
              "type": "uint32"
            },
            {
              "internalType": "uint16",
              "name": "initialGridDim",
              "type": "uint16"
            },
            {
              "internalType": "uint16",
              "name": "secondsPerGridShrink",
              "type": "uint16"
            },
            {
              "internalType": "int256",
              "name": "perlinDenom",
              "type": "int256"
            },
            {
              "internalType": "uint16",
              "name": "perlinThresholdBanana",
              "type": "uint16"
            },
            {
              "internalType": "uint16",
              "name": "perlinSeed",
              "type": "uint16"
            },
            {
              "internalType": "uint8",
              "name": "perlinPrecision",
              "type": "uint8"
            },
            {
              "internalType": "enum BRGameStatus",
              "name": "status",
              "type": "uint8"
            }
          ],
          "internalType": "struct BRGame",
          "name": "value",
          "type": "tuple"
        }
      ],
      "name": "getEntitiesWithValue",
      "outputs": [
        {
          "internalType": "uint256[]",
          "name": "",
          "type": "uint256[]"
        }
      ],
      "stateMutability": "view",
      "type": "function"
    },
    {
      "inputs": [
        {
          "internalType": "bytes",
          "name": "value",
          "type": "bytes"
        }
      ],
      "name": "getEntitiesWithValue",
      "outputs": [
        {
          "internalType": "uint256[]",
          "name": "",
          "type": "uint256[]"
        }
      ],
      "stateMutability": "view",
      "type": "function"
    },
    {
      "inputs": [
        {
          "internalType": "uint256",
          "name": "entity",
          "type": "uint256"
        }
      ],
      "name": "getRawValue",
      "outputs": [
        {
          "internalType": "bytes",
          "name": "",
          "type": "bytes"
        }
      ],
      "stateMutability": "view",
      "type": "function"
    },
    {
      "inputs": [],
      "name": "getSchema",
      "outputs": [
        {
          "internalType": "string[]",
          "name": "keys",
          "type": "string[]"
        },
        {
          "internalType": "enum LibTypes.SchemaValue[]",
          "name": "values",
          "type": "uint8[]"
        }
      ],
      "stateMutability": "pure",
      "type": "function"
    },
    {
      "inputs": [
        {
          "internalType": "uint256",
          "name": "entity",
          "type": "uint256"
        }
      ],
      "name": "getValue",
      "outputs": [
        {
          "components": [
            {
              "internalType": "uint256",
              "name": "startTime",
              "type": "uint256"
            },
            {
              "internalType": "uint32",
              "name": "rechargeTime",
              "type": "uint32"
            },
            {
              "internalType": "uint16",
              "name": "initialGridDim",
              "type": "uint16"
            },
            {
              "internalType": "uint16",
              "name": "secondsPerGridShrink",
              "type": "uint16"
            },
            {
              "internalType": "int256",
              "name": "perlinDenom",
              "type": "int256"
            },
            {
              "internalType": "uint16",
              "name": "perlinThresholdBanana",
              "type": "uint16"
            },
            {
              "internalType": "uint16",
              "name": "perlinSeed",
              "type": "uint16"
            },
            {
              "internalType": "uint8",
              "name": "perlinPrecision",
              "type": "uint8"
            },
            {
              "internalType": "enum BRGameStatus",
              "name": "status",
              "type": "uint8"
            }
          ],
          "internalType": "struct BRGame",
          "name": "",
          "type": "tuple"
        }
      ],
      "stateMutability": "view",
      "type": "function"
    },
    {
      "inputs": [
        {
          "internalType": "uint256",
          "name": "entity",
          "type": "uint256"
        }
      ],
      "name": "has",
      "outputs": [
        {
          "internalType": "bool",
          "name": "",
          "type": "bool"
        }
      ],
      "stateMutability": "view",
      "type": "function"
    },
    {
      "inputs": [],
      "name": "id",
      "outputs": [
        {
          "internalType": "uint256",
          "name": "",
          "type": "uint256"
        }
      ],
      "stateMutability": "view",
      "type": "function"
    },
    {
      "inputs": [],
      "name": "owner",
      "outputs": [
        {
          "internalType": "address",
          "name": "",
          "type": "address"
        }
      ],
      "stateMutability": "view",
      "type": "function"
    },
    {
      "inputs": [
        {
          "internalType": "address",
          "name": "indexer",
          "type": "address"
        }
      ],
      "name": "registerIndexer",
      "outputs": [],
      "stateMutability": "nonpayable",
      "type": "function"
    },
    {
      "inputs": [
        {
          "internalType": "address",
          "name": "_world",
          "type": "address"
        }
      ],
      "name": "registerWorld",
      "outputs": [],
      "stateMutability": "nonpayable",
      "type": "function"
    },
    {
      "inputs": [
        {
          "internalType": "uint256",
          "name": "entity",
          "type": "uint256"
        }
      ],
      "name": "remove",
      "outputs": [],
      "stateMutability": "nonpayable",
      "type": "function"
    },
    {
      "inputs": [
        {
          "internalType": "uint256",
          "name": "entity",
          "type": "uint256"
        },
        {
          "internalType": "bytes",
          "name": "value",
          "type": "bytes"
        }
      ],
      "name": "set",
      "outputs": [],
      "stateMutability": "nonpayable",
      "type": "function"
    },
    {
      "inputs": [
        {
          "internalType": "uint256",
          "name": "entity",
          "type": "uint256"
        },
        {
          "components": [
            {
              "internalType": "uint256",
              "name": "startTime",
              "type": "uint256"
            },
            {
              "internalType": "uint32",
              "name": "rechargeTime",
              "type": "uint32"
            },
            {
              "internalType": "uint16",
              "name": "initialGridDim",
              "type": "uint16"
            },
            {
              "internalType": "uint16",
              "name": "secondsPerGridShrink",
              "type": "uint16"
            },
            {
              "internalType": "int256",
              "name": "perlinDenom",
              "type": "int256"
            },
            {
              "internalType": "uint16",
              "name": "perlinThresholdBanana",
              "type": "uint16"
            },
            {
              "internalType": "uint16",
              "name": "perlinSeed",
              "type": "uint16"
            },
            {
              "internalType": "uint8",
              "name": "perlinPrecision",
              "type": "uint8"
            },
            {
              "internalType": "enum BRGameStatus",
              "name": "status",
              "type": "uint8"
            }
          ],
          "internalType": "struct BRGame",
          "name": "value",
          "type": "tuple"
        }
      ],
      "name": "set",
      "outputs": [],
      "stateMutability": "nonpayable",
      "type": "function"
    },
    {
      "inputs": [
        {
          "internalType": "address",
          "name": "account",
          "type": "address"
        }
      ],
      "name": "transferOwnership",
      "outputs": [],
      "stateMutability": "nonpayable",
      "type": "function"
    },
    {
      "inputs": [
        {
          "internalType": "address",
          "name": "writer",
          "type": "address"
        }
      ],
      "name": "unauthorizeWriter",
      "outputs": [],
      "stateMutability": "nonpayable",
      "type": "function"
    },
    {
      "inputs": [],
      "name": "world",
      "outputs": [
        {
          "internalType": "address",
          "name": "",
          "type": "address"
        }
      ],
      "stateMutability": "view",
      "type": "function"
    },
    {
      "inputs": [
        {
          "internalType": "address",
          "name": "operator",
          "type": "address"
        }
      ],
      "name": "writeAccess",
      "outputs": [
        {
          "internalType": "bool",
          "name": "",
          "type": "bool"
        }
      ],
      "stateMutability": "view",
      "type": "function"
    }
  ],
  "bytecode": {
    "object": "0x60806040523480156200001157600080fd5b5060405162003890380380620038908339810160408190526200003491620002b9565b807f4c5443efce5b9ecc79a1896dd0de307031c10094a3b3fc9a5d2b086c5b792de08181620000633362000127565b60028190556001600160a01b03821615620000835762000083826200019b565b505060405162000093906200029d565b604051809103906000f080158015620000b0573d6000803e3d6000fd5b50600380546001600160a01b0319166001600160a01b0392909216919091179055604051620000df90620002ab565b604051809103906000f080158015620000fc573d6000803e3d6000fd5b50600480546001600160a01b0319166001600160a01b039290921691909117905550620002eb915050565b60006200013e6200025360201b620011c01760201c565b80546040519192506001600160a01b03808516929116907f8be0079c531659141344cd1fd0a4f28419497f9722a3daafe3b4186f6b6457e090600090a380546001600160a01b0319166001600160a01b0392909216919091179055565b620001a562000277565b6001600160a01b0316336001600160a01b031614620001d757604051632f7a8ee160e01b815260040160405180910390fd5b600080546001600160a01b0319166001600160a01b038316908117909155600254604051630f30347760e41b8152306004820152602481019190915263f303477090604401600060405180830381600087803b1580156200023757600080fd5b505af11580156200024c573d6000803e3d6000fd5b5050505050565b7f8a22373512790c48b83a1fe2efdd2888d4a917bcdc24d0adf63e60f67168046090565b60006200028e6200025360201b620011c01760201c565b546001600160a01b0316919050565b61084c80620027b683390190565b61088e806200300283390190565b600060208284031215620002cc57600080fd5b81516001600160a01b0381168114620002e457600080fd5b9392505050565b6124bb80620002fb6000396000f3fe608060405234801561001057600080fd5b50600436106101515760003560e01c80638da5cb5b116100cd578063b8bc073d11610081578063cccf7a8e11610066578063cccf7a8e146102eb578063f2fde38b146102fe578063f6fa94db1461031157600080fd5b8063b8bc073d146102b8578063bf4fe57e146102d857600080fd5b80639f48e319116100b25780639f48e3191461027b578063af640d0f1461028e578063b361be46146102a557600080fd5b80638da5cb5b146102605780639d2c76b41461026857600080fd5b80634fef6a381161012457806375c0669c1161010957806375c0669c14610217578063861eb9051461022a5780638b2829471461024d57600080fd5b80634fef6a38146101ee5780636b122fe01461020157600080fd5b80630ff4c9161461015657806330b67baa1461017f57806331b933b9146101c45780634cc82215146101d9575b600080fd5b610169610164366004611952565b610324565b60405161017691906119ae565b60405180910390f35b60005461019f9073ffffffffffffffffffffffffffffffffffffffff1681565b60405173ffffffffffffffffffffffffffffffffffffffff9091168152602001610176565b6101cc610396565b6040516101769190611a55565b6101ec6101e7366004611952565b610451565b005b6101ec6101fc366004611a99565b61049c565b61020961057a565b604051610176929190611b33565b6101ec610225366004611a99565b610b33565b61023d610238366004611a99565b610be9565b6040519015158152602001610176565b6101ec61025b366004611d32565b610c74565b61019f610cc1565b6101ec610276366004611a99565b610d01565b6101cc610289366004611d79565b610e2a565b61029760025481565b604051908152602001610176565b6101cc6102b3366004611d92565b610e50565b6102cb6102c6366004611952565b610f0d565b6040516101769190611dcf565b6101ec6102e6366004611a99565b610faf565b61023d6102f9366004611952565b61108a565b6101ec61030c366004611a99565b61111e565b6101ec61031f366004611e51565b611197565b6103716040805161012081018252600080825260208201819052918101829052606081018290526080810182905260a0810182905260c0810182905260e081018290529061010082015290565b600061037c83610f0d565b80602001905181019061038f9190611f66565b9392505050565b600354604080517f410d59cc000000000000000000000000000000000000000000000000000000008152905160609273ffffffffffffffffffffffffffffffffffffffff169163410d59cc9160048083019260009291908290030181865afa158015610406573d6000803e3d6000fd5b505050506040513d6000823e601f3d9081017fffffffffffffffffffffffffffffffffffffffffffffffffffffffffffffffe016820160405261044c919081019061200e565b905090565b61045a33610be9565b610490576040517f406ed3da00000000000000000000000000000000000000000000000000000000815260040160405180910390fd5b610499816111e4565b50565b7f8a22373512790c48b83a1fe2efdd2888d4a917bcdc24d0adf63e60f6716804605473ffffffffffffffffffffffffffffffffffffffff16331461050c576040517f2f7a8ee100000000000000000000000000000000000000000000000000000000815260040160405180910390fd5b73ffffffffffffffffffffffffffffffffffffffff1660009081527f8ffeadc5cba727b8cc3cdef48739619490ea317fdb3baae1259089d06f92c9096020526040902080547fffffffffffffffffffffffffffffffffffffffffffffffffffffffffffffff00166001179055565b6040805160098082526101408201909252606091829190816020015b6060815260200190600190039081610596575050604080516009808252610140820190925291935060208201610120803683370190505090506040518060400160405280600981526020017f737461727454696d65000000000000000000000000000000000000000000000081525082600081518110610618576106186120b4565b6020026020010181905250600d81600081518110610638576106386120b4565b602002602001019060218111156106515761065161196b565b908160218111156106645761066461196b565b815250506040518060400160405280600c81526020017f726563686172676554696d650000000000000000000000000000000000000000815250826001815181106106b1576106b16120b4565b6020026020010181905250600a816001815181106106d1576106d16120b4565b602002602001019060218111156106ea576106ea61196b565b908160218111156106fd576106fd61196b565b815250506040518060400160405280600e81526020017f696e697469616c4772696444696d0000000000000000000000000000000000008152508260028151811061074a5761074a6120b4565b602002602001018190525060098160028151811061076a5761076a6120b4565b602002602001019060218111156107835761078361196b565b908160218111156107965761079661196b565b815250506040518060400160405280601481526020017f7365636f6e647350657247726964536872696e6b000000000000000000000000815250826003815181106107e3576107e36120b4565b6020026020010181905250600981600381518110610803576108036120b4565b6020026020010190602181111561081c5761081c61196b565b9081602181111561082f5761082f61196b565b815250506040518060400160405280600b81526020017f7065726c696e44656e6f6d0000000000000000000000000000000000000000008152508260048151811061087c5761087c6120b4565b602002602001018190525060068160048151811061089c5761089c6120b4565b602002602001019060218111156108b5576108b561196b565b908160218111156108c8576108c861196b565b815250506040518060400160405280601581526020017f7065726c696e5468726573686f6c6442616e616e61000000000000000000000081525082600581518110610915576109156120b4565b6020026020010181905250600581600581518110610935576109356120b4565b6020026020010190602181111561094e5761094e61196b565b908160218111156109615761096161196b565b815250506040518060400160405280600a81526020017f7065726c696e5365656400000000000000000000000000000000000000000000815250826006815181106109ae576109ae6120b4565b60200260200101819052506009816006815181106109ce576109ce6120b4565b602002602001019060218111156109e7576109e761196b565b908160218111156109fa576109fa61196b565b815250506040518060400160405280600f81526020017f7065726c696e507265636973696f6e000000000000000000000000000000000081525082600781518110610a4757610a476120b4565b6020026020010181905250600881600781518110610a6757610a676120b4565b60200260200101906021811115610a8057610a8061196b565b90816021811115610a9357610a9361196b565b815250506040518060400160405280600681526020017f737461747573000000000000000000000000000000000000000000000000000081525082600881518110610ae057610ae06120b4565b6020026020010181905250600881600881518110610b0057610b006120b4565b60200260200101906021811115610b1957610b1961196b565b90816021811115610b2c57610b2c61196b565b9052509091565b610b3c33610be9565b610b72576040517f406ed3da00000000000000000000000000000000000000000000000000000000815260040160405180910390fd5b600580546001810182556000919091527f036b6384b5eca791c62761152d0c79bb0604c104a5fb6f4eb0703f3154bb3db00180547fffffffffffffffffffffffff00000000000000000000000000000000000000001673ffffffffffffffffffffffffffffffffffffffff92909216919091179055565b73ffffffffffffffffffffffffffffffffffffffff811660009081527f8ffeadc5cba727b8cc3cdef48739619490ea317fdb3baae1259089d06f92c909602052604081205460ff1680610c6e5750610c3f610cc1565b73ffffffffffffffffffffffffffffffffffffffff168273ffffffffffffffffffffffffffffffffffffffff16145b92915050565b610c7d33610be9565b610cb3576040517f406ed3da00000000000000000000000000000000000000000000000000000000815260040160405180910390fd5b610cbd82826114a3565b5050565b600061044c7f8a22373512790c48b83a1fe2efdd2888d4a917bcdc24d0adf63e60f6716804605473ffffffffffffffffffffffffffffffffffffffff1690565b7f8a22373512790c48b83a1fe2efdd2888d4a917bcdc24d0adf63e60f6716804605473ffffffffffffffffffffffffffffffffffffffff163314610d71576040517f2f7a8ee100000000000000000000000000000000000000000000000000000000815260040160405180910390fd5b600080547fffffffffffffffffffffffff00000000000000000000000000000000000000001673ffffffffffffffffffffffffffffffffffffffff83169081179091556002546040517ff3034770000000000000000000000000000000000000000000000000000000008152306004820152602481019190915263f3034770906044015b600060405180830381600087803b158015610e0f57600080fd5b505af1158015610e23573d6000803e3d6000fd5b5050505050565b6060610c6e82604051602001610e4091906120e3565b6040516020818303038152906040525b60048054825160208401206040517f796c5e940000000000000000000000000000000000000000000000000000000081529283015260609173ffffffffffffffffffffffffffffffffffffffff9091169063796c5e9490602401600060405180830381865afa158015610ec7573d6000803e3d6000fd5b505050506040513d6000823e601f3d9081017fffffffffffffffffffffffffffffffffffffffffffffffffffffffffffffffe0168201604052610c6e919081019061200e565b6000818152600160205260409020805460609190610f2a90612191565b80601f0160208091040260200160405190810160405280929190818152602001828054610f5690612191565b8015610fa35780601f10610f7857610100808354040283529160200191610fa3565b820191906000526020600020905b815481529060010190602001808311610f8657829003601f168201915b50505050509050919050565b7f8a22373512790c48b83a1fe2efdd2888d4a917bcdc24d0adf63e60f6716804605473ffffffffffffffffffffffffffffffffffffffff16331461101f576040517f2f7a8ee100000000000000000000000000000000000000000000000000000000815260040160405180910390fd5b73ffffffffffffffffffffffffffffffffffffffff1660009081527f8ffeadc5cba727b8cc3cdef48739619490ea317fdb3baae1259089d06f92c9096020526040902080547fffffffffffffffffffffffffffffffffffffffffffffffffffffffffffffff00169055565b6003546040517fcccf7a8e0000000000000000000000000000000000000000000000000000000081526004810183905260009173ffffffffffffffffffffffffffffffffffffffff169063cccf7a8e90602401602060405180830381865afa1580156110fa573d6000803e3d6000fd5b505050506040513d601f19601f82011682018060405250810190610c6e91906121de565b7f8a22373512790c48b83a1fe2efdd2888d4a917bcdc24d0adf63e60f6716804605473ffffffffffffffffffffffffffffffffffffffff16331461118e576040517f2f7a8ee100000000000000000000000000000000000000000000000000000000815260040160405180910390fd5b6104998161173a565b610cbd82826040516020016111ac91906119ae565b604051602081830303815290604052610c74565b7f8a22373512790c48b83a1fe2efdd2888d4a917bcdc24d0adf63e60f67168046090565b60045460008281526001602052604090819020905173ffffffffffffffffffffffffffffffffffffffff909216916385edea139161122191612200565b60405190819003812060e083901b7fffffffff000000000000000000000000000000000000000000000000000000001682526004820152602401602060405180830381865afa158015611278573d6000803e3d6000fd5b505050506040513d601f19601f8201168201806040525081019061129c9190612294565b6000036112a65750565b60045460008281526001602052604090819020905173ffffffffffffffffffffffffffffffffffffffff90921691636526db7a916112e391612200565b60405190819003812060e083901b7fffffffff00000000000000000000000000000000000000000000000000000000168252600482015260248101849052604401600060405180830381600087803b15801561133e57600080fd5b505af1158015611352573d6000803e3d6000fd5b50506003546040517f4cc822150000000000000000000000000000000000000000000000000000000081526004810185905273ffffffffffffffffffffffffffffffffffffffff9091169250634cc822159150602401600060405180830381600087803b1580156113c257600080fd5b505af11580156113d6573d6000803e3d6000fd5b505050506113e381611743565b60005b600554811015610cbd5760058181548110611403576114036120b4565b6000918252602090912001546040517f4cc822150000000000000000000000000000000000000000000000000000000081526004810184905273ffffffffffffffffffffffffffffffffffffffff90911690634cc8221590602401600060405180830381600087803b15801561147857600080fd5b505af115801561148c573d6000803e3d6000fd5b50505050808061149b906122ad565b9150506113e6565b6003546040517f1003e2d20000000000000000000000000000000000000000000000000000000081526004810184905273ffffffffffffffffffffffffffffffffffffffff90911690631003e2d290602401600060405180830381600087803b15801561150f57600080fd5b505af1158015611523573d6000803e3d6000fd5b505060045460008581526001602052604090819020905173ffffffffffffffffffffffffffffffffffffffff9092169350636526db7a925061156491612200565b60405190819003812060e083901b7fffffffff00000000000000000000000000000000000000000000000000000000168252600482015260248101859052604401600060405180830381600087803b1580156115bf57600080fd5b505af11580156115d3573d6000803e3d6000fd5b505060048054845160208601206040517f771602f7000000000000000000000000000000000000000000000000000000008152928301526024820186905273ffffffffffffffffffffffffffffffffffffffff16925063771602f79150604401600060405180830381600087803b15801561164d57600080fd5b505af1158015611661573d6000803e3d6000fd5b5050505061166f82826117b1565b60005b600554811015611735576005818154811061168f5761168f6120b4565b6000918252602090912001546040517f0216b83800000000000000000000000000000000000000000000000000000000815273ffffffffffffffffffffffffffffffffffffffff90911690630216b838906116f0908690869060040161230c565b600060405180830381600087803b15801561170a57600080fd5b505af115801561171e573d6000803e3d6000fd5b50505050808061172d906122ad565b915050611672565b505050565b61049981611858565b600081815260016020526040812061175a91611904565b6000546040517f0de3b7b50000000000000000000000000000000000000000000000000000000081526004810183905273ffffffffffffffffffffffffffffffffffffffff90911690630de3b7b590602401610df5565b60008281526001602052604090206117c9828261236b565b506000546040517fcfd3c57f00000000000000000000000000000000000000000000000000000000815273ffffffffffffffffffffffffffffffffffffffff9091169063cfd3c57f90611822908590859060040161230c565b600060405180830381600087803b15801561183c57600080fd5b505af1158015611850573d6000803e3d6000fd5b505050505050565b7f8a22373512790c48b83a1fe2efdd2888d4a917bcdc24d0adf63e60f671680460805460405173ffffffffffffffffffffffffffffffffffffffff8481169216907f8be0079c531659141344cd1fd0a4f28419497f9722a3daafe3b4186f6b6457e090600090a380547fffffffffffffffffffffffff00000000000000000000000000000000000000001673ffffffffffffffffffffffffffffffffffffffff92909216919091179055565b50805461191090612191565b6000825580601f10611920575050565b601f01602090049060005260206000209081019061049991905b8082111561194e576000815560010161193a565b5090565b60006020828403121561196457600080fd5b5035919050565b7f4e487b7100000000000000000000000000000000000000000000000000000000600052602160045260246000fd5b600381106119aa576119aa61196b565b9052565b6000610120820190508251825263ffffffff602084015116602083015261ffff604084015116604083015260608301516119ee606084018261ffff169052565b506080830151608083015260a0830151611a0e60a084018261ffff169052565b5060c0830151611a2460c084018261ffff169052565b5060e0830151611a3960e084018260ff169052565b5061010080840151611a4d8285018261199a565b505092915050565b6020808252825182820181905260009190848201906040850190845b81811015611a8d57835183529284019291840191600101611a71565b50909695505050505050565b600060208284031215611aab57600080fd5b813573ffffffffffffffffffffffffffffffffffffffff8116811461038f57600080fd5b6000815180845260005b81811015611af557602081850181015186830182015201611ad9565b5060006020828601015260207fffffffffffffffffffffffffffffffffffffffffffffffffffffffffffffffe0601f83011685010191505092915050565b6000604082016040835280855180835260608501915060608160051b8601019250602080880160005b83811015611ba8577fffffffffffffffffffffffffffffffffffffffffffffffffffffffffffffffa0888703018552611b96868351611acf565b95509382019390820190600101611b5c565b50508584038187015286518085528782019482019350915060005b82811015611bef57845160228110611bdd57611bdd61196b565b84529381019392810192600101611bc3565b5091979650505050505050565b7f4e487b7100000000000000000000000000000000000000000000000000000000600052604160045260246000fd5b604051610120810167ffffffffffffffff81118282101715611c4f57611c4f611bfc565b60405290565b604051601f82017fffffffffffffffffffffffffffffffffffffffffffffffffffffffffffffffe016810167ffffffffffffffff81118282101715611c9c57611c9c611bfc565b604052919050565b600082601f830112611cb557600080fd5b813567ffffffffffffffff811115611ccf57611ccf611bfc565b611d0060207fffffffffffffffffffffffffffffffffffffffffffffffffffffffffffffffe0601f84011601611c55565b818152846020838601011115611d1557600080fd5b816020850160208301376000918101602001919091529392505050565b60008060408385031215611d4557600080fd5b82359150602083013567ffffffffffffffff811115611d6357600080fd5b611d6f85828601611ca4565b9150509250929050565b60006101208284031215611d8c57600080fd5b50919050565b600060208284031215611da457600080fd5b813567ffffffffffffffff811115611dbb57600080fd5b611dc784828501611ca4565b949350505050565b60208152600061038f6020830184611acf565b63ffffffff8116811461049957600080fd5b8035611dff81611de2565b919050565b61ffff8116811461049957600080fd5b8035611dff81611e04565b60ff8116811461049957600080fd5b8035611dff81611e1f565b6003811061049957600080fd5b8035611dff81611e39565b600080828403610140811215611e6657600080fd5b83359250610120807fffffffffffffffffffffffffffffffffffffffffffffffffffffffffffffffe083011215611e9c57600080fd5b611ea4611c2b565b915060208501358252611eb960408601611df4565b6020830152611eca60608601611e14565b6040830152611edb60808601611e14565b606083015260a08501356080830152611ef660c08601611e14565b60a0830152611f0760e08601611e14565b60c0830152610100611f1a818701611e2e565b60e0840152611f2a828701611e46565b9083015250919491935090915050565b8051611dff81611de2565b8051611dff81611e04565b8051611dff81611e1f565b8051611dff81611e39565b60006101208284031215611f7957600080fd5b611f81611c2b565b82518152611f9160208401611f3a565b6020820152611fa260408401611f45565b6040820152611fb360608401611f45565b606082015260808301516080820152611fce60a08401611f45565b60a0820152611fdf60c08401611f45565b60c0820152611ff060e08401611f50565b60e0820152610100612003818501611f5b565b908201529392505050565b6000602080838503121561202157600080fd5b825167ffffffffffffffff8082111561203957600080fd5b818501915085601f83011261204d57600080fd5b81518181111561205f5761205f611bfc565b8060051b9150612070848301611c55565b818152918301840191848101908884111561208a57600080fd5b938501935b838510156120a85784518252938501939085019061208f565b98975050505050505050565b7f4e487b7100000000000000000000000000000000000000000000000000000000600052603260045260246000fd5b81358152610120810160208301356120fa81611de2565b63ffffffff16602083015261211160408401611e14565b61ffff16604083015261212660608401611e14565b61ffff1660608301526080838101359083015261214560a08401611e14565b61ffff1660a083015261215a60c08401611e14565b61ffff1660c083015261216f60e08401611e2e565b60ff1660e0830152610100612185848201611e46565b611a4d8285018261199a565b600181811c908216806121a557607f821691505b602082108103611d8c577f4e487b7100000000000000000000000000000000000000000000000000000000600052602260045260246000fd5b6000602082840312156121f057600080fd5b8151801515811461038f57600080fd5b600080835461220e81612191565b60018281168015612226576001811461225957612288565b7fffffffffffffffffffffffffffffffffffffffffffffffffffffffffffffff0084168752821515830287019450612288565b8760005260208060002060005b8581101561227f5781548a820152908401908201612266565b50505082870194505b50929695505050505050565b6000602082840312156122a657600080fd5b5051919050565b60007fffffffffffffffffffffffffffffffffffffffffffffffffffffffffffffffff8203612305577f4e487b7100000000000000000000000000000000000000000000000000000000600052601160045260246000fd5b5060010190565b828152604060208201526000611dc76040830184611acf565b601f82111561173557600081815260208120601f850160051c8101602086101561234c5750805b601f850160051c820191505b8181101561185057828155600101612358565b815167ffffffffffffffff81111561238557612385611bfc565b612399816123938454612191565b84612325565b602080601f8311600181146123ec57600084156123b65750858301515b7fffffffffffffffffffffffffffffffffffffffffffffffffffffffffffffffff600386901b1c1916600185901b178555611850565b6000858152602081207fffffffffffffffffffffffffffffffffffffffffffffffffffffffffffffffe08616915b828110156124395788860151825594840194600190910190840161241a565b508582101561247557878501517fffffffffffffffffffffffffffffffffffffffffffffffffffffffffffffffff600388901b60f8161c191681555b5050505050600190811b0190555056fea2646970667358221220b21d2616ea4f743061b4bf7bb731d84dfe9b0520bd1ca1219c21aa79e8b1032164736f6c63430008110033608060405234801561001057600080fd5b5061001a3361001f565b6100b4565b600061003361009060201b6105431760201c565b80546040519192506001600160a01b03808516929116907f8be0079c531659141344cd1fd0a4f28419497f9722a3daafe3b4186f6b6457e090600090a380546001600160a01b0319166001600160a01b0392909216919091179055565b7f8a22373512790c48b83a1fe2efdd2888d4a917bcdc24d0adf63e60f67168046090565b610789806100c36000396000f3fe608060405234801561001057600080fd5b50600436106100885760003560e01c80638e7cb6e11161005b5780638e7cb6e114610100578063949d225d1461012a578063cccf7a8e1461013b578063f2fde38b1461015e57600080fd5b80631003e2d21461008d578063410d59cc146100a25780634cc82215146100c05780638da5cb5b146100d3575b600080fd5b6100a061009b36600461061b565b610171565b005b6100aa610233565b6040516100b79190610634565b60405180910390f35b6100a06100ce36600461061b565b61028b565b6100db6103ef565b60405173ffffffffffffffffffffffffffffffffffffffff90911681526020016100b7565b61011361010e36600461061b565b610434565b6040805192151583526020830191909152016100b7565b6000546040519081526020016100b7565b61014e61014936600461061b565b610467565b60405190151581526020016100b7565b6100a061016c366004610678565b6104ca565b7f8a22373512790c48b83a1fe2efdd2888d4a917bcdc24d0adf63e60f6716804605473ffffffffffffffffffffffffffffffffffffffff1633146101e1576040517f2f7a8ee100000000000000000000000000000000000000000000000000000000815260040160405180910390fd5b6101ea81610467565b61023057600080548282526001602081905260408320829055810182559080527f290decd9548b62a8d60345a988386fc84ba6bc95484008f6362f93160ef3e563018190555b50565b6060600080548060200260200160405190810160405280929190818152602001828054801561028157602002820191906000526020600020905b81548152602001906001019080831161026d575b5050505050905090565b7f8a22373512790c48b83a1fe2efdd2888d4a917bcdc24d0adf63e60f6716804605473ffffffffffffffffffffffffffffffffffffffff1633146102fb576040517f2f7a8ee100000000000000000000000000000000000000000000000000000000815260040160405180910390fd5b61030481610467565b156102305760008054610319906001906106b5565b81548110610329576103296106f5565b9060005260206000200154600060016000848152602001908152602001600020548154811061035a5761035a6106f5565b60009182526020808320909101929092558281526001918290526040812054815490929190819084908110610391576103916106f5565b9060005260206000200154815260200190815260200160002081905550600160008281526020019081526020016000206000905560008054806103d6576103d6610724565b6001900381819060005260206000200160009055905550565b600061042f7f8a22373512790c48b83a1fe2efdd2888d4a917bcdc24d0adf63e60f6716804605473ffffffffffffffffffffffffffffffffffffffff1690565b905090565b60008061044083610467565b61044f57506000928392509050565b50506000908152600160208190526040909120549091565b60008054810361047957506000919050565b60008281526001602052604081205490036104b55781600080815481106104a2576104a26106f5565b9060005260206000200154149050919050565b50600090815260016020526040902054151590565b7f8a22373512790c48b83a1fe2efdd2888d4a917bcdc24d0adf63e60f6716804605473ffffffffffffffffffffffffffffffffffffffff16331461053a576040517f2f7a8ee100000000000000000000000000000000000000000000000000000000815260040160405180910390fd5b61023081610567565b7f8a22373512790c48b83a1fe2efdd2888d4a917bcdc24d0adf63e60f67168046090565b7f8a22373512790c48b83a1fe2efdd2888d4a917bcdc24d0adf63e60f6716804608054604051610230928492909173ffffffffffffffffffffffffffffffffffffffff8085169216907f8be0079c531659141344cd1fd0a4f28419497f9722a3daafe3b4186f6b6457e090600090a380547fffffffffffffffffffffffff00000000000000000000000000000000000000001673ffffffffffffffffffffffffffffffffffffffff92909216919091179055565b60006020828403121561062d57600080fd5b5035919050565b6020808252825182820181905260009190848201906040850190845b8181101561066c57835183529284019291840191600101610650565b50909695505050505050565b60006020828403121561068a57600080fd5b813573ffffffffffffffffffffffffffffffffffffffff811681146106ae57600080fd5b9392505050565b818103818111156106ef577f4e487b7100000000000000000000000000000000000000000000000000000000600052601160045260246000fd5b92915050565b7f4e487b7100000000000000000000000000000000000000000000000000000000600052603260045260246000fd5b7f4e487b7100000000000000000000000000000000000000000000000000000000600052603160045260246000fdfea26469706673582212201850d9bea1b809c2828a4266940c69ee63f98e77eeae091bcb2ad728b6070bf764736f6c63430008110033608060405234801561001057600080fd5b5061001a3361001f565b6100b4565b600061003361009060201b6105691760201c565b80546040519192506001600160a01b03808516929116907f8be0079c531659141344cd1fd0a4f28419497f9722a3daafe3b4186f6b6457e090600090a380546001600160a01b0319166001600160a01b0392909216919091179055565b7f8a22373512790c48b83a1fe2efdd2888d4a917bcdc24d0adf63e60f67168046090565b6107cb806100c36000396000f3fe608060405234801561001057600080fd5b506004361061007d5760003560e01c806385edea131161005b57806385edea13146100d35780638da5cb5b14610101578063a0265ff81461012e578063f2fde38b1461015157600080fd5b80636526db7a14610082578063771602f714610097578063796c5e94146100aa575b600080fd5b610095610090366004610641565b610164565b005b6100956100a5366004610641565b610301565b6100bd6100b8366004610663565b6103b5565b6040516100ca919061067c565b60405180910390f35b6100f36100e1366004610663565b60009081526020819052604090205490565b6040519081526020016100ca565b610109610415565b60405173ffffffffffffffffffffffffffffffffffffffff90911681526020016100ca565b61014161013c366004610641565b61045a565b60405190151581526020016100ca565b61009561015f3660046106c0565b6104ed565b7f8a22373512790c48b83a1fe2efdd2888d4a917bcdc24d0adf63e60f6716804605473ffffffffffffffffffffffffffffffffffffffff1633146101d4576040517f2f7a8ee100000000000000000000000000000000000000000000000000000000815260040160405180910390fd5b6101de828261045a565b156102fd57600082815260208190526040902080546101ff906001906106fd565b8154811061020f5761020f610737565b6000918252602080832090910154848352828252604080842060018452818520868652909352909220548154811061024957610249610737565b60009182526020808320909101929092558381526001825260408082208483528084528183205486845283855291832085845293819052835491939092918490811061029757610297610737565b600091825260208083209091015483528281019390935260409182018120939093558483526001825280832084845282528083208390558483529082905290208054806102e6576102e6610766565b600190038181906000526020600020016000905590555b5050565b7f8a22373512790c48b83a1fe2efdd2888d4a917bcdc24d0adf63e60f6716804605473ffffffffffffffffffffffffffffffffffffffff163314610371576040517f2f7a8ee100000000000000000000000000000000000000000000000000000000815260040160405180910390fd5b61037b828261045a565b6102fd5760009182526020828152604080842080546001808552838720868852855292862081905585845291820181558452922090910155565b6000818152602081815260409182902080548351818402810184019094528084526060939283018282801561040957602002820191906000526020600020905b8154815260200190600101908083116103f5575b50505050509050919050565b60006104557f8a22373512790c48b83a1fe2efdd2888d4a917bcdc24d0adf63e60f6716804605473ffffffffffffffffffffffffffffffffffffffff1690565b905090565b6000828152602081905260408120548103610477575060006104e7565b600083815260016020908152604080832085845290915281205490036104c957600083815260208190526040812080548492906104b6576104b6610737565b90600052602060002001541490506104e7565b50600082815260016020908152604080832084845290915290205415155b92915050565b7f8a22373512790c48b83a1fe2efdd2888d4a917bcdc24d0adf63e60f6716804605473ffffffffffffffffffffffffffffffffffffffff16331461055d576040517f2f7a8ee100000000000000000000000000000000000000000000000000000000815260040160405180910390fd5b6105668161058d565b50565b7f8a22373512790c48b83a1fe2efdd2888d4a917bcdc24d0adf63e60f67168046090565b7f8a22373512790c48b83a1fe2efdd2888d4a917bcdc24d0adf63e60f6716804608054604051610566928492909173ffffffffffffffffffffffffffffffffffffffff8085169216907f8be0079c531659141344cd1fd0a4f28419497f9722a3daafe3b4186f6b6457e090600090a380547fffffffffffffffffffffffff00000000000000000000000000000000000000001673ffffffffffffffffffffffffffffffffffffffff92909216919091179055565b6000806040838503121561065457600080fd5b50508035926020909101359150565b60006020828403121561067557600080fd5b5035919050565b6020808252825182820181905260009190848201906040850190845b818110156106b457835183529284019291840191600101610698565b50909695505050505050565b6000602082840312156106d257600080fd5b813573ffffffffffffffffffffffffffffffffffffffff811681146106f657600080fd5b9392505050565b818103818111156104e7577f4e487b7100000000000000000000000000000000000000000000000000000000600052601160045260246000fd5b7f4e487b7100000000000000000000000000000000000000000000000000000000600052603260045260246000fd5b7f4e487b7100000000000000000000000000000000000000000000000000000000600052603160045260246000fdfea264697066735822122090f3f9f2e011f3f621507fc3665411a38b9df3823ae104df4e507a163cd27c4364736f6c63430008110033",
    "linkReferences": {}
  },
  "methodIdentifiers": {
    "authorizeWriter(address)": "4fef6a38",
    "getEntities()": "31b933b9",
    "getEntitiesWithValue((uint256,uint32,uint16,uint16,int256,uint16,uint16,uint8,uint8))": "9f48e319",
    "getEntitiesWithValue(bytes)": "b361be46",
    "getRawValue(uint256)": "b8bc073d",
    "getSchema()": "6b122fe0",
    "getValue(uint256)": "0ff4c916",
    "has(uint256)": "cccf7a8e",
    "id()": "af640d0f",
    "owner()": "8da5cb5b",
    "registerIndexer(address)": "75c0669c",
    "registerWorld(address)": "9d2c76b4",
    "remove(uint256)": "4cc82215",
    "set(uint256,(uint256,uint32,uint16,uint16,int256,uint16,uint16,uint8,uint8))": "f6fa94db",
    "set(uint256,bytes)": "8b282947",
    "transferOwnership(address)": "f2fde38b",
    "unauthorizeWriter(address)": "bf4fe57e",
    "world()": "30b67baa",
    "writeAccess(address)": "861eb905"
  },
  "id": 56
}