{
  "abi": [
    {
      "inputs": [
        {
          "internalType": "address",
          "name": "world",
          "type": "address"
        }
      ],
      "stateMutability": "nonpayable",
      "type": "constructor"
    },
    {
      "inputs": [],
      "name": "BareComponent__NotImplemented",
      "type": "error"
    },
    {
      "anonymous": false,
      "inputs": [
        {
          "indexed": true,
          "internalType": "address",
          "name": "previousOwner",
          "type": "address"
        },
        {
          "indexed": true,
          "internalType": "address",
          "name": "newOwner",
          "type": "address"
        }
      ],
      "name": "OwnershipTransferred",
      "type": "event"
    },
    {
      "inputs": [
        {
          "internalType": "address",
          "name": "writer",
          "type": "address"
        }
      ],
      "name": "authorizeWriter",
      "outputs": [],
      "stateMutability": "nonpayable",
      "type": "function"
    },
    {
      "inputs": [],
      "name": "getEntities",
      "outputs": [
        {
          "internalType": "uint256[]",
          "name": "",
          "type": "uint256[]"
        }
      ],
      "stateMutability": "view",
      "type": "function"
    },
    {
      "inputs": [
        {
          "components": [
            {
              "internalType": "uint256",
              "name": "startTime",
              "type": "uint256"
            },
            {
              "internalType": "enum BRGameStatus",
              "name": "status",
              "type": "uint8"
            }
          ],
          "internalType": "struct BRGame",
          "name": "value",
          "type": "tuple"
        }
      ],
      "name": "getEntitiesWithValue",
      "outputs": [
        {
          "internalType": "uint256[]",
          "name": "",
          "type": "uint256[]"
        }
      ],
      "stateMutability": "view",
      "type": "function"
    },
    {
      "inputs": [
        {
          "internalType": "bytes",
          "name": "value",
          "type": "bytes"
        }
      ],
      "name": "getEntitiesWithValue",
      "outputs": [
        {
          "internalType": "uint256[]",
          "name": "",
          "type": "uint256[]"
        }
      ],
      "stateMutability": "view",
      "type": "function"
    },
    {
      "inputs": [
        {
          "internalType": "uint256",
          "name": "entity",
          "type": "uint256"
        }
      ],
      "name": "getRawValue",
      "outputs": [
        {
          "internalType": "bytes",
          "name": "",
          "type": "bytes"
        }
      ],
      "stateMutability": "view",
      "type": "function"
    },
    {
      "inputs": [],
      "name": "getSchema",
      "outputs": [
        {
          "internalType": "string[]",
          "name": "keys",
          "type": "string[]"
        },
        {
          "internalType": "enum LibTypes.SchemaValue[]",
          "name": "values",
          "type": "uint8[]"
        }
      ],
      "stateMutability": "pure",
      "type": "function"
    },
    {
      "inputs": [
        {
          "internalType": "uint256",
          "name": "entity",
          "type": "uint256"
        }
      ],
      "name": "getValue",
      "outputs": [
        {
          "components": [
            {
              "internalType": "uint256",
              "name": "startTime",
              "type": "uint256"
            },
            {
              "internalType": "enum BRGameStatus",
              "name": "status",
              "type": "uint8"
            }
          ],
          "internalType": "struct BRGame",
          "name": "",
          "type": "tuple"
        }
      ],
      "stateMutability": "view",
      "type": "function"
    },
    {
      "inputs": [
        {
          "internalType": "uint256",
          "name": "entity",
          "type": "uint256"
        }
      ],
      "name": "has",
      "outputs": [
        {
          "internalType": "bool",
          "name": "",
          "type": "bool"
        }
      ],
      "stateMutability": "view",
      "type": "function"
    },
    {
      "inputs": [],
      "name": "id",
      "outputs": [
        {
          "internalType": "uint256",
          "name": "",
          "type": "uint256"
        }
      ],
      "stateMutability": "view",
      "type": "function"
    },
    {
      "inputs": [],
      "name": "owner",
      "outputs": [
        {
          "internalType": "address",
          "name": "",
          "type": "address"
        }
      ],
      "stateMutability": "view",
      "type": "function"
    },
    {
      "inputs": [
        {
          "internalType": "address",
          "name": "indexer",
          "type": "address"
        }
      ],
      "name": "registerIndexer",
      "outputs": [],
      "stateMutability": "nonpayable",
      "type": "function"
    },
    {
      "inputs": [
        {
          "internalType": "address",
          "name": "_world",
          "type": "address"
        }
      ],
      "name": "registerWorld",
      "outputs": [],
      "stateMutability": "nonpayable",
      "type": "function"
    },
    {
      "inputs": [
        {
          "internalType": "uint256",
          "name": "entity",
          "type": "uint256"
        }
      ],
      "name": "remove",
      "outputs": [],
      "stateMutability": "nonpayable",
      "type": "function"
    },
    {
      "inputs": [
        {
          "internalType": "uint256",
          "name": "entity",
          "type": "uint256"
        },
        {
          "internalType": "bytes",
          "name": "value",
          "type": "bytes"
        }
      ],
      "name": "set",
      "outputs": [],
      "stateMutability": "nonpayable",
      "type": "function"
    },
    {
      "inputs": [
        {
          "internalType": "uint256",
          "name": "entity",
          "type": "uint256"
        },
        {
          "components": [
            {
              "internalType": "uint256",
              "name": "startTime",
              "type": "uint256"
            },
            {
              "internalType": "enum BRGameStatus",
              "name": "status",
              "type": "uint8"
            }
          ],
          "internalType": "struct BRGame",
          "name": "value",
          "type": "tuple"
        }
      ],
      "name": "set",
      "outputs": [],
      "stateMutability": "nonpayable",
      "type": "function"
    },
    {
      "inputs": [
        {
          "internalType": "address",
          "name": "newOwner",
          "type": "address"
        }
      ],
      "name": "transferOwnership",
      "outputs": [],
      "stateMutability": "nonpayable",
      "type": "function"
    },
    {
      "inputs": [
        {
          "internalType": "address",
          "name": "writer",
          "type": "address"
        }
      ],
      "name": "unauthorizeWriter",
      "outputs": [],
      "stateMutability": "nonpayable",
      "type": "function"
    },
    {
      "inputs": [],
      "name": "world",
      "outputs": [
        {
          "internalType": "address",
          "name": "",
          "type": "address"
        }
      ],
      "stateMutability": "view",
      "type": "function"
    },
    {
      "inputs": [
        {
          "internalType": "address",
          "name": "",
          "type": "address"
        }
      ],
      "name": "writeAccess",
      "outputs": [
        {
          "internalType": "bool",
          "name": "",
          "type": "bool"
        }
      ],
      "stateMutability": "view",
      "type": "function"
    }
  ],
  "bytecode": {
    "object": "0x60806040523480156200001157600080fd5b5060405162002c2738038062002c2783398101604081905262000034916200022e565b600180546001600160a01b0319163390811782556000908152600260205260409020805460ff191690911790557f4c5443efce5b9ecc79a1896dd0de307031c10094a3b3fc9a5d2b086c5b792de06004819055819081816001600160a01b03821615620000a657620000a6826200014a565b5050604051620000b69062000212565b604051809103906000f080158015620000d3573d6000803e3d6000fd5b50600580546001600160a01b0319166001600160a01b0392909216919091179055604051620001029062000220565b604051809103906000f0801580156200011f573d6000803e3d6000fd5b50600680546001600160a01b0319166001600160a01b03929092169190911790555062000260915050565b6001546001600160a01b03163314620001965760405162461bcd60e51b815260206004820152600a60248201526927a7262cafa7aba722a960b11b604482015260640160405180910390fd5b600080546001600160a01b0319166001600160a01b03831690811790915560048054604051630f30347760e41b81523092810192909252602482015263f303477090604401600060405180830381600087803b158015620001f657600080fd5b505af11580156200020b573d6000803e3d6000fd5b5050505050565b6105bb806200206a83390190565b610602806200262583390190565b6000602082840312156200024157600080fd5b81516001600160a01b03811681146200025957600080fd5b9392505050565b611dfa80620002706000396000f3fe608060405234801561001057600080fd5b50600436106101515760003560e01c80638da5cb5b116100cd578063b8bc073d11610081578063cccf7a8e11610066578063cccf7a8e14610311578063d54e627f14610324578063f2fde38b1461033757600080fd5b8063b8bc073d146102de578063bf4fe57e146102fe57600080fd5b8063af640d0f116100b2578063af640d0f146102a1578063b025a3fb146102b8578063b361be46146102cb57600080fd5b80638da5cb5b146102705780639d2c76b41461028e57600080fd5b80634fef6a381161012457806375c0669c1161010957806375c0669c14610217578063861eb9051461022a5780638b2829471461025d57600080fd5b80634fef6a38146101ee5780636b122fe01461020157600080fd5b80630ff4c9161461015657806330b67baa1461017f57806331b933b9146101c45780634cc82215146101d9575b600080fd5b610169610164366004611501565b61034a565b604051610176919061155d565b60405180910390f35b60005461019f9073ffffffffffffffffffffffffffffffffffffffff1681565b60405173ffffffffffffffffffffffffffffffffffffffff9091168152602001610176565b6101cc610383565b604051610176919061157f565b6101ec6101e7366004611501565b61043e565b005b6101ec6101fc3660046115c3565b6104c8565b610209610598565b60405161017692919061165d565b6101ec6102253660046115c3565b61071d565b61024d6102383660046115c3565b60026020526000908152604090205460ff1681565b6040519015158152602001610176565b6101ec61026b366004611832565b61080d565b60015473ffffffffffffffffffffffffffffffffffffffff1661019f565b6101ec61029c3660046115c3565b610894565b6102aa60045481565b604051908152602001610176565b6101cc6102c6366004611879565b6109ce565b6101cc6102d9366004611891565b6109fe565b6102f16102ec366004611501565b610abc565b60405161017691906118ce565b6101ec61030c3660046115c3565b610b5e565b61024d61031f366004611501565b610c2b565b6101ec6103323660046118ee565b610cbf565b6101ec6103453660046115c3565b610ce8565b6040805180820190915260008082526020820152600061036983610abc565b80602001905181019061037c9190611982565b9392505050565b600554604080517f410d59cc000000000000000000000000000000000000000000000000000000008152905160609273ffffffffffffffffffffffffffffffffffffffff169163410d59cc9160048083019260009291908290030181865afa1580156103f3573d6000803e3d6000fd5b505050506040513d6000823e601f3d9081017fffffffffffffffffffffffffffffffffffffffffffffffffffffffffffffffe016820160405261043991908101906119d8565b905090565b3360009081526002602052604090205460ff166104bc576040517f08c379a000000000000000000000000000000000000000000000000000000000815260206004820152600b60248201527f4f4e4c595f57524954455200000000000000000000000000000000000000000060448201526064015b60405180910390fd5b6104c581610e3e565b50565b60015473ffffffffffffffffffffffffffffffffffffffff163314610549576040517f08c379a000000000000000000000000000000000000000000000000000000000815260206004820152600a60248201527f4f4e4c595f4f574e45520000000000000000000000000000000000000000000060448201526064016104b3565b73ffffffffffffffffffffffffffffffffffffffff16600090815260026020526040902080547fffffffffffffffffffffffffffffffffffffffffffffffffffffffffffffff00166001179055565b6040805160028082526060828101909352829190816020015b60608152602001906001900390816105b157505060408051600280825260608201835292945091906020830190803683370190505090506040518060400160405280600981526020017f737461727454696d6500000000000000000000000000000000000000000000008152508260008151811061063157610631611a7e565b6020026020010181905250600d8160008151811061065157610651611a7e565b6020026020010190602181111561066a5761066a61151a565b9081602181111561067d5761067d61151a565b815250506040518060400160405280600681526020017f7374617475730000000000000000000000000000000000000000000000000000815250826001815181106106ca576106ca611a7e565b60200260200101819052506008816001815181106106ea576106ea611a7e565b602002602001019060218111156107035761070361151a565b908160218111156107165761071661151a565b9052509091565b3360009081526002602052604090205460ff16610796576040517f08c379a000000000000000000000000000000000000000000000000000000000815260206004820152600b60248201527f4f4e4c595f57524954455200000000000000000000000000000000000000000060448201526064016104b3565b600780546001810182556000919091527fa66cc928b5edb82af9bd49922954155ab7b0942694bea4ce44661d9a8736c6880180547fffffffffffffffffffffffff00000000000000000000000000000000000000001673ffffffffffffffffffffffffffffffffffffffff92909216919091179055565b3360009081526002602052604090205460ff16610886576040517f08c379a000000000000000000000000000000000000000000000000000000000815260206004820152600b60248201527f4f4e4c595f57524954455200000000000000000000000000000000000000000060448201526064016104b3565b61089082826110fd565b5050565b60015473ffffffffffffffffffffffffffffffffffffffff163314610915576040517f08c379a000000000000000000000000000000000000000000000000000000000815260206004820152600a60248201527f4f4e4c595f4f574e45520000000000000000000000000000000000000000000060448201526064016104b3565b600080547fffffffffffffffffffffffff00000000000000000000000000000000000000001673ffffffffffffffffffffffffffffffffffffffff8316908117909155600480546040517ff30347700000000000000000000000000000000000000000000000000000000081523092810192909252602482015263f3034770906044015b600060405180830381600087803b1580156109b357600080fd5b505af11580156109c7573d6000803e3d6000fd5b5050505050565b60606109f8826040516020016109e49190611aad565b6040516020818303038152906040526109fe565b92915050565b600654815160208301206040517f796c5e94000000000000000000000000000000000000000000000000000000008152600481019190915260609173ffffffffffffffffffffffffffffffffffffffff169063796c5e9490602401600060405180830381865afa158015610a76573d6000803e3d6000fd5b505050506040513d6000823e601f3d9081017fffffffffffffffffffffffffffffffffffffffffffffffffffffffffffffffe01682016040526109f891908101906119d8565b6000818152600360205260409020805460609190610ad990611ad0565b80601f0160208091040260200160405190810160405280929190818152602001828054610b0590611ad0565b8015610b525780601f10610b2757610100808354040283529160200191610b52565b820191906000526020600020905b815481529060010190602001808311610b3557829003601f168201915b50505050509050919050565b60015473ffffffffffffffffffffffffffffffffffffffff163314610bdf576040517f08c379a000000000000000000000000000000000000000000000000000000000815260206004820152600a60248201527f4f4e4c595f4f574e45520000000000000000000000000000000000000000000060448201526064016104b3565b73ffffffffffffffffffffffffffffffffffffffff16600090815260026020526040902080547fffffffffffffffffffffffffffffffffffffffffffffffffffffffffffffff00169055565b6005546040517fcccf7a8e0000000000000000000000000000000000000000000000000000000081526004810183905260009173ffffffffffffffffffffffffffffffffffffffff169063cccf7a8e90602401602060405180830381865afa158015610c9b573d6000803e3d6000fd5b505050506040513d601f19601f820116820180604052508101906109f89190611b1d565b6108908282604051602001610cd4919061155d565b60405160208183030381529060405261080d565b60015473ffffffffffffffffffffffffffffffffffffffff163314610d69576040517f08c379a000000000000000000000000000000000000000000000000000000000815260206004820152600a60248201527f4f4e4c595f4f574e45520000000000000000000000000000000000000000000060448201526064016104b3565b60015460405173ffffffffffffffffffffffffffffffffffffffff8084169216907f8be0079c531659141344cd1fd0a4f28419497f9722a3daafe3b4186f6b6457e090600090a33360009081526002602052604080822080547fffffffffffffffffffffffffffffffffffffffffffffffffffffffffffffff00908116909155600180547fffffffffffffffffffffffff00000000000000000000000000000000000000001673ffffffffffffffffffffffffffffffffffffffff959095169485178155938352912080549091169091179055565b60065460008281526003602052604090819020905173ffffffffffffffffffffffffffffffffffffffff909216916385edea1391610e7b91611b3f565b60405190819003812060e083901b7fffffffff000000000000000000000000000000000000000000000000000000001682526004820152602401602060405180830381865afa158015610ed2573d6000803e3d6000fd5b505050506040513d601f19601f82011682018060405250810190610ef69190611bd3565b600003610f005750565b60065460008281526003602052604090819020905173ffffffffffffffffffffffffffffffffffffffff90921691636526db7a91610f3d91611b3f565b60405190819003812060e083901b7fffffffff00000000000000000000000000000000000000000000000000000000168252600482015260248101849052604401600060405180830381600087803b158015610f9857600080fd5b505af1158015610fac573d6000803e3d6000fd5b50506005546040517f4cc822150000000000000000000000000000000000000000000000000000000081526004810185905273ffffffffffffffffffffffffffffffffffffffff9091169250634cc822159150602401600060405180830381600087803b15801561101c57600080fd5b505af1158015611030573d6000803e3d6000fd5b5050505061103d8161139e565b60005b600754811015610890576007818154811061105d5761105d611a7e565b6000918252602090912001546040517f4cc822150000000000000000000000000000000000000000000000000000000081526004810184905273ffffffffffffffffffffffffffffffffffffffff90911690634cc8221590602401600060405180830381600087803b1580156110d257600080fd5b505af11580156110e6573d6000803e3d6000fd5b5050505080806110f590611bec565b915050611040565b6005546040517f1003e2d20000000000000000000000000000000000000000000000000000000081526004810184905273ffffffffffffffffffffffffffffffffffffffff90911690631003e2d290602401600060405180830381600087803b15801561116957600080fd5b505af115801561117d573d6000803e3d6000fd5b505060065460008581526003602052604090819020905173ffffffffffffffffffffffffffffffffffffffff9092169350636526db7a92506111be91611b3f565b60405190819003812060e083901b7fffffffff00000000000000000000000000000000000000000000000000000000168252600482015260248101859052604401600060405180830381600087803b15801561121957600080fd5b505af115801561122d573d6000803e3d6000fd5b5050600654835160208501206040517f771602f700000000000000000000000000000000000000000000000000000000815273ffffffffffffffffffffffffffffffffffffffff909216935063771602f79250611297918690600401918252602082015260400190565b600060405180830381600087803b1580156112b157600080fd5b505af11580156112c5573d6000803e3d6000fd5b505050506112d3828261140c565b60005b60075481101561139957600781815481106112f3576112f3611a7e565b6000918252602090912001546040517f0216b83800000000000000000000000000000000000000000000000000000000815273ffffffffffffffffffffffffffffffffffffffff90911690630216b838906113549086908690600401611c4b565b600060405180830381600087803b15801561136e57600080fd5b505af1158015611382573d6000803e3d6000fd5b50505050808061139190611bec565b9150506112d6565b505050565b60008181526003602052604081206113b5916114b3565b6000546040517f0de3b7b50000000000000000000000000000000000000000000000000000000081526004810183905273ffffffffffffffffffffffffffffffffffffffff90911690630de3b7b590602401610999565b60008281526003602052604090206114248282611caa565b506000546040517fcfd3c57f00000000000000000000000000000000000000000000000000000000815273ffffffffffffffffffffffffffffffffffffffff9091169063cfd3c57f9061147d9085908590600401611c4b565b600060405180830381600087803b15801561149757600080fd5b505af11580156114ab573d6000803e3d6000fd5b505050505050565b5080546114bf90611ad0565b6000825580601f106114cf575050565b601f0160209004906000526020600020908101906104c591905b808211156114fd57600081556001016114e9565b5090565b60006020828403121561151357600080fd5b5035919050565b7f4e487b7100000000000000000000000000000000000000000000000000000000600052602160045260246000fd5b600381106115595761155961151a565b9052565b81518152602080830151604083019161157890840182611549565b5092915050565b6020808252825182820181905260009190848201906040850190845b818110156115b75783518352928401929184019160010161159b565b50909695505050505050565b6000602082840312156115d557600080fd5b813573ffffffffffffffffffffffffffffffffffffffff8116811461037c57600080fd5b6000815180845260005b8181101561161f57602081850181015186830182015201611603565b5060006020828601015260207fffffffffffffffffffffffffffffffffffffffffffffffffffffffffffffffe0601f83011685010191505092915050565b6000604082016040835280855180835260608501915060608160051b8601019250602080880160005b838110156116d2577fffffffffffffffffffffffffffffffffffffffffffffffffffffffffffffffa08887030185526116c08683516115f9565b95509382019390820190600101611686565b50508584038187015286518085528782019482019350915060005b82811015611719578451602281106117075761170761151a565b845293810193928101926001016116ed565b5091979650505050505050565b7f4e487b7100000000000000000000000000000000000000000000000000000000600052604160045260246000fd5b604051601f82017fffffffffffffffffffffffffffffffffffffffffffffffffffffffffffffffe016810167ffffffffffffffff8111828210171561179c5761179c611726565b604052919050565b600082601f8301126117b557600080fd5b813567ffffffffffffffff8111156117cf576117cf611726565b61180060207fffffffffffffffffffffffffffffffffffffffffffffffffffffffffffffffe0601f84011601611755565b81815284602083860101111561181557600080fd5b816020850160208301376000918101602001919091529392505050565b6000806040838503121561184557600080fd5b82359150602083013567ffffffffffffffff81111561186357600080fd5b61186f858286016117a4565b9150509250929050565b60006040828403121561188b57600080fd5b50919050565b6000602082840312156118a357600080fd5b813567ffffffffffffffff8111156118ba57600080fd5b6118c6848285016117a4565b949350505050565b60208152600061037c60208301846115f9565b600381106104c557600080fd5b600080828403606081121561190257600080fd5b8335925060407fffffffffffffffffffffffffffffffffffffffffffffffffffffffffffffffe08201121561193657600080fd5b506040516040810181811067ffffffffffffffff8211171561195a5761195a611726565b604090815260208501358252840135611972816118e1565b6020820152919491935090915050565b60006040828403121561199457600080fd5b6040516040810181811067ffffffffffffffff821117156119b7576119b7611726565b6040528251815260208301516119cc816118e1565b60208201529392505050565b600060208083850312156119eb57600080fd5b825167ffffffffffffffff80821115611a0357600080fd5b818501915085601f830112611a1757600080fd5b815181811115611a2957611a29611726565b8060051b9150611a3a848301611755565b8181529183018401918481019088841115611a5457600080fd5b938501935b83851015611a7257845182529385019390850190611a59565b98975050505050505050565b7f4e487b7100000000000000000000000000000000000000000000000000000000600052603260045260246000fd5b81358152604081016020830135611ac3816118e1565b6115786020840182611549565b600181811c90821680611ae457607f821691505b60208210810361188b577f4e487b7100000000000000000000000000000000000000000000000000000000600052602260045260246000fd5b600060208284031215611b2f57600080fd5b8151801515811461037c57600080fd5b6000808354611b4d81611ad0565b60018281168015611b655760018114611b9857611bc7565b7fffffffffffffffffffffffffffffffffffffffffffffffffffffffffffffff0084168752821515830287019450611bc7565b8760005260208060002060005b85811015611bbe5781548a820152908401908201611ba5565b50505082870194505b50929695505050505050565b600060208284031215611be557600080fd5b5051919050565b60007fffffffffffffffffffffffffffffffffffffffffffffffffffffffffffffffff8203611c44577f4e487b7100000000000000000000000000000000000000000000000000000000600052601160045260246000fd5b5060010190565b8281526040602082015260006118c660408301846115f9565b601f82111561139957600081815260208120601f850160051c81016020861015611c8b5750805b601f850160051c820191505b818110156114ab57828155600101611c97565b815167ffffffffffffffff811115611cc457611cc4611726565b611cd881611cd28454611ad0565b84611c64565b602080601f831160018114611d2b5760008415611cf55750858301515b7fffffffffffffffffffffffffffffffffffffffffffffffffffffffffffffffff600386901b1c1916600185901b1785556114ab565b6000858152602081207fffffffffffffffffffffffffffffffffffffffffffffffffffffffffffffffe08616915b82811015611d7857888601518255948401946001909101908401611d59565b5085821015611db457878501517fffffffffffffffffffffffffffffffffffffffffffffffffffffffffffffffff600388901b60f8161c191681555b5050505050600190811b0190555056fea26469706673582212203e7b57eb15141e5b15bfd625f2ff966501ddd7e03447662bc1adeff504fdaeed64736f6c63430008110033608060405234801561001057600080fd5b50600080546001600160a01b03191633179055610589806100326000396000f3fe608060405234801561001057600080fd5b50600436106100725760003560e01c80638e7cb6e1116100505780638e7cb6e1146100bd578063949d225d146100e7578063cccf7a8e146100f857600080fd5b80631003e2d214610077578063410d59cc1461008c5780634cc82215146100aa575b600080fd5b61008a610085366004610458565b61011b565b005b6100946101f5565b6040516100a19190610471565b60405180910390f35b61008a6100b8366004610458565b61024d565b6100d06100cb366004610458565b6103c1565b6040805192151583526020830191909152016100a1565b6001546040519081526020016100a1565b61010b610106366004610458565b6103f2565b60405190151581526020016100a1565b60005473ffffffffffffffffffffffffffffffffffffffff1633146101a1576040517f08c379a000000000000000000000000000000000000000000000000000000000815260206004820152600a60248201527f4f4e4c595f4f574e45520000000000000000000000000000000000000000000060448201526064015b60405180910390fd5b6101aa816103f2565b6101f2576001805460008381526002602052604081208290558183018355919091527fb10e2d527612073b26eecdfd717e6a320cf44b4afac2b0732d9fcbe2b7fa0cf6018190555b50565b6060600180548060200260200160405190810160405280929190818152602001828054801561024357602002820191906000526020600020905b81548152602001906001019080831161022f575b5050505050905090565b60005473ffffffffffffffffffffffffffffffffffffffff1633146102ce576040517f08c379a000000000000000000000000000000000000000000000000000000000815260206004820152600a60248201527f4f4e4c595f4f574e4552000000000000000000000000000000000000000000006044820152606401610198565b6102d7816103f2565b156101f257600180546102eb9082906104b5565b815481106102fb576102fb6104f5565b9060005260206000200154600160026000848152602001908152602001600020548154811061032c5761032c6104f5565b60009182526020808320909101929092558281526002918290526040812054600180549193929184908110610363576103636104f5565b9060005260206000200154815260200190815260200160002081905550600260008281526020019081526020016000206000905560018054806103a8576103a8610524565b6001900381819060005260206000200160009055905550565b6000806103cd836103f2565b6103dc57506000928392509050565b5050600090815260026020526040902054600191565b600154600090810361040657506000919050565b600082815260026020526040812054900361044357816001600081548110610430576104306104f5565b9060005260206000200154149050919050565b50600090815260026020526040902054151590565b60006020828403121561046a57600080fd5b5035919050565b6020808252825182820181905260009190848201906040850190845b818110156104a95783518352928401929184019160010161048d565b50909695505050505050565b818103818111156104ef577f4e487b7100000000000000000000000000000000000000000000000000000000600052601160045260246000fd5b92915050565b7f4e487b7100000000000000000000000000000000000000000000000000000000600052603260045260246000fd5b7f4e487b7100000000000000000000000000000000000000000000000000000000600052603160045260246000fdfea2646970667358221220b5b456212a11997ccd601470c77cc96a71f468957b5522e79a3a9c1efe5555c064736f6c63430008110033608060405234801561001057600080fd5b50600080546001600160a01b031916331790556105d0806100326000396000f3fe608060405234801561001057600080fd5b50600436106100675760003560e01c8063796c5e9411610050578063796c5e941461009457806385edea13146100bd578063a0265ff8146100eb57600080fd5b80636526db7a1461006c578063771602f714610081575b600080fd5b61007f61007a366004610483565b61010e565b005b61007f61008f366004610483565b6102c6565b6100a76100a23660046104a5565b61038e565b6040516100b491906104be565b60405180910390f35b6100dd6100cb3660046104a5565b60009081526001602052604090205490565b6040519081526020016100b4565b6100fe6100f9366004610483565b6103f0565b60405190151581526020016100b4565b60005473ffffffffffffffffffffffffffffffffffffffff163314610194576040517f08c379a000000000000000000000000000000000000000000000000000000000815260206004820152600a60248201527f4f4e4c595f4f574e45520000000000000000000000000000000000000000000060448201526064015b60405180910390fd5b61019e82826103f0565b156102c2576000828152600160208190526040909120805490916101c191610502565b815481106101d1576101d161053c565b600091825260208083209091015484835260018252604080842060028452818520868652909352909220548154811061020c5761020c61053c565b6000918252602080832090910192909255838152600282526040808220848352808452818320548684526001855291832085845293819052835491939092918490811061025b5761025b61053c565b60009182526020808320909101548352828101939093526040918201812093909355848352600282528083208484528252808320839055848352600190915290208054806102ab576102ab61056b565b600190038181906000526020600020016000905590555b5050565b60005473ffffffffffffffffffffffffffffffffffffffff163314610347576040517f08c379a000000000000000000000000000000000000000000000000000000000815260206004820152600a60248201527f4f4e4c595f4f574e455200000000000000000000000000000000000000000000604482015260640161018b565b61035182826103f0565b6102c25760009182526001602081815260408085208054600284528287208688528452918620829055838352928101835591845290922090910155565b6000818152600160209081526040918290208054835181840281018401909452808452606093928301828280156103e457602002820191906000526020600020905b8154815260200190600101908083116103d0575b50505050509050919050565b600082815260016020526040812054810361040d5750600061047d565b6000838152600260209081526040808320858452909152812054900361045f576000838152600160205260408120805484929061044c5761044c61053c565b906000526020600020015414905061047d565b50600082815260026020908152604080832084845290915290205415155b92915050565b6000806040838503121561049657600080fd5b50508035926020909101359150565b6000602082840312156104b757600080fd5b5035919050565b6020808252825182820181905260009190848201906040850190845b818110156104f6578351835292840192918401916001016104da565b50909695505050505050565b8181038181111561047d577f4e487b7100000000000000000000000000000000000000000000000000000000600052601160045260246000fd5b7f4e487b7100000000000000000000000000000000000000000000000000000000600052603260045260246000fd5b7f4e487b7100000000000000000000000000000000000000000000000000000000600052603160045260246000fdfea2646970667358221220684c9604d505135bc2456dd0f73243ed1e0045e69d943e1775bb4ed31337e5f264736f6c63430008110033",
    "linkReferences": {}
  },
  "methodIdentifiers": {
    "authorizeWriter(address)": "4fef6a38",
    "getEntities()": "31b933b9",
    "getEntitiesWithValue((uint256,uint8))": "b025a3fb",
    "getEntitiesWithValue(bytes)": "b361be46",
    "getRawValue(uint256)": "b8bc073d",
    "getSchema()": "6b122fe0",
    "getValue(uint256)": "0ff4c916",
    "has(uint256)": "cccf7a8e",
    "id()": "af640d0f",
    "owner()": "8da5cb5b",
    "registerIndexer(address)": "75c0669c",
    "registerWorld(address)": "9d2c76b4",
    "remove(uint256)": "4cc82215",
    "set(uint256,(uint256,uint8))": "d54e627f",
    "set(uint256,bytes)": "8b282947",
    "transferOwnership(address)": "f2fde38b",
    "unauthorizeWriter(address)": "bf4fe57e",
    "world()": "30b67baa",
    "writeAccess(address)": "861eb905"
  },
  "id": 37
}