{
  "abi": [
    {
      "inputs": [
        {
          "internalType": "address",
          "name": "world",
          "type": "address"
        }
      ],
      "stateMutability": "nonpayable",
      "type": "constructor"
    },
    {
      "inputs": [],
      "name": "BareComponent__NotImplemented",
      "type": "error"
    },
    {
      "anonymous": false,
      "inputs": [
        {
          "indexed": true,
          "internalType": "address",
          "name": "previousOwner",
          "type": "address"
        },
        {
          "indexed": true,
          "internalType": "address",
          "name": "newOwner",
          "type": "address"
        }
      ],
      "name": "OwnershipTransferred",
      "type": "event"
    },
    {
      "inputs": [
        {
          "internalType": "address",
          "name": "writer",
          "type": "address"
        }
      ],
      "name": "authorizeWriter",
      "outputs": [],
      "stateMutability": "nonpayable",
      "type": "function"
    },
    {
      "inputs": [],
      "name": "getEntities",
      "outputs": [
        {
          "internalType": "uint256[]",
          "name": "",
          "type": "uint256[]"
        }
      ],
      "stateMutability": "view",
      "type": "function"
    },
    {
      "inputs": [
        {
          "internalType": "bool",
          "name": "value",
          "type": "bool"
        }
      ],
      "name": "getEntitiesWithValue",
      "outputs": [
        {
          "internalType": "uint256[]",
          "name": "",
          "type": "uint256[]"
        }
      ],
      "stateMutability": "view",
      "type": "function"
    },
    {
      "inputs": [
        {
          "internalType": "bytes",
          "name": "value",
          "type": "bytes"
        }
      ],
      "name": "getEntitiesWithValue",
      "outputs": [
        {
          "internalType": "uint256[]",
          "name": "",
          "type": "uint256[]"
        }
      ],
      "stateMutability": "view",
      "type": "function"
    },
    {
      "inputs": [
        {
          "internalType": "uint256",
          "name": "entity",
          "type": "uint256"
        }
      ],
      "name": "getRawValue",
      "outputs": [
        {
          "internalType": "bytes",
          "name": "",
          "type": "bytes"
        }
      ],
      "stateMutability": "view",
      "type": "function"
    },
    {
      "inputs": [],
      "name": "getSchema",
      "outputs": [
        {
          "internalType": "string[]",
          "name": "keys",
          "type": "string[]"
        },
        {
          "internalType": "enum LibTypes.SchemaValue[]",
          "name": "values",
          "type": "uint8[]"
        }
      ],
      "stateMutability": "pure",
      "type": "function"
    },
    {
      "inputs": [
        {
          "internalType": "uint256",
          "name": "entity",
          "type": "uint256"
        }
      ],
      "name": "getValue",
      "outputs": [
        {
          "internalType": "bool",
          "name": "",
          "type": "bool"
        }
      ],
      "stateMutability": "view",
      "type": "function"
    },
    {
      "inputs": [
        {
          "internalType": "uint256",
          "name": "entity",
          "type": "uint256"
        }
      ],
      "name": "has",
      "outputs": [
        {
          "internalType": "bool",
          "name": "",
          "type": "bool"
        }
      ],
      "stateMutability": "view",
      "type": "function"
    },
    {
      "inputs": [],
      "name": "id",
      "outputs": [
        {
          "internalType": "uint256",
          "name": "",
          "type": "uint256"
        }
      ],
      "stateMutability": "view",
      "type": "function"
    },
    {
      "inputs": [],
      "name": "owner",
      "outputs": [
        {
          "internalType": "address",
          "name": "",
          "type": "address"
        }
      ],
      "stateMutability": "view",
      "type": "function"
    },
    {
      "inputs": [
        {
          "internalType": "address",
          "name": "indexer",
          "type": "address"
        }
      ],
      "name": "registerIndexer",
      "outputs": [],
      "stateMutability": "nonpayable",
      "type": "function"
    },
    {
      "inputs": [
        {
          "internalType": "address",
          "name": "_world",
          "type": "address"
        }
      ],
      "name": "registerWorld",
      "outputs": [],
      "stateMutability": "nonpayable",
      "type": "function"
    },
    {
      "inputs": [
        {
          "internalType": "uint256",
          "name": "entity",
          "type": "uint256"
        }
      ],
      "name": "remove",
      "outputs": [],
      "stateMutability": "nonpayable",
      "type": "function"
    },
    {
      "inputs": [
        {
          "internalType": "uint256",
          "name": "entity",
          "type": "uint256"
        }
      ],
      "name": "set",
      "outputs": [],
      "stateMutability": "nonpayable",
      "type": "function"
    },
    {
      "inputs": [
        {
          "internalType": "uint256",
          "name": "entity",
          "type": "uint256"
        },
        {
          "internalType": "bytes",
          "name": "value",
          "type": "bytes"
        }
      ],
      "name": "set",
      "outputs": [],
      "stateMutability": "nonpayable",
      "type": "function"
    },
    {
      "inputs": [
        {
          "internalType": "address",
          "name": "newOwner",
          "type": "address"
        }
      ],
      "name": "transferOwnership",
      "outputs": [],
      "stateMutability": "nonpayable",
      "type": "function"
    },
    {
      "inputs": [
        {
          "internalType": "address",
          "name": "writer",
          "type": "address"
        }
      ],
      "name": "unauthorizeWriter",
      "outputs": [],
      "stateMutability": "nonpayable",
      "type": "function"
    },
    {
      "inputs": [],
      "name": "world",
      "outputs": [
        {
          "internalType": "address",
          "name": "",
          "type": "address"
        }
      ],
      "stateMutability": "view",
      "type": "function"
    },
    {
      "inputs": [
        {
          "internalType": "address",
          "name": "",
          "type": "address"
        }
      ],
      "name": "writeAccess",
      "outputs": [
        {
          "internalType": "bool",
          "name": "",
          "type": "bool"
        }
      ],
      "stateMutability": "view",
      "type": "function"
    }
  ],
  "bytecode": {
    "object": "0x60806040523480156200001157600080fd5b5060405162002a5d38038062002a5d833981016040819052620000349162000232565b600180546001600160a01b0319163390811782556000908152600260205260409020805460ff191690911790557f3e4e98a8b24cd1e4f79528ef3f1cf7edfe0dbe0043563a44641446b8716086b460048190558190818181816001600160a01b03821615620000a857620000a8826200014e565b5050604051620000b89062000216565b604051809103906000f080158015620000d5573d6000803e3d6000fd5b50600580546001600160a01b0319166001600160a01b0392909216919091179055604051620001049062000224565b604051809103906000f08015801562000121573d6000803e3d6000fd5b50600680546001600160a01b0319166001600160a01b039290921691909117905550620002649350505050565b6001546001600160a01b031633146200019a5760405162461bcd60e51b815260206004820152600a60248201526927a7262cafa7aba722a960b11b604482015260640160405180910390fd5b600080546001600160a01b0319166001600160a01b03831690811790915560048054604051630f30347760e41b81523092810192909252602482015263f303477090604401600060405180830381600087803b158015620001fa57600080fd5b505af11580156200020f573d6000803e3d6000fd5b5050505050565b6105bb8062001ea083390190565b610602806200245b83390190565b6000602082840312156200024557600080fd5b81516001600160a01b03811681146200025d57600080fd5b9392505050565b611c2c80620002746000396000f3fe608060405234801561001057600080fd5b50600436106101505760003560e01c8063861eb905116100cd578063b361be4611610081578063bf4fe57e11610066578063bf4fe57e14610303578063cccf7a8e14610316578063f2fde38b1461032957600080fd5b8063b361be46146102d0578063b8bc073d146102e357600080fd5b80638da5cb5b116100b25780638da5cb5b146102885780639d2c76b4146102a6578063af640d0f146102b957600080fd5b8063861eb905146102525780638b2829471461027557600080fd5b80634cc822151161012457806360fe47b11161010957806360fe47b1146102165780636b122fe01461022957806375c0669c1461023f57600080fd5b80634cc82215146101ee5780634fef6a381461020357600080fd5b80621326ab146101555780630ff4c9161461017e57806330b67baa146101a157806331b933b9146101e6575b600080fd5b610168610163366004611456565b61033c565b6040516101759190611473565b60405180910390f35b61019161018c3660046114b7565b610370565b6040519015158152602001610175565b6000546101c19073ffffffffffffffffffffffffffffffffffffffff1681565b60405173ffffffffffffffffffffffffffffffffffffffff9091168152602001610175565b610168610396565b6102016101fc3660046114b7565b610451565b005b6102016102113660046114d0565b6104db565b6102016102243660046114b7565b6105ab565b6102316105d1565b604051610175929190611599565b61020161024d3660046114d0565b6106bd565b6101916102603660046114d0565b60026020526000908152604090205460ff1681565b610201610283366004611795565b6107ad565b60015473ffffffffffffffffffffffffffffffffffffffff166101c1565b6102016102b43660046114d0565b610834565b6102c260045481565b604051908152602001610175565b6101686102de3660046117dc565b61096e565b6102f66102f13660046114b7565b610a2c565b6040516101759190611819565b6102016103113660046114d0565b610ace565b6101916103243660046114b7565b610b9b565b6102016103373660046114d0565b610c2f565b606061036a82604051602001610356911515815260200190565b60405160208183030381529060405261096e565b92915050565b60008061037c83610a2c565b80602001905181019061038f919061182c565b9392505050565b600554604080517f410d59cc000000000000000000000000000000000000000000000000000000008152905160609273ffffffffffffffffffffffffffffffffffffffff169163410d59cc9160048083019260009291908290030181865afa158015610406573d6000803e3d6000fd5b505050506040513d6000823e601f3d9081017fffffffffffffffffffffffffffffffffffffffffffffffffffffffffffffffe016820160405261044c9190810190611849565b905090565b3360009081526002602052604090205460ff166104cf576040517f08c379a000000000000000000000000000000000000000000000000000000000815260206004820152600b60248201527f4f4e4c595f57524954455200000000000000000000000000000000000000000060448201526064015b60405180910390fd5b6104d881610d85565b50565b60015473ffffffffffffffffffffffffffffffffffffffff16331461055c576040517f08c379a000000000000000000000000000000000000000000000000000000000815260206004820152600a60248201527f4f4e4c595f4f574e45520000000000000000000000000000000000000000000060448201526064016104c6565b73ffffffffffffffffffffffffffffffffffffffff16600090815260026020526040902080547fffffffffffffffffffffffffffffffffffffffffffffffffffffffffffffff00166001179055565b60408051600160208201526104d8918391016040516020818303038152906040526107ad565b604080516001808252818301909252606091829190816020015b60608152602001906001900390816105eb575050604080516001808252818301909252919350602080830190803683370190505090506040518060400160405280600581526020017f76616c75650000000000000000000000000000000000000000000000000000008152508260008151811061066a5761066a6118ef565b602002602001018190525060008160008151811061068a5761068a6118ef565b602002602001019060218111156106a3576106a361156a565b908160218111156106b6576106b661156a565b9052509091565b3360009081526002602052604090205460ff16610736576040517f08c379a000000000000000000000000000000000000000000000000000000000815260206004820152600b60248201527f4f4e4c595f57524954455200000000000000000000000000000000000000000060448201526064016104c6565b600780546001810182556000919091527fa66cc928b5edb82af9bd49922954155ab7b0942694bea4ce44661d9a8736c6880180547fffffffffffffffffffffffff00000000000000000000000000000000000000001673ffffffffffffffffffffffffffffffffffffffff92909216919091179055565b3360009081526002602052604090205460ff16610826576040517f08c379a000000000000000000000000000000000000000000000000000000000815260206004820152600b60248201527f4f4e4c595f57524954455200000000000000000000000000000000000000000060448201526064016104c6565b6108308282611044565b5050565b60015473ffffffffffffffffffffffffffffffffffffffff1633146108b5576040517f08c379a000000000000000000000000000000000000000000000000000000000815260206004820152600a60248201527f4f4e4c595f4f574e45520000000000000000000000000000000000000000000060448201526064016104c6565b600080547fffffffffffffffffffffffff00000000000000000000000000000000000000001673ffffffffffffffffffffffffffffffffffffffff8316908117909155600480546040517ff30347700000000000000000000000000000000000000000000000000000000081523092810192909252602482015263f3034770906044015b600060405180830381600087803b15801561095357600080fd5b505af1158015610967573d6000803e3d6000fd5b5050505050565b600654815160208301206040517f796c5e94000000000000000000000000000000000000000000000000000000008152600481019190915260609173ffffffffffffffffffffffffffffffffffffffff169063796c5e9490602401600060405180830381865afa1580156109e6573d6000803e3d6000fd5b505050506040513d6000823e601f3d9081017fffffffffffffffffffffffffffffffffffffffffffffffffffffffffffffffe016820160405261036a9190810190611849565b6000818152600360205260409020805460609190610a499061191e565b80601f0160208091040260200160405190810160405280929190818152602001828054610a759061191e565b8015610ac25780601f10610a9757610100808354040283529160200191610ac2565b820191906000526020600020905b815481529060010190602001808311610aa557829003601f168201915b50505050509050919050565b60015473ffffffffffffffffffffffffffffffffffffffff163314610b4f576040517f08c379a000000000000000000000000000000000000000000000000000000000815260206004820152600a60248201527f4f4e4c595f4f574e45520000000000000000000000000000000000000000000060448201526064016104c6565b73ffffffffffffffffffffffffffffffffffffffff16600090815260026020526040902080547fffffffffffffffffffffffffffffffffffffffffffffffffffffffffffffff00169055565b6005546040517fcccf7a8e0000000000000000000000000000000000000000000000000000000081526004810183905260009173ffffffffffffffffffffffffffffffffffffffff169063cccf7a8e90602401602060405180830381865afa158015610c0b573d6000803e3d6000fd5b505050506040513d601f19601f8201168201806040525081019061036a919061182c565b60015473ffffffffffffffffffffffffffffffffffffffff163314610cb0576040517f08c379a000000000000000000000000000000000000000000000000000000000815260206004820152600a60248201527f4f4e4c595f4f574e45520000000000000000000000000000000000000000000060448201526064016104c6565b60015460405173ffffffffffffffffffffffffffffffffffffffff8084169216907f8be0079c531659141344cd1fd0a4f28419497f9722a3daafe3b4186f6b6457e090600090a33360009081526002602052604080822080547fffffffffffffffffffffffffffffffffffffffffffffffffffffffffffffff00908116909155600180547fffffffffffffffffffffffff00000000000000000000000000000000000000001673ffffffffffffffffffffffffffffffffffffffff959095169485178155938352912080549091169091179055565b60065460008281526003602052604090819020905173ffffffffffffffffffffffffffffffffffffffff909216916385edea1391610dc291611971565b60405190819003812060e083901b7fffffffff000000000000000000000000000000000000000000000000000000001682526004820152602401602060405180830381865afa158015610e19573d6000803e3d6000fd5b505050506040513d601f19601f82011682018060405250810190610e3d9190611a05565b600003610e475750565b60065460008281526003602052604090819020905173ffffffffffffffffffffffffffffffffffffffff90921691636526db7a91610e8491611971565b60405190819003812060e083901b7fffffffff00000000000000000000000000000000000000000000000000000000168252600482015260248101849052604401600060405180830381600087803b158015610edf57600080fd5b505af1158015610ef3573d6000803e3d6000fd5b50506005546040517f4cc822150000000000000000000000000000000000000000000000000000000081526004810185905273ffffffffffffffffffffffffffffffffffffffff9091169250634cc822159150602401600060405180830381600087803b158015610f6357600080fd5b505af1158015610f77573d6000803e3d6000fd5b50505050610f84816112e5565b60005b6007548110156108305760078181548110610fa457610fa46118ef565b6000918252602090912001546040517f4cc822150000000000000000000000000000000000000000000000000000000081526004810184905273ffffffffffffffffffffffffffffffffffffffff90911690634cc8221590602401600060405180830381600087803b15801561101957600080fd5b505af115801561102d573d6000803e3d6000fd5b50505050808061103c90611a1e565b915050610f87565b6005546040517f1003e2d20000000000000000000000000000000000000000000000000000000081526004810184905273ffffffffffffffffffffffffffffffffffffffff90911690631003e2d290602401600060405180830381600087803b1580156110b057600080fd5b505af11580156110c4573d6000803e3d6000fd5b505060065460008581526003602052604090819020905173ffffffffffffffffffffffffffffffffffffffff9092169350636526db7a925061110591611971565b60405190819003812060e083901b7fffffffff00000000000000000000000000000000000000000000000000000000168252600482015260248101859052604401600060405180830381600087803b15801561116057600080fd5b505af1158015611174573d6000803e3d6000fd5b5050600654835160208501206040517f771602f700000000000000000000000000000000000000000000000000000000815273ffffffffffffffffffffffffffffffffffffffff909216935063771602f792506111de918690600401918252602082015260400190565b600060405180830381600087803b1580156111f857600080fd5b505af115801561120c573d6000803e3d6000fd5b5050505061121a8282611353565b60005b6007548110156112e0576007818154811061123a5761123a6118ef565b6000918252602090912001546040517f0216b83800000000000000000000000000000000000000000000000000000000815273ffffffffffffffffffffffffffffffffffffffff90911690630216b8389061129b9086908690600401611a7d565b600060405180830381600087803b1580156112b557600080fd5b505af11580156112c9573d6000803e3d6000fd5b5050505080806112d890611a1e565b91505061121d565b505050565b60008181526003602052604081206112fc916113fa565b6000546040517f0de3b7b50000000000000000000000000000000000000000000000000000000081526004810183905273ffffffffffffffffffffffffffffffffffffffff90911690630de3b7b590602401610939565b600082815260036020526040902061136b8282611adc565b506000546040517fcfd3c57f00000000000000000000000000000000000000000000000000000000815273ffffffffffffffffffffffffffffffffffffffff9091169063cfd3c57f906113c49085908590600401611a7d565b600060405180830381600087803b1580156113de57600080fd5b505af11580156113f2573d6000803e3d6000fd5b505050505050565b5080546114069061191e565b6000825580601f10611416575050565b601f0160209004906000526020600020908101906104d891905b808211156114445760008155600101611430565b5090565b80151581146104d857600080fd5b60006020828403121561146857600080fd5b813561038f81611448565b6020808252825182820181905260009190848201906040850190845b818110156114ab5783518352928401929184019160010161148f565b50909695505050505050565b6000602082840312156114c957600080fd5b5035919050565b6000602082840312156114e257600080fd5b813573ffffffffffffffffffffffffffffffffffffffff8116811461038f57600080fd5b6000815180845260005b8181101561152c57602081850181015186830182015201611510565b5060006020828601015260207fffffffffffffffffffffffffffffffffffffffffffffffffffffffffffffffe0601f83011685010191505092915050565b7f4e487b7100000000000000000000000000000000000000000000000000000000600052602160045260246000fd5b6000604082016040835280855180835260608501915060608160051b8601019250602080880160005b8381101561160e577fffffffffffffffffffffffffffffffffffffffffffffffffffffffffffffffa08887030185526115fc868351611506565b955093820193908201906001016115c2565b50508584038187015286518085528782019482019350915060005b8281101561167c5784516022811061166a577f4e487b7100000000000000000000000000000000000000000000000000000000600052602160045260246000fd5b84529381019392810192600101611629565b5091979650505050505050565b7f4e487b7100000000000000000000000000000000000000000000000000000000600052604160045260246000fd5b604051601f82017fffffffffffffffffffffffffffffffffffffffffffffffffffffffffffffffe016810167ffffffffffffffff811182821017156116ff576116ff611689565b604052919050565b600082601f83011261171857600080fd5b813567ffffffffffffffff81111561173257611732611689565b61176360207fffffffffffffffffffffffffffffffffffffffffffffffffffffffffffffffe0601f840116016116b8565b81815284602083860101111561177857600080fd5b816020850160208301376000918101602001919091529392505050565b600080604083850312156117a857600080fd5b82359150602083013567ffffffffffffffff8111156117c657600080fd5b6117d285828601611707565b9150509250929050565b6000602082840312156117ee57600080fd5b813567ffffffffffffffff81111561180557600080fd5b61181184828501611707565b949350505050565b60208152600061038f6020830184611506565b60006020828403121561183e57600080fd5b815161038f81611448565b6000602080838503121561185c57600080fd5b825167ffffffffffffffff8082111561187457600080fd5b818501915085601f83011261188857600080fd5b81518181111561189a5761189a611689565b8060051b91506118ab8483016116b8565b81815291830184019184810190888411156118c557600080fd5b938501935b838510156118e3578451825293850193908501906118ca565b98975050505050505050565b7f4e487b7100000000000000000000000000000000000000000000000000000000600052603260045260246000fd5b600181811c9082168061193257607f821691505b60208210810361196b577f4e487b7100000000000000000000000000000000000000000000000000000000600052602260045260246000fd5b50919050565b600080835461197f8161191e565b6001828116801561199757600181146119ca576119f9565b7fffffffffffffffffffffffffffffffffffffffffffffffffffffffffffffff00841687528215158302870194506119f9565b8760005260208060002060005b858110156119f05781548a8201529084019082016119d7565b50505082870194505b50929695505050505050565b600060208284031215611a1757600080fd5b5051919050565b60007fffffffffffffffffffffffffffffffffffffffffffffffffffffffffffffffff8203611a76577f4e487b7100000000000000000000000000000000000000000000000000000000600052601160045260246000fd5b5060010190565b8281526040602082015260006118116040830184611506565b601f8211156112e057600081815260208120601f850160051c81016020861015611abd5750805b601f850160051c820191505b818110156113f257828155600101611ac9565b815167ffffffffffffffff811115611af657611af6611689565b611b0a81611b04845461191e565b84611a96565b602080601f831160018114611b5d5760008415611b275750858301515b7fffffffffffffffffffffffffffffffffffffffffffffffffffffffffffffffff600386901b1c1916600185901b1785556113f2565b6000858152602081207fffffffffffffffffffffffffffffffffffffffffffffffffffffffffffffffe08616915b82811015611baa57888601518255948401946001909101908401611b8b565b5085821015611be657878501517fffffffffffffffffffffffffffffffffffffffffffffffffffffffffffffffff600388901b60f8161c191681555b5050505050600190811b0190555056fea2646970667358221220b26c821bc00b527898b99dbc911838526bd560ecd33df1009dfeb4556e86b9cb64736f6c63430008110033608060405234801561001057600080fd5b50600080546001600160a01b03191633179055610589806100326000396000f3fe608060405234801561001057600080fd5b50600436106100725760003560e01c80638e7cb6e1116100505780638e7cb6e1146100bd578063949d225d146100e7578063cccf7a8e146100f857600080fd5b80631003e2d214610077578063410d59cc1461008c5780634cc82215146100aa575b600080fd5b61008a610085366004610458565b61011b565b005b6100946101f5565b6040516100a19190610471565b60405180910390f35b61008a6100b8366004610458565b61024d565b6100d06100cb366004610458565b6103c1565b6040805192151583526020830191909152016100a1565b6001546040519081526020016100a1565b61010b610106366004610458565b6103f2565b60405190151581526020016100a1565b60005473ffffffffffffffffffffffffffffffffffffffff1633146101a1576040517f08c379a000000000000000000000000000000000000000000000000000000000815260206004820152600a60248201527f4f4e4c595f4f574e45520000000000000000000000000000000000000000000060448201526064015b60405180910390fd5b6101aa816103f2565b6101f2576001805460008381526002602052604081208290558183018355919091527fb10e2d527612073b26eecdfd717e6a320cf44b4afac2b0732d9fcbe2b7fa0cf6018190555b50565b6060600180548060200260200160405190810160405280929190818152602001828054801561024357602002820191906000526020600020905b81548152602001906001019080831161022f575b5050505050905090565b60005473ffffffffffffffffffffffffffffffffffffffff1633146102ce576040517f08c379a000000000000000000000000000000000000000000000000000000000815260206004820152600a60248201527f4f4e4c595f4f574e4552000000000000000000000000000000000000000000006044820152606401610198565b6102d7816103f2565b156101f257600180546102eb9082906104b5565b815481106102fb576102fb6104f5565b9060005260206000200154600160026000848152602001908152602001600020548154811061032c5761032c6104f5565b60009182526020808320909101929092558281526002918290526040812054600180549193929184908110610363576103636104f5565b9060005260206000200154815260200190815260200160002081905550600260008281526020019081526020016000206000905560018054806103a8576103a8610524565b6001900381819060005260206000200160009055905550565b6000806103cd836103f2565b6103dc57506000928392509050565b5050600090815260026020526040902054600191565b600154600090810361040657506000919050565b600082815260026020526040812054900361044357816001600081548110610430576104306104f5565b9060005260206000200154149050919050565b50600090815260026020526040902054151590565b60006020828403121561046a57600080fd5b5035919050565b6020808252825182820181905260009190848201906040850190845b818110156104a95783518352928401929184019160010161048d565b50909695505050505050565b818103818111156104ef577f4e487b7100000000000000000000000000000000000000000000000000000000600052601160045260246000fd5b92915050565b7f4e487b7100000000000000000000000000000000000000000000000000000000600052603260045260246000fd5b7f4e487b7100000000000000000000000000000000000000000000000000000000600052603160045260246000fdfea2646970667358221220b5b456212a11997ccd601470c77cc96a71f468957b5522e79a3a9c1efe5555c064736f6c63430008110033608060405234801561001057600080fd5b50600080546001600160a01b031916331790556105d0806100326000396000f3fe608060405234801561001057600080fd5b50600436106100675760003560e01c8063796c5e9411610050578063796c5e941461009457806385edea13146100bd578063a0265ff8146100eb57600080fd5b80636526db7a1461006c578063771602f714610081575b600080fd5b61007f61007a366004610483565b61010e565b005b61007f61008f366004610483565b6102c6565b6100a76100a23660046104a5565b61038e565b6040516100b491906104be565b60405180910390f35b6100dd6100cb3660046104a5565b60009081526001602052604090205490565b6040519081526020016100b4565b6100fe6100f9366004610483565b6103f0565b60405190151581526020016100b4565b60005473ffffffffffffffffffffffffffffffffffffffff163314610194576040517f08c379a000000000000000000000000000000000000000000000000000000000815260206004820152600a60248201527f4f4e4c595f4f574e45520000000000000000000000000000000000000000000060448201526064015b60405180910390fd5b61019e82826103f0565b156102c2576000828152600160208190526040909120805490916101c191610502565b815481106101d1576101d161053c565b600091825260208083209091015484835260018252604080842060028452818520868652909352909220548154811061020c5761020c61053c565b6000918252602080832090910192909255838152600282526040808220848352808452818320548684526001855291832085845293819052835491939092918490811061025b5761025b61053c565b60009182526020808320909101548352828101939093526040918201812093909355848352600282528083208484528252808320839055848352600190915290208054806102ab576102ab61056b565b600190038181906000526020600020016000905590555b5050565b60005473ffffffffffffffffffffffffffffffffffffffff163314610347576040517f08c379a000000000000000000000000000000000000000000000000000000000815260206004820152600a60248201527f4f4e4c595f4f574e455200000000000000000000000000000000000000000000604482015260640161018b565b61035182826103f0565b6102c25760009182526001602081815260408085208054600284528287208688528452918620829055838352928101835591845290922090910155565b6000818152600160209081526040918290208054835181840281018401909452808452606093928301828280156103e457602002820191906000526020600020905b8154815260200190600101908083116103d0575b50505050509050919050565b600082815260016020526040812054810361040d5750600061047d565b6000838152600260209081526040808320858452909152812054900361045f576000838152600160205260408120805484929061044c5761044c61053c565b906000526020600020015414905061047d565b50600082815260026020908152604080832084845290915290205415155b92915050565b6000806040838503121561049657600080fd5b50508035926020909101359150565b6000602082840312156104b757600080fd5b5035919050565b6020808252825182820181905260009190848201906040850190845b818110156104f6578351835292840192918401916001016104da565b50909695505050505050565b8181038181111561047d577f4e487b7100000000000000000000000000000000000000000000000000000000600052601160045260246000fd5b7f4e487b7100000000000000000000000000000000000000000000000000000000600052603260045260246000fd5b7f4e487b7100000000000000000000000000000000000000000000000000000000600052603160045260246000fdfea2646970667358221220684c9604d505135bc2456dd0f73243ed1e0045e69d943e1775bb4ed31337e5f264736f6c63430008110033",
    "linkReferences": {}
  },
  "methodIdentifiers": {
    "authorizeWriter(address)": "4fef6a38",
    "getEntities()": "31b933b9",
    "getEntitiesWithValue(bool)": "001326ab",
    "getEntitiesWithValue(bytes)": "b361be46",
    "getRawValue(uint256)": "b8bc073d",
    "getSchema()": "6b122fe0",
    "getValue(uint256)": "0ff4c916",
    "has(uint256)": "cccf7a8e",
    "id()": "af640d0f",
    "owner()": "8da5cb5b",
    "registerIndexer(address)": "75c0669c",
    "registerWorld(address)": "9d2c76b4",
    "remove(uint256)": "4cc82215",
    "set(uint256)": "60fe47b1",
    "set(uint256,bytes)": "8b282947",
    "transferOwnership(address)": "f2fde38b",
    "unauthorizeWriter(address)": "bf4fe57e",
    "world()": "30b67baa",
    "writeAccess(address)": "861eb905"
  },
  "id": 39
}