{
  "abi": [
    {
      "inputs": [
        {
          "internalType": "contract IWorld",
          "name": "_world",
          "type": "address"
        },
        {
          "internalType": "address",
          "name": "_components",
          "type": "address"
        }
      ],
      "stateMutability": "nonpayable",
      "type": "constructor"
    },
    {
      "inputs": [],
      "name": "BRAlreadyInGame",
      "type": "error"
    },
    {
      "inputs": [],
      "name": "BREntityNotGame",
      "type": "error"
    },
    {
      "inputs": [],
      "name": "BRGameAlreadyStarted",
      "type": "error"
    },
    {
      "inputs": [],
      "name": "NotOwner",
      "type": "error"
    },
    {
      "anonymous": false,
      "inputs": [
        {
          "indexed": true,
          "internalType": "address",
          "name": "previousOwner",
          "type": "address"
        },
        {
          "indexed": true,
          "internalType": "address",
          "name": "newOwner",
          "type": "address"
        }
      ],
      "name": "OwnershipTransferred",
      "type": "event"
    },
    {
      "inputs": [
        {
          "internalType": "bytes",
          "name": "arguments",
          "type": "bytes"
        }
      ],
      "name": "execute",
      "outputs": [
        {
          "internalType": "bytes",
          "name": "",
          "type": "bytes"
        }
      ],
      "stateMutability": "nonpayable",
      "type": "function"
    },
    {
      "inputs": [
        {
          "internalType": "uint256",
          "name": "piece",
          "type": "uint256"
        },
        {
          "internalType": "uint256",
          "name": "game",
          "type": "uint256"
        }
      ],
      "name": "executeTyped",
      "outputs": [
        {
          "internalType": "bytes",
          "name": "",
          "type": "bytes"
        }
      ],
      "stateMutability": "nonpayable",
      "type": "function"
    },
    {
      "inputs": [],
      "name": "owner",
      "outputs": [
        {
          "internalType": "address",
          "name": "",
          "type": "address"
        }
      ],
      "stateMutability": "view",
      "type": "function"
    },
    {
      "inputs": [
        {
          "internalType": "address",
          "name": "newOwner",
          "type": "address"
        }
      ],
      "name": "transferOwnership",
      "outputs": [],
      "stateMutability": "nonpayable",
      "type": "function"
    }
  ],
  "bytecode": {
    "object": "0x60806040523480156200001157600080fd5b50604051620010c0380380620010c0833981016040819052620000349162000117565b600280546001600160a01b0319163317905581816001600160a01b038116156200005f5780620000c4565b816001600160a01b031663ba62fbe46040518163ffffffff1660e01b8152600401602060405180830381865afa1580156200009e573d6000803e3d6000fd5b505050506040513d601f19601f82011682018060405250810190620000c4919062000156565b600080546001600160a01b039283166001600160a01b0319918216179091556001805494909216931692909217909155506200017d915050565b6001600160a01b03811681146200011457600080fd5b50565b600080604083850312156200012b57600080fd5b82516200013881620000fe565b60208401519092506200014b81620000fe565b809150509250929050565b6000602082840312156200016957600080fd5b81516200017681620000fe565b9392505050565b610f33806200018d6000396000f3fe608060405234801561001057600080fd5b506004361061004c5760003560e01c806309c5eabe146100515780638da5cb5b1461007a578063915657fb146100a2578063f2fde38b146100b5575b600080fd5b61006461005f366004610b64565b6100ca565b6040516100719190610c17565b60405180910390f35b60025460405173ffffffffffffffffffffffffffffffffffffffff9091168152602001610071565b6100646100b0366004610c83565b6103cc565b6100c86100c3366004610cca565b610408565b005b6060600080838060200190518101906100e39190610ce7565b600080549294509092509061012e9073ffffffffffffffffffffffffffffffffffffffff167f3aa78a206fc67ba4c2dbdbfa4f9637a0b391d7db261dacc2eb5d96f7b5693d9761051c565b60008054919250906101769073ffffffffffffffffffffffffffffffffffffffff167f1f26ebf637805df90fe5cf9a282dd66905185d55ff65696a9171e1a656152d3961051c565b60008054919250906101be9073ffffffffffffffffffffffffffffffffffffffff167f4c5443efce5b9ecc79a1896dd0de307031c10094a3b3fc9a5d2b086c5b792de061051c565b60008054919250906102069073ffffffffffffffffffffffffffffffffffffffff167f33c4aae4b327d551cc4ea42873cd8dcaa61f5bc0f248cf0e6dd3473f9a820d6661051c565b600080549192509061024e9073ffffffffffffffffffffffffffffffffffffffff167f3e4e98a8b24cd1e4f79528ef3f1cf7edfe0dbe0043563a44641446b8716086b461051c565b905061025c85858933610668565b6102668387610679565b61027082886106db565b6040517f1ab06ee5000000000000000000000000000000000000000000000000000000008152600481018890526024810187905273ffffffffffffffffffffffffffffffffffffffff831690631ab06ee590604401600060405180830381600087803b1580156102df57600080fd5b505af11580156102f3573d6000803e3d6000fd5b50506040517f60fe47b1000000000000000000000000000000000000000000000000000000008152600481018a905273ffffffffffffffffffffffffffffffffffffffff841692506360fe47b19150602401600060405180830381600087803b15801561035f57600080fd5b505af1158015610373573d6000803e3d6000fd5b5050600080549092506103bd915073ffffffffffffffffffffffffffffffffffffffff167f3fe0524a97d46cff1be1703cd4a84d28fcc28e6c9bc09d2eedb2f0c75291a76461051c565b90505050505050505050919050565b606061040183836040516020016103ed929190918252602082015260400190565b6040516020818303038152906040526100ca565b9392505050565b60025473ffffffffffffffffffffffffffffffffffffffff16331461048e576040517f08c379a000000000000000000000000000000000000000000000000000000000815260206004820152600a60248201527f4f4e4c595f4f574e45520000000000000000000000000000000000000000000060448201526064015b60405180910390fd5b60025460405173ffffffffffffffffffffffffffffffffffffffff8084169216907f8be0079c531659141344cd1fd0a4f28419497f9722a3daafe3b4186f6b6457e090600090a3600280547fffffffffffffffffffffffff00000000000000000000000000000000000000001673ffffffffffffffffffffffffffffffffffffffff92909216919091179055565b6040517ffbdfa1ea00000000000000000000000000000000000000000000000000000000815260048101829052600090819073ffffffffffffffffffffffffffffffffffffffff85169063fbdfa1ea90602401600060405180830381865afa15801561058c573d6000803e3d6000fd5b505050506040513d6000823e601f3d9081017fffffffffffffffffffffffffffffffffffffffffffffffffffffffffffffffe01682016040526105d29190810190610d0b565b9050805160000361063f576040517f08c379a000000000000000000000000000000000000000000000000000000000815260206004820152601160248201527f6964206e6f7420726567697374657265640000000000000000000000000000006044820152606401610485565b6106608160008151811061065557610655610db1565b602002602001015190565b949350505050565b6106738483836107a5565b50505050565b600061068583836107e6565b905060008160800151600281111561069f5761069f610de0565b146106d6576040517f4221b8ac00000000000000000000000000000000000000000000000000000000815260040160405180910390fd5b505050565b6040517fcccf7a8e0000000000000000000000000000000000000000000000000000000081526004810182905273ffffffffffffffffffffffffffffffffffffffff83169063cccf7a8e90602401602060405180830381865afa158015610746573d6000803e3d6000fd5b505050506040513d601f19601f8201168201806040525081019061076a9190610e0f565b156107a1576040517f4be0fd3a00000000000000000000000000000000000000000000000000000000815260040160405180910390fd5b5050565b6107b083838361096c565b6106d6576040517f30cd747100000000000000000000000000000000000000000000000000000000815260040160405180910390fd5b6108156040805160a0810182526000808252602082018190529181018290526060810182905290608082015290565b6040517fcccf7a8e0000000000000000000000000000000000000000000000000000000081526004810183905273ffffffffffffffffffffffffffffffffffffffff84169063cccf7a8e90602401602060405180830381865afa158015610880573d6000803e3d6000fd5b505050506040513d601f19601f820116820180604052508101906108a49190610e0f565b6108da576040517f82203a4100000000000000000000000000000000000000000000000000000000815260040160405180910390fd5b6040517f0ff4c9160000000000000000000000000000000000000000000000000000000081526004810183905260009073ffffffffffffffffffffffffffffffffffffffff851690630ff4c9169060240160a060405180830381865afa158015610948573d6000803e3d6000fd5b505050506040513d601f19601f820116820180604052508101906106609190610e48565b6040517fcccf7a8e0000000000000000000000000000000000000000000000000000000081526004810183905260009073ffffffffffffffffffffffffffffffffffffffff85169063cccf7a8e90602401602060405180830381865afa1580156109da573d6000803e3d6000fd5b505050506040513d601f19601f820116820180604052508101906109fe9190610e0f565b610a0a57506000610401565b6040517f0ff4c9160000000000000000000000000000000000000000000000000000000081526004810184905260009073ffffffffffffffffffffffffffffffffffffffff861690630ff4c91690602401602060405180830381865afa158015610a78573d6000803e3d6000fd5b505050506040513d601f19601f82011682018060405250810190610a9c9190610ee0565b90508273ffffffffffffffffffffffffffffffffffffffff168173ffffffffffffffffffffffffffffffffffffffff1614610adb576000915050610401565b506001949350505050565b7f4e487b7100000000000000000000000000000000000000000000000000000000600052604160045260246000fd5b604051601f82017fffffffffffffffffffffffffffffffffffffffffffffffffffffffffffffffe016810167ffffffffffffffff81118282101715610b5c57610b5c610ae6565b604052919050565b60006020808385031215610b7757600080fd5b823567ffffffffffffffff80821115610b8f57600080fd5b818501915085601f830112610ba357600080fd5b813581811115610bb557610bb5610ae6565b610be5847fffffffffffffffffffffffffffffffffffffffffffffffffffffffffffffffe0601f84011601610b15565b91508082528684828501011115610bfb57600080fd5b8084840185840137600090820190930192909252509392505050565b600060208083528351808285015260005b81811015610c4457858101830151858201604001528201610c28565b5060006040828601015260407fffffffffffffffffffffffffffffffffffffffffffffffffffffffffffffffe0601f8301168501019250505092915050565b60008060408385031215610c9657600080fd5b50508035926020909101359150565b73ffffffffffffffffffffffffffffffffffffffff81168114610cc757600080fd5b50565b600060208284031215610cdc57600080fd5b813561040181610ca5565b60008060408385031215610cfa57600080fd5b505080516020909101519092909150565b60006020808385031215610d1e57600080fd5b825167ffffffffffffffff80821115610d3657600080fd5b818501915085601f830112610d4a57600080fd5b815181811115610d5c57610d5c610ae6565b8060051b9150610d6d848301610b15565b8181529183018401918481019088841115610d8757600080fd5b938501935b83851015610da557845182529385019390850190610d8c565b98975050505050505050565b7f4e487b7100000000000000000000000000000000000000000000000000000000600052603260045260246000fd5b7f4e487b7100000000000000000000000000000000000000000000000000000000600052602160045260246000fd5b600060208284031215610e2157600080fd5b8151801515811461040157600080fd5b805161ffff81168114610e4357600080fd5b919050565b600060a08284031215610e5a57600080fd5b60405160a0810181811067ffffffffffffffff82111715610e7d57610e7d610ae6565b60405282518152602083015163ffffffff81168114610e9b57600080fd5b6020820152610eac60408401610e31565b6040820152610ebd60608401610e31565b6060820152608083015160038110610ed457600080fd5b60808201529392505050565b600060208284031215610ef257600080fd5b815161040181610ca556fea2646970667358221220ff3d8769083a2010490ed73c8345df3be1e3f7a9a82ef2bcc0ba6f3ac1ab725864736f6c63430008110033",
    "linkReferences": {}
  },
  "methodIdentifiers": {
    "execute(bytes)": "09c5eabe",
    "executeTyped(uint256,uint256)": "915657fb",
    "owner()": "8da5cb5b",
    "transferOwnership(address)": "f2fde38b"
  },
  "id": 55
}