{
  "abi": [
    {
      "inputs": [
        {
          "internalType": "contract IWorld",
          "name": "_world",
          "type": "address"
        },
        {
          "internalType": "address",
          "name": "_components",
          "type": "address"
        }
      ],
      "stateMutability": "nonpayable",
      "type": "constructor"
    },
    {
      "anonymous": false,
      "inputs": [
        {
          "indexed": true,
          "internalType": "address",
          "name": "previousOwner",
          "type": "address"
        },
        {
          "indexed": true,
          "internalType": "address",
          "name": "newOwner",
          "type": "address"
        }
      ],
      "name": "OwnershipTransferred",
      "type": "event"
    },
    {
      "inputs": [
        {
          "internalType": "bytes",
          "name": "arguments",
          "type": "bytes"
        }
      ],
      "name": "execute",
      "outputs": [
        {
          "internalType": "bytes",
          "name": "",
          "type": "bytes"
        }
      ],
      "stateMutability": "nonpayable",
      "type": "function"
    },
    {
      "inputs": [
        {
          "internalType": "uint256",
          "name": "piece",
          "type": "uint256"
        }
      ],
      "name": "executeTyped",
      "outputs": [
        {
          "internalType": "bytes",
          "name": "",
          "type": "bytes"
        }
      ],
      "stateMutability": "nonpayable",
      "type": "function"
    },
    {
      "inputs": [],
      "name": "owner",
      "outputs": [
        {
          "internalType": "address",
          "name": "",
          "type": "address"
        }
      ],
      "stateMutability": "view",
      "type": "function"
    },
    {
      "inputs": [
        {
          "internalType": "address",
          "name": "newOwner",
          "type": "address"
        }
      ],
      "name": "transferOwnership",
      "outputs": [],
      "stateMutability": "nonpayable",
      "type": "function"
    }
  ],
  "bytecode": {
    "object": "0x608060405234801561001057600080fd5b50604051610b6a380380610b6a83398101604081905261002f9161010b565b600280546001600160a01b0319163317905581816001600160a01b0381161561005857806100ba565b816001600160a01b031663ba62fbe46040518163ffffffff1660e01b8152600401602060405180830381865afa158015610096573d6000803e3d6000fd5b505050506040513d601f19601f820116820180604052508101906100ba9190610145565b600080546001600160a01b039283166001600160a01b031991821617909155600180549490921693169290921790915550610169915050565b6001600160a01b038116811461010857600080fd5b50565b6000806040838503121561011e57600080fd5b8251610129816100f3565b602084015190925061013a816100f3565b809150509250929050565b60006020828403121561015757600080fd5b8151610162816100f3565b9392505050565b6109f2806101786000396000f3fe608060405234801561001057600080fd5b506004361061004c5760003560e01c806309c5eabe146100515780633e991df31461007a5780638da5cb5b1461008d578063f2fde38b146100b5575b600080fd5b61006461005f366004610759565b6100ca565b604051610071919061080c565b60405180910390f35b610064610088366004610878565b610410565b60025460405173ffffffffffffffffffffffffffffffffffffffff9091168152602001610071565b6100c86100c3366004610891565b610442565b005b60606000828060200190518101906100e291906108ce565b600080549192509061012a9073ffffffffffffffffffffffffffffffffffffffff167f33c4aae4b327d551cc4ea42873cd8dcaa61f5bc0f248cf0e6dd3473f9a820d66610556565b60008054919250906101729073ffffffffffffffffffffffffffffffffffffffff167f3e4e98a8b24cd1e4f79528ef3f1cf7edfe0dbe0043563a44641446b8716086b4610556565b6040517f4cc822150000000000000000000000000000000000000000000000000000000081526004810185905290915073ffffffffffffffffffffffffffffffffffffffff831690634cc8221590602401600060405180830381600087803b1580156101dd57600080fd5b505af11580156101f1573d6000803e3d6000fd5b50506040517f4cc822150000000000000000000000000000000000000000000000000000000081526004810186905273ffffffffffffffffffffffffffffffffffffffff84169250634cc822159150602401600060405180830381600087803b15801561025d57600080fd5b505af1158015610271573d6000803e3d6000fd5b5050600080549092506102bb915073ffffffffffffffffffffffffffffffffffffffff167fc4351b56c4cd08a217ed0cd7583fb7b8c9b1bf5e79db10cb324b32a4fe5416ff6106a2565b60008054919250906103039073ffffffffffffffffffffffffffffffffffffffff167f66187145093415ec582e1f831f4ab9cd5c382f164a9f3593d2defc665e76007d6106a2565b6040517f6318c82d0000000000000000000000000000000000000000000000000000000081526004810187905290915073ffffffffffffffffffffffffffffffffffffffff831690636318c82d90602401600060405180830381600087803b15801561036e57600080fd5b505af1158015610382573d6000803e3d6000fd5b50506040517f6318c82d0000000000000000000000000000000000000000000000000000000081526004810188905273ffffffffffffffffffffffffffffffffffffffff84169250636318c82d9150602401600060405180830381600087803b1580156103ee57600080fd5b505af1158015610402573d6000803e3d6000fd5b505050505050505050919050565b606061043c8260405160200161042891815260200190565b6040516020818303038152906040526100ca565b92915050565b60025473ffffffffffffffffffffffffffffffffffffffff1633146104c8576040517f08c379a000000000000000000000000000000000000000000000000000000000815260206004820152600a60248201527f4f4e4c595f4f574e45520000000000000000000000000000000000000000000060448201526064015b60405180910390fd5b60025460405173ffffffffffffffffffffffffffffffffffffffff8084169216907f8be0079c531659141344cd1fd0a4f28419497f9722a3daafe3b4186f6b6457e090600090a3600280547fffffffffffffffffffffffff00000000000000000000000000000000000000001673ffffffffffffffffffffffffffffffffffffffff92909216919091179055565b6040517ffbdfa1ea00000000000000000000000000000000000000000000000000000000815260048101829052600090819073ffffffffffffffffffffffffffffffffffffffff85169063fbdfa1ea90602401600060405180830381865afa1580156105c6573d6000803e3d6000fd5b505050506040513d6000823e601f3d9081017fffffffffffffffffffffffffffffffffffffffffffffffffffffffffffffffe016820160405261060c91908101906108e7565b90508051600003610679576040517f08c379a000000000000000000000000000000000000000000000000000000000815260206004820152601160248201527f6964206e6f74207265676973746572656400000000000000000000000000000060448201526064016104bf565b61069a8160008151811061068f5761068f61098d565b602002602001015190565b949350505050565b6000806106cf847f017c816a964927a00e050edd780dcf113ca2756dfa9e9fda94a05c140d9317b0610556565b905061069a8184610556565b7f4e487b7100000000000000000000000000000000000000000000000000000000600052604160045260246000fd5b604051601f82017fffffffffffffffffffffffffffffffffffffffffffffffffffffffffffffffe016810167ffffffffffffffff81118282101715610751576107516106db565b604052919050565b6000602080838503121561076c57600080fd5b823567ffffffffffffffff8082111561078457600080fd5b818501915085601f83011261079857600080fd5b8135818111156107aa576107aa6106db565b6107da847fffffffffffffffffffffffffffffffffffffffffffffffffffffffffffffffe0601f8401160161070a565b915080825286848285010111156107f057600080fd5b8084840185840137600090820190930192909252509392505050565b600060208083528351808285015260005b818110156108395785810183015185820160400152820161081d565b5060006040828601015260407fffffffffffffffffffffffffffffffffffffffffffffffffffffffffffffffe0601f8301168501019250505092915050565b60006020828403121561088a57600080fd5b5035919050565b6000602082840312156108a357600080fd5b813573ffffffffffffffffffffffffffffffffffffffff811681146108c757600080fd5b9392505050565b6000602082840312156108e057600080fd5b5051919050565b600060208083850312156108fa57600080fd5b825167ffffffffffffffff8082111561091257600080fd5b818501915085601f83011261092657600080fd5b815181811115610938576109386106db565b8060051b915061094984830161070a565b818152918301840191848101908884111561096357600080fd5b938501935b8385101561098157845182529385019390850190610968565b98975050505050505050565b7f4e487b7100000000000000000000000000000000000000000000000000000000600052603260045260246000fdfea2646970667358221220a62f8c70a7110f8cc4d5ccef47bffd4e1c55956d796ade388b0cef53987fee6b64736f6c63430008110033",
    "linkReferences": {}
  },
  "methodIdentifiers": {
    "execute(bytes)": "09c5eabe",
    "executeTyped(uint256)": "3e991df3",
    "owner()": "8da5cb5b",
    "transferOwnership(address)": "f2fde38b"
  },
  "id": 55
}