{
  "abi": [
    {
      "inputs": [
        {
          "internalType": "contract IWorld",
          "name": "_world",
          "type": "address"
        },
        {
          "internalType": "address",
          "name": "_components",
          "type": "address"
        }
      ],
      "stateMutability": "nonpayable",
      "type": "constructor"
    },
    {
      "inputs": [],
      "name": "BREntityNotGame",
      "type": "error"
    },
    {
      "inputs": [],
      "name": "BRGameNotInProgress",
      "type": "error"
    },
    {
      "inputs": [],
      "name": "BRIncorrectControllers",
      "type": "error"
    },
    {
      "inputs": [],
      "name": "BRNotInGame",
      "type": "error"
    },
    {
      "inputs": [],
      "name": "BRNotRecharged",
      "type": "error"
    },
    {
      "inputs": [],
      "name": "BRNotRevokeSystem",
      "type": "error"
    },
    {
      "inputs": [],
      "name": "BRPieceDead",
      "type": "error"
    },
    {
      "inputs": [],
      "name": "NotOwner",
      "type": "error"
    },
    {
      "inputs": [],
      "name": "Ownable__NotOwner",
      "type": "error"
    },
    {
      "inputs": [],
      "name": "Ownable__NotTransitiveOwner",
      "type": "error"
    },
    {
      "inputs": [],
      "name": "UnimplementedPieceType",
      "type": "error"
    },
    {
      "anonymous": false,
      "inputs": [
        {
          "indexed": true,
          "internalType": "address",
          "name": "previousOwner",
          "type": "address"
        },
        {
          "indexed": true,
          "internalType": "address",
          "name": "newOwner",
          "type": "address"
        }
      ],
      "name": "OwnershipTransferred",
      "type": "event"
    },
    {
      "inputs": [
        {
          "internalType": "bytes",
          "name": "arguments",
          "type": "bytes"
        }
      ],
      "name": "execute",
      "outputs": [
        {
          "internalType": "bytes",
          "name": "",
          "type": "bytes"
        }
      ],
      "stateMutability": "nonpayable",
      "type": "function"
    },
    {
      "inputs": [
        {
          "internalType": "uint256",
          "name": "piece",
          "type": "uint256"
        },
        {
          "internalType": "uint256",
          "name": "game",
          "type": "uint256"
        },
        {
          "components": [
            {
              "internalType": "int32",
              "name": "x",
              "type": "int32"
            },
            {
              "internalType": "int32",
              "name": "y",
              "type": "int32"
            }
          ],
          "internalType": "struct Coord",
          "name": "position",
          "type": "tuple"
        }
      ],
      "name": "executeTyped",
      "outputs": [
        {
          "internalType": "bytes",
          "name": "",
          "type": "bytes"
        }
      ],
      "stateMutability": "nonpayable",
      "type": "function"
    },
    {
      "inputs": [],
      "name": "owner",
      "outputs": [
        {
          "internalType": "address",
          "name": "",
          "type": "address"
        }
      ],
      "stateMutability": "view",
      "type": "function"
    },
    {
      "inputs": [
        {
          "internalType": "uint256",
          "name": "piece",
          "type": "uint256"
        }
      ],
      "name": "revokeController",
      "outputs": [],
      "stateMutability": "nonpayable",
      "type": "function"
    },
    {
      "inputs": [
        {
          "internalType": "address",
          "name": "account",
          "type": "address"
        }
      ],
      "name": "transferOwnership",
      "outputs": [],
      "stateMutability": "nonpayable",
      "type": "function"
    }
  ],
  "bytecode": {
    "object": "0x60806040523480156200001157600080fd5b50604051620038973803806200389783398101604081905262000034916200022c565b818162000041336200010f565b6001600160a01b03811615620000585780620000bd565b816001600160a01b031663ba62fbe46040518163ffffffff1660e01b8152600401602060405180830381865afa15801562000097573d6000803e3d6000fd5b505050506040513d601f19601f82011682018060405250810190620000bd91906200026b565b600080546001600160a01b03199081166001600160a01b0393841690811790925560018054909116928516928317905562000105919062000183602090811b6200086117901c565b5050505062000292565b600062000126620001ef60201b620008f21760201c565b80546040519192506001600160a01b03808516929116907f8be0079c531659141344cd1fd0a4f28419497f9722a3daafe3b4186f6b6457e090600090a380546001600160a01b0319166001600160a01b0392909216919091179055565b7ff67304f10c7772c78e439bc5cb07781db345424de8878c18100fdaa64d197a8780546001600160a01b039384166001600160a01b0319918216179091557ff67304f10c7772c78e439bc5cb07781db345424de8878c18100fdaa64d197a868054929093169116179055565b7f8a22373512790c48b83a1fe2efdd2888d4a917bcdc24d0adf63e60f67168046090565b6001600160a01b03811681146200022957600080fd5b50565b600080604083850312156200024057600080fd5b82516200024d8162000213565b6020840151909250620002608162000213565b809150509250929050565b6000602082840312156200027e57600080fd5b81516200028b8162000213565b9392505050565b6135f580620002a26000396000f3fe608060405234801561001057600080fd5b50600436106100675760003560e01c80638da5cb5b116100505780638da5cb5b146100aa578063b15895dd146100d7578063f2fde38b146100ea57600080fd5b806309c5eabe1461006c5780636318c82d14610095575b600080fd5b61007f61007a366004612b6b565b6100fd565b60405161008c9190612c59565b60405180910390f35b6100a86100a3366004612c6c565b6105c2565b005b6100b2610768565b60405173ffffffffffffffffffffffffffffffffffffffff909116815260200161008c565b61007f6100e5366004612c94565b6107ad565b6100a86100f8366004612d5d565b6107e5565b60606000806000848060200190518101906101189190612ddf565b600154600054939650919450925061014b9173ffffffffffffffffffffffffffffffffffffffff91821691859116610916565b6000805461018f9073ffffffffffffffffffffffffffffffffffffffff167f3aa78a206fc67ba4c2dbdbfa4f9637a0b391d7db261dacc2eb5d96f7b5693d976109dc565b60008054919250906101d79073ffffffffffffffffffffffffffffffffffffffff167f1f26ebf637805df90fe5cf9a282dd66905185d55ff65696a9171e1a656152d396109dc565b600080549192509061021f9073ffffffffffffffffffffffffffffffffffffffff167f4c5443efce5b9ecc79a1896dd0de307031c10094a3b3fc9a5d2b086c5b792de06109dc565b60008054919250906102679073ffffffffffffffffffffffffffffffffffffffff167f33c4aae4b327d551cc4ea42873cd8dcaa61f5bc0f248cf0e6dd3473f9a820d666109dc565b60008054919250906102af9073ffffffffffffffffffffffffffffffffffffffff167f3e4e98a8b24cd1e4f79528ef3f1cf7edfe0dbe0043563a44641446b8716086b46109dc565b60008054919250906102f79073ffffffffffffffffffffffffffffffffffffffff167f6f6c09948e327abfd3c44b7965920048be367af522273db94a5172d20538b9ac6109dc565b600080549192509061033f9073ffffffffffffffffffffffffffffffffffffffff167f3f2fb6fd7210998f35a2426a57025beb8981672a7fe1d2a38eee35cd7fc22305610b2e565b9050600061034d868b610b67565b6101000151600281111561036357610363612e15565b03610441576040517ff2f9a0ab00000000000000000000000000000000000000000000000000000000815273ffffffffffffffffffffffffffffffffffffffff82169063f2f9a0ab906103bc908d908c90600401612e44565b6000604051808303816000875af11580156103db573d6000803e3d6000fd5b505050506040513d6000823e601f3d9081017fffffffffffffffffffffffffffffffffffffffffffffffffffffffffffffffe01682016040526104219190810190612e6b565b50506040805160008152602081019091529b9a5050505050505050505050565b61045187878787878f8f33610d0c565b61045d82868c8c610d41565b6040517f1ab06ee5000000000000000000000000000000000000000000000000000000008152600481018b905242602482015273ffffffffffffffffffffffffffffffffffffffff831690631ab06ee590604401600060405180830381600087803b1580156104cb57600080fd5b505af11580156104df573d6000803e3d6000fd5b505050506104ee8a8a8a610f52565b6104f98a8a8a611219565b6040517ff2f9a0ab00000000000000000000000000000000000000000000000000000000815273ffffffffffffffffffffffffffffffffffffffff82169063f2f9a0ab9061054d908d908c90600401612e44565b6000604051808303816000875af115801561056c573d6000803e3d6000fd5b505050506040513d6000823e601f3d9081017fffffffffffffffffffffffffffffffffffffffffffffffffffffffffffffffe01682016040526105b29190810190612e6b565b5050505050505050505050919050565b6000546106059073ffffffffffffffffffffffffffffffffffffffff167fc460a39063d43ec0746708579b6d331f5d24b3fd0a5b1ec179dd09d5c0daa6ac610b2e565b73ffffffffffffffffffffffffffffffffffffffff163373ffffffffffffffffffffffffffffffffffffffff1614610669576040517fc3a4a1fa00000000000000000000000000000000000000000000000000000000815260040160405180910390fd5b600080546106ad9073ffffffffffffffffffffffffffffffffffffffff167f1ec70c1de07ff6a0c043722045ffa20707571b9fcddd4bdecc65ed19faf4debe610b2e565b6040517f3e991df30000000000000000000000000000000000000000000000000000000081526004810184905290915073ffffffffffffffffffffffffffffffffffffffff821690633e991df3906024016000604051808303816000875af115801561071d573d6000803e3d6000fd5b505050506040513d6000823e601f3d9081017fffffffffffffffffffffffffffffffffffffffffffffffffffffffffffffffe01682016040526107639190810190612e6b565b505050565b60006107a87f8a22373512790c48b83a1fe2efdd2888d4a917bcdc24d0adf63e60f6716804605473ffffffffffffffffffffffffffffffffffffffff1690565b905090565b60606107db8484846040516020016107c793929190612ed9565b6040516020818303038152906040526100fd565b90505b9392505050565b7f8a22373512790c48b83a1fe2efdd2888d4a917bcdc24d0adf63e60f6716804605473ffffffffffffffffffffffffffffffffffffffff163314610855576040517f2f7a8ee100000000000000000000000000000000000000000000000000000000815260040160405180910390fd5b61085e81611537565b50565b7ff67304f10c7772c78e439bc5cb07781db345424de8878c18100fdaa64d197a87805473ffffffffffffffffffffffffffffffffffffffff9384167fffffffffffffffffffffffff0000000000000000000000000000000000000000918216179091557ff67304f10c7772c78e439bc5cb07781db345424de8878c18100fdaa64d197a868054929093169116179055565b7f8a22373512790c48b83a1fe2efdd2888d4a917bcdc24d0adf63e60f67168046090565b6000610942827f4c5443efce5b9ecc79a1896dd0de307031c10094a3b3fc9a5d2b086c5b792de06109dc565b90506000610970837f3e4e98a8b24cd1e4f79528ef3f1cf7edfe0dbe0043563a44641446b8716086b46109dc565b9050600061099e847f023253b2241a10d36b8c9af452236123ad9f4644f2ef4963970b2c4b77c42db56109dc565b905060016109ac8487610b67565b610100015160028111156109c2576109c2612e15565b036109d4576109d48684848489611540565b505050505050565b6040517ffbdfa1ea00000000000000000000000000000000000000000000000000000000815260048101829052600090819073ffffffffffffffffffffffffffffffffffffffff85169063fbdfa1ea90602401600060405180830381865afa158015610a4c573d6000803e3d6000fd5b505050506040513d6000823e601f3d9081017fffffffffffffffffffffffffffffffffffffffffffffffffffffffffffffffe0168201604052610a929190810190612f04565b90508051600003610b03576040517f08c379a000000000000000000000000000000000000000000000000000000000815260206004820152601160248201527f6964206e6f742072656769737465726564000000000000000000000000000000604482015260640160405180910390fd5b610b2481600081518110610b1957610b19612f9e565b602002602001015190565b9150505b92915050565b600080610b5b847f017c816a964927a00e050edd780dcf113ca2756dfa9e9fda94a05c140d9317b06109dc565b9050610b2481846109dc565b610bb46040805161012081018252600080825260208201819052918101829052606081018290526080810182905260a0810182905260c0810182905260e081018290529061010082015290565b6040517fcccf7a8e0000000000000000000000000000000000000000000000000000000081526004810183905273ffffffffffffffffffffffffffffffffffffffff84169063cccf7a8e90602401602060405180830381865afa158015610c1f573d6000803e3d6000fd5b505050506040513d601f19601f82011682018060405250810190610c439190612fcd565b610c79576040517f82203a4100000000000000000000000000000000000000000000000000000000815260040160405180910390fd5b6040517f0ff4c9160000000000000000000000000000000000000000000000000000000081526004810183905260009073ffffffffffffffffffffffffffffffffffffffff851690630ff4c9169060240161012060405180830381865afa158015610ce8573d6000803e3d6000fd5b505050506040513d601f19601f82011682018060405250810190610b24919061303a565b610d18888885846115f7565b610d22868361160c565b610d2d85848461166a565b610d3784846116b1565b5050505050505050565b6040517fcccf7a8e0000000000000000000000000000000000000000000000000000000081526004810183905273ffffffffffffffffffffffffffffffffffffffff85169063cccf7a8e90602401602060405180830381865afa158015610dac573d6000803e3d6000fd5b505050506040513d601f19601f82011682018060405250810190610dd09190612fcd565b15610f4c576040517f0ff4c9160000000000000000000000000000000000000000000000000000000081526004810183905260009073ffffffffffffffffffffffffffffffffffffffff861690630ff4c91690602401602060405180830381865afa158015610e43573d6000803e3d6000fd5b505050506040513d601f19601f82011682018060405250810190610e6791906130e2565b6040517f0ff4c9160000000000000000000000000000000000000000000000000000000081526004810184905290915060009073ffffffffffffffffffffffffffffffffffffffff861690630ff4c9169060240161012060405180830381865afa158015610ed9573d6000803e3d6000fd5b505050506040513d601f19601f82011682018060405250810190610efd919061303a565b60200151905042610f1463ffffffff83168461312a565b11156109d4576040517fbabe350500000000000000000000000000000000000000000000000000000000815260040160405180910390fd5b50505050565b60008054610f969073ffffffffffffffffffffffffffffffffffffffff167f33c4aae4b327d551cc4ea42873cd8dcaa61f5bc0f248cf0e6dd3473f9a820d666109dc565b6000805491925090610fde9073ffffffffffffffffffffffffffffffffffffffff167f3e4e98a8b24cd1e4f79528ef3f1cf7edfe0dbe0043563a44641446b8716086b46109dc565b60008054919250906110269073ffffffffffffffffffffffffffffffffffffffff167f3fe0524a97d46cff1be1703cd4a84d28fcc28e6c9bc09d2eedb2f0c75291a7646109dc565b600080549192509061106e9073ffffffffffffffffffffffffffffffffffffffff167f023253b2241a10d36b8c9af452236123ad9f4644f2ef4963970b2c4b77c42db56109dc565b60008054919250906110b69073ffffffffffffffffffffffffffffffffffffffff167fd43e0d138a55035def2f150c31798e941af349936fa84a9e5eda703a2e41218b6109dc565b90506000806110c88488888b8d6116f6565b915091508180156110d95750898114155b1561120d576040517f4cc822150000000000000000000000000000000000000000000000000000000081526004810182905273ffffffffffffffffffffffffffffffffffffffff871690634cc8221590602401600060405180830381600087803b15801561114657600080fd5b505af115801561115a573d6000803e3d6000fd5b50506040517f0ff4c916000000000000000000000000000000000000000000000000000000008152600481018490526000925073ffffffffffffffffffffffffffffffffffffffff86169150630ff4c91690602401602060405180830381865afa1580156111cc573d6000803e3d6000fd5b505050506040513d601f19601f820116820180604052508101906111f0919061313d565b905060006111fd82611838565b905061120a878d8361190c565b50505b50505050505050505050565b6000805461125d9073ffffffffffffffffffffffffffffffffffffffff167f9f1f3a31a60a234bc8a508336873749af020b9699210e11065568648853a05fa6109dc565b60008054919250906112a59073ffffffffffffffffffffffffffffffffffffffff167f4c5443efce5b9ecc79a1896dd0de307031c10094a3b3fc9a5d2b086c5b792de06109dc565b60008054919250906112ed9073ffffffffffffffffffffffffffffffffffffffff167f3fe0524a97d46cff1be1703cd4a84d28fcc28e6c9bc09d2eedb2f0c75291a7646109dc565b90506112fb82848787611b5b565b156109d45783516020808601516040805160e094851b818501529190931b6024820152602881018890527f9f1f3a31a60a234bc8a508336873749af020b9699210e11065568648853a05fa60488083019190915283518083039091018152606890910190925281519101206000906040517fcccf7a8e0000000000000000000000000000000000000000000000000000000081526004810182905290915060019073ffffffffffffffffffffffffffffffffffffffff86169063cccf7a8e90602401602060405180830381865afa1580156113da573d6000803e3d6000fd5b505050506040513d601f19601f820116820180604052508101906113fe9190612fcd565b1561149f576040517f0ff4c9160000000000000000000000000000000000000000000000000000000081526004810183905273ffffffffffffffffffffffffffffffffffffffff861690630ff4c91690602401602060405180830381865afa15801561146e573d6000803e3d6000fd5b505050506040513d601f19601f82011682018060405250810190611492919061315e565b61149c9082613179565b90505b6040517fd923c3c40000000000000000000000000000000000000000000000000000000081526004810183905263ffffffff8216602482015273ffffffffffffffffffffffffffffffffffffffff86169063d923c3c490604401600060405180830381600087803b15801561151357600080fd5b505af1158015611527573d6000803e3d6000fd5b50505050610d378389600161190c565b61085e81611d55565b60008061154f87878686611e01565b9150915060005b81811015610d37578573ffffffffffffffffffffffffffffffffffffffff16634cc8221584838151811061158c5761158c612f9e565b60200260200101516040518263ffffffff1660e01b81526004016115b291815260200190565b600060405180830381600087803b1580156115cc57600080fd5b505af11580156115e0573d6000803e3d6000fd5b5050505080806115ef9061319d565b915050611556565b611602848383611f6f565b610f4c8383611fb0565b60006116188383610b67565b90506001816101000151600281111561163357611633612e15565b14610763576040517f9c594b6100000000000000000000000000000000000000000000000000000000815260040160405180910390fd5b6116758383836120a1565b1561167f57505050565b6040517f95913fa700000000000000000000000000000000000000000000000000000000815260040160405180910390fd5b6116bb82826121ef565b156116c4575050565b6040517ff9f7e24f00000000000000000000000000000000000000000000000000000000815260040160405180910390fd5b60008060008773ffffffffffffffffffffffffffffffffffffffff1663b361be468660405160200161172891906131d5565b6040516020818303038152906040526040518263ffffffff1660e01b81526004016117539190612c59565b600060405180830381865afa158015611770573d6000803e3d6000fd5b505050506040513d6000823e601f3d9081017fffffffffffffffffffffffffffffffffffffffffffffffffffffffffffffffe01682016040526117b69190810190612f04565b905060005b81518110156118245760008282815181106117d8576117d8612f9e565b602002602001015190506117ed8982886120a1565b80156117fe57506117fe88826121ef565b156118115760019450925061182e915050565b508061181c8161319d565b9150506117bb565b5060008092509250505b9550959350505050565b60008082600581111561184d5761184d612e15565b0361185a57506001919050565b600282600581111561186e5761186e612e15565b148061188b5750600182600581111561188957611889612e15565b145b1561189857506003919050565b60038260058111156118ac576118ac612e15565b036118b957506005919050565b60048260058111156118cd576118cd612e15565b036118da57506009919050565b6040517f1ed6e93400000000000000000000000000000000000000000000000000000000815260040160405180910390fd5b6040517fcccf7a8e0000000000000000000000000000000000000000000000000000000081526004810183905273ffffffffffffffffffffffffffffffffffffffff84169063cccf7a8e90602401602060405180830381865afa158015611977573d6000803e3d6000fd5b505050506040513d601f19601f8201168201806040525081019061199b9190612fcd565b611a30576040517fd923c3c40000000000000000000000000000000000000000000000000000000081526004810183905263ffffffff8216602482015273ffffffffffffffffffffffffffffffffffffffff84169063d923c3c490604401600060405180830381600087803b158015611a1357600080fd5b505af1158015611a27573d6000803e3d6000fd5b50505050505050565b6040517f0ff4c9160000000000000000000000000000000000000000000000000000000081526004810183905260009073ffffffffffffffffffffffffffffffffffffffff851690630ff4c91690602401602060405180830381865afa158015611a9e573d6000803e3d6000fd5b505050506040513d601f19601f82011682018060405250810190611ac2919061315e565b905073ffffffffffffffffffffffffffffffffffffffff841663d923c3c484611aeb8585613179565b6040517fffffffff0000000000000000000000000000000000000000000000000000000060e085901b168152600481019290925263ffffffff166024820152604401600060405180830381600087803b158015611b4757600080fd5b505af1158015610d37573d6000803e3d6000fd5b600080611b688685610b67565b90506000611b7787868661231f565b90508160a0015161ffff168112611d465783516020808601516040805160e094851b818501529190931b6024820152602881018890527f9f1f3a31a60a234bc8a508336873749af020b9699210e11065568648853a05fa60488083019190915283518083039091018152606890910190925281519101206000906040517fcccf7a8e0000000000000000000000000000000000000000000000000000000081526004810182905290915073ffffffffffffffffffffffffffffffffffffffff88169063cccf7a8e90602401602060405180830381865afa158015611c5f573d6000803e3d6000fd5b505050506040513d601f19601f82011682018060405250810190611c839190612fcd565b611c935760019350505050611d4d565b6040517f0ff4c9160000000000000000000000000000000000000000000000000000000081526004810182905260009073ffffffffffffffffffffffffffffffffffffffff891690630ff4c91690602401602060405180830381865afa158015611d01573d6000803e3d6000fd5b505050506040513d601f19601f82011682018060405250810190611d25919061315e565b905060018163ffffffff161015611d43576001945050505050611d4d565b50505b6000925050505b949350505050565b7f8a22373512790c48b83a1fe2efdd2888d4a917bcdc24d0adf63e60f671680460805460405173ffffffffffffffffffffffffffffffffffffffff8481169216907f8be0079c531659141344cd1fd0a4f28419497f9722a3daafe3b4186f6b6457e090600090a380547fffffffffffffffffffffffff00000000000000000000000000000000000000001673ffffffffffffffffffffffffffffffffffffffff92909216919091179055565b6060600080611e10878561242f565b90506000815167ffffffffffffffff811115611e2e57611e2e612a7d565b604051908082528060200260200182016040528015611e57578160200160208202803683370190505b5090506000805b8351811015611f6057611f0589888a73ffffffffffffffffffffffffffffffffffffffff16630ff4c916888681518110611e9a57611e9a612f9e565b60200260200101516040518263ffffffff1660e01b8152600401611ec091815260200190565b6040805180830381865afa158015611edc573d6000803e3d6000fd5b505050506040513d601f19601f82011682018060405250810190611f0091906131f6565b612618565b611f4e57838181518110611f1b57611f1b612f9e565b6020026020010151838381518110611f3557611f35612f9e565b602090810291909101015281611f4a8161319d565b9250505b80611f588161319d565b915050611e5e565b50909890975095505050505050565b611f7a838383612705565b610763576040517f30cd747100000000000000000000000000000000000000000000000000000000815260040160405180910390fd5b6040517f0ff4c9160000000000000000000000000000000000000000000000000000000081526004810182905260009073ffffffffffffffffffffffffffffffffffffffff841690630ff4c91690602401600060405180830381865afa15801561201e573d6000803e3d6000fd5b505050506040513d6000823e601f3d9081017fffffffffffffffffffffffffffffffffffffffffffffffffffffffffffffffe01682016040526120649190810190612f04565b90508051600214610763576040517f520f044600000000000000000000000000000000000000000000000000000000815260040160405180910390fd5b6040517fcccf7a8e0000000000000000000000000000000000000000000000000000000081526004810183905260009073ffffffffffffffffffffffffffffffffffffffff85169063cccf7a8e90602401602060405180830381865afa15801561210f573d6000803e3d6000fd5b505050506040513d601f19601f820116820180604052508101906121339190612fcd565b61213f575060006107de565b6040517f0ff4c9160000000000000000000000000000000000000000000000000000000081526004810184905260009073ffffffffffffffffffffffffffffffffffffffff861690630ff4c91690602401602060405180830381865afa1580156121ad573d6000803e3d6000fd5b505050506040513d601f19601f820116820180604052508101906121d191906130e2565b90508281036121e45760019150506107de565b506000949350505050565b6040517fcccf7a8e0000000000000000000000000000000000000000000000000000000081526004810182905260009073ffffffffffffffffffffffffffffffffffffffff84169063cccf7a8e90602401602060405180830381865afa15801561225d573d6000803e3d6000fd5b505050506040513d601f19601f820116820180604052508101906122819190612fcd565b61228d57506000610b28565b6040517f0ff4c9160000000000000000000000000000000000000000000000000000000081526004810183905260009073ffffffffffffffffffffffffffffffffffffffff851690630ff4c91690602401602060405180830381865afa1580156122fb573d6000803e3d6000fd5b505050506040513d601f19601f82011682018060405250810190610b249190612fcd565b60008061232c8585610b67565b905061242673__$b5fa70ce9c99e9bebab5594b5571ea90bd$__631f92e70f8360c0015161ffff1686600001516123639190613212565b8460c0015161ffff16876020015161237b9190613212565b608086015160e0808801516040519186901b7fffffffff00000000000000000000000000000000000000000000000000000000168252600394850b60048301529290930b6024840152604483015260ff166064820152608401602060405180830381865af41580156123f1573d6000803e3d6000fd5b505050506040513d601f19601f820116820180604052508101906124159190613254565b6124216003600a613427565b61287f565b95945050505050565b604080516002808252606082810190935260009190816020015b6040805160608082018352600080835260208301529181019190915281526020019060019003908161244957905050604080516060810190915290915080600281526020017f33c4aae4b327d551cc4ea42873cd8dcaa61f5bc0f248cf0e6dd3473f9a820d6660001c8152602001846040516020016124ca91815260200190565b604051602081830303815290604052815250816000815181106124ef576124ef612f9e565b6020908102919091018101919091526040805160608101825260008082527f023253b2241a10d36b8c9af452236123ad9f4644f2ef4963970b2c4b77c42db582850152825190815292830182529081019190915281518290600190811061255857612558612f9e565b60209081029190910101526040517f687485a600000000000000000000000000000000000000000000000000000000815273ffffffffffffffffffffffffffffffffffffffff85169063687485a6906125b5908490600401613436565b600060405180830381865afa1580156125d2573d6000803e3d6000fd5b505050506040513d6000823e601f3d9081017fffffffffffffffffffffffffffffffffffffffffffffffffffffffffffffffe0168201604052610b249190810190612f04565b6000612624848461160c565b60006126308585610b67565b9050600061264b8260400151836060015184600001516129a9565b905060008160030b856000015160030b1315801561269c575061268e827fffffffffffffffffffffffffffffffffffffffffffffffffffffffffffffffff61350c565b60030b856000015160030b12155b905060008260030b866020015160030b131580156126ed57506126df837fffffffffffffffffffffffffffffffffffffffffffffffffffffffffffffffff61350c565b60030b866020015160030b12155b90508180156126f95750805b98975050505050505050565b6040517fcccf7a8e0000000000000000000000000000000000000000000000000000000081526004810183905260009073ffffffffffffffffffffffffffffffffffffffff85169063cccf7a8e90602401602060405180830381865afa158015612773573d6000803e3d6000fd5b505050506040513d601f19601f820116820180604052508101906127979190612fcd565b6127a3575060006107de565b6040517f0ff4c9160000000000000000000000000000000000000000000000000000000081526004810184905260009073ffffffffffffffffffffffffffffffffffffffff861690630ff4c91690602401602060405180830381865afa158015612811573d6000803e3d6000fd5b505050506040513d601f19601f82011682018060405250810190612835919061352c565b90508273ffffffffffffffffffffffffffffffffffffffff168173ffffffffffffffffffffffffffffffffffffffff16146128745760009150506107de565b506001949350505050565b60006f80000000000000000000000000000000600f84900b016128fc577fffffffffffffffff00000000000000000000000000000000000000000000000182121580156128e5575078010000000000000000000000000000000000000000000000008213155b6128ee57600080fd5b506000819003603f1b610b28565b60008084600f0b121561291457836000039350600190505b60008312156129265760009290920391155b600061293285856129f8565b90508115612973577f800000000000000000000000000000000000000000000000000000000000000081111561296757600080fd5b6000039150610b289050565b7f7fffffffffffffffffffffffffffffffffffffffffffffffffffffffffffffff8111156129a057600080fd5b9150610b289050565b6000806129b68342613549565b905060006129c4858361355c565b90508561ffff168161ffff16106129e0576000925050506107de565b6129ea81876135a4565b61ffff169695505050505050565b600081600003612a0a57506000610b28565b600083600f0b1215612a1b57600080fd5b600f83900b6fffffffffffffffffffffffffffffffff8316810260401c90608084901c0277ffffffffffffffffffffffffffffffffffffffffffffffff811115612a6457600080fd5b60401b8119811115612a7557600080fd5b019392505050565b7f4e487b7100000000000000000000000000000000000000000000000000000000600052604160045260246000fd5b604051610120810167ffffffffffffffff81118282101715612ad057612ad0612a7d565b60405290565b604051601f82017fffffffffffffffffffffffffffffffffffffffffffffffffffffffffffffffe016810167ffffffffffffffff81118282101715612b1d57612b1d612a7d565b604052919050565b600067ffffffffffffffff821115612b3f57612b3f612a7d565b50601f017fffffffffffffffffffffffffffffffffffffffffffffffffffffffffffffffe01660200190565b600060208284031215612b7d57600080fd5b813567ffffffffffffffff811115612b9457600080fd5b8201601f81018413612ba557600080fd5b8035612bb8612bb382612b25565b612ad6565b818152856020838501011115612bcd57600080fd5b81602084016020830137600091810160200191909152949350505050565b60005b83811015612c06578181015183820152602001612bee565b50506000910152565b60008151808452612c27816020860160208601612beb565b601f017fffffffffffffffffffffffffffffffffffffffffffffffffffffffffffffffe0169290920160200192915050565b6020815260006107de6020830184612c0f565b600060208284031215612c7e57600080fd5b5035919050565b8060030b811461085e57600080fd5b60008060008385036080811215612caa57600080fd5b843593506020850135925060407fffffffffffffffffffffffffffffffffffffffffffffffffffffffffffffffc082011215612ce557600080fd5b506040516040810181811067ffffffffffffffff82111715612d0957612d09612a7d565b6040908152850135612d1a81612c85565b81526060850135612d2a81612c85565b602082015292959194509192509050565b73ffffffffffffffffffffffffffffffffffffffff8116811461085e57600080fd5b600060208284031215612d6f57600080fd5b81356107de81612d3b565b600060408284031215612d8c57600080fd5b6040516040810181811067ffffffffffffffff82111715612daf57612daf612a7d565b80604052508091508251612dc281612c85565b81526020830151612dd281612c85565b6020919091015292915050565b600080600060808486031215612df457600080fd5b8351925060208401519150612e0c8560408601612d7a565b90509250925092565b7f4e487b7100000000000000000000000000000000000000000000000000000000600052602160045260246000fd5b828152606081016107de6020830184805160030b8252602081015160030b60208301525050565b600060208284031215612e7d57600080fd5b815167ffffffffffffffff811115612e9457600080fd5b8201601f81018413612ea557600080fd5b8051612eb3612bb382612b25565b818152856020838501011115612ec857600080fd5b612426826020830160208601612beb565b83815260208082018490528251600390810b604084015290830151900b606082015260808101611d4d565b60006020808385031215612f1757600080fd5b825167ffffffffffffffff80821115612f2f57600080fd5b818501915085601f830112612f4357600080fd5b815181811115612f5557612f55612a7d565b8060051b9150612f66848301612ad6565b8181529183018401918481019088841115612f8057600080fd5b938501935b838510156126f957845182529385019390850190612f85565b7f4e487b7100000000000000000000000000000000000000000000000000000000600052603260045260246000fd5b600060208284031215612fdf57600080fd5b815180151581146107de57600080fd5b805163ffffffff8116811461300357600080fd5b919050565b805161ffff8116811461300357600080fd5b805160ff8116811461300357600080fd5b80516003811061300357600080fd5b6000610120828403121561304d57600080fd5b613055612aac565b8251815261306560208401612fef565b602082015261307660408401613008565b604082015261308760608401613008565b6060820152608083015160808201526130a260a08401613008565b60a08201526130b360c08401613008565b60c08201526130c460e0840161301a565b60e08201526101006130d781850161302b565b908201529392505050565b6000602082840312156130f457600080fd5b5051919050565b7f4e487b7100000000000000000000000000000000000000000000000000000000600052601160045260246000fd5b80820180821115610b2857610b286130fb565b60006020828403121561314f57600080fd5b8151600681106107de57600080fd5b60006020828403121561317057600080fd5b6107de82612fef565b63ffffffff818116838216019080821115613196576131966130fb565b5092915050565b60007fffffffffffffffffffffffffffffffffffffffffffffffffffffffffffffffff82036131ce576131ce6130fb565b5060010190565b60408101610b288284805160030b8252602081015160030b60208301525050565b60006040828403121561320857600080fd5b6107de8383612d7a565b600381810b9083900b01637fffffff81137fffffffffffffffffffffffffffffffffffffffffffffffffffffffff8000000082121715610b2857610b286130fb565b60006020828403121561326657600080fd5b815180600f0b81146107de57600080fd5b80825b600180861161328957506132d4565b817f7fffffffffffffffffffffffffffffffffffffffffffffffffffffffffffffff048211156132bb576132bb6130fb565b808616156132c857918102915b9490941c93800261327a565b935093915050565b60008280156132f257600181146132fc57613305565b6001915050610b28565b82915050610b28565b508161331357506000610b28565b5060016000821380821461332c57801561336357613395565b827f7fffffffffffffffffffffffffffffffffffffffffffffffffffffffffffffff0483111561335e5761335e6130fb565b613395565b827f7fffffffffffffffffffffffffffffffffffffffffffffffffffffffffffffff05831215613395576133956130fb565b50808316156133a15750805b6133b18360011c83840283613277565b807f7fffffffffffffffffffffffffffffffffffffffffffffffffffffffffffffff0482116000831316156133e8576133e86130fb565b807f800000000000000000000000000000000000000000000000000000000000000005821260008312161561341f5761341f6130fb565b029392505050565b60006107de60ff8416836132dc565b60006020808301818452808551808352604092508286019150828160051b8701018488016000805b848110156134fd577fffffffffffffffffffffffffffffffffffffffffffffffffffffffffffffffc08a8503018652825160608151600681106134c8577f4e487b710000000000000000000000000000000000000000000000000000000085526021600452602485fd5b8652818a01518a87015290880151888601829052906134e981870183612c0f565b978a0197955050509187019160010161345e565b50919998505050505050505050565b60008260030b8260030b028060030b9150808214613196576131966130fb565b60006020828403121561353e57600080fd5b81516107de81612d3b565b81810381811115610b2857610b286130fb565b600061ffff80841680613598577f4e487b7100000000000000000000000000000000000000000000000000000000600052601260045260246000fd5b92169190910492915050565b61ffff828116828216039080821115613196576131966130fb56fea2646970667358221220e03dd2f45f255f592dab429f47c558df534b7058487040db22dcc6de07e7d41064736f6c63430008110033",
    "linkReferences": {
      "node_modules/@latticexyz/noise/contracts/Perlin.sol": {
        "Perlin": [
          {
            "start": 9685,
            "length": 20
          }
        ]
      }
    }
  },
  "methodIdentifiers": {
    "execute(bytes)": "09c5eabe",
    "executeTyped(uint256,uint256,(int32,int32))": "b15895dd",
    "owner()": "8da5cb5b",
    "revokeController(uint256)": "6318c82d",
    "transferOwnership(address)": "f2fde38b"
  },
  "id": 75
}