{
  "abi": [
    {
      "inputs": [
        {
          "internalType": "contract IWorld",
          "name": "_world",
          "type": "address"
        },
        {
          "internalType": "address",
          "name": "_components",
          "type": "address"
        }
      ],
      "stateMutability": "nonpayable",
      "type": "constructor"
    },
    {
      "inputs": [],
      "name": "BREntityNotGame",
      "type": "error"
    },
    {
      "inputs": [],
      "name": "BRGameNotInProgress",
      "type": "error"
    },
    {
      "inputs": [],
      "name": "BRNotInGame",
      "type": "error"
    },
    {
      "inputs": [],
      "name": "BRNotRecharged",
      "type": "error"
    },
    {
      "inputs": [],
      "name": "BRNotRevokeSystem",
      "type": "error"
    },
    {
      "inputs": [],
      "name": "BRPieceDead",
      "type": "error"
    },
    {
      "inputs": [],
      "name": "NotOwner",
      "type": "error"
    },
    {
      "inputs": [],
      "name": "Ownable__NotOwner",
      "type": "error"
    },
    {
      "inputs": [],
      "name": "Ownable__NotTransitiveOwner",
      "type": "error"
    },
    {
      "inputs": [],
      "name": "UnimplementedPieceType",
      "type": "error"
    },
    {
      "anonymous": false,
      "inputs": [
        {
          "indexed": true,
          "internalType": "address",
          "name": "previousOwner",
          "type": "address"
        },
        {
          "indexed": true,
          "internalType": "address",
          "name": "newOwner",
          "type": "address"
        }
      ],
      "name": "OwnershipTransferred",
      "type": "event"
    },
    {
      "inputs": [
        {
          "internalType": "bytes",
          "name": "arguments",
          "type": "bytes"
        }
      ],
      "name": "execute",
      "outputs": [
        {
          "internalType": "bytes",
          "name": "",
          "type": "bytes"
        }
      ],
      "stateMutability": "nonpayable",
      "type": "function"
    },
    {
      "inputs": [
        {
          "internalType": "uint256",
          "name": "piece",
          "type": "uint256"
        },
        {
          "internalType": "uint256",
          "name": "game",
          "type": "uint256"
        },
        {
          "components": [
            {
              "internalType": "int32",
              "name": "x",
              "type": "int32"
            },
            {
              "internalType": "int32",
              "name": "y",
              "type": "int32"
            }
          ],
          "internalType": "struct Coord",
          "name": "position",
          "type": "tuple"
        }
      ],
      "name": "executeTyped",
      "outputs": [
        {
          "internalType": "bytes",
          "name": "",
          "type": "bytes"
        }
      ],
      "stateMutability": "nonpayable",
      "type": "function"
    },
    {
      "inputs": [],
      "name": "owner",
      "outputs": [
        {
          "internalType": "address",
          "name": "",
          "type": "address"
        }
      ],
      "stateMutability": "view",
      "type": "function"
    },
    {
      "inputs": [
        {
          "internalType": "uint256",
          "name": "piece",
          "type": "uint256"
        }
      ],
      "name": "revokeController",
      "outputs": [],
      "stateMutability": "nonpayable",
      "type": "function"
    },
    {
      "inputs": [
        {
          "internalType": "address",
          "name": "account",
          "type": "address"
        }
      ],
      "name": "transferOwnership",
      "outputs": [],
      "stateMutability": "nonpayable",
      "type": "function"
    }
  ],
  "bytecode": {
    "object": "0x60806040523480156200001157600080fd5b50604051620033f1380380620033f183398101604081905262000034916200022c565b818162000041336200010f565b6001600160a01b03811615620000585780620000bd565b816001600160a01b031663ba62fbe46040518163ffffffff1660e01b8152600401602060405180830381865afa15801562000097573d6000803e3d6000fd5b505050506040513d601f19601f82011682018060405250810190620000bd91906200026b565b600080546001600160a01b03199081166001600160a01b0393841690811790925560018054909116928516928317905562000105919062000183602090811b6200086117901c565b5050505062000292565b600062000126620001ef60201b620008f21760201c565b80546040519192506001600160a01b03808516929116907f8be0079c531659141344cd1fd0a4f28419497f9722a3daafe3b4186f6b6457e090600090a380546001600160a01b0319166001600160a01b0392909216919091179055565b7ff67304f10c7772c78e439bc5cb07781db345424de8878c18100fdaa64d197a8780546001600160a01b039384166001600160a01b0319918216179091557ff67304f10c7772c78e439bc5cb07781db345424de8878c18100fdaa64d197a868054929093169116179055565b7f8a22373512790c48b83a1fe2efdd2888d4a917bcdc24d0adf63e60f67168046090565b6001600160a01b03811681146200022957600080fd5b50565b600080604083850312156200024057600080fd5b82516200024d8162000213565b6020840151909250620002608162000213565b809150509250929050565b6000602082840312156200027e57600080fd5b81516200028b8162000213565b9392505050565b61314f80620002a26000396000f3fe608060405234801561001057600080fd5b50600436106100675760003560e01c80638da5cb5b116100505780638da5cb5b146100aa578063b15895dd146100d7578063f2fde38b146100ea57600080fd5b806309c5eabe1461006c5780636318c82d14610095575b600080fd5b61007f61007a366004612848565b6100fd565b60405161008c9190612936565b60405180910390f35b6100a86100a3366004612949565b6105c2565b005b6100b2610768565b60405173ffffffffffffffffffffffffffffffffffffffff909116815260200161008c565b61007f6100e5366004612971565b6107ad565b6100a86100f8366004612a3a565b6107e5565b60606000806000848060200190518101906101189190612abc565b600154600054939650919450925061014b9173ffffffffffffffffffffffffffffffffffffffff91821691859116610916565b6000805461018f9073ffffffffffffffffffffffffffffffffffffffff167f3aa78a206fc67ba4c2dbdbfa4f9637a0b391d7db261dacc2eb5d96f7b5693d976109b5565b60008054919250906101d79073ffffffffffffffffffffffffffffffffffffffff167f1f26ebf637805df90fe5cf9a282dd66905185d55ff65696a9171e1a656152d396109b5565b600080549192509061021f9073ffffffffffffffffffffffffffffffffffffffff167f4c5443efce5b9ecc79a1896dd0de307031c10094a3b3fc9a5d2b086c5b792de06109b5565b60008054919250906102679073ffffffffffffffffffffffffffffffffffffffff167f33c4aae4b327d551cc4ea42873cd8dcaa61f5bc0f248cf0e6dd3473f9a820d666109b5565b60008054919250906102af9073ffffffffffffffffffffffffffffffffffffffff167f3e4e98a8b24cd1e4f79528ef3f1cf7edfe0dbe0043563a44641446b8716086b46109b5565b60008054919250906102f79073ffffffffffffffffffffffffffffffffffffffff167f6f6c09948e327abfd3c44b7965920048be367af522273db94a5172d20538b9ac6109b5565b600080549192509061033f9073ffffffffffffffffffffffffffffffffffffffff167f3f2fb6fd7210998f35a2426a57025beb8981672a7fe1d2a38eee35cd7fc22305610b07565b9050600061034d868b610b40565b6101000151600281111561036357610363612af2565b03610441576040517ff2f9a0ab00000000000000000000000000000000000000000000000000000000815273ffffffffffffffffffffffffffffffffffffffff82169063f2f9a0ab906103bc908d908c90600401612b21565b6000604051808303816000875af11580156103db573d6000803e3d6000fd5b505050506040513d6000823e601f3d9081017fffffffffffffffffffffffffffffffffffffffffffffffffffffffffffffffe01682016040526104219190810190612b48565b50506040805160008152602081019091529b9a5050505050505050505050565b61045187878787878f8f33610ce5565b61045d82868c8c610d1a565b6040517f1ab06ee5000000000000000000000000000000000000000000000000000000008152600481018b905242602482015273ffffffffffffffffffffffffffffffffffffffff831690631ab06ee590604401600060405180830381600087803b1580156104cb57600080fd5b505af11580156104df573d6000803e3d6000fd5b505050506104ee8a8a8a610f2b565b6104f98a8a8a6111f2565b6040517ff2f9a0ab00000000000000000000000000000000000000000000000000000000815273ffffffffffffffffffffffffffffffffffffffff82169063f2f9a0ab9061054d908d908c90600401612b21565b6000604051808303816000875af115801561056c573d6000803e3d6000fd5b505050506040513d6000823e601f3d9081017fffffffffffffffffffffffffffffffffffffffffffffffffffffffffffffffe01682016040526105b29190810190612b48565b5050505050505050505050919050565b6000546106059073ffffffffffffffffffffffffffffffffffffffff167fc460a39063d43ec0746708579b6d331f5d24b3fd0a5b1ec179dd09d5c0daa6ac610b07565b73ffffffffffffffffffffffffffffffffffffffff163373ffffffffffffffffffffffffffffffffffffffff1614610669576040517fc3a4a1fa00000000000000000000000000000000000000000000000000000000815260040160405180910390fd5b600080546106ad9073ffffffffffffffffffffffffffffffffffffffff167f1ec70c1de07ff6a0c043722045ffa20707571b9fcddd4bdecc65ed19faf4debe610b07565b6040517f3e991df30000000000000000000000000000000000000000000000000000000081526004810184905290915073ffffffffffffffffffffffffffffffffffffffff821690633e991df3906024016000604051808303816000875af115801561071d573d6000803e3d6000fd5b505050506040513d6000823e601f3d9081017fffffffffffffffffffffffffffffffffffffffffffffffffffffffffffffffe01682016040526107639190810190612b48565b505050565b60006107a87f8a22373512790c48b83a1fe2efdd2888d4a917bcdc24d0adf63e60f6716804605473ffffffffffffffffffffffffffffffffffffffff1690565b905090565b60606107db8484846040516020016107c793929190612bb6565b6040516020818303038152906040526100fd565b90505b9392505050565b7f8a22373512790c48b83a1fe2efdd2888d4a917bcdc24d0adf63e60f6716804605473ffffffffffffffffffffffffffffffffffffffff163314610855576040517f2f7a8ee100000000000000000000000000000000000000000000000000000000815260040160405180910390fd5b61085e816114b3565b50565b7ff67304f10c7772c78e439bc5cb07781db345424de8878c18100fdaa64d197a87805473ffffffffffffffffffffffffffffffffffffffff9384167fffffffffffffffffffffffff0000000000000000000000000000000000000000918216179091557ff67304f10c7772c78e439bc5cb07781db345424de8878c18100fdaa64d197a868054929093169116179055565b7f8a22373512790c48b83a1fe2efdd2888d4a917bcdc24d0adf63e60f67168046090565b6000610942827f4c5443efce5b9ecc79a1896dd0de307031c10094a3b3fc9a5d2b086c5b792de06109b5565b90506000610970837f3e4e98a8b24cd1e4f79528ef3f1cf7edfe0dbe0043563a44641446b8716086b46109b5565b9050600061099e847f023253b2241a10d36b8c9af452236123ad9f4644f2ef4963970b2c4b77c42db56109b5565b90506109ad86848484896114bc565b505050505050565b6040517ffbdfa1ea00000000000000000000000000000000000000000000000000000000815260048101829052600090819073ffffffffffffffffffffffffffffffffffffffff85169063fbdfa1ea90602401600060405180830381865afa158015610a25573d6000803e3d6000fd5b505050506040513d6000823e601f3d9081017fffffffffffffffffffffffffffffffffffffffffffffffffffffffffffffffe0168201604052610a6b9190810190612be1565b90508051600003610adc576040517f08c379a000000000000000000000000000000000000000000000000000000000815260206004820152601160248201527f6964206e6f742072656769737465726564000000000000000000000000000000604482015260640160405180910390fd5b610afd81600081518110610af257610af2612c7b565b602002602001015190565b9150505b92915050565b600080610b34847f017c816a964927a00e050edd780dcf113ca2756dfa9e9fda94a05c140d9317b06109b5565b9050610afd81846109b5565b610b8d6040805161012081018252600080825260208201819052918101829052606081018290526080810182905260a0810182905260c0810182905260e081018290529061010082015290565b6040517fcccf7a8e0000000000000000000000000000000000000000000000000000000081526004810183905273ffffffffffffffffffffffffffffffffffffffff84169063cccf7a8e90602401602060405180830381865afa158015610bf8573d6000803e3d6000fd5b505050506040513d601f19601f82011682018060405250810190610c1c9190612caa565b610c52576040517f82203a4100000000000000000000000000000000000000000000000000000000815260040160405180910390fd5b6040517f0ff4c9160000000000000000000000000000000000000000000000000000000081526004810183905260009073ffffffffffffffffffffffffffffffffffffffff851690630ff4c9169060240161012060405180830381865afa158015610cc1573d6000803e3d6000fd5b505050506040513d601f19601f82011682018060405250810190610afd9190612d29565b610cf188888584611573565b610cfb8683611583565b610d068584846115e1565b610d108484611628565b5050505050505050565b6040517fcccf7a8e0000000000000000000000000000000000000000000000000000000081526004810183905273ffffffffffffffffffffffffffffffffffffffff85169063cccf7a8e90602401602060405180830381865afa158015610d85573d6000803e3d6000fd5b505050506040513d601f19601f82011682018060405250810190610da99190612caa565b15610f25576040517f0ff4c9160000000000000000000000000000000000000000000000000000000081526004810183905260009073ffffffffffffffffffffffffffffffffffffffff861690630ff4c91690602401602060405180830381865afa158015610e1c573d6000803e3d6000fd5b505050506040513d601f19601f82011682018060405250810190610e409190612dd1565b6040517f0ff4c9160000000000000000000000000000000000000000000000000000000081526004810184905290915060009073ffffffffffffffffffffffffffffffffffffffff861690630ff4c9169060240161012060405180830381865afa158015610eb2573d6000803e3d6000fd5b505050506040513d601f19601f82011682018060405250810190610ed69190612d29565b60200151905042610eed63ffffffff831684612e19565b11156109ad576040517fbabe350500000000000000000000000000000000000000000000000000000000815260040160405180910390fd5b50505050565b60008054610f6f9073ffffffffffffffffffffffffffffffffffffffff167f33c4aae4b327d551cc4ea42873cd8dcaa61f5bc0f248cf0e6dd3473f9a820d666109b5565b6000805491925090610fb79073ffffffffffffffffffffffffffffffffffffffff167f3e4e98a8b24cd1e4f79528ef3f1cf7edfe0dbe0043563a44641446b8716086b46109b5565b6000805491925090610fff9073ffffffffffffffffffffffffffffffffffffffff167f3fe0524a97d46cff1be1703cd4a84d28fcc28e6c9bc09d2eedb2f0c75291a7646109b5565b60008054919250906110479073ffffffffffffffffffffffffffffffffffffffff167f023253b2241a10d36b8c9af452236123ad9f4644f2ef4963970b2c4b77c42db56109b5565b600080549192509061108f9073ffffffffffffffffffffffffffffffffffffffff167fd43e0d138a55035def2f150c31798e941af349936fa84a9e5eda703a2e41218b6109b5565b90506000806110a18488888b8d61166d565b915091508180156110b25750898114155b156111e6576040517f4cc822150000000000000000000000000000000000000000000000000000000081526004810182905273ffffffffffffffffffffffffffffffffffffffff871690634cc8221590602401600060405180830381600087803b15801561111f57600080fd5b505af1158015611133573d6000803e3d6000fd5b50506040517f0ff4c916000000000000000000000000000000000000000000000000000000008152600481018490526000925073ffffffffffffffffffffffffffffffffffffffff86169150630ff4c91690602401602060405180830381865afa1580156111a5573d6000803e3d6000fd5b505050506040513d601f19601f820116820180604052508101906111c99190612e2c565b905060006111d6826117af565b90506111e3878d83611883565b50505b50505050505050505050565b600080546112369073ffffffffffffffffffffffffffffffffffffffff167f9f1f3a31a60a234bc8a508336873749af020b9699210e11065568648853a05fa6109b5565b600080549192509061127e9073ffffffffffffffffffffffffffffffffffffffff167f4c5443efce5b9ecc79a1896dd0de307031c10094a3b3fc9a5d2b086c5b792de06109b5565b60008054919250906112c69073ffffffffffffffffffffffffffffffffffffffff167f3fe0524a97d46cff1be1703cd4a84d28fcc28e6c9bc09d2eedb2f0c75291a7646109b5565b90506112d482848787611ad2565b156109ad5760006112e58587611c71565b6040517fcccf7a8e0000000000000000000000000000000000000000000000000000000081526004810182905290915060019073ffffffffffffffffffffffffffffffffffffffff86169063cccf7a8e90602401602060405180830381865afa158015611356573d6000803e3d6000fd5b505050506040513d601f19601f8201168201806040525081019061137a9190612caa565b1561141b576040517f0ff4c9160000000000000000000000000000000000000000000000000000000081526004810183905273ffffffffffffffffffffffffffffffffffffffff861690630ff4c91690602401602060405180830381865afa1580156113ea573d6000803e3d6000fd5b505050506040513d601f19601f8201168201806040525081019061140e9190612e4d565b6114189082612e68565b90505b6040517fd923c3c40000000000000000000000000000000000000000000000000000000081526004810183905263ffffffff8216602482015273ffffffffffffffffffffffffffffffffffffffff86169063d923c3c490604401600060405180830381600087803b15801561148f57600080fd5b505af11580156114a3573d6000803e3d6000fd5b50505050610d1083896001611883565b61085e81611ce6565b6000806114cb87878686611d92565b9150915060005b81811015610d10578573ffffffffffffffffffffffffffffffffffffffff16634cc8221584838151811061150857611508612c7b565b60200260200101516040518263ffffffff1660e01b815260040161152e91815260200190565b600060405180830381600087803b15801561154857600080fd5b505af115801561155c573d6000803e3d6000fd5b50505050808061156b90612e8c565b9150506114d2565b61157e848383611f00565b610f25565b600061158f8383610b40565b9050600181610100015160028111156115aa576115aa612af2565b14610763576040517f9c594b6100000000000000000000000000000000000000000000000000000000815260040160405180910390fd5b6115ec838383611f41565b156115f657505050565b6040517f95913fa700000000000000000000000000000000000000000000000000000000815260040160405180910390fd5b611632828261208f565b1561163b575050565b6040517ff9f7e24f00000000000000000000000000000000000000000000000000000000815260040160405180910390fd5b60008060008773ffffffffffffffffffffffffffffffffffffffff1663b361be468660405160200161169f9190612ec4565b6040516020818303038152906040526040518263ffffffff1660e01b81526004016116ca9190612936565b600060405180830381865afa1580156116e7573d6000803e3d6000fd5b505050506040513d6000823e601f3d9081017fffffffffffffffffffffffffffffffffffffffffffffffffffffffffffffffe016820160405261172d9190810190612be1565b905060005b815181101561179b57600082828151811061174f5761174f612c7b565b60200260200101519050611764898288611f41565b80156117755750611775888261208f565b15611788576001945092506117a5915050565b508061179381612e8c565b915050611732565b5060008092509250505b9550959350505050565b6000808260058111156117c4576117c4612af2565b036117d157506001919050565b60028260058111156117e5576117e5612af2565b14806118025750600182600581111561180057611800612af2565b145b1561180f57506003919050565b600382600581111561182357611823612af2565b0361183057506005919050565b600482600581111561184457611844612af2565b0361185157506009919050565b6040517f1ed6e93400000000000000000000000000000000000000000000000000000000815260040160405180910390fd5b6040517fcccf7a8e0000000000000000000000000000000000000000000000000000000081526004810183905273ffffffffffffffffffffffffffffffffffffffff84169063cccf7a8e90602401602060405180830381865afa1580156118ee573d6000803e3d6000fd5b505050506040513d601f19601f820116820180604052508101906119129190612caa565b6119a7576040517fd923c3c40000000000000000000000000000000000000000000000000000000081526004810183905263ffffffff8216602482015273ffffffffffffffffffffffffffffffffffffffff84169063d923c3c490604401600060405180830381600087803b15801561198a57600080fd5b505af115801561199e573d6000803e3d6000fd5b50505050505050565b6040517f0ff4c9160000000000000000000000000000000000000000000000000000000081526004810183905260009073ffffffffffffffffffffffffffffffffffffffff851690630ff4c91690602401602060405180830381865afa158015611a15573d6000803e3d6000fd5b505050506040513d601f19601f82011682018060405250810190611a399190612e4d565b905073ffffffffffffffffffffffffffffffffffffffff841663d923c3c484611a628585612e68565b6040517fffffffff0000000000000000000000000000000000000000000000000000000060e085901b168152600481019290925263ffffffff166024820152604401600060405180830381600087803b158015611abe57600080fd5b505af1158015610d10573d6000803e3d6000fd5b600080611adf8685610b40565b90506000611aee8786866121bf565b90508160a00151600f0b81600f0b12611c62576000611b0d8587611c71565b6040517fcccf7a8e0000000000000000000000000000000000000000000000000000000081526004810182905290915073ffffffffffffffffffffffffffffffffffffffff88169063cccf7a8e90602401602060405180830381865afa158015611b7b573d6000803e3d6000fd5b505050506040513d601f19601f82011682018060405250810190611b9f9190612caa565b611baf5760019350505050611c69565b6040517f0ff4c9160000000000000000000000000000000000000000000000000000000081526004810182905260009073ffffffffffffffffffffffffffffffffffffffff891690630ff4c91690602401602060405180830381865afa158015611c1d573d6000803e3d6000fd5b505050506040513d601f19601f82011682018060405250810190611c419190612e4d565b905060018163ffffffff161015611c5f576001945050505050611c69565b50505b6000925050505b949350505050565b604051600090611ca990849084907f9f1f3a31a60a234bc8a508336873749af020b9699210e11065568648853a05fa90602001612ee5565b604080517fffffffffffffffffffffffffffffffffffffffffffffffffffffffffffffffe081840301815291905280516020909101209392505050565b7f8a22373512790c48b83a1fe2efdd2888d4a917bcdc24d0adf63e60f671680460805460405173ffffffffffffffffffffffffffffffffffffffff8481169216907f8be0079c531659141344cd1fd0a4f28419497f9722a3daafe3b4186f6b6457e090600090a380547fffffffffffffffffffffffff00000000000000000000000000000000000000001673ffffffffffffffffffffffffffffffffffffffff92909216919091179055565b6060600080611da187856122bb565b90506000815167ffffffffffffffff811115611dbf57611dbf61275a565b604051908082528060200260200182016040528015611de8578160200160208202803683370190505b5090506000805b8351811015611ef157611e9689888a73ffffffffffffffffffffffffffffffffffffffff16630ff4c916888681518110611e2b57611e2b612c7b565b60200260200101516040518263ffffffff1660e01b8152600401611e5191815260200190565b6040805180830381865afa158015611e6d573d6000803e3d6000fd5b505050506040513d601f19601f82011682018060405250810190611e919190612f17565b6124a4565b611edf57838181518110611eac57611eac612c7b565b6020026020010151838381518110611ec657611ec6612c7b565b602090810291909101015281611edb81612e8c565b9250505b80611ee981612e8c565b915050611def565b50909890975095505050505050565b611f0b838383612591565b610763576040517f30cd747100000000000000000000000000000000000000000000000000000000815260040160405180910390fd5b6040517fcccf7a8e0000000000000000000000000000000000000000000000000000000081526004810183905260009073ffffffffffffffffffffffffffffffffffffffff85169063cccf7a8e90602401602060405180830381865afa158015611faf573d6000803e3d6000fd5b505050506040513d601f19601f82011682018060405250810190611fd39190612caa565b611fdf575060006107de565b6040517f0ff4c9160000000000000000000000000000000000000000000000000000000081526004810184905260009073ffffffffffffffffffffffffffffffffffffffff861690630ff4c91690602401602060405180830381865afa15801561204d573d6000803e3d6000fd5b505050506040513d601f19601f820116820180604052508101906120719190612dd1565b90508281036120845760019150506107de565b506000949350505050565b6040517fcccf7a8e0000000000000000000000000000000000000000000000000000000081526004810182905260009073ffffffffffffffffffffffffffffffffffffffff84169063cccf7a8e90602401602060405180830381865afa1580156120fd573d6000803e3d6000fd5b505050506040513d601f19601f820116820180604052508101906121219190612caa565b61212d57506000610b01565b6040517f0ff4c9160000000000000000000000000000000000000000000000000000000081526004810183905260009073ffffffffffffffffffffffffffffffffffffffff851690630ff4c91690602401602060405180830381865afa15801561219b573d6000803e3d6000fd5b505050506040513d601f19601f82011682018060405250810190610afd9190612caa565b6000806121cc8585610b40565b905073__$b5fa70ce9c99e9bebab5594b5571ea90bd$__631f92e70f8260c0015161ffff1685600001516122009190612f33565b8360c0015161ffff1686602001516122189190612f33565b608085015160e0808701516040519186901b7fffffffff00000000000000000000000000000000000000000000000000000000168252600394850b60048301529290930b6024840152604483015260ff166064820152608401602060405180830381865af415801561228e573d6000803e3d6000fd5b505050506040513d601f19601f820116820180604052508101906122b29190612f75565b95945050505050565b604080516002808252606082810190935260009190816020015b604080516060808201835260008083526020830152918101919091528152602001906001900390816122d557905050604080516060810190915290915080600281526020017f33c4aae4b327d551cc4ea42873cd8dcaa61f5bc0f248cf0e6dd3473f9a820d6660001c81526020018460405160200161235691815260200190565b6040516020818303038152906040528152508160008151811061237b5761237b612c7b565b6020908102919091018101919091526040805160608101825260008082527f023253b2241a10d36b8c9af452236123ad9f4644f2ef4963970b2c4b77c42db58285015282519081529283018252908101919091528151829060019081106123e4576123e4612c7b565b60209081029190910101526040517f687485a600000000000000000000000000000000000000000000000000000000815273ffffffffffffffffffffffffffffffffffffffff85169063687485a690612441908490600401612f90565b600060405180830381865afa15801561245e573d6000803e3d6000fd5b505050506040513d6000823e601f3d9081017fffffffffffffffffffffffffffffffffffffffffffffffffffffffffffffffe0168201604052610afd9190810190612be1565b60006124b08484611583565b60006124bc8585610b40565b905060006124d782604001518360600151846000015161270b565b905060008160030b856000015160030b13158015612528575061251a827fffffffffffffffffffffffffffffffffffffffffffffffffffffffffffffffff613066565b60030b856000015160030b12155b905060008260030b866020015160030b13158015612579575061256b837fffffffffffffffffffffffffffffffffffffffffffffffffffffffffffffffff613066565b60030b866020015160030b12155b90508180156125855750805b98975050505050505050565b6040517fcccf7a8e0000000000000000000000000000000000000000000000000000000081526004810183905260009073ffffffffffffffffffffffffffffffffffffffff85169063cccf7a8e90602401602060405180830381865afa1580156125ff573d6000803e3d6000fd5b505050506040513d601f19601f820116820180604052508101906126239190612caa565b61262f575060006107de565b6040517f0ff4c9160000000000000000000000000000000000000000000000000000000081526004810184905260009073ffffffffffffffffffffffffffffffffffffffff861690630ff4c91690602401602060405180830381865afa15801561269d573d6000803e3d6000fd5b505050506040513d601f19601f820116820180604052508101906126c19190613086565b90508273ffffffffffffffffffffffffffffffffffffffff168173ffffffffffffffffffffffffffffffffffffffff16146127005760009150506107de565b506001949350505050565b60008061271883426130a3565b9050600061272685836130b6565b90508561ffff168161ffff1610612742576000925050506107de565b61274c81876130fe565b61ffff169695505050505050565b7f4e487b7100000000000000000000000000000000000000000000000000000000600052604160045260246000fd5b604051610120810167ffffffffffffffff811182821017156127ad576127ad61275a565b60405290565b604051601f82017fffffffffffffffffffffffffffffffffffffffffffffffffffffffffffffffe016810167ffffffffffffffff811182821017156127fa576127fa61275a565b604052919050565b600067ffffffffffffffff82111561281c5761281c61275a565b50601f017fffffffffffffffffffffffffffffffffffffffffffffffffffffffffffffffe01660200190565b60006020828403121561285a57600080fd5b813567ffffffffffffffff81111561287157600080fd5b8201601f8101841361288257600080fd5b803561289561289082612802565b6127b3565b8181528560208385010111156128aa57600080fd5b81602084016020830137600091810160200191909152949350505050565b60005b838110156128e35781810151838201526020016128cb565b50506000910152565b600081518084526129048160208601602086016128c8565b601f017fffffffffffffffffffffffffffffffffffffffffffffffffffffffffffffffe0169290920160200192915050565b6020815260006107de60208301846128ec565b60006020828403121561295b57600080fd5b5035919050565b8060030b811461085e57600080fd5b6000806000838503608081121561298757600080fd5b843593506020850135925060407fffffffffffffffffffffffffffffffffffffffffffffffffffffffffffffffc0820112156129c257600080fd5b506040516040810181811067ffffffffffffffff821117156129e6576129e661275a565b60409081528501356129f781612962565b81526060850135612a0781612962565b602082015292959194509192509050565b73ffffffffffffffffffffffffffffffffffffffff8116811461085e57600080fd5b600060208284031215612a4c57600080fd5b81356107de81612a18565b600060408284031215612a6957600080fd5b6040516040810181811067ffffffffffffffff82111715612a8c57612a8c61275a565b80604052508091508251612a9f81612962565b81526020830151612aaf81612962565b6020919091015292915050565b600080600060808486031215612ad157600080fd5b8351925060208401519150612ae98560408601612a57565b90509250925092565b7f4e487b7100000000000000000000000000000000000000000000000000000000600052602160045260246000fd5b828152606081016107de6020830184805160030b8252602081015160030b60208301525050565b600060208284031215612b5a57600080fd5b815167ffffffffffffffff811115612b7157600080fd5b8201601f81018413612b8257600080fd5b8051612b9061289082612802565b818152856020838501011115612ba557600080fd5b6122b28260208301602086016128c8565b83815260208082018490528251600390810b604084015290830151900b606082015260808101611c69565b60006020808385031215612bf457600080fd5b825167ffffffffffffffff80821115612c0c57600080fd5b818501915085601f830112612c2057600080fd5b815181811115612c3257612c3261275a565b8060051b9150612c438483016127b3565b8181529183018401918481019088841115612c5d57600080fd5b938501935b8385101561258557845182529385019390850190612c62565b7f4e487b7100000000000000000000000000000000000000000000000000000000600052603260045260246000fd5b600060208284031215612cbc57600080fd5b815180151581146107de57600080fd5b805163ffffffff81168114612ce057600080fd5b919050565b805161ffff81168114612ce057600080fd5b8051600f81900b8114612ce057600080fd5b805160ff81168114612ce057600080fd5b805160038110612ce057600080fd5b60006101208284031215612d3c57600080fd5b612d44612789565b82518152612d5460208401612ccc565b6020820152612d6560408401612ce5565b6040820152612d7660608401612ce5565b606082015260808301516080820152612d9160a08401612cf7565b60a0820152612da260c08401612ce5565b60c0820152612db360e08401612d09565b60e0820152610100612dc6818501612d1a565b908201529392505050565b600060208284031215612de357600080fd5b5051919050565b7f4e487b7100000000000000000000000000000000000000000000000000000000600052601160045260246000fd5b80820180821115610b0157610b01612dea565b600060208284031215612e3e57600080fd5b8151600681106107de57600080fd5b600060208284031215612e5f57600080fd5b6107de82612ccc565b63ffffffff818116838216019080821115612e8557612e85612dea565b5092915050565b60007fffffffffffffffffffffffffffffffffffffffffffffffffffffffffffffffff8203612ebd57612ebd612dea565b5060010190565b60408101610b018284805160030b8252602081015160030b60208301525050565b60808101612f068286805160030b8252602081015160030b60208301525050565b604082019390935260600152919050565b600060408284031215612f2957600080fd5b6107de8383612a57565b600381810b9083900b01637fffffff81137fffffffffffffffffffffffffffffffffffffffffffffffffffffffff8000000082121715610b0157610b01612dea565b600060208284031215612f8757600080fd5b6107de82612cf7565b60006020808301818452808551808352604092508286019150828160051b8701018488016000805b84811015613057577fffffffffffffffffffffffffffffffffffffffffffffffffffffffffffffffc08a850301865282516060815160068110613022577f4e487b710000000000000000000000000000000000000000000000000000000085526021600452602485fd5b8652818a01518a8701529088015188860182905290613043818701836128ec565b978a01979550505091870191600101612fb8565b50919998505050505050505050565b60008260030b8260030b028060030b9150808214612e8557612e85612dea565b60006020828403121561309857600080fd5b81516107de81612a18565b81810381811115610b0157610b01612dea565b600061ffff808416806130f2577f4e487b7100000000000000000000000000000000000000000000000000000000600052601260045260246000fd5b92169190910492915050565b61ffff828116828216039080821115612e8557612e85612dea56fea26469706673582212207449b19d5e8c98926e7b17b0ae481bf1884772df77c0665563468ace0f1b787264736f6c63430008110033",
    "linkReferences": {
      "node_modules/@latticexyz/noise/contracts/Perlin.sol": {
        "Perlin": [
          {
            "start": 9330,
            "length": 20
          }
        ]
      }
    }
  },
  "methodIdentifiers": {
    "execute(bytes)": "09c5eabe",
    "executeTyped(uint256,uint256,(int32,int32))": "b15895dd",
    "owner()": "8da5cb5b",
    "revokeController(uint256)": "6318c82d",
    "transferOwnership(address)": "f2fde38b"
  },
  "id": 75
}