{
  "abi": [
    {
      "inputs": [
        {
          "internalType": "contract IWorld",
          "name": "_world",
          "type": "address"
        },
        {
          "internalType": "address",
          "name": "_components",
          "type": "address"
        }
      ],
      "stateMutability": "nonpayable",
      "type": "constructor"
    },
    {
      "inputs": [],
      "name": "BREntityNotGame",
      "type": "error"
    },
    {
      "inputs": [],
      "name": "BRGameNotInProgress",
      "type": "error"
    },
    {
      "inputs": [],
      "name": "BRIncorrectControllers",
      "type": "error"
    },
    {
      "inputs": [],
      "name": "BRNotEnoughPoints",
      "type": "error"
    },
    {
      "inputs": [],
      "name": "BRNotInGame",
      "type": "error"
    },
    {
      "inputs": [],
      "name": "BRNotRevokeSystem",
      "type": "error"
    },
    {
      "inputs": [],
      "name": "BRPieceDead",
      "type": "error"
    },
    {
      "inputs": [],
      "name": "NotOwner",
      "type": "error"
    },
    {
      "inputs": [],
      "name": "Ownable__NotOwner",
      "type": "error"
    },
    {
      "inputs": [],
      "name": "Ownable__NotTransitiveOwner",
      "type": "error"
    },
    {
      "inputs": [],
      "name": "UnimplementedPieceType",
      "type": "error"
    },
    {
      "anonymous": false,
      "inputs": [
        {
          "indexed": true,
          "internalType": "address",
          "name": "previousOwner",
          "type": "address"
        },
        {
          "indexed": true,
          "internalType": "address",
          "name": "newOwner",
          "type": "address"
        }
      ],
      "name": "OwnershipTransferred",
      "type": "event"
    },
    {
      "inputs": [
        {
          "internalType": "bytes",
          "name": "arguments",
          "type": "bytes"
        }
      ],
      "name": "execute",
      "outputs": [
        {
          "internalType": "bytes",
          "name": "",
          "type": "bytes"
        }
      ],
      "stateMutability": "nonpayable",
      "type": "function"
    },
    {
      "inputs": [
        {
          "internalType": "uint256",
          "name": "piece",
          "type": "uint256"
        },
        {
          "internalType": "uint256",
          "name": "game",
          "type": "uint256"
        },
        {
          "internalType": "enum PieceType",
          "name": "pieceType",
          "type": "uint8"
        }
      ],
      "name": "executeTyped",
      "outputs": [
        {
          "internalType": "bytes",
          "name": "",
          "type": "bytes"
        }
      ],
      "stateMutability": "nonpayable",
      "type": "function"
    },
    {
      "inputs": [],
      "name": "owner",
      "outputs": [
        {
          "internalType": "address",
          "name": "",
          "type": "address"
        }
      ],
      "stateMutability": "view",
      "type": "function"
    },
    {
      "inputs": [
        {
          "internalType": "uint256",
          "name": "piece",
          "type": "uint256"
        }
      ],
      "name": "revokeController",
      "outputs": [],
      "stateMutability": "nonpayable",
      "type": "function"
    },
    {
      "inputs": [
        {
          "internalType": "address",
          "name": "account",
          "type": "address"
        }
      ],
      "name": "transferOwnership",
      "outputs": [],
      "stateMutability": "nonpayable",
      "type": "function"
    }
  ],
  "bytecode": {
    "object": "0x60806040523480156200001157600080fd5b506040516200281c3803806200281c83398101604081905262000034916200022c565b818162000041336200010f565b6001600160a01b03811615620000585780620000bd565b816001600160a01b031663ba62fbe46040518163ffffffff1660e01b8152600401602060405180830381865afa15801562000097573d6000803e3d6000fd5b505050506040513d601f19601f82011682018060405250810190620000bd91906200026b565b600080546001600160a01b03199081166001600160a01b0393841690811790925560018054909116928516928317905562000105919062000183602090811b6200042b17901c565b5050505062000292565b600062000126620001ef60201b620004bc1760201c565b80546040519192506001600160a01b03808516929116907f8be0079c531659141344cd1fd0a4f28419497f9722a3daafe3b4186f6b6457e090600090a380546001600160a01b0319166001600160a01b0392909216919091179055565b7ff67304f10c7772c78e439bc5cb07781db345424de8878c18100fdaa64d197a8780546001600160a01b039384166001600160a01b0319918216179091557ff67304f10c7772c78e439bc5cb07781db345424de8878c18100fdaa64d197a868054929093169116179055565b7f8a22373512790c48b83a1fe2efdd2888d4a917bcdc24d0adf63e60f67168046090565b6001600160a01b03811681146200022957600080fd5b50565b600080604083850312156200024057600080fd5b82516200024d8162000213565b6020840151909250620002608162000213565b809150509250929050565b6000602082840312156200027e57600080fd5b81516200028b8162000213565b9392505050565b61257a80620002a26000396000f3fe608060405234801561001057600080fd5b50600436106100675760003560e01c80636318c82d116100505780636318c82d146100a85780638da5cb5b146100bd578063f2fde38b146100ea57600080fd5b806309c5eabe1461006c57806314b63f5714610095575b600080fd5b61007f61007a366004611df3565b6100fd565b60405161008c9190611ee1565b60405180910390f35b61007f6100a3366004611f01565b61018c565b6100bb6100b6366004611f3a565b6101c4565b005b6100c561036a565b60405173ffffffffffffffffffffffffffffffffffffffff909116815260200161008c565b6100bb6100f8366004611f75565b6103af565b60606000806000848060200190518101906101189190611f92565b600154600054939650919450925061014b9173ffffffffffffffffffffffffffffffffffffffff918216918591166104e0565b600061015784846105a6565b90508015610178575050604080516000815260208101909152949350505050565b610183848484610785565b50505050919050565b60606101ba8484846040516020016101a693929190612026565b6040516020818303038152906040526100fd565b90505b9392505050565b6000546102079073ffffffffffffffffffffffffffffffffffffffff167fc460a39063d43ec0746708579b6d331f5d24b3fd0a5b1ec179dd09d5c0daa6ac610a6a565b73ffffffffffffffffffffffffffffffffffffffff163373ffffffffffffffffffffffffffffffffffffffff161461026b576040517fc3a4a1fa00000000000000000000000000000000000000000000000000000000815260040160405180910390fd5b600080546102af9073ffffffffffffffffffffffffffffffffffffffff167f1ec70c1de07ff6a0c043722045ffa20707571b9fcddd4bdecc65ed19faf4debe610a6a565b6040517f3e991df30000000000000000000000000000000000000000000000000000000081526004810184905290915073ffffffffffffffffffffffffffffffffffffffff821690633e991df3906024016000604051808303816000875af115801561031f573d6000803e3d6000fd5b505050506040513d6000823e601f3d9081017fffffffffffffffffffffffffffffffffffffffffffffffffffffffffffffffe0168201604052610365919081019061204b565b505050565b60006103aa7f8a22373512790c48b83a1fe2efdd2888d4a917bcdc24d0adf63e60f6716804605473ffffffffffffffffffffffffffffffffffffffff1690565b905090565b7f8a22373512790c48b83a1fe2efdd2888d4a917bcdc24d0adf63e60f6716804605473ffffffffffffffffffffffffffffffffffffffff16331461041f576040517f2f7a8ee100000000000000000000000000000000000000000000000000000000815260040160405180910390fd5b61042881610aab565b50565b7ff67304f10c7772c78e439bc5cb07781db345424de8878c18100fdaa64d197a87805473ffffffffffffffffffffffffffffffffffffffff9384167fffffffffffffffffffffffff0000000000000000000000000000000000000000918216179091557ff67304f10c7772c78e439bc5cb07781db345424de8878c18100fdaa64d197a868054929093169116179055565b7f8a22373512790c48b83a1fe2efdd2888d4a917bcdc24d0adf63e60f67168046090565b600061050c827f4c5443efce5b9ecc79a1896dd0de307031c10094a3b3fc9a5d2b086c5b792de0610ab4565b9050600061053a837f3e4e98a8b24cd1e4f79528ef3f1cf7edfe0dbe0043563a44641446b8716086b4610ab4565b90506000610568847f023253b2241a10d36b8c9af452236123ad9f4644f2ef4963970b2c4b77c42db5610ab4565b905060016105768487610bfc565b6101000151600281111561058c5761058c611fc0565b0361059e5761059e8684848489610da1565b505050505050565b600080546105ea9073ffffffffffffffffffffffffffffffffffffffff167fc460a39063d43ec0746708579b6d331f5d24b3fd0a5b1ec179dd09d5c0daa6ac610a6a565b73ffffffffffffffffffffffffffffffffffffffff163373ffffffffffffffffffffffffffffffffffffffff16146106245750600061077f565b600080546106689073ffffffffffffffffffffffffffffffffffffffff167f33c4aae4b327d551cc4ea42873cd8dcaa61f5bc0f248cf0e6dd3473f9a820d66610ab4565b60008054919250906106b09073ffffffffffffffffffffffffffffffffffffffff167f071fd7222c337f8cc12e5eda16f464c9a741636e3840e0490d89dc6df55b80b0610a6a565b90506106bd828686610e62565b6040517fa140161800000000000000000000000000000000000000000000000000000000815273ffffffffffffffffffffffffffffffffffffffff82169063a1401618906107129088906000906004016120c2565b6000604051808303816000875af1158015610731573d6000803e3d6000fd5b505050506040513d6000823e601f3d9081017fffffffffffffffffffffffffffffffffffffffffffffffffffffffffffffffe0168201604052610777919081019061204b565b506001925050505b92915050565b600080546107c99073ffffffffffffffffffffffffffffffffffffffff167f3aa78a206fc67ba4c2dbdbfa4f9637a0b391d7db261dacc2eb5d96f7b5693d97610ab4565b60008054919250906108119073ffffffffffffffffffffffffffffffffffffffff167f1f26ebf637805df90fe5cf9a282dd66905185d55ff65696a9171e1a656152d39610ab4565b60008054919250906108599073ffffffffffffffffffffffffffffffffffffffff167f4c5443efce5b9ecc79a1896dd0de307031c10094a3b3fc9a5d2b086c5b792de0610ab4565b60008054919250906108a19073ffffffffffffffffffffffffffffffffffffffff167f33c4aae4b327d551cc4ea42873cd8dcaa61f5bc0f248cf0e6dd3473f9a820d66610ab4565b60008054919250906108e99073ffffffffffffffffffffffffffffffffffffffff167f3e4e98a8b24cd1e4f79528ef3f1cf7edfe0dbe0043563a44641446b8716086b4610ab4565b60008054919250906109319073ffffffffffffffffffffffffffffffffffffffff167f3fe0524a97d46cff1be1703cd4a84d28fcc28e6c9bc09d2eedb2f0c75291a764610ab4565b60008054919250906109799073ffffffffffffffffffffffffffffffffffffffff167f071fd7222c337f8cc12e5eda16f464c9a741636e3840e0490d89dc6df55b80b0610a6a565b905061098b87878787878f8f33610ea9565b600061099689610ed4565b90506109a3838c83610fa8565b6040517fa140161800000000000000000000000000000000000000000000000000000000815273ffffffffffffffffffffffffffffffffffffffff83169063a1401618906109f7908e908d906004016120c2565b6000604051808303816000875af1158015610a16573d6000803e3d6000fd5b505050506040513d6000823e601f3d9081017fffffffffffffffffffffffffffffffffffffffffffffffffffffffffffffffe0168201604052610a5c919081019061204b565b505050505050505050505050565b600080610a97847f017c816a964927a00e050edd780dcf113ca2756dfa9e9fda94a05c140d9317b0610ab4565b9050610aa38184610ab4565b949350505050565b610428816111de565b6040517ffbdfa1ea00000000000000000000000000000000000000000000000000000000815260048101829052600090819073ffffffffffffffffffffffffffffffffffffffff85169063fbdfa1ea90602401600060405180830381865afa158015610b24573d6000803e3d6000fd5b505050506040513d6000823e601f3d9081017fffffffffffffffffffffffffffffffffffffffffffffffffffffffffffffffe0168201604052610b6a91908101906120df565b90508051600003610bdb576040517f08c379a000000000000000000000000000000000000000000000000000000000815260206004820152601160248201527f6964206e6f742072656769737465726564000000000000000000000000000000604482015260640160405180910390fd5b610aa381600081518110610bf157610bf1612179565b602002602001015190565b610c496040805161012081018252600080825260208201819052918101829052606081018290526080810182905260a0810182905260c0810182905260e081018290529061010082015290565b6040517fcccf7a8e0000000000000000000000000000000000000000000000000000000081526004810183905273ffffffffffffffffffffffffffffffffffffffff84169063cccf7a8e90602401602060405180830381865afa158015610cb4573d6000803e3d6000fd5b505050506040513d601f19601f82011682018060405250810190610cd891906121a8565b610d0e576040517f82203a4100000000000000000000000000000000000000000000000000000000815260040160405180910390fd5b6040517f0ff4c9160000000000000000000000000000000000000000000000000000000081526004810183905260009073ffffffffffffffffffffffffffffffffffffffff851690630ff4c9169060240161012060405180830381865afa158015610d7d573d6000803e3d6000fd5b505050506040513d601f19601f82011682018060405250810190610aa39190612215565b600080610db08787868661128a565b9150915060005b81811015610e58578573ffffffffffffffffffffffffffffffffffffffff16634cc82215848381518110610ded57610ded612179565b60200260200101516040518263ffffffff1660e01b8152600401610e1391815260200190565b600060405180830381600087803b158015610e2d57600080fd5b505af1158015610e41573d6000803e3d6000fd5b505050508080610e50906122ec565b915050610db7565b5050505050505050565b610e6d8383836113f8565b15610e7757505050565b6040517f95913fa700000000000000000000000000000000000000000000000000000000815260040160405180910390fd5b610eb588888584611546565b610ebf8683611561565b610eca858484610e62565b610e5884846115bf565b600080826005811115610ee957610ee9611fc0565b03610ef657506001919050565b6002826005811115610f0a57610f0a611fc0565b1480610f2757506001826005811115610f2557610f25611fc0565b145b15610f3457506003919050565b6003826005811115610f4857610f48611fc0565b03610f5557506005919050565b6004826005811115610f6957610f69611fc0565b03610f7657506009919050565b6040517f1ed6e93400000000000000000000000000000000000000000000000000000000815260040160405180910390fd5b6040517fcccf7a8e0000000000000000000000000000000000000000000000000000000081526004810183905273ffffffffffffffffffffffffffffffffffffffff84169063cccf7a8e90602401602060405180830381865afa158015611013573d6000803e3d6000fd5b505050506040513d601f19601f8201168201806040525081019061103791906121a8565b61106d576040517feb30efaf00000000000000000000000000000000000000000000000000000000815260040160405180910390fd5b6040517f0ff4c9160000000000000000000000000000000000000000000000000000000081526004810183905260009073ffffffffffffffffffffffffffffffffffffffff851690630ff4c91690602401602060405180830381865afa1580156110db573d6000803e3d6000fd5b505050506040513d601f19601f820116820180604052508101906110ff9190612324565b90508063ffffffff168263ffffffff161115611147576040517feb30efaf00000000000000000000000000000000000000000000000000000000815260040160405180910390fd5b73ffffffffffffffffffffffffffffffffffffffff841663d923c3c48461116e858561233f565b6040517fffffffff0000000000000000000000000000000000000000000000000000000060e085901b168152600481019290925263ffffffff166024820152604401600060405180830381600087803b1580156111ca57600080fd5b505af1158015610e58573d6000803e3d6000fd5b7f8a22373512790c48b83a1fe2efdd2888d4a917bcdc24d0adf63e60f671680460805460405173ffffffffffffffffffffffffffffffffffffffff8481169216907f8be0079c531659141344cd1fd0a4f28419497f9722a3daafe3b4186f6b6457e090600090a380547fffffffffffffffffffffffff00000000000000000000000000000000000000001673ffffffffffffffffffffffffffffffffffffffff92909216919091179055565b60606000806112998785611604565b90506000815167ffffffffffffffff8111156112b7576112b7611d05565b6040519080825280602002602001820160405280156112e0578160200160208202803683370190505b5090506000805b83518110156113e95761138e89888a73ffffffffffffffffffffffffffffffffffffffff16630ff4c91688868151811061132357611323612179565b60200260200101516040518263ffffffff1660e01b815260040161134991815260200190565b6040805180830381865afa158015611365573d6000803e3d6000fd5b505050506040513d601f19601f820116820180604052508101906113899190612375565b6117ed565b6113d7578381815181106113a4576113a4612179565b60200260200101518383815181106113be576113be612179565b6020908102919091010152816113d3816122ec565b9250505b806113e1816122ec565b9150506112e7565b50909890975095505050505050565b6040517fcccf7a8e0000000000000000000000000000000000000000000000000000000081526004810183905260009073ffffffffffffffffffffffffffffffffffffffff85169063cccf7a8e90602401602060405180830381865afa158015611466573d6000803e3d6000fd5b505050506040513d601f19601f8201168201806040525081019061148a91906121a8565b611496575060006101bd565b6040517f0ff4c9160000000000000000000000000000000000000000000000000000000081526004810184905260009073ffffffffffffffffffffffffffffffffffffffff861690630ff4c91690602401602060405180830381865afa158015611504573d6000803e3d6000fd5b505050506040513d601f19601f8201168201806040525081019061152891906123d0565b905082810361153b5760019150506101bd565b506000949350505050565b6115518483836118da565b61155b838361191b565b50505050565b600061156d8383610bfc565b90506001816101000151600281111561158857611588611fc0565b14610365576040517f9c594b6100000000000000000000000000000000000000000000000000000000815260040160405180910390fd5b6115c98282611a0c565b156115d2575050565b6040517ff9f7e24f00000000000000000000000000000000000000000000000000000000815260040160405180910390fd5b604080516002808252606082810190935260009190816020015b6040805160608082018352600080835260208301529181019190915281526020019060019003908161161e57905050604080516060810190915290915080600281526020017f33c4aae4b327d551cc4ea42873cd8dcaa61f5bc0f248cf0e6dd3473f9a820d6660001c81526020018460405160200161169f91815260200190565b604051602081830303815290604052815250816000815181106116c4576116c4612179565b6020908102919091018101919091526040805160608101825260008082527f023253b2241a10d36b8c9af452236123ad9f4644f2ef4963970b2c4b77c42db582850152825190815292830182529081019190915281518290600190811061172d5761172d612179565b60209081029190910101526040517f687485a600000000000000000000000000000000000000000000000000000000815273ffffffffffffffffffffffffffffffffffffffff85169063687485a69061178a9084906004016123e9565b600060405180830381865afa1580156117a7573d6000803e3d6000fd5b505050506040513d6000823e601f3d9081017fffffffffffffffffffffffffffffffffffffffffffffffffffffffffffffffe0168201604052610aa391908101906120df565b60006117f98484611561565b60006118058585610bfc565b90506000611820826040015183606001518460000151611b3c565b905060008160030b856000015160030b131580156118715750611863827fffffffffffffffffffffffffffffffffffffffffffffffffffffffffffffffff612491565b60030b856000015160030b12155b905060008260030b866020015160030b131580156118c257506118b4837fffffffffffffffffffffffffffffffffffffffffffffffffffffffffffffffff612491565b60030b866020015160030b12155b90508180156118ce5750805b98975050505050505050565b6118e5838383611b8b565b610365576040517f30cd747100000000000000000000000000000000000000000000000000000000815260040160405180910390fd5b6040517f0ff4c9160000000000000000000000000000000000000000000000000000000081526004810182905260009073ffffffffffffffffffffffffffffffffffffffff841690630ff4c91690602401600060405180830381865afa158015611989573d6000803e3d6000fd5b505050506040513d6000823e601f3d9081017fffffffffffffffffffffffffffffffffffffffffffffffffffffffffffffffe01682016040526119cf91908101906120df565b90508051600214610365576040517f520f044600000000000000000000000000000000000000000000000000000000815260040160405180910390fd5b6040517fcccf7a8e0000000000000000000000000000000000000000000000000000000081526004810182905260009073ffffffffffffffffffffffffffffffffffffffff84169063cccf7a8e90602401602060405180830381865afa158015611a7a573d6000803e3d6000fd5b505050506040513d601f19601f82011682018060405250810190611a9e91906121a8565b611aaa5750600061077f565b6040517f0ff4c9160000000000000000000000000000000000000000000000000000000081526004810183905260009073ffffffffffffffffffffffffffffffffffffffff851690630ff4c91690602401602060405180830381865afa158015611b18573d6000803e3d6000fd5b505050506040513d601f19601f82011682018060405250810190610aa391906121a8565b600080611b4983426124b1565b90506000611b5785836124c4565b90508561ffff168161ffff1610611b73576000925050506101bd565b611b7d818761250c565b61ffff169695505050505050565b6040517fcccf7a8e0000000000000000000000000000000000000000000000000000000081526004810183905260009073ffffffffffffffffffffffffffffffffffffffff85169063cccf7a8e90602401602060405180830381865afa158015611bf9573d6000803e3d6000fd5b505050506040513d601f19601f82011682018060405250810190611c1d91906121a8565b611c29575060006101bd565b6040517f0ff4c9160000000000000000000000000000000000000000000000000000000081526004810184905260009073ffffffffffffffffffffffffffffffffffffffff861690630ff4c91690602401602060405180830381865afa158015611c97573d6000803e3d6000fd5b505050506040513d601f19601f82011682018060405250810190611cbb9190612527565b90508273ffffffffffffffffffffffffffffffffffffffff168173ffffffffffffffffffffffffffffffffffffffff1614611cfa5760009150506101bd565b506001949350505050565b7f4e487b7100000000000000000000000000000000000000000000000000000000600052604160045260246000fd5b604051610120810167ffffffffffffffff81118282101715611d5857611d58611d05565b60405290565b604051601f82017fffffffffffffffffffffffffffffffffffffffffffffffffffffffffffffffe016810167ffffffffffffffff81118282101715611da557611da5611d05565b604052919050565b600067ffffffffffffffff821115611dc757611dc7611d05565b50601f017fffffffffffffffffffffffffffffffffffffffffffffffffffffffffffffffe01660200190565b600060208284031215611e0557600080fd5b813567ffffffffffffffff811115611e1c57600080fd5b8201601f81018413611e2d57600080fd5b8035611e40611e3b82611dad565b611d5e565b818152856020838501011115611e5557600080fd5b81602084016020830137600091810160200191909152949350505050565b60005b83811015611e8e578181015183820152602001611e76565b50506000910152565b60008151808452611eaf816020860160208601611e73565b601f017fffffffffffffffffffffffffffffffffffffffffffffffffffffffffffffffe0169290920160200192915050565b6020815260006101bd6020830184611e97565b6006811061042857600080fd5b600080600060608486031215611f1657600080fd5b83359250602084013591506040840135611f2f81611ef4565b809150509250925092565b600060208284031215611f4c57600080fd5b5035919050565b73ffffffffffffffffffffffffffffffffffffffff8116811461042857600080fd5b600060208284031215611f8757600080fd5b81356101bd81611f53565b600080600060608486031215611fa757600080fd5b83519250602084015191506040840151611f2f81611ef4565b7f4e487b7100000000000000000000000000000000000000000000000000000000600052602160045260246000fd5b60068110610428577f4e487b7100000000000000000000000000000000000000000000000000000000600052602160045260246000fd5b838152602081018390526060810161203d83611fef565b826040830152949350505050565b60006020828403121561205d57600080fd5b815167ffffffffffffffff81111561207457600080fd5b8201601f8101841361208557600080fd5b8051612093611e3b82611dad565b8181528560208385010111156120a857600080fd5b6120b9826020830160208601611e73565b95945050505050565b828152604081016120d283611fef565b8260208301529392505050565b600060208083850312156120f257600080fd5b825167ffffffffffffffff8082111561210a57600080fd5b818501915085601f83011261211e57600080fd5b81518181111561213057612130611d05565b8060051b9150612141848301611d5e565b818152918301840191848101908884111561215b57600080fd5b938501935b838510156118ce57845182529385019390850190612160565b7f4e487b7100000000000000000000000000000000000000000000000000000000600052603260045260246000fd5b6000602082840312156121ba57600080fd5b815180151581146101bd57600080fd5b805163ffffffff811681146121de57600080fd5b919050565b805161ffff811681146121de57600080fd5b805160ff811681146121de57600080fd5b8051600381106121de57600080fd5b6000610120828403121561222857600080fd5b612230611d34565b82518152612240602084016121ca565b6020820152612251604084016121e3565b6040820152612262606084016121e3565b60608201526080830151608082015261227d60a084016121e3565b60a082015261228e60c084016121e3565b60c082015261229f60e084016121f5565b60e08201526101006122b2818501612206565b908201529392505050565b7f4e487b7100000000000000000000000000000000000000000000000000000000600052601160045260246000fd5b60007fffffffffffffffffffffffffffffffffffffffffffffffffffffffffffffffff820361231d5761231d6122bd565b5060010190565b60006020828403121561233657600080fd5b6101bd826121ca565b63ffffffff82811682821603908082111561235c5761235c6122bd565b5092915050565b8051600381900b81146121de57600080fd5b60006040828403121561238757600080fd5b6040516040810181811067ffffffffffffffff821117156123aa576123aa611d05565b6040526123b683612363565b81526123c460208401612363565b60208201529392505050565b6000602082840312156123e257600080fd5b5051919050565b60006020808301818452808551808352604092508286019150828160051b87010184880160005b83811015612483577fffffffffffffffffffffffffffffffffffffffffffffffffffffffffffffffc089840301855281516060815161244e81611fef565b85528189015189860152908701518785018290529061246f81860183611e97565b968901969450505090860190600101612410565b509098975050505050505050565b60008260030b8260030b028060030b915080821461235c5761235c6122bd565b8181038181111561077f5761077f6122bd565b600061ffff80841680612500577f4e487b7100000000000000000000000000000000000000000000000000000000600052601260045260246000fd5b92169190910492915050565b61ffff82811682821603908082111561235c5761235c6122bd565b60006020828403121561253957600080fd5b81516101bd81611f5356fea2646970667358221220fc08d674e1b90f66eb460388efbef7833da2bd451f877e3032e2403feac8ef5364736f6c63430008110033",
    "linkReferences": {}
  },
  "methodIdentifiers": {
    "execute(bytes)": "09c5eabe",
    "executeTyped(uint256,uint256,uint8)": "14b63f57",
    "owner()": "8da5cb5b",
    "revokeController(uint256)": "6318c82d",
    "transferOwnership(address)": "f2fde38b"
  },
  "id": 76
}