{
  "abi": [
    {
      "inputs": [
        {
          "internalType": "contract IWorld",
          "name": "_world",
          "type": "address"
        },
        {
          "internalType": "address",
          "name": "_components",
          "type": "address"
        }
      ],
      "stateMutability": "nonpayable",
      "type": "constructor"
    },
    {
      "inputs": [],
      "name": "BREntityNotGame",
      "type": "error"
    },
    {
      "inputs": [],
      "name": "BRGameNotInProgress",
      "type": "error"
    },
    {
      "inputs": [],
      "name": "BRIncorrectControllers",
      "type": "error"
    },
    {
      "inputs": [],
      "name": "BRNotEnoughPoints",
      "type": "error"
    },
    {
      "inputs": [],
      "name": "BRNotInGame",
      "type": "error"
    },
    {
      "inputs": [],
      "name": "BRNotRevokeSystem",
      "type": "error"
    },
    {
      "inputs": [],
      "name": "BRPieceDead",
      "type": "error"
    },
    {
      "inputs": [],
      "name": "NotOwner",
      "type": "error"
    },
    {
      "inputs": [],
      "name": "Ownable__NotOwner",
      "type": "error"
    },
    {
      "inputs": [],
      "name": "Ownable__NotTransitiveOwner",
      "type": "error"
    },
    {
      "inputs": [],
      "name": "UnimplementedPieceType",
      "type": "error"
    },
    {
      "anonymous": false,
      "inputs": [
        {
          "indexed": true,
          "internalType": "address",
          "name": "previousOwner",
          "type": "address"
        },
        {
          "indexed": true,
          "internalType": "address",
          "name": "newOwner",
          "type": "address"
        }
      ],
      "name": "OwnershipTransferred",
      "type": "event"
    },
    {
      "inputs": [
        {
          "internalType": "bytes",
          "name": "arguments",
          "type": "bytes"
        }
      ],
      "name": "execute",
      "outputs": [
        {
          "internalType": "bytes",
          "name": "",
          "type": "bytes"
        }
      ],
      "stateMutability": "nonpayable",
      "type": "function"
    },
    {
      "inputs": [
        {
          "internalType": "uint256",
          "name": "piece",
          "type": "uint256"
        },
        {
          "internalType": "uint256",
          "name": "game",
          "type": "uint256"
        },
        {
          "internalType": "enum PieceType",
          "name": "pieceType",
          "type": "uint8"
        }
      ],
      "name": "executeTyped",
      "outputs": [
        {
          "internalType": "bytes",
          "name": "",
          "type": "bytes"
        }
      ],
      "stateMutability": "nonpayable",
      "type": "function"
    },
    {
      "inputs": [],
      "name": "owner",
      "outputs": [
        {
          "internalType": "address",
          "name": "",
          "type": "address"
        }
      ],
      "stateMutability": "view",
      "type": "function"
    },
    {
      "inputs": [
        {
          "internalType": "uint256",
          "name": "piece",
          "type": "uint256"
        }
      ],
      "name": "revokeController",
      "outputs": [],
      "stateMutability": "nonpayable",
      "type": "function"
    },
    {
      "inputs": [
        {
          "internalType": "address",
          "name": "account",
          "type": "address"
        }
      ],
      "name": "transferOwnership",
      "outputs": [],
      "stateMutability": "nonpayable",
      "type": "function"
    }
  ],
  "bytecode": {
    "object": "0x60806040523480156200001157600080fd5b50604051620028453803806200284583398101604081905262000034916200022c565b818162000041336200010f565b6001600160a01b03811615620000585780620000bd565b816001600160a01b031663ba62fbe46040518163ffffffff1660e01b8152600401602060405180830381865afa15801562000097573d6000803e3d6000fd5b505050506040513d601f19601f82011682018060405250810190620000bd91906200026b565b600080546001600160a01b03199081166001600160a01b0393841690811790925560018054909116928516928317905562000105919062000183602090811b6200042b17901c565b5050505062000292565b600062000126620001ef60201b620004bc1760201c565b80546040519192506001600160a01b03808516929116907f8be0079c531659141344cd1fd0a4f28419497f9722a3daafe3b4186f6b6457e090600090a380546001600160a01b0319166001600160a01b0392909216919091179055565b7ff67304f10c7772c78e439bc5cb07781db345424de8878c18100fdaa64d197a8780546001600160a01b039384166001600160a01b0319918216179091557ff67304f10c7772c78e439bc5cb07781db345424de8878c18100fdaa64d197a868054929093169116179055565b7f8a22373512790c48b83a1fe2efdd2888d4a917bcdc24d0adf63e60f67168046090565b6001600160a01b03811681146200022957600080fd5b50565b600080604083850312156200024057600080fd5b82516200024d8162000213565b6020840151909250620002608162000213565b809150509250929050565b6000602082840312156200027e57600080fd5b81516200028b8162000213565b9392505050565b6125a380620002a26000396000f3fe608060405234801561001057600080fd5b50600436106100675760003560e01c80636318c82d116100505780636318c82d146100a85780638da5cb5b146100bd578063f2fde38b146100ea57600080fd5b806309c5eabe1461006c57806314b63f5714610095575b600080fd5b61007f61007a366004611e1c565b6100fd565b60405161008c9190611f0a565b60405180910390f35b61007f6100a3366004611f2a565b61018c565b6100bb6100b6366004611f63565b6101c4565b005b6100c561036a565b60405173ffffffffffffffffffffffffffffffffffffffff909116815260200161008c565b6100bb6100f8366004611f9e565b6103af565b60606000806000848060200190518101906101189190611fbb565b600154600054939650919450925061014b9173ffffffffffffffffffffffffffffffffffffffff918216918591166104e0565b600061015784846105a6565b90508015610178575050604080516000815260208101909152949350505050565b6101838484846107ae565b50505050919050565b60606101ba8484846040516020016101a69392919061204f565b6040516020818303038152906040526100fd565b90505b9392505050565b6000546102079073ffffffffffffffffffffffffffffffffffffffff167fc460a39063d43ec0746708579b6d331f5d24b3fd0a5b1ec179dd09d5c0daa6ac610a93565b73ffffffffffffffffffffffffffffffffffffffff163373ffffffffffffffffffffffffffffffffffffffff161461026b576040517fc3a4a1fa00000000000000000000000000000000000000000000000000000000815260040160405180910390fd5b600080546102af9073ffffffffffffffffffffffffffffffffffffffff167f1ec70c1de07ff6a0c043722045ffa20707571b9fcddd4bdecc65ed19faf4debe610a93565b6040517f3e991df30000000000000000000000000000000000000000000000000000000081526004810184905290915073ffffffffffffffffffffffffffffffffffffffff821690633e991df3906024016000604051808303816000875af115801561031f573d6000803e3d6000fd5b505050506040513d6000823e601f3d9081017fffffffffffffffffffffffffffffffffffffffffffffffffffffffffffffffe01682016040526103659190810190612074565b505050565b60006103aa7f8a22373512790c48b83a1fe2efdd2888d4a917bcdc24d0adf63e60f6716804605473ffffffffffffffffffffffffffffffffffffffff1690565b905090565b7f8a22373512790c48b83a1fe2efdd2888d4a917bcdc24d0adf63e60f6716804605473ffffffffffffffffffffffffffffffffffffffff16331461041f576040517f2f7a8ee100000000000000000000000000000000000000000000000000000000815260040160405180910390fd5b61042881610ad4565b50565b7ff67304f10c7772c78e439bc5cb07781db345424de8878c18100fdaa64d197a87805473ffffffffffffffffffffffffffffffffffffffff9384167fffffffffffffffffffffffff0000000000000000000000000000000000000000918216179091557ff67304f10c7772c78e439bc5cb07781db345424de8878c18100fdaa64d197a868054929093169116179055565b7f8a22373512790c48b83a1fe2efdd2888d4a917bcdc24d0adf63e60f67168046090565b600061050c827f4c5443efce5b9ecc79a1896dd0de307031c10094a3b3fc9a5d2b086c5b792de0610add565b9050600061053a837f3e4e98a8b24cd1e4f79528ef3f1cf7edfe0dbe0043563a44641446b8716086b4610add565b90506000610568847f023253b2241a10d36b8c9af452236123ad9f4644f2ef4963970b2c4b77c42db5610add565b905060016105768487610c25565b6101000151600281111561058c5761058c611fe9565b0361059e5761059e8684848489610dca565b505050505050565b600080546105ea9073ffffffffffffffffffffffffffffffffffffffff167fc460a39063d43ec0746708579b6d331f5d24b3fd0a5b1ec179dd09d5c0daa6ac610a93565b73ffffffffffffffffffffffffffffffffffffffff163373ffffffffffffffffffffffffffffffffffffffff161415801561069357506000546106639073ffffffffffffffffffffffffffffffffffffffff167fdf77b23bc8bcbf2b84df02a4968acdb358d8210e6384eef4088bc8e0373a7639610a93565b73ffffffffffffffffffffffffffffffffffffffff163373ffffffffffffffffffffffffffffffffffffffff1614155b156106a0575060006107a8565b600080546106e49073ffffffffffffffffffffffffffffffffffffffff167f071fd7222c337f8cc12e5eda16f464c9a741636e3840e0490d89dc6df55b80b0610a93565b6040517fa140161800000000000000000000000000000000000000000000000000000000815290915073ffffffffffffffffffffffffffffffffffffffff82169063a14016189061073c9087906000906004016120eb565b6000604051808303816000875af115801561075b573d6000803e3d6000fd5b505050506040513d6000823e601f3d9081017fffffffffffffffffffffffffffffffffffffffffffffffffffffffffffffffe01682016040526107a19190810190612074565b5060019150505b92915050565b600080546107f29073ffffffffffffffffffffffffffffffffffffffff167f3aa78a206fc67ba4c2dbdbfa4f9637a0b391d7db261dacc2eb5d96f7b5693d97610add565b600080549192509061083a9073ffffffffffffffffffffffffffffffffffffffff167f1f26ebf637805df90fe5cf9a282dd66905185d55ff65696a9171e1a656152d39610add565b60008054919250906108829073ffffffffffffffffffffffffffffffffffffffff167f4c5443efce5b9ecc79a1896dd0de307031c10094a3b3fc9a5d2b086c5b792de0610add565b60008054919250906108ca9073ffffffffffffffffffffffffffffffffffffffff167f33c4aae4b327d551cc4ea42873cd8dcaa61f5bc0f248cf0e6dd3473f9a820d66610add565b60008054919250906109129073ffffffffffffffffffffffffffffffffffffffff167f3e4e98a8b24cd1e4f79528ef3f1cf7edfe0dbe0043563a44641446b8716086b4610add565b600080549192509061095a9073ffffffffffffffffffffffffffffffffffffffff167f3fe0524a97d46cff1be1703cd4a84d28fcc28e6c9bc09d2eedb2f0c75291a764610add565b60008054919250906109a29073ffffffffffffffffffffffffffffffffffffffff167f071fd7222c337f8cc12e5eda16f464c9a741636e3840e0490d89dc6df55b80b0610a93565b90506109b487878787878f8f33610e8b565b60006109bf89610eb6565b90506109cc838c83610f8a565b6040517fa140161800000000000000000000000000000000000000000000000000000000815273ffffffffffffffffffffffffffffffffffffffff83169063a140161890610a20908e908d906004016120eb565b6000604051808303816000875af1158015610a3f573d6000803e3d6000fd5b505050506040513d6000823e601f3d9081017fffffffffffffffffffffffffffffffffffffffffffffffffffffffffffffffe0168201604052610a859190810190612074565b505050505050505050505050565b600080610ac0847f017c816a964927a00e050edd780dcf113ca2756dfa9e9fda94a05c140d9317b0610add565b9050610acc8184610add565b949350505050565b610428816111c0565b6040517ffbdfa1ea00000000000000000000000000000000000000000000000000000000815260048101829052600090819073ffffffffffffffffffffffffffffffffffffffff85169063fbdfa1ea90602401600060405180830381865afa158015610b4d573d6000803e3d6000fd5b505050506040513d6000823e601f3d9081017fffffffffffffffffffffffffffffffffffffffffffffffffffffffffffffffe0168201604052610b939190810190612108565b90508051600003610c04576040517f08c379a000000000000000000000000000000000000000000000000000000000815260206004820152601160248201527f6964206e6f742072656769737465726564000000000000000000000000000000604482015260640160405180910390fd5b610acc81600081518110610c1a57610c1a6121a2565b602002602001015190565b610c726040805161012081018252600080825260208201819052918101829052606081018290526080810182905260a0810182905260c0810182905260e081018290529061010082015290565b6040517fcccf7a8e0000000000000000000000000000000000000000000000000000000081526004810183905273ffffffffffffffffffffffffffffffffffffffff84169063cccf7a8e90602401602060405180830381865afa158015610cdd573d6000803e3d6000fd5b505050506040513d601f19601f82011682018060405250810190610d0191906121d1565b610d37576040517f82203a4100000000000000000000000000000000000000000000000000000000815260040160405180910390fd5b6040517f0ff4c9160000000000000000000000000000000000000000000000000000000081526004810183905260009073ffffffffffffffffffffffffffffffffffffffff851690630ff4c9169060240161012060405180830381865afa158015610da6573d6000803e3d6000fd5b505050506040513d601f19601f82011682018060405250810190610acc919061223e565b600080610dd98787868661126c565b9150915060005b81811015610e81578573ffffffffffffffffffffffffffffffffffffffff16634cc82215848381518110610e1657610e166121a2565b60200260200101516040518263ffffffff1660e01b8152600401610e3c91815260200190565b600060405180830381600087803b158015610e5657600080fd5b505af1158015610e6a573d6000803e3d6000fd5b505050508080610e7990612315565b915050610de0565b5050505050505050565b610e97888885846113da565b610ea186836113f5565b610eac858484611453565b610e81848461149a565b600080826005811115610ecb57610ecb611fe9565b03610ed857506001919050565b6002826005811115610eec57610eec611fe9565b1480610f0957506001826005811115610f0757610f07611fe9565b145b15610f1657506003919050565b6003826005811115610f2a57610f2a611fe9565b03610f3757506005919050565b6004826005811115610f4b57610f4b611fe9565b03610f5857506009919050565b6040517f1ed6e93400000000000000000000000000000000000000000000000000000000815260040160405180910390fd5b6040517fcccf7a8e0000000000000000000000000000000000000000000000000000000081526004810183905273ffffffffffffffffffffffffffffffffffffffff84169063cccf7a8e90602401602060405180830381865afa158015610ff5573d6000803e3d6000fd5b505050506040513d601f19601f8201168201806040525081019061101991906121d1565b61104f576040517feb30efaf00000000000000000000000000000000000000000000000000000000815260040160405180910390fd5b6040517f0ff4c9160000000000000000000000000000000000000000000000000000000081526004810183905260009073ffffffffffffffffffffffffffffffffffffffff851690630ff4c91690602401602060405180830381865afa1580156110bd573d6000803e3d6000fd5b505050506040513d601f19601f820116820180604052508101906110e1919061234d565b90508063ffffffff168263ffffffff161115611129576040517feb30efaf00000000000000000000000000000000000000000000000000000000815260040160405180910390fd5b73ffffffffffffffffffffffffffffffffffffffff841663d923c3c4846111508585612368565b6040517fffffffff0000000000000000000000000000000000000000000000000000000060e085901b168152600481019290925263ffffffff166024820152604401600060405180830381600087803b1580156111ac57600080fd5b505af1158015610e81573d6000803e3d6000fd5b7f8a22373512790c48b83a1fe2efdd2888d4a917bcdc24d0adf63e60f671680460805460405173ffffffffffffffffffffffffffffffffffffffff8481169216907f8be0079c531659141344cd1fd0a4f28419497f9722a3daafe3b4186f6b6457e090600090a380547fffffffffffffffffffffffff00000000000000000000000000000000000000001673ffffffffffffffffffffffffffffffffffffffff92909216919091179055565b606060008061127b87856114df565b90506000815167ffffffffffffffff81111561129957611299611d2e565b6040519080825280602002602001820160405280156112c2578160200160208202803683370190505b5090506000805b83518110156113cb5761137089888a73ffffffffffffffffffffffffffffffffffffffff16630ff4c916888681518110611305576113056121a2565b60200260200101516040518263ffffffff1660e01b815260040161132b91815260200190565b6040805180830381865afa158015611347573d6000803e3d6000fd5b505050506040513d601f19601f8201168201806040525081019061136b919061239e565b6116c8565b6113b957838181518110611386576113866121a2565b60200260200101518383815181106113a0576113a06121a2565b6020908102919091010152816113b581612315565b9250505b806113c381612315565b9150506112c9565b50909890975095505050505050565b6113e58483836117b5565b6113ef83836117f6565b50505050565b60006114018383610c25565b90506001816101000151600281111561141c5761141c611fe9565b14610365576040517f9c594b6100000000000000000000000000000000000000000000000000000000815260040160405180910390fd5b61145e8383836118e7565b1561146857505050565b6040517f95913fa700000000000000000000000000000000000000000000000000000000815260040160405180910390fd5b6114a48282611a35565b156114ad575050565b6040517ff9f7e24f00000000000000000000000000000000000000000000000000000000815260040160405180910390fd5b604080516002808252606082810190935260009190816020015b604080516060808201835260008083526020830152918101919091528152602001906001900390816114f957905050604080516060810190915290915080600281526020017f33c4aae4b327d551cc4ea42873cd8dcaa61f5bc0f248cf0e6dd3473f9a820d6660001c81526020018460405160200161157a91815260200190565b6040516020818303038152906040528152508160008151811061159f5761159f6121a2565b6020908102919091018101919091526040805160608101825260008082527f023253b2241a10d36b8c9af452236123ad9f4644f2ef4963970b2c4b77c42db5828501528251908152928301825290810191909152815182906001908110611608576116086121a2565b60209081029190910101526040517f687485a600000000000000000000000000000000000000000000000000000000815273ffffffffffffffffffffffffffffffffffffffff85169063687485a6906116659084906004016123f9565b600060405180830381865afa158015611682573d6000803e3d6000fd5b505050506040513d6000823e601f3d9081017fffffffffffffffffffffffffffffffffffffffffffffffffffffffffffffffe0168201604052610acc9190810190612108565b60006116d484846113f5565b60006116e08585610c25565b905060006116fb826040015183606001518460000151611b65565b905060008160030b856000015160030b1315801561174c575061173e827fffffffffffffffffffffffffffffffffffffffffffffffffffffffffffffffff6124a1565b60030b856000015160030b12155b905060008260030b866020015160030b1315801561179d575061178f837fffffffffffffffffffffffffffffffffffffffffffffffffffffffffffffffff6124a1565b60030b866020015160030b12155b90508180156117a95750805b98975050505050505050565b6117c0838383611bb4565b610365576040517f30cd747100000000000000000000000000000000000000000000000000000000815260040160405180910390fd5b6040517f0ff4c9160000000000000000000000000000000000000000000000000000000081526004810182905260009073ffffffffffffffffffffffffffffffffffffffff841690630ff4c91690602401600060405180830381865afa158015611864573d6000803e3d6000fd5b505050506040513d6000823e601f3d9081017fffffffffffffffffffffffffffffffffffffffffffffffffffffffffffffffe01682016040526118aa9190810190612108565b90508051600214610365576040517f520f044600000000000000000000000000000000000000000000000000000000815260040160405180910390fd5b6040517fcccf7a8e0000000000000000000000000000000000000000000000000000000081526004810183905260009073ffffffffffffffffffffffffffffffffffffffff85169063cccf7a8e90602401602060405180830381865afa158015611955573d6000803e3d6000fd5b505050506040513d601f19601f8201168201806040525081019061197991906121d1565b611985575060006101bd565b6040517f0ff4c9160000000000000000000000000000000000000000000000000000000081526004810184905260009073ffffffffffffffffffffffffffffffffffffffff861690630ff4c91690602401602060405180830381865afa1580156119f3573d6000803e3d6000fd5b505050506040513d601f19601f82011682018060405250810190611a1791906124c1565b9050828103611a2a5760019150506101bd565b506000949350505050565b6040517fcccf7a8e0000000000000000000000000000000000000000000000000000000081526004810182905260009073ffffffffffffffffffffffffffffffffffffffff84169063cccf7a8e90602401602060405180830381865afa158015611aa3573d6000803e3d6000fd5b505050506040513d601f19601f82011682018060405250810190611ac791906121d1565b611ad3575060006107a8565b6040517f0ff4c9160000000000000000000000000000000000000000000000000000000081526004810183905260009073ffffffffffffffffffffffffffffffffffffffff851690630ff4c91690602401602060405180830381865afa158015611b41573d6000803e3d6000fd5b505050506040513d601f19601f82011682018060405250810190610acc91906121d1565b600080611b7283426124da565b90506000611b8085836124ed565b90508561ffff168161ffff1610611b9c576000925050506101bd565b611ba68187612535565b61ffff169695505050505050565b6040517fcccf7a8e0000000000000000000000000000000000000000000000000000000081526004810183905260009073ffffffffffffffffffffffffffffffffffffffff85169063cccf7a8e90602401602060405180830381865afa158015611c22573d6000803e3d6000fd5b505050506040513d601f19601f82011682018060405250810190611c4691906121d1565b611c52575060006101bd565b6040517f0ff4c9160000000000000000000000000000000000000000000000000000000081526004810184905260009073ffffffffffffffffffffffffffffffffffffffff861690630ff4c91690602401602060405180830381865afa158015611cc0573d6000803e3d6000fd5b505050506040513d601f19601f82011682018060405250810190611ce49190612550565b90508273ffffffffffffffffffffffffffffffffffffffff168173ffffffffffffffffffffffffffffffffffffffff1614611d235760009150506101bd565b506001949350505050565b7f4e487b7100000000000000000000000000000000000000000000000000000000600052604160045260246000fd5b604051610120810167ffffffffffffffff81118282101715611d8157611d81611d2e565b60405290565b604051601f82017fffffffffffffffffffffffffffffffffffffffffffffffffffffffffffffffe016810167ffffffffffffffff81118282101715611dce57611dce611d2e565b604052919050565b600067ffffffffffffffff821115611df057611df0611d2e565b50601f017fffffffffffffffffffffffffffffffffffffffffffffffffffffffffffffffe01660200190565b600060208284031215611e2e57600080fd5b813567ffffffffffffffff811115611e4557600080fd5b8201601f81018413611e5657600080fd5b8035611e69611e6482611dd6565b611d87565b818152856020838501011115611e7e57600080fd5b81602084016020830137600091810160200191909152949350505050565b60005b83811015611eb7578181015183820152602001611e9f565b50506000910152565b60008151808452611ed8816020860160208601611e9c565b601f017fffffffffffffffffffffffffffffffffffffffffffffffffffffffffffffffe0169290920160200192915050565b6020815260006101bd6020830184611ec0565b6006811061042857600080fd5b600080600060608486031215611f3f57600080fd5b83359250602084013591506040840135611f5881611f1d565b809150509250925092565b600060208284031215611f7557600080fd5b5035919050565b73ffffffffffffffffffffffffffffffffffffffff8116811461042857600080fd5b600060208284031215611fb057600080fd5b81356101bd81611f7c565b600080600060608486031215611fd057600080fd5b83519250602084015191506040840151611f5881611f1d565b7f4e487b7100000000000000000000000000000000000000000000000000000000600052602160045260246000fd5b60068110610428577f4e487b7100000000000000000000000000000000000000000000000000000000600052602160045260246000fd5b838152602081018390526060810161206683612018565b826040830152949350505050565b60006020828403121561208657600080fd5b815167ffffffffffffffff81111561209d57600080fd5b8201601f810184136120ae57600080fd5b80516120bc611e6482611dd6565b8181528560208385010111156120d157600080fd5b6120e2826020830160208601611e9c565b95945050505050565b828152604081016120fb83612018565b8260208301529392505050565b6000602080838503121561211b57600080fd5b825167ffffffffffffffff8082111561213357600080fd5b818501915085601f83011261214757600080fd5b81518181111561215957612159611d2e565b8060051b915061216a848301611d87565b818152918301840191848101908884111561218457600080fd5b938501935b838510156117a957845182529385019390850190612189565b7f4e487b7100000000000000000000000000000000000000000000000000000000600052603260045260246000fd5b6000602082840312156121e357600080fd5b815180151581146101bd57600080fd5b805163ffffffff8116811461220757600080fd5b919050565b805161ffff8116811461220757600080fd5b805160ff8116811461220757600080fd5b80516003811061220757600080fd5b6000610120828403121561225157600080fd5b612259611d5d565b82518152612269602084016121f3565b602082015261227a6040840161220c565b604082015261228b6060840161220c565b6060820152608083015160808201526122a660a0840161220c565b60a08201526122b760c0840161220c565b60c08201526122c860e0840161221e565b60e08201526101006122db81850161222f565b908201529392505050565b7f4e487b7100000000000000000000000000000000000000000000000000000000600052601160045260246000fd5b60007fffffffffffffffffffffffffffffffffffffffffffffffffffffffffffffffff8203612346576123466122e6565b5060010190565b60006020828403121561235f57600080fd5b6101bd826121f3565b63ffffffff828116828216039080821115612385576123856122e6565b5092915050565b8051600381900b811461220757600080fd5b6000604082840312156123b057600080fd5b6040516040810181811067ffffffffffffffff821117156123d3576123d3611d2e565b6040526123df8361238c565b81526123ed6020840161238c565b60208201529392505050565b60006020808301818452808551808352604092508286019150828160051b87010184880160005b83811015612493577fffffffffffffffffffffffffffffffffffffffffffffffffffffffffffffffc089840301855281516060815161245e81612018565b85528189015189860152908701518785018290529061247f81860183611ec0565b968901969450505090860190600101612420565b509098975050505050505050565b60008260030b8260030b028060030b9150808214612385576123856122e6565b6000602082840312156124d357600080fd5b5051919050565b818103818111156107a8576107a86122e6565b600061ffff80841680612529577f4e487b7100000000000000000000000000000000000000000000000000000000600052601260045260246000fd5b92169190910492915050565b61ffff828116828216039080821115612385576123856122e6565b60006020828403121561256257600080fd5b81516101bd81611f7c56fea26469706673582212205358691f45d658ad1dbf350a7468cbb7162aa7101cf916bc6a102920cbb953b064736f6c63430008110033",
    "linkReferences": {}
  },
  "methodIdentifiers": {
    "execute(bytes)": "09c5eabe",
    "executeTyped(uint256,uint256,uint8)": "14b63f57",
    "owner()": "8da5cb5b",
    "revokeController(uint256)": "6318c82d",
    "transferOwnership(address)": "f2fde38b"
  },
  "id": 76
}