{
  "abi": [
    {
      "inputs": [
        {
          "internalType": "contract IWorld",
          "name": "_world",
          "type": "address"
        },
        {
          "internalType": "address",
          "name": "_components",
          "type": "address"
        }
      ],
      "stateMutability": "nonpayable",
      "type": "constructor"
    },
    {
      "inputs": [],
      "name": "NotController",
      "type": "error"
    },
    {
      "inputs": [],
      "name": "Ownable__NotOwner",
      "type": "error"
    },
    {
      "inputs": [],
      "name": "Ownable__NotTransitiveOwner",
      "type": "error"
    },
    {
      "anonymous": false,
      "inputs": [
        {
          "indexed": true,
          "internalType": "address",
          "name": "previousOwner",
          "type": "address"
        },
        {
          "indexed": true,
          "internalType": "address",
          "name": "newOwner",
          "type": "address"
        }
      ],
      "name": "OwnershipTransferred",
      "type": "event"
    },
    {
      "inputs": [
        {
          "internalType": "bytes",
          "name": "arguments",
          "type": "bytes"
        }
      ],
      "name": "execute",
      "outputs": [
        {
          "internalType": "bytes",
          "name": "",
          "type": "bytes"
        }
      ],
      "stateMutability": "nonpayable",
      "type": "function"
    },
    {
      "inputs": [
        {
          "internalType": "uint256",
          "name": "entity",
          "type": "uint256"
        }
      ],
      "name": "executeTyped",
      "outputs": [
        {
          "internalType": "bytes",
          "name": "",
          "type": "bytes"
        }
      ],
      "stateMutability": "nonpayable",
      "type": "function"
    },
    {
      "inputs": [],
      "name": "owner",
      "outputs": [
        {
          "internalType": "address",
          "name": "",
          "type": "address"
        }
      ],
      "stateMutability": "view",
      "type": "function"
    },
    {
      "inputs": [
        {
          "internalType": "address",
          "name": "account",
          "type": "address"
        }
      ],
      "name": "transferOwnership",
      "outputs": [],
      "stateMutability": "nonpayable",
      "type": "function"
    }
  ],
  "bytecode": {
    "object": "0x60806040523480156200001157600080fd5b50604051620010743803806200107483398101604081905262000034916200022c565b818162000041336200010f565b6001600160a01b03811615620000585780620000bd565b816001600160a01b031663ba62fbe46040518163ffffffff1660e01b8152600401602060405180830381865afa15801562000097573d6000803e3d6000fd5b505050506040513d601f19601f82011682018060405250810190620000bd91906200026b565b600080546001600160a01b03199081166001600160a01b0393841690811790925560018054909116928516928317905562000105919062000183602090811b6200024117901c565b5050505062000292565b600062000126620001ef60201b620002d21760201c565b80546040519192506001600160a01b03808516929116907f8be0079c531659141344cd1fd0a4f28419497f9722a3daafe3b4186f6b6457e090600090a380546001600160a01b0319166001600160a01b0392909216919091179055565b7ff67304f10c7772c78e439bc5cb07781db345424de8878c18100fdaa64d197a8780546001600160a01b039384166001600160a01b0319918216179091557ff67304f10c7772c78e439bc5cb07781db345424de8878c18100fdaa64d197a868054929093169116179055565b7f8a22373512790c48b83a1fe2efdd2888d4a917bcdc24d0adf63e60f67168046090565b6001600160a01b03811681146200022957600080fd5b50565b600080604083850312156200024057600080fd5b82516200024d8162000213565b6020840151909250620002608162000213565b809150509250929050565b6000602082840312156200027e57600080fd5b81516200028b8162000213565b9392505050565b610dd280620002a26000396000f3fe608060405234801561001057600080fd5b506004361061004c5760003560e01c806309c5eabe146100515780633e991df31461007a5780638da5cb5b1461008d578063f2fde38b146100ba575b600080fd5b61006461005f366004610a56565b6100cf565b6040516100719190610b09565b60405180910390f35b610064610088366004610b75565b61014e565b610095610180565b60405173ffffffffffffffffffffffffffffffffffffffff9091168152602001610071565b6100cd6100c8366004610b8e565b6101c5565b005b60606000828060200190518101906100e79190610bc4565b600080549192509061012f9073ffffffffffffffffffffffffffffffffffffffff167f1f26ebf637805df90fe5cf9a282dd66905185d55ff65696a9171e1a656152d396102f6565b905061013c818333610446565b61014781833361048c565b5050919050565b606061017a8260405160200161016691815260200190565b6040516020818303038152906040526100cf565b92915050565b60006101c07f8a22373512790c48b83a1fe2efdd2888d4a917bcdc24d0adf63e60f6716804605473ffffffffffffffffffffffffffffffffffffffff1690565b905090565b7f8a22373512790c48b83a1fe2efdd2888d4a917bcdc24d0adf63e60f6716804605473ffffffffffffffffffffffffffffffffffffffff163314610235576040517f2f7a8ee100000000000000000000000000000000000000000000000000000000815260040160405180910390fd5b61023e81610751565b50565b7ff67304f10c7772c78e439bc5cb07781db345424de8878c18100fdaa64d197a87805473ffffffffffffffffffffffffffffffffffffffff9384167fffffffffffffffffffffffff0000000000000000000000000000000000000000918216179091557ff67304f10c7772c78e439bc5cb07781db345424de8878c18100fdaa64d197a868054929093169116179055565b7f8a22373512790c48b83a1fe2efdd2888d4a917bcdc24d0adf63e60f67168046090565b6040517ffbdfa1ea00000000000000000000000000000000000000000000000000000000815260048101829052600090819073ffffffffffffffffffffffffffffffffffffffff85169063fbdfa1ea90602401600060405180830381865afa158015610366573d6000803e3d6000fd5b505050506040513d6000823e601f3d9081017fffffffffffffffffffffffffffffffffffffffffffffffffffffffffffffffe01682016040526103ac9190810190610bdd565b9050805160000361041d576040517f08c379a000000000000000000000000000000000000000000000000000000000815260206004820152601160248201527f6964206e6f742072656769737465726564000000000000000000000000000000604482015260640160405180910390fd5b61043e8160008151811061043357610433610c83565b602002602001015190565b949350505050565b61045183838361075a565b610487576040517f23019e6700000000000000000000000000000000000000000000000000000000815260040160405180910390fd5b505050565b6040517f0ff4c9160000000000000000000000000000000000000000000000000000000081526004810183905260009073ffffffffffffffffffffffffffffffffffffffff851690630ff4c91690602401600060405180830381865afa1580156104fa573d6000803e3d6000fd5b505050506040513d6000823e601f3d9081017fffffffffffffffffffffffffffffffffffffffffffffffffffffffffffffffe01682016040526105409190810190610bdd565b9050600081511161057d576040517f23019e6700000000000000000000000000000000000000000000000000000000815260040160405180910390fd5b60006001825161058d9190610ce1565b67ffffffffffffffff8111156105a5576105a56109d8565b6040519080825280602002602001820160405280156105ce578160200160208202803683370190505b5090506000805b83518110156106c2578473ffffffffffffffffffffffffffffffffffffffff1661060a85838151811061043357610433610c83565b73ffffffffffffffffffffffffffffffffffffffff16146106b057600184516106339190610ce1565b821061066b576040517f23019e6700000000000000000000000000000000000000000000000000000000815260040160405180910390fd5b83818151811061067d5761067d610c83565b602002602001015183838151811061069757610697610c83565b6020908102919091010152816106ac81610cf4565b9250505b806106ba81610cf4565b9150506105d5565b506040517f946aadc600000000000000000000000000000000000000000000000000000000815273ffffffffffffffffffffffffffffffffffffffff87169063946aadc6906107179088908690600401610d2c565b600060405180830381600087803b15801561073157600080fd5b505af1158015610745573d6000803e3d6000fd5b50505050505050505050565b61023e8161092c565b6040517fcccf7a8e0000000000000000000000000000000000000000000000000000000081526004810183905260009073ffffffffffffffffffffffffffffffffffffffff85169063cccf7a8e90602401602060405180830381865afa1580156107c8573d6000803e3d6000fd5b505050506040513d601f19601f820116820180604052508101906107ec9190610d7a565b6107f857506000610925565b6040517f0ff4c9160000000000000000000000000000000000000000000000000000000081526004810184905260009073ffffffffffffffffffffffffffffffffffffffff861690630ff4c91690602401600060405180830381865afa158015610866573d6000803e3d6000fd5b505050506040513d6000823e601f3d9081017fffffffffffffffffffffffffffffffffffffffffffffffffffffffffffffffe01682016040526108ac9190810190610bdd565b905060005b815181101561091e578373ffffffffffffffffffffffffffffffffffffffff166108e683838151811061043357610433610c83565b73ffffffffffffffffffffffffffffffffffffffff160361090c57600192505050610925565b8061091681610cf4565b9150506108b1565b5060009150505b9392505050565b7f8a22373512790c48b83a1fe2efdd2888d4a917bcdc24d0adf63e60f671680460805460405173ffffffffffffffffffffffffffffffffffffffff8481169216907f8be0079c531659141344cd1fd0a4f28419497f9722a3daafe3b4186f6b6457e090600090a380547fffffffffffffffffffffffff00000000000000000000000000000000000000001673ffffffffffffffffffffffffffffffffffffffff92909216919091179055565b7f4e487b7100000000000000000000000000000000000000000000000000000000600052604160045260246000fd5b604051601f82017fffffffffffffffffffffffffffffffffffffffffffffffffffffffffffffffe016810167ffffffffffffffff81118282101715610a4e57610a4e6109d8565b604052919050565b60006020808385031215610a6957600080fd5b823567ffffffffffffffff80821115610a8157600080fd5b818501915085601f830112610a9557600080fd5b813581811115610aa757610aa76109d8565b610ad7847fffffffffffffffffffffffffffffffffffffffffffffffffffffffffffffffe0601f84011601610a07565b91508082528684828501011115610aed57600080fd5b8084840185840137600090820190930192909252509392505050565b600060208083528351808285015260005b81811015610b3657858101830151858201604001528201610b1a565b5060006040828601015260407fffffffffffffffffffffffffffffffffffffffffffffffffffffffffffffffe0601f8301168501019250505092915050565b600060208284031215610b8757600080fd5b5035919050565b600060208284031215610ba057600080fd5b813573ffffffffffffffffffffffffffffffffffffffff8116811461092557600080fd5b600060208284031215610bd657600080fd5b5051919050565b60006020808385031215610bf057600080fd5b825167ffffffffffffffff80821115610c0857600080fd5b818501915085601f830112610c1c57600080fd5b815181811115610c2e57610c2e6109d8565b8060051b9150610c3f848301610a07565b8181529183018401918481019088841115610c5957600080fd5b938501935b83851015610c7757845182529385019390850190610c5e565b98975050505050505050565b7f4e487b7100000000000000000000000000000000000000000000000000000000600052603260045260246000fd5b7f4e487b7100000000000000000000000000000000000000000000000000000000600052601160045260246000fd5b8181038181111561017a5761017a610cb2565b60007fffffffffffffffffffffffffffffffffffffffffffffffffffffffffffffffff8203610d2557610d25610cb2565b5060010190565b6000604082018483526020604081850152818551808452606086019150828701935060005b81811015610d6d57845183529383019391830191600101610d51565b5090979650505050505050565b600060208284031215610d8c57600080fd5b8151801515811461092557600080fdfea264697066735822122048940c1b84cbf8a50a6c6b2f69f97ad5ec714d85282965870ee1941be551aa5864736f6c63430008110033",
    "linkReferences": {}
  },
  "methodIdentifiers": {
    "execute(bytes)": "09c5eabe",
    "executeTyped(uint256)": "3e991df3",
    "owner()": "8da5cb5b",
    "transferOwnership(address)": "f2fde38b"
  },
  "id": 79
}