{
  "abi": [
    {
      "inputs": [
        {
          "internalType": "contract IWorld",
          "name": "_world",
          "type": "address"
        },
        {
          "internalType": "address",
          "name": "_components",
          "type": "address"
        }
      ],
      "stateMutability": "nonpayable",
      "type": "constructor"
    },
    {
      "inputs": [],
      "name": "AlreadyHasController",
      "type": "error"
    },
    {
      "inputs": [],
      "name": "NotOwner",
      "type": "error"
    },
    {
      "anonymous": false,
      "inputs": [
        {
          "indexed": true,
          "internalType": "address",
          "name": "previousOwner",
          "type": "address"
        },
        {
          "indexed": true,
          "internalType": "address",
          "name": "newOwner",
          "type": "address"
        }
      ],
      "name": "OwnershipTransferred",
      "type": "event"
    },
    {
      "inputs": [
        {
          "internalType": "bytes",
          "name": "arguments",
          "type": "bytes"
        }
      ],
      "name": "execute",
      "outputs": [
        {
          "internalType": "bytes",
          "name": "",
          "type": "bytes"
        }
      ],
      "stateMutability": "nonpayable",
      "type": "function"
    },
    {
      "inputs": [
        {
          "internalType": "uint256",
          "name": "entity",
          "type": "uint256"
        },
        {
          "internalType": "address[]",
          "name": "controllers",
          "type": "address[]"
        }
      ],
      "name": "executeTyped",
      "outputs": [
        {
          "internalType": "bytes",
          "name": "",
          "type": "bytes"
        }
      ],
      "stateMutability": "nonpayable",
      "type": "function"
    },
    {
      "inputs": [],
      "name": "owner",
      "outputs": [
        {
          "internalType": "address",
          "name": "",
          "type": "address"
        }
      ],
      "stateMutability": "view",
      "type": "function"
    },
    {
      "inputs": [
        {
          "internalType": "address",
          "name": "newOwner",
          "type": "address"
        }
      ],
      "name": "transferOwnership",
      "outputs": [],
      "stateMutability": "nonpayable",
      "type": "function"
    }
  ],
  "bytecode": {
    "object": "0x60806040523480156200001157600080fd5b5060405162000fdc38038062000fdc833981016040819052620000349162000117565b600280546001600160a01b0319163317905581816001600160a01b038116156200005f5780620000c4565b816001600160a01b031663ba62fbe46040518163ffffffff1660e01b8152600401602060405180830381865afa1580156200009e573d6000803e3d6000fd5b505050506040513d601f19601f82011682018060405250810190620000c4919062000156565b600080546001600160a01b039283166001600160a01b0319918216179091556001805494909216931692909217909155506200017d915050565b6001600160a01b03811681146200011457600080fd5b50565b600080604083850312156200012b57600080fd5b82516200013881620000fe565b60208401519092506200014b81620000fe565b809150509250929050565b6000602082840312156200016957600080fd5b81516200017681620000fe565b9392505050565b610e4f806200018d6000396000f3fe608060405234801561001057600080fd5b506004361061004c5760003560e01c806309c5eabe146100515780638da5cb5b1461007a578063d6f6d8b3146100a2578063f2fde38b146100b5575b600080fd5b61006461005f36600461094f565b6100ca565b6040516100719190610a02565b60405180910390f35b60025460405173ffffffffffffffffffffffffffffffffffffffff9091168152602001610071565b6100646100b0366004610ab7565b6102d7565b6100c86100c3366004610b62565b61030c565b005b6060600080838060200190518101906100e39190610b7f565b600080549294509092509061012e9073ffffffffffffffffffffffffffffffffffffffff167f3aa78a206fc67ba4c2dbdbfa4f9637a0b391d7db261dacc2eb5d96f7b5693d97610420565b60008054919250906101769073ffffffffffffffffffffffffffffffffffffffff167f1f26ebf637805df90fe5cf9a282dd66905185d55ff65696a9171e1a656152d39610420565b905061018382853361056c565b61018d81856105b2565b6000835167ffffffffffffffff8111156101a9576101a96108d1565b6040519080825280602002602001820160405280156101d2578160200160208202803683370190505b50905060005b8451811015610246576102178582815181106101f6576101f6610c16565b602002602001015173ffffffffffffffffffffffffffffffffffffffff1690565b82828151811061022957610229610c16565b60209081029190910101528061023e81610c45565b9150506101d8565b506040517f946aadc600000000000000000000000000000000000000000000000000000000815273ffffffffffffffffffffffffffffffffffffffff83169063946aadc69061029b9088908590600401610ca4565b600060405180830381600087803b1580156102b557600080fd5b505af11580156102c9573d6000803e3d6000fd5b505050505050505050919050565b606061030383836040516020016102ef929190610cf2565b6040516020818303038152906040526100ca565b90505b92915050565b60025473ffffffffffffffffffffffffffffffffffffffff163314610392576040517f08c379a000000000000000000000000000000000000000000000000000000000815260206004820152600a60248201527f4f4e4c595f4f574e45520000000000000000000000000000000000000000000060448201526064015b60405180910390fd5b60025460405173ffffffffffffffffffffffffffffffffffffffff8084169216907f8be0079c531659141344cd1fd0a4f28419497f9722a3daafe3b4186f6b6457e090600090a3600280547fffffffffffffffffffffffff00000000000000000000000000000000000000001673ffffffffffffffffffffffffffffffffffffffff92909216919091179055565b6040517ffbdfa1ea00000000000000000000000000000000000000000000000000000000815260048101829052600090819073ffffffffffffffffffffffffffffffffffffffff85169063fbdfa1ea90602401600060405180830381865afa158015610490573d6000803e3d6000fd5b505050506040513d6000823e601f3d9081017fffffffffffffffffffffffffffffffffffffffffffffffffffffffffffffffe01682016040526104d69190810190610d49565b90508051600003610543576040517f08c379a000000000000000000000000000000000000000000000000000000000815260206004820152601160248201527f6964206e6f7420726567697374657265640000000000000000000000000000006044820152606401610389565b6105648160008151811061055957610559610c16565b602002602001015190565b949350505050565b6105778383836105fa565b6105ad576040517f30cd747100000000000000000000000000000000000000000000000000000000815260040160405180910390fd5b505050565b60006105be8383610776565b11156105f6576040517f1c6ceb3900000000000000000000000000000000000000000000000000000000815260040160405180910390fd5b5050565b6040517fcccf7a8e0000000000000000000000000000000000000000000000000000000081526004810183905260009073ffffffffffffffffffffffffffffffffffffffff85169063cccf7a8e90602401602060405180830381865afa158015610668573d6000803e3d6000fd5b505050506040513d601f19601f8201168201806040525081019061068c9190610dda565b6106985750600061076f565b6040517f0ff4c9160000000000000000000000000000000000000000000000000000000081526004810184905260009073ffffffffffffffffffffffffffffffffffffffff861690630ff4c91690602401602060405180830381865afa158015610706573d6000803e3d6000fd5b505050506040513d601f19601f8201168201806040525081019061072a9190610dfc565b90508273ffffffffffffffffffffffffffffffffffffffff168173ffffffffffffffffffffffffffffffffffffffff161461076957600091505061076f565b60019150505b9392505050565b6040517fcccf7a8e0000000000000000000000000000000000000000000000000000000081526004810182905260009073ffffffffffffffffffffffffffffffffffffffff84169063cccf7a8e90602401602060405180830381865afa1580156107e4573d6000803e3d6000fd5b505050506040513d601f19601f820116820180604052508101906108089190610dda565b61081457506000610306565b6040517f0ff4c9160000000000000000000000000000000000000000000000000000000081526004810183905260009073ffffffffffffffffffffffffffffffffffffffff851690630ff4c91690602401600060405180830381865afa158015610882573d6000803e3d6000fd5b505050506040513d6000823e601f3d9081017fffffffffffffffffffffffffffffffffffffffffffffffffffffffffffffffe01682016040526108c89190810190610d49565b51949350505050565b7f4e487b7100000000000000000000000000000000000000000000000000000000600052604160045260246000fd5b604051601f82017fffffffffffffffffffffffffffffffffffffffffffffffffffffffffffffffe016810167ffffffffffffffff81118282101715610947576109476108d1565b604052919050565b6000602080838503121561096257600080fd5b823567ffffffffffffffff8082111561097a57600080fd5b818501915085601f83011261098e57600080fd5b8135818111156109a0576109a06108d1565b6109d0847fffffffffffffffffffffffffffffffffffffffffffffffffffffffffffffffe0601f84011601610900565b915080825286848285010111156109e657600080fd5b8084840185840137600090820190930192909252509392505050565b600060208083528351808285015260005b81811015610a2f57858101830151858201604001528201610a13565b5060006040828601015260407fffffffffffffffffffffffffffffffffffffffffffffffffffffffffffffffe0601f8301168501019250505092915050565b600067ffffffffffffffff821115610a8857610a886108d1565b5060051b60200190565b73ffffffffffffffffffffffffffffffffffffffff81168114610ab457600080fd5b50565b60008060408385031215610aca57600080fd5b8235915060208084013567ffffffffffffffff811115610ae957600080fd5b8401601f81018613610afa57600080fd5b8035610b0d610b0882610a6e565b610900565b81815260059190911b82018301908381019088831115610b2c57600080fd5b928401925b82841015610b53578335610b4481610a92565b82529284019290840190610b31565b80955050505050509250929050565b600060208284031215610b7457600080fd5b813561076f81610a92565b60008060408385031215610b9257600080fd5b8251915060208084015167ffffffffffffffff811115610bb157600080fd5b8401601f81018613610bc257600080fd5b8051610bd0610b0882610a6e565b81815260059190911b82018301908381019088831115610bef57600080fd5b928401925b82841015610b53578351610c0781610a92565b82529284019290840190610bf4565b7f4e487b7100000000000000000000000000000000000000000000000000000000600052603260045260246000fd5b60007fffffffffffffffffffffffffffffffffffffffffffffffffffffffffffffffff8203610c9d577f4e487b7100000000000000000000000000000000000000000000000000000000600052601160045260246000fd5b5060010190565b6000604082018483526020604081850152818551808452606086019150828701935060005b81811015610ce557845183529383019391830191600101610cc9565b5090979650505050505050565b6000604082018483526020604081850152818551808452606086019150828701935060005b81811015610ce557845173ffffffffffffffffffffffffffffffffffffffff1683529383019391830191600101610d17565b60006020808385031215610d5c57600080fd5b825167ffffffffffffffff811115610d7357600080fd5b8301601f81018513610d8457600080fd5b8051610d92610b0882610a6e565b81815260059190911b82018301908381019087831115610db157600080fd5b928401925b82841015610dcf57835182529284019290840190610db6565b979650505050505050565b600060208284031215610dec57600080fd5b8151801515811461076f57600080fd5b600060208284031215610e0e57600080fd5b815161076f81610a9256fea26469706673582212200f88579b16959ac241dbbf8970beef131662f30ffdbd1e4233bbc0ab01f2ff3064736f6c63430008110033",
    "linkReferences": {}
  },
  "methodIdentifiers": {
    "execute(bytes)": "09c5eabe",
    "executeTyped(uint256,address[])": "d6f6d8b3",
    "owner()": "8da5cb5b",
    "transferOwnership(address)": "f2fde38b"
  },
  "id": 60
}