{
  "abi": [
    {
      "inputs": [
        {
          "internalType": "contract IWorld",
          "name": "_world",
          "type": "address"
        },
        {
          "internalType": "address",
          "name": "_components",
          "type": "address"
        }
      ],
      "stateMutability": "nonpayable",
      "type": "constructor"
    },
    {
      "inputs": [],
      "name": "CannotControl",
      "type": "error"
    },
    {
      "anonymous": false,
      "inputs": [
        {
          "indexed": true,
          "internalType": "address",
          "name": "previousOwner",
          "type": "address"
        },
        {
          "indexed": true,
          "internalType": "address",
          "name": "newOwner",
          "type": "address"
        }
      ],
      "name": "OwnershipTransferred",
      "type": "event"
    },
    {
      "inputs": [
        {
          "internalType": "bytes",
          "name": "arguments",
          "type": "bytes"
        }
      ],
      "name": "execute",
      "outputs": [
        {
          "internalType": "bytes",
          "name": "",
          "type": "bytes"
        }
      ],
      "stateMutability": "nonpayable",
      "type": "function"
    },
    {
      "inputs": [
        {
          "internalType": "uint256",
          "name": "entity",
          "type": "uint256"
        },
        {
          "internalType": "enum PieceType",
          "name": "pieceType",
          "type": "uint8"
        }
      ],
      "name": "executeTyped",
      "outputs": [
        {
          "internalType": "bytes",
          "name": "",
          "type": "bytes"
        }
      ],
      "stateMutability": "nonpayable",
      "type": "function"
    },
    {
      "inputs": [],
      "name": "owner",
      "outputs": [
        {
          "internalType": "address",
          "name": "",
          "type": "address"
        }
      ],
      "stateMutability": "view",
      "type": "function"
    },
    {
      "inputs": [
        {
          "internalType": "address",
          "name": "newOwner",
          "type": "address"
        }
      ],
      "name": "transferOwnership",
      "outputs": [],
      "stateMutability": "nonpayable",
      "type": "function"
    }
  ],
  "bytecode": {
    "object": "0x60806040523480156200001157600080fd5b5060405162000fc238038062000fc2833981016040819052620000349162000117565b600280546001600160a01b0319163317905581816001600160a01b038116156200005f5780620000c4565b816001600160a01b031663ba62fbe46040518163ffffffff1660e01b8152600401602060405180830381865afa1580156200009e573d6000803e3d6000fd5b505050506040513d601f19601f82011682018060405250810190620000c4919062000156565b600080546001600160a01b039283166001600160a01b0319918216179091556001805494909216931692909217909155506200017d915050565b6001600160a01b03811681146200011457600080fd5b50565b600080604083850312156200012b57600080fd5b82516200013881620000fe565b60208401519092506200014b81620000fe565b809150509250929050565b6000602082840312156200016957600080fd5b81516200017681620000fe565b9392505050565b610e35806200018d6000396000f3fe608060405234801561001057600080fd5b506004361061004c5760003560e01c806309c5eabe146100515780638da5cb5b1461007a578063a1401618146100a2578063f2fde38b146100b5575b600080fd5b61006461005f366004610a7e565b6100ca565b6040516100719190610b31565b60405180910390f35b60025460405173ffffffffffffffffffffffffffffffffffffffff9091168152602001610071565b6100646100b0366004610bad565b61025c565b6100c86100c3366004610bff565b610291565b005b6060600080838060200190518101906100e39190610c1c565b600080549294509092509061012e9073ffffffffffffffffffffffffffffffffffffffff167f3aa78a206fc67ba4c2dbdbfa4f9637a0b391d7db261dacc2eb5d96f7b5693d976103a5565b60008054919250906101769073ffffffffffffffffffffffffffffffffffffffff167f1f26ebf637805df90fe5cf9a282dd66905185d55ff65696a9171e1a656152d396103a5565b60008054919250906101be9073ffffffffffffffffffffffffffffffffffffffff167fd43e0d138a55035def2f150c31798e941af349936fa84a9e5eda703a2e41218b6103a5565b90506101cc828487336104f1565b6040517ff419df7200000000000000000000000000000000000000000000000000000000815273ffffffffffffffffffffffffffffffffffffffff82169063f419df72906102209088908890600401610c41565b600060405180830381600087803b15801561023a57600080fd5b505af115801561024e573d6000803e3d6000fd5b505050505050505050919050565b60606102888383604051602001610274929190610c41565b6040516020818303038152906040526100ca565b90505b92915050565b60025473ffffffffffffffffffffffffffffffffffffffff163314610317576040517f08c379a000000000000000000000000000000000000000000000000000000000815260206004820152600a60248201527f4f4e4c595f4f574e45520000000000000000000000000000000000000000000060448201526064015b60405180910390fd5b60025460405173ffffffffffffffffffffffffffffffffffffffff8084169216907f8be0079c531659141344cd1fd0a4f28419497f9722a3daafe3b4186f6b6457e090600090a3600280547fffffffffffffffffffffffff00000000000000000000000000000000000000001673ffffffffffffffffffffffffffffffffffffffff92909216919091179055565b6040517ffbdfa1ea00000000000000000000000000000000000000000000000000000000815260048101829052600090819073ffffffffffffffffffffffffffffffffffffffff85169063fbdfa1ea90602401600060405180830381865afa158015610415573d6000803e3d6000fd5b505050506040513d6000823e601f3d9081017fffffffffffffffffffffffffffffffffffffffffffffffffffffffffffffffe016820160405261045b9190810190610c8c565b905080516000036104c8576040517f08c379a000000000000000000000000000000000000000000000000000000000815260206004820152601160248201527f6964206e6f742072656769737465726564000000000000000000000000000000604482015260640161030e565b6104e9816000815181106104de576104de610d32565b602002602001015190565b949350505050565b6104fc848383610559565b6105535761050a848361072b565b15801561051d575061051d838383610886565b610553576040517fc49f4b4900000000000000000000000000000000000000000000000000000000815260040160405180910390fd5b50505050565b6040517fcccf7a8e0000000000000000000000000000000000000000000000000000000081526004810183905260009073ffffffffffffffffffffffffffffffffffffffff85169063cccf7a8e90602401602060405180830381865afa1580156105c7573d6000803e3d6000fd5b505050506040513d601f19601f820116820180604052508101906105eb9190610d61565b6105f757506000610724565b6040517f0ff4c9160000000000000000000000000000000000000000000000000000000081526004810184905260009073ffffffffffffffffffffffffffffffffffffffff861690630ff4c91690602401600060405180830381865afa158015610665573d6000803e3d6000fd5b505050506040513d6000823e601f3d9081017fffffffffffffffffffffffffffffffffffffffffffffffffffffffffffffffe01682016040526106ab9190810190610c8c565b905060005b815181101561071d578373ffffffffffffffffffffffffffffffffffffffff166106e58383815181106104de576104de610d32565b73ffffffffffffffffffffffffffffffffffffffff160361070b57600192505050610724565b8061071581610d83565b9150506106b0565b5060009150505b9392505050565b6040517fcccf7a8e0000000000000000000000000000000000000000000000000000000081526004810182905260009073ffffffffffffffffffffffffffffffffffffffff84169063cccf7a8e90602401602060405180830381865afa158015610799573d6000803e3d6000fd5b505050506040513d601f19601f820116820180604052508101906107bd9190610d61565b6107c95750600061028b565b6040517f0ff4c9160000000000000000000000000000000000000000000000000000000081526004810183905260009073ffffffffffffffffffffffffffffffffffffffff851690630ff4c91690602401600060405180830381865afa158015610837573d6000803e3d6000fd5b505050506040513d6000823e601f3d9081017fffffffffffffffffffffffffffffffffffffffffffffffffffffffffffffffe016820160405261087d9190810190610c8c565b51949350505050565b6040517fcccf7a8e0000000000000000000000000000000000000000000000000000000081526004810183905260009073ffffffffffffffffffffffffffffffffffffffff85169063cccf7a8e90602401602060405180830381865afa1580156108f4573d6000803e3d6000fd5b505050506040513d601f19601f820116820180604052508101906109189190610d61565b61092457506000610724565b6040517f0ff4c9160000000000000000000000000000000000000000000000000000000081526004810184905260009073ffffffffffffffffffffffffffffffffffffffff861690630ff4c91690602401602060405180830381865afa158015610992573d6000803e3d6000fd5b505050506040513d601f19601f820116820180604052508101906109b69190610de2565b90508273ffffffffffffffffffffffffffffffffffffffff168173ffffffffffffffffffffffffffffffffffffffff16146109f5576000915050610724565b506001949350505050565b7f4e487b7100000000000000000000000000000000000000000000000000000000600052604160045260246000fd5b604051601f82017fffffffffffffffffffffffffffffffffffffffffffffffffffffffffffffffe016810167ffffffffffffffff81118282101715610a7657610a76610a00565b604052919050565b60006020808385031215610a9157600080fd5b823567ffffffffffffffff80821115610aa957600080fd5b818501915085601f830112610abd57600080fd5b813581811115610acf57610acf610a00565b610aff847fffffffffffffffffffffffffffffffffffffffffffffffffffffffffffffffe0601f84011601610a2f565b91508082528684828501011115610b1557600080fd5b8084840185840137600090820190930192909252509392505050565b600060208083528351808285015260005b81811015610b5e57858101830151858201604001528201610b42565b5060006040828601015260407fffffffffffffffffffffffffffffffffffffffffffffffffffffffffffffffe0601f8301168501019250505092915050565b60068110610baa57600080fd5b50565b60008060408385031215610bc057600080fd5b823591506020830135610bd281610b9d565b809150509250929050565b73ffffffffffffffffffffffffffffffffffffffff81168114610baa57600080fd5b600060208284031215610c1157600080fd5b813561072481610bdd565b60008060408385031215610c2f57600080fd5b825191506020830151610bd281610b9d565b8281526040810160068310610c7f577f4e487b7100000000000000000000000000000000000000000000000000000000600052602160045260246000fd5b8260208301529392505050565b60006020808385031215610c9f57600080fd5b825167ffffffffffffffff80821115610cb757600080fd5b818501915085601f830112610ccb57600080fd5b815181811115610cdd57610cdd610a00565b8060051b9150610cee848301610a2f565b8181529183018401918481019088841115610d0857600080fd5b938501935b83851015610d2657845182529385019390850190610d0d565b98975050505050505050565b7f4e487b7100000000000000000000000000000000000000000000000000000000600052603260045260246000fd5b600060208284031215610d7357600080fd5b8151801515811461072457600080fd5b60007fffffffffffffffffffffffffffffffffffffffffffffffffffffffffffffffff8203610ddb577f4e487b7100000000000000000000000000000000000000000000000000000000600052601160045260246000fd5b5060010190565b600060208284031215610df457600080fd5b815161072481610bdd56fea2646970667358221220eb921fe6300aa34b45720745a10b1133db7bf6292c38822f9d01c31bc206f54c64736f6c63430008110033",
    "linkReferences": {}
  },
  "methodIdentifiers": {
    "execute(bytes)": "09c5eabe",
    "executeTyped(uint256,uint8)": "a1401618",
    "owner()": "8da5cb5b",
    "transferOwnership(address)": "f2fde38b"
  },
  "id": 61
}