{
  "abi": [
    {
      "inputs": [
        {
          "internalType": "contract IWorld",
          "name": "_world",
          "type": "address"
        },
        {
          "internalType": "address",
          "name": "_components",
          "type": "address"
        }
      ],
      "stateMutability": "nonpayable",
      "type": "constructor"
    },
    {
      "inputs": [],
      "name": "Ownable__NotOwner",
      "type": "error"
    },
    {
      "inputs": [],
      "name": "Ownable__NotTransitiveOwner",
      "type": "error"
    },
    {
      "anonymous": false,
      "inputs": [
        {
          "indexed": true,
          "internalType": "address",
          "name": "previousOwner",
          "type": "address"
        },
        {
          "indexed": true,
          "internalType": "address",
          "name": "newOwner",
          "type": "address"
        }
      ],
      "name": "OwnershipTransferred",
      "type": "event"
    },
    {
      "inputs": [
        {
          "internalType": "bytes",
          "name": "",
          "type": "bytes"
        }
      ],
      "name": "execute",
      "outputs": [
        {
          "internalType": "bytes",
          "name": "",
          "type": "bytes"
        }
      ],
      "stateMutability": "nonpayable",
      "type": "function"
    },
    {
      "inputs": [],
      "name": "executeTyped",
      "outputs": [
        {
          "internalType": "uint256",
          "name": "",
          "type": "uint256"
        }
      ],
      "stateMutability": "nonpayable",
      "type": "function"
    },
    {
      "inputs": [],
      "name": "owner",
      "outputs": [
        {
          "internalType": "address",
          "name": "",
          "type": "address"
        }
      ],
      "stateMutability": "view",
      "type": "function"
    },
    {
      "inputs": [
        {
          "internalType": "address",
          "name": "account",
          "type": "address"
        }
      ],
      "name": "transferOwnership",
      "outputs": [],
      "stateMutability": "nonpayable",
      "type": "function"
    }
  ],
  "bytecode": {
    "object": "0x60806040523480156200001157600080fd5b5060405162000dc138038062000dc183398101604081905262000034916200022c565b818162000041336200010f565b6001600160a01b03811615620000585780620000bd565b816001600160a01b031663ba62fbe46040518163ffffffff1660e01b8152600401602060405180830381865afa15801562000097573d6000803e3d6000fd5b505050506040513d601f19601f82011682018060405250810190620000bd91906200026b565b600080546001600160a01b03199081166001600160a01b0393841690811790925560018054909116928516928317905562000105919062000183602090811b6200051d17901c565b5050505062000292565b600062000126620001ef60201b620005ae1760201c565b80546040519192506001600160a01b03808516929116907f8be0079c531659141344cd1fd0a4f28419497f9722a3daafe3b4186f6b6457e090600090a380546001600160a01b0319166001600160a01b0392909216919091179055565b7ff67304f10c7772c78e439bc5cb07781db345424de8878c18100fdaa64d197a8780546001600160a01b039384166001600160a01b0319918216179091557ff67304f10c7772c78e439bc5cb07781db345424de8878c18100fdaa64d197a868054929093169116179055565b7f8a22373512790c48b83a1fe2efdd2888d4a917bcdc24d0adf63e60f67168046090565b6001600160a01b03811681146200022957600080fd5b50565b600080604083850312156200024057600080fd5b82516200024d8162000213565b6020840151909250620002608162000213565b809150509250929050565b6000602082840312156200027e57600080fd5b81516200028b8162000213565b9392505050565b610b1f80620002a26000396000f3fe608060405234801561001057600080fd5b506004361061004c5760003560e01c806309c5eabe146100515780638da5cb5b1461007a578063e1df4ba6146100a7578063f2fde38b146100bd575b600080fd5b61006461005f366004610854565b6100d2565b6040516100719190610907565b60405180910390f35b610082610428565b60405173ffffffffffffffffffffffffffffffffffffffff9091168152602001610071565b6100af61046d565b604051908152602001610071565b6100d06100cb366004610973565b6104a1565b005b60606000600160009054906101000a900473ffffffffffffffffffffffffffffffffffffffff1673ffffffffffffffffffffffffffffffffffffffff1663614bfa6e6040518163ffffffff1660e01b8152600401602060405180830381865afa158015610143573d6000803e3d6000fd5b505050506040513d601f19601f8201168201806040525081019061016791906109b0565b60008054919250906101af9073ffffffffffffffffffffffffffffffffffffffff167f3aa78a206fc67ba4c2dbdbfa4f9637a0b391d7db261dacc2eb5d96f7b5693d976105d2565b6040517f2f30c6f60000000000000000000000000000000000000000000000000000000081526004810184905233602482015290915073ffffffffffffffffffffffffffffffffffffffff821690632f30c6f690604401600060405180830381600087803b15801561022057600080fd5b505af1158015610234573d6000803e3d6000fd5b50506000805490925061027e915073ffffffffffffffffffffffffffffffffffffffff167fd43e0d138a55035def2f150c31798e941af349936fa84a9e5eda703a2e41218b6105d2565b6040517ff419df7200000000000000000000000000000000000000000000000000000000815290915073ffffffffffffffffffffffffffffffffffffffff82169063f419df72906102d69086906000906004016109c9565b600060405180830381600087803b1580156102f057600080fd5b505af1158015610304573d6000803e3d6000fd5b50506000805490925061034e915073ffffffffffffffffffffffffffffffffffffffff167f023253b2241a10d36b8c9af452236123ad9f4644f2ef4963970b2c4b77c42db56105d2565b60408051808201825260008082526020820190815291517fdcb14c2f000000000000000000000000000000000000000000000000000000008152600481018890529051600390810b6024830152915190910b604482015290915073ffffffffffffffffffffffffffffffffffffffff82169063dcb14c2f90606401600060405180830381600087803b1580156103e357600080fd5b505af11580156103f7573d6000803e3d6000fd5b505050508360405160200161040e91815260200190565b604051602081830303815290604052945050505050919050565b60006104687f8a22373512790c48b83a1fe2efdd2888d4a917bcdc24d0adf63e60f6716804605473ffffffffffffffffffffffffffffffffffffffff1690565b905090565b604080516000808252602082019092528190610488906100d2565b80602001905181019061049b91906109b0565b92915050565b7f8a22373512790c48b83a1fe2efdd2888d4a917bcdc24d0adf63e60f6716804605473ffffffffffffffffffffffffffffffffffffffff163314610511576040517f2f7a8ee100000000000000000000000000000000000000000000000000000000815260040160405180910390fd5b61051a81610722565b50565b7ff67304f10c7772c78e439bc5cb07781db345424de8878c18100fdaa64d197a87805473ffffffffffffffffffffffffffffffffffffffff9384167fffffffffffffffffffffffff0000000000000000000000000000000000000000918216179091557ff67304f10c7772c78e439bc5cb07781db345424de8878c18100fdaa64d197a868054929093169116179055565b7f8a22373512790c48b83a1fe2efdd2888d4a917bcdc24d0adf63e60f67168046090565b6040517ffbdfa1ea00000000000000000000000000000000000000000000000000000000815260048101829052600090819073ffffffffffffffffffffffffffffffffffffffff85169063fbdfa1ea90602401600060405180830381865afa158015610642573d6000803e3d6000fd5b505050506040513d6000823e601f3d9081017fffffffffffffffffffffffffffffffffffffffffffffffffffffffffffffffe01682016040526106889190810190610a14565b905080516000036106f9576040517f08c379a000000000000000000000000000000000000000000000000000000000815260206004820152601160248201527f6964206e6f742072656769737465726564000000000000000000000000000000604482015260640160405180910390fd5b61071a8160008151811061070f5761070f610aba565b602002602001015190565b949350505050565b7f8a22373512790c48b83a1fe2efdd2888d4a917bcdc24d0adf63e60f671680460805460405161051a928492909173ffffffffffffffffffffffffffffffffffffffff8085169216907f8be0079c531659141344cd1fd0a4f28419497f9722a3daafe3b4186f6b6457e090600090a380547fffffffffffffffffffffffff00000000000000000000000000000000000000001673ffffffffffffffffffffffffffffffffffffffff92909216919091179055565b7f4e487b7100000000000000000000000000000000000000000000000000000000600052604160045260246000fd5b604051601f82017fffffffffffffffffffffffffffffffffffffffffffffffffffffffffffffffe016810167ffffffffffffffff8111828210171561084c5761084c6107d6565b604052919050565b6000602080838503121561086757600080fd5b823567ffffffffffffffff8082111561087f57600080fd5b818501915085601f83011261089357600080fd5b8135818111156108a5576108a56107d6565b6108d5847fffffffffffffffffffffffffffffffffffffffffffffffffffffffffffffffe0601f84011601610805565b915080825286848285010111156108eb57600080fd5b8084840185840137600090820190930192909252509392505050565b600060208083528351808285015260005b8181101561093457858101830151858201604001528201610918565b5060006040828601015260407fffffffffffffffffffffffffffffffffffffffffffffffffffffffffffffffe0601f8301168501019250505092915050565b60006020828403121561098557600080fd5b813573ffffffffffffffffffffffffffffffffffffffff811681146109a957600080fd5b9392505050565b6000602082840312156109c257600080fd5b5051919050565b8281526040810160068310610a07577f4e487b7100000000000000000000000000000000000000000000000000000000600052602160045260246000fd5b8260208301529392505050565b60006020808385031215610a2757600080fd5b825167ffffffffffffffff80821115610a3f57600080fd5b818501915085601f830112610a5357600080fd5b815181811115610a6557610a656107d6565b8060051b9150610a76848301610805565b8181529183018401918481019088841115610a9057600080fd5b938501935b83851015610aae57845182529385019390850190610a95565b98975050505050505050565b7f4e487b7100000000000000000000000000000000000000000000000000000000600052603260045260246000fdfea2646970667358221220853b7928f7fc98d578a05ea0c12e47cf2b4bf72bf5868456bf7328901495139664736f6c63430008110033",
    "linkReferences": {}
  },
  "methodIdentifiers": {
    "execute(bytes)": "09c5eabe",
    "executeTyped()": "e1df4ba6",
    "owner()": "8da5cb5b",
    "transferOwnership(address)": "f2fde38b"
  },
  "id": 82
}