{
  "abi": [
    {
      "inputs": [
        {
          "internalType": "contract IWorld",
          "name": "_world",
          "type": "address"
        },
        {
          "internalType": "address",
          "name": "_components",
          "type": "address"
        }
      ],
      "stateMutability": "nonpayable",
      "type": "constructor"
    },
    {
      "anonymous": false,
      "inputs": [
        {
          "indexed": true,
          "internalType": "address",
          "name": "previousOwner",
          "type": "address"
        },
        {
          "indexed": true,
          "internalType": "address",
          "name": "newOwner",
          "type": "address"
        }
      ],
      "name": "OwnershipTransferred",
      "type": "event"
    },
    {
      "inputs": [
        {
          "internalType": "bytes",
          "name": "",
          "type": "bytes"
        }
      ],
      "name": "execute",
      "outputs": [
        {
          "internalType": "bytes",
          "name": "",
          "type": "bytes"
        }
      ],
      "stateMutability": "nonpayable",
      "type": "function"
    },
    {
      "inputs": [],
      "name": "executeTyped",
      "outputs": [
        {
          "internalType": "uint256",
          "name": "",
          "type": "uint256"
        }
      ],
      "stateMutability": "nonpayable",
      "type": "function"
    },
    {
      "inputs": [],
      "name": "owner",
      "outputs": [
        {
          "internalType": "address",
          "name": "",
          "type": "address"
        }
      ],
      "stateMutability": "view",
      "type": "function"
    },
    {
      "inputs": [
        {
          "internalType": "address",
          "name": "newOwner",
          "type": "address"
        }
      ],
      "name": "transferOwnership",
      "outputs": [],
      "stateMutability": "nonpayable",
      "type": "function"
    }
  ],
  "bytecode": {
    "object": "0x608060405234801561001057600080fd5b50604051610b78380380610b7883398101604081905261002f9161010b565b600280546001600160a01b0319163317905581816001600160a01b0381161561005857806100ba565b816001600160a01b031663ba62fbe46040518163ffffffff1660e01b8152600401602060405180830381865afa158015610096573d6000803e3d6000fd5b505050506040513d601f19601f820116820180604052508101906100ba9190610145565b600080546001600160a01b039283166001600160a01b031991821617909155600180549490921693169290921790915550610169915050565b6001600160a01b038116811461010857600080fd5b50565b6000806040838503121561011e57600080fd5b8251610129816100f3565b602084015190925061013a816100f3565b809150509250929050565b60006020828403121561015757600080fd5b8151610162816100f3565b9392505050565b610a00806101786000396000f3fe608060405234801561001057600080fd5b506004361061004c5760003560e01c806309c5eabe146100515780638da5cb5b1461007a578063e1df4ba6146100a2578063f2fde38b146100b8575b600080fd5b61006461005f366004610735565b6100cd565b60405161007191906107e8565b60405180910390f35b60025460405173ffffffffffffffffffffffffffffffffffffffff9091168152602001610071565b6100aa610423565b604051908152602001610071565b6100cb6100c6366004610854565b610457565b005b60606000600160009054906101000a900473ffffffffffffffffffffffffffffffffffffffff1673ffffffffffffffffffffffffffffffffffffffff1663614bfa6e6040518163ffffffff1660e01b8152600401602060405180830381865afa15801561013e573d6000803e3d6000fd5b505050506040513d601f19601f820116820180604052508101906101629190610891565b60008054919250906101aa9073ffffffffffffffffffffffffffffffffffffffff167f3aa78a206fc67ba4c2dbdbfa4f9637a0b391d7db261dacc2eb5d96f7b5693d9761056b565b6040517f2f30c6f60000000000000000000000000000000000000000000000000000000081526004810184905233602482015290915073ffffffffffffffffffffffffffffffffffffffff821690632f30c6f690604401600060405180830381600087803b15801561021b57600080fd5b505af115801561022f573d6000803e3d6000fd5b505060008054909250610279915073ffffffffffffffffffffffffffffffffffffffff167fd43e0d138a55035def2f150c31798e941af349936fa84a9e5eda703a2e41218b61056b565b6040517ff419df7200000000000000000000000000000000000000000000000000000000815290915073ffffffffffffffffffffffffffffffffffffffff82169063f419df72906102d19086906000906004016108aa565b600060405180830381600087803b1580156102eb57600080fd5b505af11580156102ff573d6000803e3d6000fd5b505060008054909250610349915073ffffffffffffffffffffffffffffffffffffffff167f023253b2241a10d36b8c9af452236123ad9f4644f2ef4963970b2c4b77c42db561056b565b60408051808201825260008082526020820190815291517fdcb14c2f000000000000000000000000000000000000000000000000000000008152600481018890529051600390810b6024830152915190910b604482015290915073ffffffffffffffffffffffffffffffffffffffff82169063dcb14c2f90606401600060405180830381600087803b1580156103de57600080fd5b505af11580156103f2573d6000803e3d6000fd5b505050508360405160200161040991815260200190565b604051602081830303815290604052945050505050919050565b60408051600080825260208201909252819061043e906100cd565b8060200190518101906104519190610891565b92915050565b60025473ffffffffffffffffffffffffffffffffffffffff1633146104dd576040517f08c379a000000000000000000000000000000000000000000000000000000000815260206004820152600a60248201527f4f4e4c595f4f574e45520000000000000000000000000000000000000000000060448201526064015b60405180910390fd5b60025460405173ffffffffffffffffffffffffffffffffffffffff8084169216907f8be0079c531659141344cd1fd0a4f28419497f9722a3daafe3b4186f6b6457e090600090a3600280547fffffffffffffffffffffffff00000000000000000000000000000000000000001673ffffffffffffffffffffffffffffffffffffffff92909216919091179055565b6040517ffbdfa1ea00000000000000000000000000000000000000000000000000000000815260048101829052600090819073ffffffffffffffffffffffffffffffffffffffff85169063fbdfa1ea90602401600060405180830381865afa1580156105db573d6000803e3d6000fd5b505050506040513d6000823e601f3d9081017fffffffffffffffffffffffffffffffffffffffffffffffffffffffffffffffe016820160405261062191908101906108f5565b9050805160000361068e576040517f08c379a000000000000000000000000000000000000000000000000000000000815260206004820152601160248201527f6964206e6f74207265676973746572656400000000000000000000000000000060448201526064016104d4565b6106af816000815181106106a4576106a461099b565b602002602001015190565b949350505050565b7f4e487b7100000000000000000000000000000000000000000000000000000000600052604160045260246000fd5b604051601f82017fffffffffffffffffffffffffffffffffffffffffffffffffffffffffffffffe016810167ffffffffffffffff8111828210171561072d5761072d6106b7565b604052919050565b6000602080838503121561074857600080fd5b823567ffffffffffffffff8082111561076057600080fd5b818501915085601f83011261077457600080fd5b813581811115610786576107866106b7565b6107b6847fffffffffffffffffffffffffffffffffffffffffffffffffffffffffffffffe0601f840116016106e6565b915080825286848285010111156107cc57600080fd5b8084840185840137600090820190930192909252509392505050565b600060208083528351808285015260005b81811015610815578581018301518582016040015282016107f9565b5060006040828601015260407fffffffffffffffffffffffffffffffffffffffffffffffffffffffffffffffe0601f8301168501019250505092915050565b60006020828403121561086657600080fd5b813573ffffffffffffffffffffffffffffffffffffffff8116811461088a57600080fd5b9392505050565b6000602082840312156108a357600080fd5b5051919050565b82815260408101600683106108e8577f4e487b7100000000000000000000000000000000000000000000000000000000600052602160045260246000fd5b8260208301529392505050565b6000602080838503121561090857600080fd5b825167ffffffffffffffff8082111561092057600080fd5b818501915085601f83011261093457600080fd5b815181811115610946576109466106b7565b8060051b91506109578483016106e6565b818152918301840191848101908884111561097157600080fd5b938501935b8385101561098f57845182529385019390850190610976565b98975050505050505050565b7f4e487b7100000000000000000000000000000000000000000000000000000000600052603260045260246000fdfea2646970667358221220f2ab25dd945fed98512f22ea9dbbcc6ba8bdd0eb8bb2ca8a60c297ae95400b8a64736f6c63430008110033",
    "linkReferences": {}
  },
  "methodIdentifiers": {
    "execute(bytes)": "09c5eabe",
    "executeTyped()": "e1df4ba6",
    "owner()": "8da5cb5b",
    "transferOwnership(address)": "f2fde38b"
  },
  "id": 64
}