{
  "abi": [
    {
      "inputs": [
        {
          "internalType": "contract IWorld",
          "name": "_world",
          "type": "address"
        },
        {
          "internalType": "address",
          "name": "_components",
          "type": "address"
        }
      ],
      "stateMutability": "nonpayable",
      "type": "constructor"
    },
    {
      "inputs": [],
      "name": "NotOwner",
      "type": "error"
    },
    {
      "anonymous": false,
      "inputs": [
        {
          "indexed": true,
          "internalType": "address",
          "name": "previousOwner",
          "type": "address"
        },
        {
          "indexed": true,
          "internalType": "address",
          "name": "newOwner",
          "type": "address"
        }
      ],
      "name": "OwnershipTransferred",
      "type": "event"
    },
    {
      "inputs": [
        {
          "internalType": "bytes",
          "name": "arguments",
          "type": "bytes"
        }
      ],
      "name": "execute",
      "outputs": [
        {
          "internalType": "bytes",
          "name": "",
          "type": "bytes"
        }
      ],
      "stateMutability": "nonpayable",
      "type": "function"
    },
    {
      "inputs": [
        {
          "internalType": "uint256",
          "name": "entity",
          "type": "uint256"
        },
        {
          "internalType": "address",
          "name": "newOwner",
          "type": "address"
        }
      ],
      "name": "executeTyped",
      "outputs": [
        {
          "internalType": "bytes",
          "name": "",
          "type": "bytes"
        }
      ],
      "stateMutability": "nonpayable",
      "type": "function"
    },
    {
      "inputs": [],
      "name": "owner",
      "outputs": [
        {
          "internalType": "address",
          "name": "",
          "type": "address"
        }
      ],
      "stateMutability": "view",
      "type": "function"
    },
    {
      "inputs": [
        {
          "internalType": "address",
          "name": "newOwner",
          "type": "address"
        }
      ],
      "name": "transferOwnership",
      "outputs": [],
      "stateMutability": "nonpayable",
      "type": "function"
    }
  ],
  "bytecode": {
    "object": "0x608060405234801561001057600080fd5b50604051610b33380380610b3383398101604081905261002f9161010b565b600280546001600160a01b0319163317905581816001600160a01b0381161561005857806100ba565b816001600160a01b031663ba62fbe46040518163ffffffff1660e01b8152600401602060405180830381865afa158015610096573d6000803e3d6000fd5b505050506040513d601f19601f820116820180604052508101906100ba9190610145565b600080546001600160a01b039283166001600160a01b031991821617909155600180549490921693169290921790915550610169915050565b6001600160a01b038116811461010857600080fd5b50565b6000806040838503121561011e57600080fd5b8251610129816100f3565b602084015190925061013a816100f3565b809150509250929050565b60006020828403121561015757600080fd5b8151610162816100f3565b9392505050565b6109bb806101786000396000f3fe608060405234801561001057600080fd5b506004361061004c5760003560e01c806309c5eabe1461005157806319157b011461007a5780638da5cb5b1461008d578063f2fde38b146100b5575b600080fd5b61006461005f3660046106bb565b6100ca565b604051610071919061076e565b60405180910390f35b6100646100883660046107ff565b6101cb565b60025460405173ffffffffffffffffffffffffffffffffffffffff9091168152602001610071565b6100c86100c336600461082f565b61021d565b005b6060600080838060200190518101906100e3919061084c565b600080549294509092509061012e9073ffffffffffffffffffffffffffffffffffffffff167f3aa78a206fc67ba4c2dbdbfa4f9637a0b391d7db261dacc2eb5d96f7b5693d97610331565b905061013b81843361047d565b6040517f2f30c6f60000000000000000000000000000000000000000000000000000000081526004810184905273ffffffffffffffffffffffffffffffffffffffff8381166024830152821690632f30c6f690604401600060405180830381600087803b1580156101ab57600080fd5b505af11580156101bf573d6000803e3d6000fd5b50505050505050919050565b6060610216838360405160200161020292919091825273ffffffffffffffffffffffffffffffffffffffff16602082015260400190565b6040516020818303038152906040526100ca565b9392505050565b60025473ffffffffffffffffffffffffffffffffffffffff1633146102a3576040517f08c379a000000000000000000000000000000000000000000000000000000000815260206004820152600a60248201527f4f4e4c595f4f574e45520000000000000000000000000000000000000000000060448201526064015b60405180910390fd5b60025460405173ffffffffffffffffffffffffffffffffffffffff8084169216907f8be0079c531659141344cd1fd0a4f28419497f9722a3daafe3b4186f6b6457e090600090a3600280547fffffffffffffffffffffffff00000000000000000000000000000000000000001673ffffffffffffffffffffffffffffffffffffffff92909216919091179055565b6040517ffbdfa1ea00000000000000000000000000000000000000000000000000000000815260048101829052600090819073ffffffffffffffffffffffffffffffffffffffff85169063fbdfa1ea90602401600060405180830381865afa1580156103a1573d6000803e3d6000fd5b505050506040513d6000823e601f3d9081017fffffffffffffffffffffffffffffffffffffffffffffffffffffffffffffffe01682016040526103e79190810190610871565b90508051600003610454576040517f08c379a000000000000000000000000000000000000000000000000000000000815260206004820152601160248201527f6964206e6f742072656769737465726564000000000000000000000000000000604482015260640161029a565b6104758160008151811061046a5761046a610917565b602002602001015190565b949350505050565b6104888383836104c3565b6104be576040517f30cd747100000000000000000000000000000000000000000000000000000000815260040160405180910390fd5b505050565b6040517fcccf7a8e0000000000000000000000000000000000000000000000000000000081526004810183905260009073ffffffffffffffffffffffffffffffffffffffff85169063cccf7a8e90602401602060405180830381865afa158015610531573d6000803e3d6000fd5b505050506040513d601f19601f820116820180604052508101906105559190610946565b61056157506000610216565b6040517f0ff4c9160000000000000000000000000000000000000000000000000000000081526004810184905260009073ffffffffffffffffffffffffffffffffffffffff861690630ff4c91690602401602060405180830381865afa1580156105cf573d6000803e3d6000fd5b505050506040513d601f19601f820116820180604052508101906105f39190610968565b90508273ffffffffffffffffffffffffffffffffffffffff168173ffffffffffffffffffffffffffffffffffffffff1614610632576000915050610216565b506001949350505050565b7f4e487b7100000000000000000000000000000000000000000000000000000000600052604160045260246000fd5b604051601f82017fffffffffffffffffffffffffffffffffffffffffffffffffffffffffffffffe016810167ffffffffffffffff811182821017156106b3576106b361063d565b604052919050565b600060208083850312156106ce57600080fd5b823567ffffffffffffffff808211156106e657600080fd5b818501915085601f8301126106fa57600080fd5b81358181111561070c5761070c61063d565b61073c847fffffffffffffffffffffffffffffffffffffffffffffffffffffffffffffffe0601f8401160161066c565b9150808252868482850101111561075257600080fd5b8084840185840137600090820190930192909252509392505050565b600060208083528351808285015260005b8181101561079b5785810183015185820160400152820161077f565b5060006040828601015260407fffffffffffffffffffffffffffffffffffffffffffffffffffffffffffffffe0601f8301168501019250505092915050565b73ffffffffffffffffffffffffffffffffffffffff811681146107fc57600080fd5b50565b6000806040838503121561081257600080fd5b823591506020830135610824816107da565b809150509250929050565b60006020828403121561084157600080fd5b8135610216816107da565b6000806040838503121561085f57600080fd5b825191506020830151610824816107da565b6000602080838503121561088457600080fd5b825167ffffffffffffffff8082111561089c57600080fd5b818501915085601f8301126108b057600080fd5b8151818111156108c2576108c261063d565b8060051b91506108d384830161066c565b81815291830184019184810190888411156108ed57600080fd5b938501935b8385101561090b578451825293850193908501906108f2565b98975050505050505050565b7f4e487b7100000000000000000000000000000000000000000000000000000000600052603260045260246000fd5b60006020828403121561095857600080fd5b8151801515811461021657600080fd5b60006020828403121561097a57600080fd5b8151610216816107da56fea2646970667358221220138b801840017db1d945b2ec7631a060a2c35ccace3b26b3795c562aefc32c2e64736f6c63430008110033",
    "linkReferences": {}
  },
  "methodIdentifiers": {
    "execute(bytes)": "09c5eabe",
    "executeTyped(uint256,address)": "19157b01",
    "owner()": "8da5cb5b",
    "transferOwnership(address)": "f2fde38b"
  },
  "id": 61
}