{
  "abi": [
    {
      "inputs": [
        {
          "internalType": "address",
          "name": "world",
          "type": "address"
        },
        {
          "internalType": "uint256",
          "name": "id",
          "type": "uint256"
        }
      ],
      "stateMutability": "nonpayable",
      "type": "constructor"
    },
    {
      "inputs": [],
      "name": "BareComponent__NotImplemented",
      "type": "error"
    },
    {
      "anonymous": false,
      "inputs": [
        {
          "indexed": true,
          "internalType": "address",
          "name": "previousOwner",
          "type": "address"
        },
        {
          "indexed": true,
          "internalType": "address",
          "name": "newOwner",
          "type": "address"
        }
      ],
      "name": "OwnershipTransferred",
      "type": "event"
    },
    {
      "inputs": [
        {
          "internalType": "address",
          "name": "writer",
          "type": "address"
        }
      ],
      "name": "authorizeWriter",
      "outputs": [],
      "stateMutability": "nonpayable",
      "type": "function"
    },
    {
      "inputs": [],
      "name": "getEntities",
      "outputs": [
        {
          "internalType": "uint256[]",
          "name": "",
          "type": "uint256[]"
        }
      ],
      "stateMutability": "view",
      "type": "function"
    },
    {
      "inputs": [
        {
          "internalType": "bytes",
          "name": "value",
          "type": "bytes"
        }
      ],
      "name": "getEntitiesWithValue",
      "outputs": [
        {
          "internalType": "uint256[]",
          "name": "",
          "type": "uint256[]"
        }
      ],
      "stateMutability": "view",
      "type": "function"
    },
    {
      "inputs": [
        {
          "internalType": "uint256",
          "name": "value",
          "type": "uint256"
        }
      ],
      "name": "getEntitiesWithValue",
      "outputs": [
        {
          "internalType": "uint256[]",
          "name": "",
          "type": "uint256[]"
        }
      ],
      "stateMutability": "view",
      "type": "function"
    },
    {
      "inputs": [
        {
          "internalType": "uint256",
          "name": "entity",
          "type": "uint256"
        }
      ],
      "name": "getRawValue",
      "outputs": [
        {
          "internalType": "bytes",
          "name": "",
          "type": "bytes"
        }
      ],
      "stateMutability": "view",
      "type": "function"
    },
    {
      "inputs": [],
      "name": "getSchema",
      "outputs": [
        {
          "internalType": "string[]",
          "name": "keys",
          "type": "string[]"
        },
        {
          "internalType": "enum LibTypes.SchemaValue[]",
          "name": "values",
          "type": "uint8[]"
        }
      ],
      "stateMutability": "pure",
      "type": "function"
    },
    {
      "inputs": [
        {
          "internalType": "uint256",
          "name": "entity",
          "type": "uint256"
        }
      ],
      "name": "getValue",
      "outputs": [
        {
          "internalType": "uint256[]",
          "name": "",
          "type": "uint256[]"
        }
      ],
      "stateMutability": "view",
      "type": "function"
    },
    {
      "inputs": [
        {
          "internalType": "uint256",
          "name": "entity",
          "type": "uint256"
        }
      ],
      "name": "has",
      "outputs": [
        {
          "internalType": "bool",
          "name": "",
          "type": "bool"
        }
      ],
      "stateMutability": "view",
      "type": "function"
    },
    {
      "inputs": [],
      "name": "id",
      "outputs": [
        {
          "internalType": "uint256",
          "name": "",
          "type": "uint256"
        }
      ],
      "stateMutability": "view",
      "type": "function"
    },
    {
      "inputs": [],
      "name": "owner",
      "outputs": [
        {
          "internalType": "address",
          "name": "",
          "type": "address"
        }
      ],
      "stateMutability": "view",
      "type": "function"
    },
    {
      "inputs": [
        {
          "internalType": "address",
          "name": "indexer",
          "type": "address"
        }
      ],
      "name": "registerIndexer",
      "outputs": [],
      "stateMutability": "nonpayable",
      "type": "function"
    },
    {
      "inputs": [
        {
          "internalType": "address",
          "name": "_world",
          "type": "address"
        }
      ],
      "name": "registerWorld",
      "outputs": [],
      "stateMutability": "nonpayable",
      "type": "function"
    },
    {
      "inputs": [
        {
          "internalType": "uint256",
          "name": "entity",
          "type": "uint256"
        }
      ],
      "name": "remove",
      "outputs": [],
      "stateMutability": "nonpayable",
      "type": "function"
    },
    {
      "inputs": [
        {
          "internalType": "uint256",
          "name": "entity",
          "type": "uint256"
        },
        {
          "internalType": "bytes",
          "name": "value",
          "type": "bytes"
        }
      ],
      "name": "set",
      "outputs": [],
      "stateMutability": "nonpayable",
      "type": "function"
    },
    {
      "inputs": [
        {
          "internalType": "uint256",
          "name": "entity",
          "type": "uint256"
        },
        {
          "internalType": "uint256[]",
          "name": "value",
          "type": "uint256[]"
        }
      ],
      "name": "set",
      "outputs": [],
      "stateMutability": "nonpayable",
      "type": "function"
    },
    {
      "inputs": [
        {
          "internalType": "address",
          "name": "newOwner",
          "type": "address"
        }
      ],
      "name": "transferOwnership",
      "outputs": [],
      "stateMutability": "nonpayable",
      "type": "function"
    },
    {
      "inputs": [
        {
          "internalType": "address",
          "name": "writer",
          "type": "address"
        }
      ],
      "name": "unauthorizeWriter",
      "outputs": [],
      "stateMutability": "nonpayable",
      "type": "function"
    },
    {
      "inputs": [],
      "name": "world",
      "outputs": [
        {
          "internalType": "address",
          "name": "",
          "type": "address"
        }
      ],
      "stateMutability": "view",
      "type": "function"
    },
    {
      "inputs": [
        {
          "internalType": "address",
          "name": "",
          "type": "address"
        }
      ],
      "name": "writeAccess",
      "outputs": [
        {
          "internalType": "bool",
          "name": "",
          "type": "bool"
        }
      ],
      "stateMutability": "view",
      "type": "function"
    }
  ],
  "bytecode": {
    "object": "0x60806040523480156200001157600080fd5b5060405162002acf38038062002acf83398101604081905262000034916200020e565b600180546001600160a01b0319163390811782556000908152600260205260409020805460ff191690911790556004819055818181816001600160a01b03821615620000855762000085826200012a565b50506040516200009590620001f2565b604051809103906000f080158015620000b2573d6000803e3d6000fd5b50600580546001600160a01b0319166001600160a01b0392909216919091179055604051620000e19062000200565b604051809103906000f080158015620000fe573d6000803e3d6000fd5b50600680546001600160a01b0319166001600160a01b0392909216919091179055506200024a92505050565b6001546001600160a01b03163314620001765760405162461bcd60e51b815260206004820152600a60248201526927a7262cafa7aba722a960b11b604482015260640160405180910390fd5b600080546001600160a01b0319166001600160a01b03831690811790915560048054604051630f30347760e41b81523092810192909252602482015263f303477090604401600060405180830381600087803b158015620001d657600080fd5b505af1158015620001eb573d6000803e3d6000fd5b5050505050565b6105bb8062001f1283390190565b61060280620024cd83390190565b600080604083850312156200022257600080fd5b82516001600160a01b03811681146200023a57600080fd5b6020939093015192949293505050565b611cb8806200025a6000396000f3fe608060405234801561001057600080fd5b50600436106101515760003560e01c80638da5cb5b116100cd578063b8bc073d11610081578063cccf7a8e11610066578063cccf7a8e14610304578063f2fde38b14610317578063fbdfa1ea1461032a57600080fd5b8063b8bc073d146102d1578063bf4fe57e146102f157600080fd5b80639d2c76b4116100b25780639d2c76b414610294578063af640d0f146102a7578063b361be46146102be57600080fd5b80638da5cb5b14610263578063946aadc61461028157600080fd5b80634fef6a381161012457806375c0669c1161010957806375c0669c1461020a578063861eb9051461021d5780638b2829471461025057600080fd5b80634fef6a38146101e15780636b122fe0146101f457600080fd5b80630ff4c9161461015657806330b67baa1461017f57806331b933b9146101c45780634cc82215146101cc575b600080fd5b610169610164366004611442565b61033d565b604051610176919061145b565b60405180910390f35b60005461019f9073ffffffffffffffffffffffffffffffffffffffff1681565b60405173ffffffffffffffffffffffffffffffffffffffff9091168152602001610176565b610169610361565b6101df6101da366004611442565b61041c565b005b6101df6101ef36600461149f565b6104a6565b6101fc610576565b60405161017692919061156f565b6101df61021836600461149f565b610662565b61024061022b36600461149f565b60026020526000908152604090205460ff1681565b6040519015158152602001610176565b6101df61025e36600461176b565b610752565b60015473ffffffffffffffffffffffffffffffffffffffff1661019f565b6101df61028f3660046117d6565b6107d9565b6101df6102a236600461149f565b610802565b6102b060045481565b604051908152602001610176565b6101696102cc366004611878565b61093c565b6102e46102df366004611442565b6109fa565b60405161017691906118b5565b6101df6102ff36600461149f565b610a9c565b610240610312366004611442565b610b69565b6101df61032536600461149f565b610bfd565b610169610338366004611442565b610d53565b6060610348826109fa565b80602001905181019061035b91906118c8565b92915050565b600554604080517f410d59cc000000000000000000000000000000000000000000000000000000008152905160609273ffffffffffffffffffffffffffffffffffffffff169163410d59cc9160048083019260009291908290030181865afa1580156103d1573d6000803e3d6000fd5b505050506040513d6000823e601f3d9081017fffffffffffffffffffffffffffffffffffffffffffffffffffffffffffffffe016820160405261041791908101906118c8565b905090565b3360009081526002602052604090205460ff1661049a576040517f08c379a000000000000000000000000000000000000000000000000000000000815260206004820152600b60248201527f4f4e4c595f57524954455200000000000000000000000000000000000000000060448201526064015b60405180910390fd5b6104a381610d7f565b50565b60015473ffffffffffffffffffffffffffffffffffffffff163314610527576040517f08c379a000000000000000000000000000000000000000000000000000000000815260206004820152600a60248201527f4f4e4c595f4f574e4552000000000000000000000000000000000000000000006044820152606401610491565b73ffffffffffffffffffffffffffffffffffffffff16600090815260026020526040902080547fffffffffffffffffffffffffffffffffffffffffffffffffffffffffffffff00166001179055565b604080516001808252818301909252606091829190816020015b6060815260200190600190039081610590575050604080516001808252818301909252919350602080830190803683370190505090506040518060400160405280600581526020017f76616c75650000000000000000000000000000000000000000000000000000008152508260008151811061060f5761060f611959565b6020026020010181905250601f8160008151811061062f5761062f611959565b6020026020010190602181111561064857610648611540565b9081602181111561065b5761065b611540565b9052509091565b3360009081526002602052604090205460ff166106db576040517f08c379a000000000000000000000000000000000000000000000000000000000815260206004820152600b60248201527f4f4e4c595f5752495445520000000000000000000000000000000000000000006044820152606401610491565b600780546001810182556000919091527fa66cc928b5edb82af9bd49922954155ab7b0942694bea4ce44661d9a8736c6880180547fffffffffffffffffffffffff00000000000000000000000000000000000000001673ffffffffffffffffffffffffffffffffffffffff92909216919091179055565b3360009081526002602052604090205460ff166107cb576040517f08c379a000000000000000000000000000000000000000000000000000000000815260206004820152600b60248201527f4f4e4c595f5752495445520000000000000000000000000000000000000000006044820152606401610491565b6107d5828261103e565b5050565b6107d582826040516020016107ee919061145b565b604051602081830303815290604052610752565b60015473ffffffffffffffffffffffffffffffffffffffff163314610883576040517f08c379a000000000000000000000000000000000000000000000000000000000815260206004820152600a60248201527f4f4e4c595f4f574e4552000000000000000000000000000000000000000000006044820152606401610491565b600080547fffffffffffffffffffffffff00000000000000000000000000000000000000001673ffffffffffffffffffffffffffffffffffffffff8316908117909155600480546040517ff30347700000000000000000000000000000000000000000000000000000000081523092810192909252602482015263f3034770906044015b600060405180830381600087803b15801561092157600080fd5b505af1158015610935573d6000803e3d6000fd5b5050505050565b600654815160208301206040517f796c5e94000000000000000000000000000000000000000000000000000000008152600481019190915260609173ffffffffffffffffffffffffffffffffffffffff169063796c5e9490602401600060405180830381865afa1580156109b4573d6000803e3d6000fd5b505050506040513d6000823e601f3d9081017fffffffffffffffffffffffffffffffffffffffffffffffffffffffffffffffe016820160405261035b91908101906118c8565b6000818152600360205260409020805460609190610a1790611988565b80601f0160208091040260200160405190810160405280929190818152602001828054610a4390611988565b8015610a905780601f10610a6557610100808354040283529160200191610a90565b820191906000526020600020905b815481529060010190602001808311610a7357829003601f168201915b50505050509050919050565b60015473ffffffffffffffffffffffffffffffffffffffff163314610b1d576040517f08c379a000000000000000000000000000000000000000000000000000000000815260206004820152600a60248201527f4f4e4c595f4f574e4552000000000000000000000000000000000000000000006044820152606401610491565b73ffffffffffffffffffffffffffffffffffffffff16600090815260026020526040902080547fffffffffffffffffffffffffffffffffffffffffffffffffffffffffffffff00169055565b6005546040517fcccf7a8e0000000000000000000000000000000000000000000000000000000081526004810183905260009173ffffffffffffffffffffffffffffffffffffffff169063cccf7a8e90602401602060405180830381865afa158015610bd9573d6000803e3d6000fd5b505050506040513d601f19601f8201168201806040525081019061035b91906119db565b60015473ffffffffffffffffffffffffffffffffffffffff163314610c7e576040517f08c379a000000000000000000000000000000000000000000000000000000000815260206004820152600a60248201527f4f4e4c595f4f574e4552000000000000000000000000000000000000000000006044820152606401610491565b60015460405173ffffffffffffffffffffffffffffffffffffffff8084169216907f8be0079c531659141344cd1fd0a4f28419497f9722a3daafe3b4186f6b6457e090600090a33360009081526002602052604080822080547fffffffffffffffffffffffffffffffffffffffffffffffffffffffffffffff00908116909155600180547fffffffffffffffffffffffff00000000000000000000000000000000000000001673ffffffffffffffffffffffffffffffffffffffff959095169485178155938352912080549091169091179055565b606061035b82604051602001610d6b91815260200190565b60405160208183030381529060405261093c565b60065460008281526003602052604090819020905173ffffffffffffffffffffffffffffffffffffffff909216916385edea1391610dbc916119fd565b60405190819003812060e083901b7fffffffff000000000000000000000000000000000000000000000000000000001682526004820152602401602060405180830381865afa158015610e13573d6000803e3d6000fd5b505050506040513d601f19601f82011682018060405250810190610e379190611a91565b600003610e415750565b60065460008281526003602052604090819020905173ffffffffffffffffffffffffffffffffffffffff90921691636526db7a91610e7e916119fd565b60405190819003812060e083901b7fffffffff00000000000000000000000000000000000000000000000000000000168252600482015260248101849052604401600060405180830381600087803b158015610ed957600080fd5b505af1158015610eed573d6000803e3d6000fd5b50506005546040517f4cc822150000000000000000000000000000000000000000000000000000000081526004810185905273ffffffffffffffffffffffffffffffffffffffff9091169250634cc822159150602401600060405180830381600087803b158015610f5d57600080fd5b505af1158015610f71573d6000803e3d6000fd5b50505050610f7e816112df565b60005b6007548110156107d55760078181548110610f9e57610f9e611959565b6000918252602090912001546040517f4cc822150000000000000000000000000000000000000000000000000000000081526004810184905273ffffffffffffffffffffffffffffffffffffffff90911690634cc8221590602401600060405180830381600087803b15801561101357600080fd5b505af1158015611027573d6000803e3d6000fd5b50505050808061103690611aaa565b915050610f81565b6005546040517f1003e2d20000000000000000000000000000000000000000000000000000000081526004810184905273ffffffffffffffffffffffffffffffffffffffff90911690631003e2d290602401600060405180830381600087803b1580156110aa57600080fd5b505af11580156110be573d6000803e3d6000fd5b505060065460008581526003602052604090819020905173ffffffffffffffffffffffffffffffffffffffff9092169350636526db7a92506110ff916119fd565b60405190819003812060e083901b7fffffffff00000000000000000000000000000000000000000000000000000000168252600482015260248101859052604401600060405180830381600087803b15801561115a57600080fd5b505af115801561116e573d6000803e3d6000fd5b5050600654835160208501206040517f771602f700000000000000000000000000000000000000000000000000000000815273ffffffffffffffffffffffffffffffffffffffff909216935063771602f792506111d8918690600401918252602082015260400190565b600060405180830381600087803b1580156111f257600080fd5b505af1158015611206573d6000803e3d6000fd5b50505050611214828261134d565b60005b6007548110156112da576007818154811061123457611234611959565b6000918252602090912001546040517f0216b83800000000000000000000000000000000000000000000000000000000815273ffffffffffffffffffffffffffffffffffffffff90911690630216b838906112959086908690600401611b09565b600060405180830381600087803b1580156112af57600080fd5b505af11580156112c3573d6000803e3d6000fd5b5050505080806112d290611aaa565b915050611217565b505050565b60008181526003602052604081206112f6916113f4565b6000546040517f0de3b7b50000000000000000000000000000000000000000000000000000000081526004810183905273ffffffffffffffffffffffffffffffffffffffff90911690630de3b7b590602401610907565b60008281526003602052604090206113658282611b68565b506000546040517fcfd3c57f00000000000000000000000000000000000000000000000000000000815273ffffffffffffffffffffffffffffffffffffffff9091169063cfd3c57f906113be9085908590600401611b09565b600060405180830381600087803b1580156113d857600080fd5b505af11580156113ec573d6000803e3d6000fd5b505050505050565b50805461140090611988565b6000825580601f10611410575050565b601f0160209004906000526020600020908101906104a391905b8082111561143e576000815560010161142a565b5090565b60006020828403121561145457600080fd5b5035919050565b6020808252825182820181905260009190848201906040850190845b8181101561149357835183529284019291840191600101611477565b50909695505050505050565b6000602082840312156114b157600080fd5b813573ffffffffffffffffffffffffffffffffffffffff811681146114d557600080fd5b9392505050565b6000815180845260005b81811015611502576020818501810151868301820152016114e6565b5060006020828601015260207fffffffffffffffffffffffffffffffffffffffffffffffffffffffffffffffe0601f83011685010191505092915050565b7f4e487b7100000000000000000000000000000000000000000000000000000000600052602160045260246000fd5b6000604082016040835280855180835260608501915060608160051b8601019250602080880160005b838110156115e4577fffffffffffffffffffffffffffffffffffffffffffffffffffffffffffffffa08887030185526115d28683516114dc565b95509382019390820190600101611598565b50508584038187015286518085528782019482019350915060005b8281101561165257845160228110611640577f4e487b7100000000000000000000000000000000000000000000000000000000600052602160045260246000fd5b845293810193928101926001016115ff565b5091979650505050505050565b7f4e487b7100000000000000000000000000000000000000000000000000000000600052604160045260246000fd5b604051601f82017fffffffffffffffffffffffffffffffffffffffffffffffffffffffffffffffe016810167ffffffffffffffff811182821017156116d5576116d561165f565b604052919050565b600082601f8301126116ee57600080fd5b813567ffffffffffffffff8111156117085761170861165f565b61173960207fffffffffffffffffffffffffffffffffffffffffffffffffffffffffffffffe0601f8401160161168e565b81815284602083860101111561174e57600080fd5b816020850160208301376000918101602001919091529392505050565b6000806040838503121561177e57600080fd5b82359150602083013567ffffffffffffffff81111561179c57600080fd5b6117a8858286016116dd565b9150509250929050565b600067ffffffffffffffff8211156117cc576117cc61165f565b5060051b60200190565b600080604083850312156117e957600080fd5b8235915060208084013567ffffffffffffffff81111561180857600080fd5b8401601f8101861361181957600080fd5b803561182c611827826117b2565b61168e565b81815260059190911b8201830190838101908883111561184b57600080fd5b928401925b8284101561186957833582529284019290840190611850565b80955050505050509250929050565b60006020828403121561188a57600080fd5b813567ffffffffffffffff8111156118a157600080fd5b6118ad848285016116dd565b949350505050565b6020815260006114d560208301846114dc565b600060208083850312156118db57600080fd5b825167ffffffffffffffff8111156118f257600080fd5b8301601f8101851361190357600080fd5b8051611911611827826117b2565b81815260059190911b8201830190838101908783111561193057600080fd5b928401925b8284101561194e57835182529284019290840190611935565b979650505050505050565b7f4e487b7100000000000000000000000000000000000000000000000000000000600052603260045260246000fd5b600181811c9082168061199c57607f821691505b6020821081036119d5577f4e487b7100000000000000000000000000000000000000000000000000000000600052602260045260246000fd5b50919050565b6000602082840312156119ed57600080fd5b815180151581146114d557600080fd5b6000808354611a0b81611988565b60018281168015611a235760018114611a5657611a85565b7fffffffffffffffffffffffffffffffffffffffffffffffffffffffffffffff0084168752821515830287019450611a85565b8760005260208060002060005b85811015611a7c5781548a820152908401908201611a63565b50505082870194505b50929695505050505050565b600060208284031215611aa357600080fd5b5051919050565b60007fffffffffffffffffffffffffffffffffffffffffffffffffffffffffffffffff8203611b02577f4e487b7100000000000000000000000000000000000000000000000000000000600052601160045260246000fd5b5060010190565b8281526040602082015260006118ad60408301846114dc565b601f8211156112da57600081815260208120601f850160051c81016020861015611b495750805b601f850160051c820191505b818110156113ec57828155600101611b55565b815167ffffffffffffffff811115611b8257611b8261165f565b611b9681611b908454611988565b84611b22565b602080601f831160018114611be95760008415611bb35750858301515b7fffffffffffffffffffffffffffffffffffffffffffffffffffffffffffffffff600386901b1c1916600185901b1785556113ec565b6000858152602081207fffffffffffffffffffffffffffffffffffffffffffffffffffffffffffffffe08616915b82811015611c3657888601518255948401946001909101908401611c17565b5085821015611c7257878501517fffffffffffffffffffffffffffffffffffffffffffffffffffffffffffffffff600388901b60f8161c191681555b5050505050600190811b0190555056fea26469706673582212201d0ac986cb4730e0c40bad138135c032bf959a6342bbe9c932eec792489cae0464736f6c63430008110033608060405234801561001057600080fd5b50600080546001600160a01b03191633179055610589806100326000396000f3fe608060405234801561001057600080fd5b50600436106100725760003560e01c80638e7cb6e1116100505780638e7cb6e1146100bd578063949d225d146100e7578063cccf7a8e146100f857600080fd5b80631003e2d214610077578063410d59cc1461008c5780634cc82215146100aa575b600080fd5b61008a610085366004610458565b61011b565b005b6100946101f5565b6040516100a19190610471565b60405180910390f35b61008a6100b8366004610458565b61024d565b6100d06100cb366004610458565b6103c1565b6040805192151583526020830191909152016100a1565b6001546040519081526020016100a1565b61010b610106366004610458565b6103f2565b60405190151581526020016100a1565b60005473ffffffffffffffffffffffffffffffffffffffff1633146101a1576040517f08c379a000000000000000000000000000000000000000000000000000000000815260206004820152600a60248201527f4f4e4c595f4f574e45520000000000000000000000000000000000000000000060448201526064015b60405180910390fd5b6101aa816103f2565b6101f2576001805460008381526002602052604081208290558183018355919091527fb10e2d527612073b26eecdfd717e6a320cf44b4afac2b0732d9fcbe2b7fa0cf6018190555b50565b6060600180548060200260200160405190810160405280929190818152602001828054801561024357602002820191906000526020600020905b81548152602001906001019080831161022f575b5050505050905090565b60005473ffffffffffffffffffffffffffffffffffffffff1633146102ce576040517f08c379a000000000000000000000000000000000000000000000000000000000815260206004820152600a60248201527f4f4e4c595f4f574e4552000000000000000000000000000000000000000000006044820152606401610198565b6102d7816103f2565b156101f257600180546102eb9082906104b5565b815481106102fb576102fb6104f5565b9060005260206000200154600160026000848152602001908152602001600020548154811061032c5761032c6104f5565b60009182526020808320909101929092558281526002918290526040812054600180549193929184908110610363576103636104f5565b9060005260206000200154815260200190815260200160002081905550600260008281526020019081526020016000206000905560018054806103a8576103a8610524565b6001900381819060005260206000200160009055905550565b6000806103cd836103f2565b6103dc57506000928392509050565b5050600090815260026020526040902054600191565b600154600090810361040657506000919050565b600082815260026020526040812054900361044357816001600081548110610430576104306104f5565b9060005260206000200154149050919050565b50600090815260026020526040902054151590565b60006020828403121561046a57600080fd5b5035919050565b6020808252825182820181905260009190848201906040850190845b818110156104a95783518352928401929184019160010161048d565b50909695505050505050565b818103818111156104ef577f4e487b7100000000000000000000000000000000000000000000000000000000600052601160045260246000fd5b92915050565b7f4e487b7100000000000000000000000000000000000000000000000000000000600052603260045260246000fd5b7f4e487b7100000000000000000000000000000000000000000000000000000000600052603160045260246000fdfea2646970667358221220b5b456212a11997ccd601470c77cc96a71f468957b5522e79a3a9c1efe5555c064736f6c63430008110033608060405234801561001057600080fd5b50600080546001600160a01b031916331790556105d0806100326000396000f3fe608060405234801561001057600080fd5b50600436106100675760003560e01c8063796c5e9411610050578063796c5e941461009457806385edea13146100bd578063a0265ff8146100eb57600080fd5b80636526db7a1461006c578063771602f714610081575b600080fd5b61007f61007a366004610483565b61010e565b005b61007f61008f366004610483565b6102c6565b6100a76100a23660046104a5565b61038e565b6040516100b491906104be565b60405180910390f35b6100dd6100cb3660046104a5565b60009081526001602052604090205490565b6040519081526020016100b4565b6100fe6100f9366004610483565b6103f0565b60405190151581526020016100b4565b60005473ffffffffffffffffffffffffffffffffffffffff163314610194576040517f08c379a000000000000000000000000000000000000000000000000000000000815260206004820152600a60248201527f4f4e4c595f4f574e45520000000000000000000000000000000000000000000060448201526064015b60405180910390fd5b61019e82826103f0565b156102c2576000828152600160208190526040909120805490916101c191610502565b815481106101d1576101d161053c565b600091825260208083209091015484835260018252604080842060028452818520868652909352909220548154811061020c5761020c61053c565b6000918252602080832090910192909255838152600282526040808220848352808452818320548684526001855291832085845293819052835491939092918490811061025b5761025b61053c565b60009182526020808320909101548352828101939093526040918201812093909355848352600282528083208484528252808320839055848352600190915290208054806102ab576102ab61056b565b600190038181906000526020600020016000905590555b5050565b60005473ffffffffffffffffffffffffffffffffffffffff163314610347576040517f08c379a000000000000000000000000000000000000000000000000000000000815260206004820152600a60248201527f4f4e4c595f4f574e455200000000000000000000000000000000000000000000604482015260640161018b565b61035182826103f0565b6102c25760009182526001602081815260408085208054600284528287208688528452918620829055838352928101835591845290922090910155565b6000818152600160209081526040918290208054835181840281018401909452808452606093928301828280156103e457602002820191906000526020600020905b8154815260200190600101908083116103d0575b50505050509050919050565b600082815260016020526040812054810361040d5750600061047d565b6000838152600260209081526040808320858452909152812054900361045f576000838152600160205260408120805484929061044c5761044c61053c565b906000526020600020015414905061047d565b50600082815260026020908152604080832084845290915290205415155b92915050565b6000806040838503121561049657600080fd5b50508035926020909101359150565b6000602082840312156104b757600080fd5b5035919050565b6020808252825182820181905260009190848201906040850190845b818110156104f6578351835292840192918401916001016104da565b50909695505050505050565b8181038181111561047d577f4e487b7100000000000000000000000000000000000000000000000000000000600052601160045260246000fd5b7f4e487b7100000000000000000000000000000000000000000000000000000000600052603260045260246000fd5b7f4e487b7100000000000000000000000000000000000000000000000000000000600052603160045260246000fdfea2646970667358221220684c9604d505135bc2456dd0f73243ed1e0045e69d943e1775bb4ed31337e5f264736f6c63430008110033",
    "linkReferences": {}
  },
  "methodIdentifiers": {
    "authorizeWriter(address)": "4fef6a38",
    "getEntities()": "31b933b9",
    "getEntitiesWithValue(bytes)": "b361be46",
    "getEntitiesWithValue(uint256)": "fbdfa1ea",
    "getRawValue(uint256)": "b8bc073d",
    "getSchema()": "6b122fe0",
    "getValue(uint256)": "0ff4c916",
    "has(uint256)": "cccf7a8e",
    "id()": "af640d0f",
    "owner()": "8da5cb5b",
    "registerIndexer(address)": "75c0669c",
    "registerWorld(address)": "9d2c76b4",
    "remove(uint256)": "4cc82215",
    "set(uint256,bytes)": "8b282947",
    "set(uint256,uint256[])": "946aadc6",
    "transferOwnership(address)": "f2fde38b",
    "unauthorizeWriter(address)": "bf4fe57e",
    "world()": "30b67baa",
    "writeAccess(address)": "861eb905"
  },
  "id": 23
}