{
  "abi": [
    {
      "inputs": [],
      "stateMutability": "nonpayable",
      "type": "constructor"
    },
    {
      "anonymous": false,
      "inputs": [
        {
          "indexed": true,
          "internalType": "uint256",
          "name": "componentId",
          "type": "uint256"
        },
        {
          "indexed": true,
          "internalType": "address",
          "name": "component",
          "type": "address"
        },
        {
          "indexed": true,
          "internalType": "uint256",
          "name": "entity",
          "type": "uint256"
        }
      ],
      "name": "ComponentValueRemoved",
      "type": "event"
    },
    {
      "anonymous": false,
      "inputs": [
        {
          "indexed": true,
          "internalType": "uint256",
          "name": "componentId",
          "type": "uint256"
        },
        {
          "indexed": true,
          "internalType": "address",
          "name": "component",
          "type": "address"
        },
        {
          "indexed": true,
          "internalType": "uint256",
          "name": "entity",
          "type": "uint256"
        },
        {
          "indexed": false,
          "internalType": "bytes",
          "name": "data",
          "type": "bytes"
        }
      ],
      "name": "ComponentValueSet",
      "type": "event"
    },
    {
      "inputs": [],
      "name": "components",
      "outputs": [
        {
          "internalType": "contract IUint256Component",
          "name": "",
          "type": "address"
        }
      ],
      "stateMutability": "view",
      "type": "function"
    },
    {
      "inputs": [
        {
          "internalType": "uint256",
          "name": "id",
          "type": "uint256"
        }
      ],
      "name": "getComponent",
      "outputs": [
        {
          "internalType": "address",
          "name": "",
          "type": "address"
        }
      ],
      "stateMutability": "view",
      "type": "function"
    },
    {
      "inputs": [
        {
          "internalType": "address",
          "name": "componentAddr",
          "type": "address"
        }
      ],
      "name": "getComponentIdFromAddress",
      "outputs": [
        {
          "internalType": "uint256",
          "name": "",
          "type": "uint256"
        }
      ],
      "stateMutability": "view",
      "type": "function"
    },
    {
      "inputs": [],
      "name": "getNumEntities",
      "outputs": [
        {
          "internalType": "uint256",
          "name": "",
          "type": "uint256"
        }
      ],
      "stateMutability": "view",
      "type": "function"
    },
    {
      "inputs": [
        {
          "internalType": "uint256",
          "name": "systemId",
          "type": "uint256"
        }
      ],
      "name": "getSystemAddress",
      "outputs": [
        {
          "internalType": "address",
          "name": "",
          "type": "address"
        }
      ],
      "stateMutability": "view",
      "type": "function"
    },
    {
      "inputs": [],
      "name": "getUniqueEntityId",
      "outputs": [
        {
          "internalType": "uint256",
          "name": "",
          "type": "uint256"
        }
      ],
      "stateMutability": "view",
      "type": "function"
    },
    {
      "inputs": [
        {
          "internalType": "uint256",
          "name": "entity",
          "type": "uint256"
        }
      ],
      "name": "hasEntity",
      "outputs": [
        {
          "internalType": "bool",
          "name": "",
          "type": "bool"
        }
      ],
      "stateMutability": "view",
      "type": "function"
    },
    {
      "inputs": [],
      "name": "init",
      "outputs": [],
      "stateMutability": "nonpayable",
      "type": "function"
    },
    {
      "inputs": [
        {
          "components": [
            {
              "internalType": "enum QueryType",
              "name": "queryType",
              "type": "uint8"
            },
            {
              "internalType": "uint256",
              "name": "componentId",
              "type": "uint256"
            },
            {
              "internalType": "bytes",
              "name": "value",
              "type": "bytes"
            }
          ],
          "internalType": "struct WorldQueryFragment[]",
          "name": "worldQueryFragments",
          "type": "tuple[]"
        }
      ],
      "name": "query",
      "outputs": [
        {
          "internalType": "uint256[]",
          "name": "",
          "type": "uint256[]"
        }
      ],
      "stateMutability": "view",
      "type": "function"
    },
    {
      "inputs": [],
      "name": "register",
      "outputs": [
        {
          "internalType": "contract RegisterSystem",
          "name": "",
          "type": "address"
        }
      ],
      "stateMutability": "view",
      "type": "function"
    },
    {
      "inputs": [
        {
          "internalType": "address",
          "name": "componentAddr",
          "type": "address"
        },
        {
          "internalType": "uint256",
          "name": "id",
          "type": "uint256"
        }
      ],
      "name": "registerComponent",
      "outputs": [],
      "stateMutability": "nonpayable",
      "type": "function"
    },
    {
      "inputs": [
        {
          "internalType": "uint256",
          "name": "entity",
          "type": "uint256"
        }
      ],
      "name": "registerComponentValueRemoved",
      "outputs": [],
      "stateMutability": "nonpayable",
      "type": "function"
    },
    {
      "inputs": [
        {
          "internalType": "address",
          "name": "component",
          "type": "address"
        },
        {
          "internalType": "uint256",
          "name": "entity",
          "type": "uint256"
        }
      ],
      "name": "registerComponentValueRemoved",
      "outputs": [],
      "stateMutability": "nonpayable",
      "type": "function"
    },
    {
      "inputs": [
        {
          "internalType": "address",
          "name": "component",
          "type": "address"
        },
        {
          "internalType": "uint256",
          "name": "entity",
          "type": "uint256"
        },
        {
          "internalType": "bytes",
          "name": "data",
          "type": "bytes"
        }
      ],
      "name": "registerComponentValueSet",
      "outputs": [],
      "stateMutability": "nonpayable",
      "type": "function"
    },
    {
      "inputs": [
        {
          "internalType": "uint256",
          "name": "entity",
          "type": "uint256"
        },
        {
          "internalType": "bytes",
          "name": "data",
          "type": "bytes"
        }
      ],
      "name": "registerComponentValueSet",
      "outputs": [],
      "stateMutability": "nonpayable",
      "type": "function"
    },
    {
      "inputs": [
        {
          "internalType": "address",
          "name": "systemAddr",
          "type": "address"
        },
        {
          "internalType": "uint256",
          "name": "id",
          "type": "uint256"
        }
      ],
      "name": "registerSystem",
      "outputs": [],
      "stateMutability": "nonpayable",
      "type": "function"
    },
    {
      "inputs": [],
      "name": "systems",
      "outputs": [
        {
          "internalType": "contract IUint256Component",
          "name": "",
          "type": "address"
        }
      ],
      "stateMutability": "view",
      "type": "function"
    }
  ],
  "bytecode": {
    "object": "0x6080604052604051620000129062000295565b604051809103906000f0801580156200002f573d6000803e3d6000fd5b50600080546001600160a01b0319166001600160a01b03929092169190911790553480156200005d57600080fd5b5060007f4350dba81aa91e31664a09d24a668f006169a11b3d962b7557aed362d3252aec60001c6040516200009290620002a3565b6001600160a01b0390921682526020820152604001604051809103906000f080158015620000c4573d6000803e3d6000fd5b50600180546001600160a01b0319166001600160a01b03929092169190911790556040516000907f017c816a964927a00e050edd780dcf113ca2756dfa9e9fda94a05c140d9317b0906200011890620002a3565b6001600160a01b0390921682526020820152604001604051809103906000f0801580156200014a573d6000803e3d6000fd5b50600280546001600160a01b0319166001600160a01b03928316179055600154604051309291909116906200017f90620002b1565b6001600160a01b03928316815291166020820152604001604051809103906000f080158015620001b3573d6000803e3d6000fd5b50600380546001600160a01b0319166001600160a01b039283169081179091556002546040516309fded4760e31b8152600481019290925290911690634fef6a3890602401600060405180830381600087803b1580156200021357600080fd5b505af115801562000228573d6000803e3d6000fd5b50506001546003546040516309fded4760e31b81526001600160a01b03918216600482015291169250634fef6a389150602401600060405180830381600087803b1580156200027657600080fd5b505af11580156200028b573d6000803e3d6000fd5b50505050620002bf565b6105bb806200303e83390190565b612a3f80620035f983390190565b6110ae806200603883390190565b612d6f80620002cf6000396000f3fe608060405234801561001057600080fd5b506004361061011b5760003560e01c8063af104e40116100b2578063d803064a11610081578063e3d1287511610066578063e3d128751461026f578063f303477014610292578063fb3ec48b146102a557600080fd5b8063d803064a14610254578063e1c7392a1461026757600080fd5b8063af104e4014610208578063ba62fbe41461021b578063cfd3c57f14610239578063d7ecf62b1461024c57600080fd5b80634f27da18116100ee5780634f27da18146101ac578063614bfa6e146101bf578063687485a6146101d55780639f54f545146101f557600080fd5b80630d59332e146101205780630de3b7b5146101645780631aa3a008146101795780631ee444b714610199575b600080fd5b60025473ffffffffffffffffffffffffffffffffffffffff165b60405173ffffffffffffffffffffffffffffffffffffffff90911681526020015b60405180910390f35b610177610172366004612614565b6102b8565b005b60035461013a9073ffffffffffffffffffffffffffffffffffffffff1681565b6101776101a7366004612656565b61040a565b61013a6101ba366004612614565b6104d9565b6101c7610505565b60405190815260200161015b565b6101e86101e3366004612680565b610563565b60405161015b91906126f5565b6101c7610203366004612739565b610742565b61017761021636600461279d565b610768565b60015473ffffffffffffffffffffffffffffffffffffffff1661013a565b6101776102473660046127f7565b610979565b6101c7610b5c565b610177610262366004612656565b610bf3565b610177610d6e565b61028261027d366004612614565b610f61565b604051901515815260200161015b565b6101776102a0366004612656565b610ff5565b61013a6102b3366004612614565b61102f565b6001546040517fcccf7a8e00000000000000000000000000000000000000000000000000000000815233600482018190529173ffffffffffffffffffffffffffffffffffffffff169063cccf7a8e90602401602060405180830381865afa158015610327573d6000803e3d6000fd5b505050506040513d601f19601f8201168201806040525081019061034b9190612843565b6103b6576040517f08c379a000000000000000000000000000000000000000000000000000000000815260206004820152601860248201527f636f6d706f6e656e74206e6f742072656769737465726564000000000000000060448201526064015b60405180910390fd5b600154829033906103dd9073ffffffffffffffffffffffffffffffffffffffff1682611055565b6040517f6dd56823030ae6d8ae09cbfb8972c4e9494e67b209c4ab6300c21d73e269b35090600090a45050565b60035460405173ffffffffffffffffffffffffffffffffffffffff909116906309c5eabe9061044490339060019087908790602001612894565b6040516020818303038152906040526040518263ffffffff1660e01b815260040161046f919061292c565b6000604051808303816000875af115801561048e573d6000803e3d6000fd5b505050506040513d6000823e601f3d9081017fffffffffffffffffffffffffffffffffffffffffffffffffffffffffffffffe01682016040526104d491908101906129fb565b505050565b6001546000906104ff9073ffffffffffffffffffffffffffffffffffffffff16836111f4565b92915050565b600080610510610b5c565b905060005b8161051f81612adc565b9250508160405160200161053591815260200190565b6040516020818303038152906040528051906020012060001c905061055981610f61565b6105155792915050565b606060008267ffffffffffffffff8111156105805761058061297d565b6040519080825280602002602001820160405280156105cd57816020015b6040805160608082018352600080835260208301529181019190915281526020019060019003908161059e5790505b50905060005b838110156107305760405180606001604052808686848181106105f8576105f8612b14565b905060200281019061060a9190612b43565b610618906020810190612b81565b600581111561062957610629612865565b815260015460209091019061067b9073ffffffffffffffffffffffffffffffffffffffff1688888681811061066057610660612b14565b90506020028101906106729190612b43565b60200135611338565b73ffffffffffffffffffffffffffffffffffffffff1681526020018686848181106106a8576106a8612b14565b90506020028101906106ba9190612b43565b6106c8906040810190612ba2565b8080601f0160208091040260200160405190810160405280939291908181526020018383808284376000920191909152505050915250825183908390811061071257610712612b14565b6020026020010181905250808061072890612adc565b9150506105d3565b5061073a81611344565b949350505050565b6001546000906104ff9073ffffffffffffffffffffffffffffffffffffffff1683611055565b600154849073ffffffffffffffffffffffffffffffffffffffff1663cccf7a8e6107a58373ffffffffffffffffffffffffffffffffffffffff1690565b6040518263ffffffff1660e01b81526004016107c391815260200190565b602060405180830381865afa1580156107e0573d6000803e3d6000fd5b505050506040513d601f19601f820116820180604052508101906108049190612843565b61086a576040517f08c379a000000000000000000000000000000000000000000000000000000000815260206004820152601860248201527f636f6d706f6e656e74206e6f742072656769737465726564000000000000000060448201526064016103ad565b3373ffffffffffffffffffffffffffffffffffffffff86161461088c57600080fd5b6000546040517f1003e2d20000000000000000000000000000000000000000000000000000000081526004810186905273ffffffffffffffffffffffffffffffffffffffff90911690631003e2d290602401600060405180830381600087803b1580156108f857600080fd5b505af115801561090c573d6000803e3d6000fd5b505060015486925073ffffffffffffffffffffffffffffffffffffffff8089169250610939911688611055565b7f6ac31c38682e0128240cf68316d7ae751020d8f74c614e2a30278afcec8a6073868660405161096a929190612c07565b60405180910390a45050505050565b6001546040517fcccf7a8e00000000000000000000000000000000000000000000000000000000815233600482018190529173ffffffffffffffffffffffffffffffffffffffff169063cccf7a8e90602401602060405180830381865afa1580156109e8573d6000803e3d6000fd5b505050506040513d601f19601f82011682018060405250810190610a0c9190612843565b610a72576040517f08c379a000000000000000000000000000000000000000000000000000000000815260206004820152601860248201527f636f6d706f6e656e74206e6f742072656769737465726564000000000000000060448201526064016103ad565b6000546040517f1003e2d20000000000000000000000000000000000000000000000000000000081526004810186905273ffffffffffffffffffffffffffffffffffffffff90911690631003e2d290602401600060405180830381600087803b158015610ade57600080fd5b505af1158015610af2573d6000803e3d6000fd5b5050600154869250339150610b1d9073ffffffffffffffffffffffffffffffffffffffff1682611055565b7f6ac31c38682e0128240cf68316d7ae751020d8f74c614e2a30278afcec8a60738686604051610b4e929190612c07565b60405180910390a450505050565b60008060009054906101000a900473ffffffffffffffffffffffffffffffffffffffff1673ffffffffffffffffffffffffffffffffffffffff1663949d225d6040518163ffffffff1660e01b8152600401602060405180830381865afa158015610bca573d6000803e3d6000fd5b505050506040513d601f19601f82011682018060405250810190610bee9190612c54565b905090565b600154829073ffffffffffffffffffffffffffffffffffffffff1663cccf7a8e610c308373ffffffffffffffffffffffffffffffffffffffff1690565b6040518263ffffffff1660e01b8152600401610c4e91815260200190565b602060405180830381865afa158015610c6b573d6000803e3d6000fd5b505050506040513d601f19601f82011682018060405250810190610c8f9190612843565b610cf5576040517f08c379a000000000000000000000000000000000000000000000000000000000815260206004820152601860248201527f636f6d706f6e656e74206e6f742072656769737465726564000000000000000060448201526064016103ad565b3373ffffffffffffffffffffffffffffffffffffffff841614610d1757600080fd5b600154829073ffffffffffffffffffffffffffffffffffffffff80861691610d40911686611055565b6040517f6dd56823030ae6d8ae09cbfb8972c4e9494e67b209c4ab6300c21d73e269b35090600090a4505050565b6001546040517f9d2c76b400000000000000000000000000000000000000000000000000000000815230600482015273ffffffffffffffffffffffffffffffffffffffff90911690639d2c76b490602401600060405180830381600087803b158015610dd957600080fd5b505af1158015610ded573d6000803e3d6000fd5b50506002546040517f9d2c76b400000000000000000000000000000000000000000000000000000000815230600482015273ffffffffffffffffffffffffffffffffffffffff9091169250639d2c76b49150602401600060405180830381600087803b158015610e5c57600080fd5b505af1158015610e70573d6000803e3d6000fd5b505060035460405173ffffffffffffffffffffffffffffffffffffffff90911692506309c5eabe9150610ece90339060019085907f554d0b3fe5f19a44775dc4000490ad0bafbc48129e8e396be983226890aece9990602001612894565b6040516020818303038152906040526040518263ffffffff1660e01b8152600401610ef9919061292c565b6000604051808303816000875af1158015610f18573d6000803e3d6000fd5b505050506040513d6000823e601f3d9081017fffffffffffffffffffffffffffffffffffffffffffffffffffffffffffffffe0168201604052610f5e91908101906129fb565b50565b600080546040517fcccf7a8e0000000000000000000000000000000000000000000000000000000081526004810184905273ffffffffffffffffffffffffffffffffffffffff9091169063cccf7a8e90602401602060405180830381865afa158015610fd1573d6000803e3d6000fd5b505050506040513d601f19601f820116820180604052508101906104ff9190612843565b60035460405173ffffffffffffffffffffffffffffffffffffffff909116906309c5eabe9061044490339060009087908790602001612894565b6002546000906104ff9073ffffffffffffffffffffffffffffffffffffffff16836111f4565b60008273ffffffffffffffffffffffffffffffffffffffff1663cccf7a8e6110908473ffffffffffffffffffffffffffffffffffffffff1690565b6040518263ffffffff1660e01b81526004016110ae91815260200190565b602060405180830381865afa1580156110cb573d6000803e3d6000fd5b505050506040513d601f19601f820116820180604052508101906110ef9190612843565b611155576040517f08c379a000000000000000000000000000000000000000000000000000000000815260206004820152601660248201527f61646472657373206e6f7420726567697374657265640000000000000000000060448201526064016103ad565b8273ffffffffffffffffffffffffffffffffffffffff16630ff4c91661118e8473ffffffffffffffffffffffffffffffffffffffff1690565b6040518263ffffffff1660e01b81526004016111ac91815260200190565b602060405180830381865afa1580156111c9573d6000803e3d6000fd5b505050506040513d601f19601f820116820180604052508101906111ed9190612c54565b9392505050565b6040517ffbdfa1ea00000000000000000000000000000000000000000000000000000000815260048101829052600090819073ffffffffffffffffffffffffffffffffffffffff85169063fbdfa1ea90602401600060405180830381865afa158015611264573d6000803e3d6000fd5b505050506040513d6000823e601f3d9081017fffffffffffffffffffffffffffffffffffffffffffffffffffffffffffffffe01682016040526112aa9190810190612c6d565b90508051600003611317576040517f08c379a000000000000000000000000000000000000000000000000000000000815260206004820152601160248201527f6964206e6f74207265676973746572656400000000000000000000000000000060448201526064016103ad565b61073a8160008151811061132d5761132d612b14565b602002602001015190565b60006111ed83836111f4565b606061134e6125a1565b7620000000000000000000000000000000000000000000008152600060208201819052600160808301525b835181101561181457600084828151811061139657611396612b14565b602002602001015190506113a981611827565b156113f7576004815160058111156113c3576113c3612865565b036113d057604083018190525b6005815160058111156113e5576113e5612865565b036113f257606083018190525b611801565b82608001511561171a5761140a81611862565b611470576040517f08c379a000000000000000000000000000000000000000000000000000000000815260206004820152601960248201527f4e454741544956455f494e495449414c5f465241474d454e540000000000000060448201526064016103ad565b600060808401819052808251600581111561148d5761148d612865565b1461153b57816020015173ffffffffffffffffffffffffffffffffffffffff1663b361be4683604001516040518263ffffffff1660e01b81526004016114d3919061292c565b600060405180830381865afa1580156114f0573d6000803e3d6000fd5b505050506040513d6000823e601f3d9081017fffffffffffffffffffffffffffffffffffffffffffffffffffffffffffffffe01682016040526115369190810190612c6d565b6115d0565b816020015173ffffffffffffffffffffffffffffffffffffffff166331b933b96040518163ffffffff1660e01b8152600401600060405180830381865afa15801561158a573d6000803e3d6000fd5b505050506040513d6000823e601f3d9081017fffffffffffffffffffffffffffffffffffffffffffffffffffffffffffffffe01682016040526115d09190810190612c6d565b90506115db81611886565b845280516020808601919091526060850151015173ffffffffffffffffffffffffffffffffffffffff161580159061162e5750600084606001516040015180602001905181019061162c9190612c54565b115b156117145760005b815181101561171257600061168883838151811061165657611656612b14565b60200260200101518760600151602001518860600151604001518060200190518101906116839190612c54565b6118ee565b905060005b81518110156116fd576116d66116ce60405180604001604052808585815181106116b9576116b9612b14565b60200260200101518152602001600081525090565b885190611b25565b8752602087018051906116e882612adc565b905250806116f581612adc565b91505061168d565b5050808061170a90612adc565b915050611636565b505b50611801565b82517620000000000000000000000000000000000000000000009060009060019060601c69ffffffffffffffffffff165b81156117f657600061176f8260408051808201909152600080825260208201525090565b805190915060006117808289611b8a565b905061178e8a898484611f49565b905080156117cc576117bc6117b56040518060400160405280858152602001600081525090565b8890611b25565b9650856117c881612adc565b9650505b6117d98a89848a8a611fdb565b8b5160b01c86015191985096508015159550935061174b92505050565b505090845260208401525b508061180c81612adc565b915050611379565b506111ed8160000151826020015161216c565b600060048251600581111561183e5761183e612865565b14806104ff575060055b8251600581111561185b5761185b612865565b1492915050565b6000808251600581111561187857611878612865565b14806104ff57506002611848565b76200000000000000000000000000000000000000000000060005b82518110156118e8576118d46118cd60405180604001604052808685815181106116b9576116b9612b14565b8390611b25565b9150806118e081612adc565b9150506118a1565b50919050565b60608160000361190d57506040805160008152602081019091526111ed565b60008373ffffffffffffffffffffffffffffffffffffffff1663b361be468660405160200161193e91815260200190565b6040516020818303038152906040526040518263ffffffff1660e01b8152600401611969919061292c565b600060405180830381865afa158015611986573d6000803e3d6000fd5b505050506040513d6000823e601f3d9081017fffffffffffffffffffffffffffffffffffffffffffffffffffffffffffffffe01682016040526119cc9190810190612c6d565b9050826001036119dd5790506111ed565b7620000000000000000000000000000000000000000000006000805b8351811015611a9e576000611a2f858381518110611a1957611a19612b14565b60200260200101518960018a6116839190612d13565b905060005b8151811015611a8957611a67611a6060405180604001604052808585815181106116b9576116b9612b14565b8690611b25565b945083611a7381612adc565b9450508080611a8190612adc565b915050611a34565b50508080611a9690612adc565b9150506119f9565b506000611ab783855184611ab29190612d26565b61216c565b905060005b8451811015611b1957848181518110611ad757611ad7612b14565b6020026020010151828285611aec9190612d26565b81518110611afc57611afc612b14565b602090810291909101015280611b1181612adc565b915050611abc565b50979650505050505050565b6000808360501b60b01c1160018114611b4a578260101b8360601b8517179150611b83565b828460b01c8560a01b60b01c01528260101b7fffffffffffffffffffffffffffffffffffffffff00000000000000000000000085161791505b5092915050565b60008082516005811115611ba057611ba0612865565b03611c415760208201516040517fcccf7a8e0000000000000000000000000000000000000000000000000000000081526004810185905273ffffffffffffffffffffffffffffffffffffffff9091169063cccf7a8e90602401602060405180830381865afa158015611c16573d6000803e3d6000fd5b505050506040513d601f19601f82011682018060405250810190611c3a9190612843565b90506104ff565b600282516005811115611c5657611c56612865565b03611d2d5760208201516040517fb8bc073d0000000000000000000000000000000000000000000000000000000081526004810185905273ffffffffffffffffffffffffffffffffffffffff9091169063b8bc073d90602401600060405180830381865afa158015611ccc573d6000803e3d6000fd5b505050506040513d6000823e601f3d9081017fffffffffffffffffffffffffffffffffffffffffffffffffffffffffffffffe0168201604052611d1291908101906129fb565b805190602001208260400151805190602001201490506104ff565b600182516005811115611d4257611d42612865565b03611de45760208201516040517fcccf7a8e0000000000000000000000000000000000000000000000000000000081526004810185905273ffffffffffffffffffffffffffffffffffffffff9091169063cccf7a8e90602401602060405180830381865afa158015611db8573d6000803e3d6000fd5b505050506040513d601f19601f82011682018060405250810190611ddc9190612843565b1590506104ff565b600382516005811115611df957611df9612865565b03611ed15760208201516040517fb8bc073d0000000000000000000000000000000000000000000000000000000081526004810185905273ffffffffffffffffffffffffffffffffffffffff9091169063b8bc073d90602401600060405180830381865afa158015611e6f573d6000803e3d6000fd5b505050506040513d6000823e601f3d9081017fffffffffffffffffffffffffffffffffffffffffffffffffffffffffffffffe0168201604052611eb591908101906129fb565b80519060200120826040015180519060200120141590506104ff565b611eda82612244565b611f40576040517f08c379a000000000000000000000000000000000000000000000000000000000815260206004820152601260248201527f4e4f5f454e544954595f465241474d454e54000000000000000000000000000060448201526064016103ad565b50600092915050565b60408401516020015160009073ffffffffffffffffffffffffffffffffffffffff1615801590611f9457506000856040015160400151806020019051810190611f929190612c54565b115b8015611fa75750611fa582856122a3565b155b15611fd357600080611fbe858789604001516122ce565b915091508015611fd05750905061073a565b50505b509392505050565b606085015160200151600090819073ffffffffffffffffffffffffffffffffffffffff1615801590612028575060008760600151604001518060200190518101906120269190612c54565b115b15612160576000612058868960600151602001518a60600151604001518060200190518101906116839190612c54565b905060005b815181101561215d57600082828151811061207a5761207a612b14565b602002602001015190506000612090828b611b8a565b9050801580156120bd575060408b01516020015173ffffffffffffffffffffffffffffffffffffffff1615155b80156120e4575060008b60400151604001518060200190518101906120e29190612c54565b115b1561210c576000806120fb848d8f604001516122ce565b915091508015612109578192505b50505b80156121485761213861213160405180604001604052808c8152602001600081525090565b8990611b25565b97508661214481612adc565b9750505b5050808061215590612adc565b91505061205d565b50505b50919590945092505050565b60608167ffffffffffffffff8111156121875761218761297d565b6040519080825280602002602001820160405280156121b0578160200160208202803683370190505b50905081156104ff57600169ffffffffffffffffffff606085901c1660005b821561223b5760006121f38360408051808201909152600080825260208201525090565b9050806000015185838151811061220c5761220c612b14565b60209081029190910101528161222181612adc565b60b089901c949094015180151595509392506121cf915050565b50505092915050565b6000808251600581111561225a5761225a612865565b1480612278575060028251600581111561227657612276612865565b145b80612296575060015b8251600581111561229457612294612865565b145b806104ff57506003611848565b60008280156122b657506122b682611862565b806111ed5750821580156111ed57506111ed82612598565b6000806122da84612244565b612340576040517f08c379a000000000000000000000000000000000000000000000000000000000815260206004820152601260248201527f4e4f5f454e544954595f465241474d454e54000000000000000000000000000060448201526064016103ad565b60048351600581111561235557612355612865565b146123bc576040517f08c379a000000000000000000000000000000000000000000000000000000000815260206004820152601660248201527f4e4f5f50524f58595f524541445f465241474d454e540000000000000000000060448201526064016103ad565b8460005b84604001518060200190518101906123d89190612c54565b8110156125895760208501516040517fcccf7a8e0000000000000000000000000000000000000000000000000000000081526004810184905273ffffffffffffffffffffffffffffffffffffffff9091169063cccf7a8e90602401602060405180830381865afa158015612450573d6000803e3d6000fd5b505050506040513d601f19601f820116820180604052508101906124749190612843565b6124845750600091506125909050565b60208501516040517fb8bc073d0000000000000000000000000000000000000000000000000000000081526004810184905273ffffffffffffffffffffffffffffffffffffffff9091169063b8bc073d90602401600060405180830381865afa1580156124f5573d6000803e3d6000fd5b505050506040513d6000823e601f3d9081017fffffffffffffffffffffffffffffffffffffffffffffffffffffffffffffffe016820160405261253b91908101906129fb565b80602001905181019061254e9190612c54565b915061255a8287611b8a565b935061256684876122a3565b156125775750600191506125909050565b8061258181612adc565b9150506123c0565b5060019150505b935093915050565b60006001612281565b6040805160a081018252600080825260208201529081016125dd6040805160608101909152806000815260006020820152606060409091015290565b81526020016126076040805160608101909152806000815260006020820152606060409091015290565b8152600060209091015290565b60006020828403121561262657600080fd5b5035919050565b803573ffffffffffffffffffffffffffffffffffffffff8116811461265157600080fd5b919050565b6000806040838503121561266957600080fd5b6126728361262d565b946020939093013593505050565b6000806020838503121561269357600080fd5b823567ffffffffffffffff808211156126ab57600080fd5b818501915085601f8301126126bf57600080fd5b8135818111156126ce57600080fd5b8660208260051b85010111156126e357600080fd5b60209290920196919550909350505050565b6020808252825182820181905260009190848201906040850190845b8181101561272d57835183529284019291840191600101612711565b50909695505050505050565b60006020828403121561274b57600080fd5b6111ed8261262d565b60008083601f84011261276657600080fd5b50813567ffffffffffffffff81111561277e57600080fd5b60208301915083602082850101111561279657600080fd5b9250929050565b600080600080606085870312156127b357600080fd5b6127bc8561262d565b935060208501359250604085013567ffffffffffffffff8111156127df57600080fd5b6127eb87828801612754565b95989497509550505050565b60008060006040848603121561280c57600080fd5b83359250602084013567ffffffffffffffff81111561282a57600080fd5b61283686828701612754565b9497909650939450505050565b60006020828403121561285557600080fd5b815180151581146111ed57600080fd5b7f4e487b7100000000000000000000000000000000000000000000000000000000600052602160045260246000fd5b73ffffffffffffffffffffffffffffffffffffffff85811682526080820190600286106128ea577f4e487b7100000000000000000000000000000000000000000000000000000000600052602160045260246000fd5b85602084015280851660408401525082606083015295945050505050565b60005b8381101561292357818101518382015260200161290b565b50506000910152565b602081526000825180602084015261294b816040850160208701612908565b601f017fffffffffffffffffffffffffffffffffffffffffffffffffffffffffffffffe0169190910160400192915050565b7f4e487b7100000000000000000000000000000000000000000000000000000000600052604160045260246000fd5b604051601f82017fffffffffffffffffffffffffffffffffffffffffffffffffffffffffffffffe016810167ffffffffffffffff811182821017156129f3576129f361297d565b604052919050565b600060208284031215612a0d57600080fd5b815167ffffffffffffffff80821115612a2557600080fd5b818401915084601f830112612a3957600080fd5b815181811115612a4b57612a4b61297d565b612a7c60207fffffffffffffffffffffffffffffffffffffffffffffffffffffffffffffffe0601f840116016129ac565b9150808252856020828501011115612a9357600080fd5b612aa4816020840160208601612908565b50949350505050565b7f4e487b7100000000000000000000000000000000000000000000000000000000600052601160045260246000fd5b60007fffffffffffffffffffffffffffffffffffffffffffffffffffffffffffffffff8203612b0d57612b0d612aad565b5060010190565b7f4e487b7100000000000000000000000000000000000000000000000000000000600052603260045260246000fd5b600082357fffffffffffffffffffffffffffffffffffffffffffffffffffffffffffffffa1833603018112612b7757600080fd5b9190910192915050565b600060208284031215612b9357600080fd5b8135600681106111ed57600080fd5b60008083357fffffffffffffffffffffffffffffffffffffffffffffffffffffffffffffffe1843603018112612bd757600080fd5b83018035915067ffffffffffffffff821115612bf257600080fd5b60200191503681900382131561279657600080fd5b60208152816020820152818360408301376000818301604090810191909152601f9092017fffffffffffffffffffffffffffffffffffffffffffffffffffffffffffffffe0160101919050565b600060208284031215612c6657600080fd5b5051919050565b60006020808385031215612c8057600080fd5b825167ffffffffffffffff80821115612c9857600080fd5b818501915085601f830112612cac57600080fd5b815181811115612cbe57612cbe61297d565b8060051b9150612ccf8483016129ac565b8181529183018401918481019088841115612ce957600080fd5b938501935b83851015612d0757845182529385019390850190612cee565b98975050505050505050565b818103818111156104ff576104ff612aad565b808201808211156104ff576104ff612aad56fea2646970667358221220471bbd0b6c9f09e8f3e4260d5f6855561f03dc2b77efa275ac1df00257747c7264736f6c63430008110033608060405234801561001057600080fd5b50600080546001600160a01b03191633179055610589806100326000396000f3fe608060405234801561001057600080fd5b50600436106100725760003560e01c80638e7cb6e1116100505780638e7cb6e1146100bd578063949d225d146100e7578063cccf7a8e146100f857600080fd5b80631003e2d214610077578063410d59cc1461008c5780634cc82215146100aa575b600080fd5b61008a610085366004610458565b61011b565b005b6100946101f5565b6040516100a19190610471565b60405180910390f35b61008a6100b8366004610458565b61024d565b6100d06100cb366004610458565b6103c1565b6040805192151583526020830191909152016100a1565b6001546040519081526020016100a1565b61010b610106366004610458565b6103f2565b60405190151581526020016100a1565b60005473ffffffffffffffffffffffffffffffffffffffff1633146101a1576040517f08c379a000000000000000000000000000000000000000000000000000000000815260206004820152600a60248201527f4f4e4c595f4f574e45520000000000000000000000000000000000000000000060448201526064015b60405180910390fd5b6101aa816103f2565b6101f2576001805460008381526002602052604081208290558183018355919091527fb10e2d527612073b26eecdfd717e6a320cf44b4afac2b0732d9fcbe2b7fa0cf6018190555b50565b6060600180548060200260200160405190810160405280929190818152602001828054801561024357602002820191906000526020600020905b81548152602001906001019080831161022f575b5050505050905090565b60005473ffffffffffffffffffffffffffffffffffffffff1633146102ce576040517f08c379a000000000000000000000000000000000000000000000000000000000815260206004820152600a60248201527f4f4e4c595f4f574e4552000000000000000000000000000000000000000000006044820152606401610198565b6102d7816103f2565b156101f257600180546102eb9082906104b5565b815481106102fb576102fb6104f5565b9060005260206000200154600160026000848152602001908152602001600020548154811061032c5761032c6104f5565b60009182526020808320909101929092558281526002918290526040812054600180549193929184908110610363576103636104f5565b9060005260206000200154815260200190815260200160002081905550600260008281526020019081526020016000206000905560018054806103a8576103a8610524565b6001900381819060005260206000200160009055905550565b6000806103cd836103f2565b6103dc57506000928392509050565b5050600090815260026020526040902054600191565b600154600090810361040657506000919050565b600082815260026020526040812054900361044357816001600081548110610430576104306104f5565b9060005260206000200154149050919050565b50600090815260026020526040902054151590565b60006020828403121561046a57600080fd5b5035919050565b6020808252825182820181905260009190848201906040850190845b818110156104a95783518352928401929184019160010161048d565b50909695505050505050565b818103818111156104ef577f4e487b7100000000000000000000000000000000000000000000000000000000600052601160045260246000fd5b92915050565b7f4e487b7100000000000000000000000000000000000000000000000000000000600052603260045260246000fd5b7f4e487b7100000000000000000000000000000000000000000000000000000000600052603160045260246000fdfea2646970667358221220b5b456212a11997ccd601470c77cc96a71f468957b5522e79a3a9c1efe5555c064736f6c6343000811003360806040523480156200001157600080fd5b5060405162002a3f38038062002a3f83398101604081905262000034916200020e565b600180546001600160a01b0319163390811782556000908152600260205260409020805460ff191690911790556004819055818181816001600160a01b03821615620000855762000085826200012a565b50506040516200009590620001f2565b604051809103906000f080158015620000b2573d6000803e3d6000fd5b50600580546001600160a01b0319166001600160a01b0392909216919091179055604051620000e19062000200565b604051809103906000f080158015620000fe573d6000803e3d6000fd5b50600680546001600160a01b0319166001600160a01b0392909216919091179055506200024a92505050565b6001546001600160a01b03163314620001765760405162461bcd60e51b815260206004820152600a60248201526927a7262cafa7aba722a960b11b604482015260640160405180910390fd5b600080546001600160a01b0319166001600160a01b03831690811790915560048054604051630f30347760e41b81523092810192909252602482015263f303477090604401600060405180830381600087803b158015620001d657600080fd5b505af1158015620001eb573d6000803e3d6000fd5b5050505050565b6105bb8062001e8283390190565b610602806200243d83390190565b600080604083850312156200022257600080fd5b82516001600160a01b03811681146200023a57600080fd5b6020939093015192949293505050565b611c28806200025a6000396000f3fe608060405234801561001057600080fd5b50600436106101515760003560e01c80638b282947116100cd578063b8bc073d11610081578063cccf7a8e11610066578063cccf7a8e14610300578063f2fde38b14610313578063fbdfa1ea1461032657600080fd5b8063b8bc073d146102cd578063bf4fe57e146102ed57600080fd5b80639d2c76b4116100b25780639d2c76b41461029e578063af640d0f146102b1578063b361be46146102ba57600080fd5b80638b2829471461026d5780638da5cb5b1461028057600080fd5b80634cc82215116101245780636b122fe0116101095780636b122fe01461021157806375c0669c14610227578063861eb9051461023a57600080fd5b80634cc82215146101eb5780634fef6a38146101fe57600080fd5b80630ff4c916146101565780631ab06ee51461017c57806330b67baa1461019157806331b933b9146101d6575b600080fd5b610169610164366004611448565b610339565b6040519081526020015b60405180910390f35b61018f61018a366004611461565b61035f565b005b6000546101b19073ffffffffffffffffffffffffffffffffffffffff1681565b60405173ffffffffffffffffffffffffffffffffffffffff9091168152602001610173565b6101de61038e565b6040516101739190611483565b61018f6101f9366004611448565b610449565b61018f61020c3660046114c7565b6104d3565b6102196105a3565b604051610173929190611590565b61018f6102353660046114c7565b61068f565b61025d6102483660046114c7565b60026020526000908152604090205460ff1681565b6040519015158152602001610173565b61018f61027b36600461178c565b61077f565b60015473ffffffffffffffffffffffffffffffffffffffff166101b1565b61018f6102ac3660046114c7565b610802565b61016960045481565b6101de6102c83660046117d3565b61093c565b6102e06102db366004611448565b610a00565b6040516101739190611810565b61018f6102fb3660046114c7565b610aa2565b61025d61030e366004611448565b610b6f565b61018f6103213660046114c7565b610c03565b6101de610334366004611448565b610d59565b60008061034583610a00565b8060200190518101906103589190611823565b9392505050565b61038a828260405160200161037691815260200190565b60405160208183030381529060405261077f565b5050565b600554604080517f410d59cc000000000000000000000000000000000000000000000000000000008152905160609273ffffffffffffffffffffffffffffffffffffffff169163410d59cc9160048083019260009291908290030181865afa1580156103fe573d6000803e3d6000fd5b505050506040513d6000823e601f3d9081017fffffffffffffffffffffffffffffffffffffffffffffffffffffffffffffffe0168201604052610444919081019061183c565b905090565b3360009081526002602052604090205460ff166104c7576040517f08c379a000000000000000000000000000000000000000000000000000000000815260206004820152600b60248201527f4f4e4c595f57524954455200000000000000000000000000000000000000000060448201526064015b60405180910390fd5b6104d081610d85565b50565b60015473ffffffffffffffffffffffffffffffffffffffff163314610554576040517f08c379a000000000000000000000000000000000000000000000000000000000815260206004820152600a60248201527f4f4e4c595f4f574e45520000000000000000000000000000000000000000000060448201526064016104be565b73ffffffffffffffffffffffffffffffffffffffff16600090815260026020526040902080547fffffffffffffffffffffffffffffffffffffffffffffffffffffffffffffff00166001179055565b604080516001808252818301909252606091829190816020015b60608152602001906001900390816105bd575050604080516001808252818301909252919350602080830190803683370190505090506040518060400160405280600581526020017f76616c75650000000000000000000000000000000000000000000000000000008152508260008151811061063c5761063c6118e2565b6020026020010181905250600d8160008151811061065c5761065c6118e2565b6020026020010190602181111561067557610675611561565b9081602181111561068857610688611561565b9052509091565b3360009081526002602052604090205460ff16610708576040517f08c379a000000000000000000000000000000000000000000000000000000000815260206004820152600b60248201527f4f4e4c595f57524954455200000000000000000000000000000000000000000060448201526064016104be565b600780546001810182556000919091527fa66cc928b5edb82af9bd49922954155ab7b0942694bea4ce44661d9a8736c6880180547fffffffffffffffffffffffff00000000000000000000000000000000000000001673ffffffffffffffffffffffffffffffffffffffff92909216919091179055565b3360009081526002602052604090205460ff166107f8576040517f08c379a000000000000000000000000000000000000000000000000000000000815260206004820152600b60248201527f4f4e4c595f57524954455200000000000000000000000000000000000000000060448201526064016104be565b61038a8282611044565b60015473ffffffffffffffffffffffffffffffffffffffff163314610883576040517f08c379a000000000000000000000000000000000000000000000000000000000815260206004820152600a60248201527f4f4e4c595f4f574e45520000000000000000000000000000000000000000000060448201526064016104be565b600080547fffffffffffffffffffffffff00000000000000000000000000000000000000001673ffffffffffffffffffffffffffffffffffffffff8316908117909155600480546040517ff30347700000000000000000000000000000000000000000000000000000000081523092810192909252602482015263f3034770906044015b600060405180830381600087803b15801561092157600080fd5b505af1158015610935573d6000803e3d6000fd5b5050505050565b600654815160208301206040517f796c5e94000000000000000000000000000000000000000000000000000000008152600481019190915260609173ffffffffffffffffffffffffffffffffffffffff169063796c5e9490602401600060405180830381865afa1580156109b4573d6000803e3d6000fd5b505050506040513d6000823e601f3d9081017fffffffffffffffffffffffffffffffffffffffffffffffffffffffffffffffe01682016040526109fa919081019061183c565b92915050565b6000818152600360205260409020805460609190610a1d90611911565b80601f0160208091040260200160405190810160405280929190818152602001828054610a4990611911565b8015610a965780601f10610a6b57610100808354040283529160200191610a96565b820191906000526020600020905b815481529060010190602001808311610a7957829003601f168201915b50505050509050919050565b60015473ffffffffffffffffffffffffffffffffffffffff163314610b23576040517f08c379a000000000000000000000000000000000000000000000000000000000815260206004820152600a60248201527f4f4e4c595f4f574e45520000000000000000000000000000000000000000000060448201526064016104be565b73ffffffffffffffffffffffffffffffffffffffff16600090815260026020526040902080547fffffffffffffffffffffffffffffffffffffffffffffffffffffffffffffff00169055565b6005546040517fcccf7a8e0000000000000000000000000000000000000000000000000000000081526004810183905260009173ffffffffffffffffffffffffffffffffffffffff169063cccf7a8e90602401602060405180830381865afa158015610bdf573d6000803e3d6000fd5b505050506040513d601f19601f820116820180604052508101906109fa9190611964565b60015473ffffffffffffffffffffffffffffffffffffffff163314610c84576040517f08c379a000000000000000000000000000000000000000000000000000000000815260206004820152600a60248201527f4f4e4c595f4f574e45520000000000000000000000000000000000000000000060448201526064016104be565b60015460405173ffffffffffffffffffffffffffffffffffffffff8084169216907f8be0079c531659141344cd1fd0a4f28419497f9722a3daafe3b4186f6b6457e090600090a33360009081526002602052604080822080547fffffffffffffffffffffffffffffffffffffffffffffffffffffffffffffff00908116909155600180547fffffffffffffffffffffffff00000000000000000000000000000000000000001673ffffffffffffffffffffffffffffffffffffffff959095169485178155938352912080549091169091179055565b60606109fa82604051602001610d7191815260200190565b60405160208183030381529060405261093c565b60065460008281526003602052604090819020905173ffffffffffffffffffffffffffffffffffffffff909216916385edea1391610dc291611986565b60405190819003812060e083901b7fffffffff000000000000000000000000000000000000000000000000000000001682526004820152602401602060405180830381865afa158015610e19573d6000803e3d6000fd5b505050506040513d601f19601f82011682018060405250810190610e3d9190611823565b600003610e475750565b60065460008281526003602052604090819020905173ffffffffffffffffffffffffffffffffffffffff90921691636526db7a91610e8491611986565b60405190819003812060e083901b7fffffffff00000000000000000000000000000000000000000000000000000000168252600482015260248101849052604401600060405180830381600087803b158015610edf57600080fd5b505af1158015610ef3573d6000803e3d6000fd5b50506005546040517f4cc822150000000000000000000000000000000000000000000000000000000081526004810185905273ffffffffffffffffffffffffffffffffffffffff9091169250634cc822159150602401600060405180830381600087803b158015610f6357600080fd5b505af1158015610f77573d6000803e3d6000fd5b50505050610f84816112e5565b60005b60075481101561038a5760078181548110610fa457610fa46118e2565b6000918252602090912001546040517f4cc822150000000000000000000000000000000000000000000000000000000081526004810184905273ffffffffffffffffffffffffffffffffffffffff90911690634cc8221590602401600060405180830381600087803b15801561101957600080fd5b505af115801561102d573d6000803e3d6000fd5b50505050808061103c90611a1a565b915050610f87565b6005546040517f1003e2d20000000000000000000000000000000000000000000000000000000081526004810184905273ffffffffffffffffffffffffffffffffffffffff90911690631003e2d290602401600060405180830381600087803b1580156110b057600080fd5b505af11580156110c4573d6000803e3d6000fd5b505060065460008581526003602052604090819020905173ffffffffffffffffffffffffffffffffffffffff9092169350636526db7a925061110591611986565b60405190819003812060e083901b7fffffffff00000000000000000000000000000000000000000000000000000000168252600482015260248101859052604401600060405180830381600087803b15801561116057600080fd5b505af1158015611174573d6000803e3d6000fd5b5050600654835160208501206040517f771602f700000000000000000000000000000000000000000000000000000000815273ffffffffffffffffffffffffffffffffffffffff909216935063771602f792506111de918690600401918252602082015260400190565b600060405180830381600087803b1580156111f857600080fd5b505af115801561120c573d6000803e3d6000fd5b5050505061121a8282611353565b60005b6007548110156112e0576007818154811061123a5761123a6118e2565b6000918252602090912001546040517f0216b83800000000000000000000000000000000000000000000000000000000815273ffffffffffffffffffffffffffffffffffffffff90911690630216b8389061129b9086908690600401611a79565b600060405180830381600087803b1580156112b557600080fd5b505af11580156112c9573d6000803e3d6000fd5b5050505080806112d890611a1a565b91505061121d565b505050565b60008181526003602052604081206112fc916113fa565b6000546040517f0de3b7b50000000000000000000000000000000000000000000000000000000081526004810183905273ffffffffffffffffffffffffffffffffffffffff90911690630de3b7b590602401610907565b600082815260036020526040902061136b8282611ad8565b506000546040517fcfd3c57f00000000000000000000000000000000000000000000000000000000815273ffffffffffffffffffffffffffffffffffffffff9091169063cfd3c57f906113c49085908590600401611a79565b600060405180830381600087803b1580156113de57600080fd5b505af11580156113f2573d6000803e3d6000fd5b505050505050565b50805461140690611911565b6000825580601f10611416575050565b601f0160209004906000526020600020908101906104d091905b808211156114445760008155600101611430565b5090565b60006020828403121561145a57600080fd5b5035919050565b6000806040838503121561147457600080fd5b50508035926020909101359150565b6020808252825182820181905260009190848201906040850190845b818110156114bb5783518352928401929184019160010161149f565b50909695505050505050565b6000602082840312156114d957600080fd5b813573ffffffffffffffffffffffffffffffffffffffff8116811461035857600080fd5b6000815180845260005b8181101561152357602081850181015186830182015201611507565b5060006020828601015260207fffffffffffffffffffffffffffffffffffffffffffffffffffffffffffffffe0601f83011685010191505092915050565b7f4e487b7100000000000000000000000000000000000000000000000000000000600052602160045260246000fd5b6000604082016040835280855180835260608501915060608160051b8601019250602080880160005b83811015611605577fffffffffffffffffffffffffffffffffffffffffffffffffffffffffffffffa08887030185526115f38683516114fd565b955093820193908201906001016115b9565b50508584038187015286518085528782019482019350915060005b8281101561167357845160228110611661577f4e487b7100000000000000000000000000000000000000000000000000000000600052602160045260246000fd5b84529381019392810192600101611620565b5091979650505050505050565b7f4e487b7100000000000000000000000000000000000000000000000000000000600052604160045260246000fd5b604051601f82017fffffffffffffffffffffffffffffffffffffffffffffffffffffffffffffffe016810167ffffffffffffffff811182821017156116f6576116f6611680565b604052919050565b600082601f83011261170f57600080fd5b813567ffffffffffffffff81111561172957611729611680565b61175a60207fffffffffffffffffffffffffffffffffffffffffffffffffffffffffffffffe0601f840116016116af565b81815284602083860101111561176f57600080fd5b816020850160208301376000918101602001919091529392505050565b6000806040838503121561179f57600080fd5b82359150602083013567ffffffffffffffff8111156117bd57600080fd5b6117c9858286016116fe565b9150509250929050565b6000602082840312156117e557600080fd5b813567ffffffffffffffff8111156117fc57600080fd5b611808848285016116fe565b949350505050565b60208152600061035860208301846114fd565b60006020828403121561183557600080fd5b5051919050565b6000602080838503121561184f57600080fd5b825167ffffffffffffffff8082111561186757600080fd5b818501915085601f83011261187b57600080fd5b81518181111561188d5761188d611680565b8060051b915061189e8483016116af565b81815291830184019184810190888411156118b857600080fd5b938501935b838510156118d6578451825293850193908501906118bd565b98975050505050505050565b7f4e487b7100000000000000000000000000000000000000000000000000000000600052603260045260246000fd5b600181811c9082168061192557607f821691505b60208210810361195e577f4e487b7100000000000000000000000000000000000000000000000000000000600052602260045260246000fd5b50919050565b60006020828403121561197657600080fd5b8151801515811461035857600080fd5b600080835461199481611911565b600182811680156119ac57600181146119df57611a0e565b7fffffffffffffffffffffffffffffffffffffffffffffffffffffffffffffff0084168752821515830287019450611a0e565b8760005260208060002060005b85811015611a055781548a8201529084019082016119ec565b50505082870194505b50929695505050505050565b60007fffffffffffffffffffffffffffffffffffffffffffffffffffffffffffffffff8203611a72577f4e487b7100000000000000000000000000000000000000000000000000000000600052601160045260246000fd5b5060010190565b82815260406020820152600061180860408301846114fd565b601f8211156112e057600081815260208120601f850160051c81016020861015611ab95750805b601f850160051c820191505b818110156113f257828155600101611ac5565b815167ffffffffffffffff811115611af257611af2611680565b611b0681611b008454611911565b84611a92565b602080601f831160018114611b595760008415611b235750858301515b7fffffffffffffffffffffffffffffffffffffffffffffffffffffffffffffffff600386901b1c1916600185901b1785556113f2565b6000858152602081207fffffffffffffffffffffffffffffffffffffffffffffffffffffffffffffffe08616915b82811015611ba657888601518255948401946001909101908401611b87565b5085821015611be257878501517fffffffffffffffffffffffffffffffffffffffffffffffffffffffffffffffff600388901b60f8161c191681555b5050505050600190811b0190555056fea2646970667358221220aecdeaecca57aa40d5a0b9cf60b63d1572028e592b737f0bee4eefbcce5a1b6d64736f6c63430008110033608060405234801561001057600080fd5b50600080546001600160a01b03191633179055610589806100326000396000f3fe608060405234801561001057600080fd5b50600436106100725760003560e01c80638e7cb6e1116100505780638e7cb6e1146100bd578063949d225d146100e7578063cccf7a8e146100f857600080fd5b80631003e2d214610077578063410d59cc1461008c5780634cc82215146100aa575b600080fd5b61008a610085366004610458565b61011b565b005b6100946101f5565b6040516100a19190610471565b60405180910390f35b61008a6100b8366004610458565b61024d565b6100d06100cb366004610458565b6103c1565b6040805192151583526020830191909152016100a1565b6001546040519081526020016100a1565b61010b610106366004610458565b6103f2565b60405190151581526020016100a1565b60005473ffffffffffffffffffffffffffffffffffffffff1633146101a1576040517f08c379a000000000000000000000000000000000000000000000000000000000815260206004820152600a60248201527f4f4e4c595f4f574e45520000000000000000000000000000000000000000000060448201526064015b60405180910390fd5b6101aa816103f2565b6101f2576001805460008381526002602052604081208290558183018355919091527fb10e2d527612073b26eecdfd717e6a320cf44b4afac2b0732d9fcbe2b7fa0cf6018190555b50565b6060600180548060200260200160405190810160405280929190818152602001828054801561024357602002820191906000526020600020905b81548152602001906001019080831161022f575b5050505050905090565b60005473ffffffffffffffffffffffffffffffffffffffff1633146102ce576040517f08c379a000000000000000000000000000000000000000000000000000000000815260206004820152600a60248201527f4f4e4c595f4f574e4552000000000000000000000000000000000000000000006044820152606401610198565b6102d7816103f2565b156101f257600180546102eb9082906104b5565b815481106102fb576102fb6104f5565b9060005260206000200154600160026000848152602001908152602001600020548154811061032c5761032c6104f5565b60009182526020808320909101929092558281526002918290526040812054600180549193929184908110610363576103636104f5565b9060005260206000200154815260200190815260200160002081905550600260008281526020019081526020016000206000905560018054806103a8576103a8610524565b6001900381819060005260206000200160009055905550565b6000806103cd836103f2565b6103dc57506000928392509050565b5050600090815260026020526040902054600191565b600154600090810361040657506000919050565b600082815260026020526040812054900361044357816001600081548110610430576104306104f5565b9060005260206000200154149050919050565b50600090815260026020526040902054151590565b60006020828403121561046a57600080fd5b5035919050565b6020808252825182820181905260009190848201906040850190845b818110156104a95783518352928401929184019160010161048d565b50909695505050505050565b818103818111156104ef577f4e487b7100000000000000000000000000000000000000000000000000000000600052601160045260246000fd5b92915050565b7f4e487b7100000000000000000000000000000000000000000000000000000000600052603260045260246000fd5b7f4e487b7100000000000000000000000000000000000000000000000000000000600052603160045260246000fdfea2646970667358221220b5b456212a11997ccd601470c77cc96a71f468957b5522e79a3a9c1efe5555c064736f6c63430008110033608060405234801561001057600080fd5b50600080546001600160a01b031916331790556105d0806100326000396000f3fe608060405234801561001057600080fd5b50600436106100675760003560e01c8063796c5e9411610050578063796c5e941461009457806385edea13146100bd578063a0265ff8146100eb57600080fd5b80636526db7a1461006c578063771602f714610081575b600080fd5b61007f61007a366004610483565b61010e565b005b61007f61008f366004610483565b6102c6565b6100a76100a23660046104a5565b61038e565b6040516100b491906104be565b60405180910390f35b6100dd6100cb3660046104a5565b60009081526001602052604090205490565b6040519081526020016100b4565b6100fe6100f9366004610483565b6103f0565b60405190151581526020016100b4565b60005473ffffffffffffffffffffffffffffffffffffffff163314610194576040517f08c379a000000000000000000000000000000000000000000000000000000000815260206004820152600a60248201527f4f4e4c595f4f574e45520000000000000000000000000000000000000000000060448201526064015b60405180910390fd5b61019e82826103f0565b156102c2576000828152600160208190526040909120805490916101c191610502565b815481106101d1576101d161053c565b600091825260208083209091015484835260018252604080842060028452818520868652909352909220548154811061020c5761020c61053c565b6000918252602080832090910192909255838152600282526040808220848352808452818320548684526001855291832085845293819052835491939092918490811061025b5761025b61053c565b60009182526020808320909101548352828101939093526040918201812093909355848352600282528083208484528252808320839055848352600190915290208054806102ab576102ab61056b565b600190038181906000526020600020016000905590555b5050565b60005473ffffffffffffffffffffffffffffffffffffffff163314610347576040517f08c379a000000000000000000000000000000000000000000000000000000000815260206004820152600a60248201527f4f4e4c595f4f574e455200000000000000000000000000000000000000000000604482015260640161018b565b61035182826103f0565b6102c25760009182526001602081815260408085208054600284528287208688528452918620829055838352928101835591845290922090910155565b6000818152600160209081526040918290208054835181840281018401909452808452606093928301828280156103e457602002820191906000526020600020905b8154815260200190600101908083116103d0575b50505050509050919050565b600082815260016020526040812054810361040d5750600061047d565b6000838152600260209081526040808320858452909152812054900361045f576000838152600160205260408120805484929061044c5761044c61053c565b906000526020600020015414905061047d565b50600082815260026020908152604080832084845290915290205415155b92915050565b6000806040838503121561049657600080fd5b50508035926020909101359150565b6000602082840312156104b757600080fd5b5035919050565b6020808252825182820181905260009190848201906040850190845b818110156104f6578351835292840192918401916001016104da565b50909695505050505050565b8181038181111561047d577f4e487b7100000000000000000000000000000000000000000000000000000000600052601160045260246000fd5b7f4e487b7100000000000000000000000000000000000000000000000000000000600052603260045260246000fd5b7f4e487b7100000000000000000000000000000000000000000000000000000000600052603160045260246000fdfea2646970667358221220684c9604d505135bc2456dd0f73243ed1e0045e69d943e1775bb4ed31337e5f264736f6c6343000811003360806040523480156200001157600080fd5b50604051620010ae380380620010ae833981016040819052620000349162000117565b600280546001600160a01b0319163317905581816001600160a01b038116156200005f5780620000c4565b816001600160a01b031663ba62fbe46040518163ffffffff1660e01b8152600401602060405180830381865afa1580156200009e573d6000803e3d6000fd5b505050506040513d601f19601f82011682018060405250810190620000c4919062000156565b600080546001600160a01b039283166001600160a01b0319918216179091556001805494909216931692909217909155506200017d915050565b6001600160a01b03811681146200011457600080fd5b50565b600080604083850312156200012b57600080fd5b82516200013881620000fe565b60208401519092506200014b81620000fe565b809150509250929050565b6000602082840312156200016957600080fd5b81516200017681620000fe565b9392505050565b610f21806200018d6000396000f3fe608060405234801561001057600080fd5b50600436106100675760003560e01c80638da5cb5b116100505780638da5cb5b146100a9578063f2fde38b146100d1578063f6cd7a01146100e657600080fd5b806309c5eabe1461006c5780638b246a5b14610095575b600080fd5b61007f61007a366004610b1b565b6100f9565b60405161008c9190610bce565b60405180910390f35b61007f6100a3366004610b1b565b50606090565b60025460405173ffffffffffffffffffffffffffffffffffffffff909116815260200161008c565b6100e46100df366004610c5f565b610814565b005b61007f6100f4366004610c90565b610923565b6060600080600080858060200190518101906101159190610ce1565b6001549397509195509350915073ffffffffffffffffffffffffffffffffffffffff1633146101cb576040517f08c379a000000000000000000000000000000000000000000000000000000000815260206004820152602360248201527f73797374656d2063616e206f6e6c792062652063616c6c65642076696120576f60448201527f726c64000000000000000000000000000000000000000000000000000000000060648201526084015b60405180910390fd5b60008360018111156101df576101df610d34565b14806101fc575060018360018111156101fa576101fa610d34565b145b610262576040517f08c379a000000000000000000000000000000000000000000000000000000000815260206004820152600c60248201527f696e76616c69642074797065000000000000000000000000000000000000000060448201526064016101c2565b806000036102cc576040517f08c379a000000000000000000000000000000000000000000000000000000000815260206004820152600a60248201527f696e76616c69642069640000000000000000000000000000000000000000000060448201526064016101c2565b73ffffffffffffffffffffffffffffffffffffffff8216610349576040517f08c379a000000000000000000000000000000000000000000000000000000000815260206004820152600f60248201527f696e76616c69642061646472657373000000000000000000000000000000000060448201526064016101c2565b60008084600181111561035e5761035e610d34565b146103ab576000546103a69073ffffffffffffffffffffffffffffffffffffffff167f017c816a964927a00e050edd780dcf113ca2756dfa9e9fda94a05c140d9317b061095c565b6103c5565b60005473ffffffffffffffffffffffffffffffffffffffff165b9050600073ffffffffffffffffffffffffffffffffffffffff84166040517fcccf7a8e0000000000000000000000000000000000000000000000000000000081526004810182905290915073ffffffffffffffffffffffffffffffffffffffff83169063cccf7a8e90602401602060405180830381865afa15801561044e573d6000803e3d6000fd5b505050506040513d601f19601f820116820180604052508101906104729190610d63565b156104d9576040517f08c379a000000000000000000000000000000000000000000000000000000000815260206004820152601960248201527f656e7469747920616c726561647920726567697374657265640000000000000060448201526064016101c2565b6040517ffbdfa1ea0000000000000000000000000000000000000000000000000000000081526004810184905260009073ffffffffffffffffffffffffffffffffffffffff84169063fbdfa1ea90602401600060405180830381865afa158015610547573d6000803e3d6000fd5b505050506040513d6000823e601f3d9081017fffffffffffffffffffffffffffffffffffffffffffffffffffffffffffffffe016820160405261058d9190810190610d85565b905080516000148061066457508051600114801561066457508673ffffffffffffffffffffffffffffffffffffffff166105de826000815181106105d3576105d3610e2b565b602002602001015190565b73ffffffffffffffffffffffffffffffffffffffff16638da5cb5b6040518163ffffffff1660e01b8152600401602060405180830381865afa158015610628573d6000803e3d6000fd5b505050506040513d601f19601f8201168201806040525081019061064c9190610e5a565b73ffffffffffffffffffffffffffffffffffffffff16145b6106f0576040517f08c379a000000000000000000000000000000000000000000000000000000000815260206004820152602a60248201527f696420616c7265616479207265676973746572656420616e642063616c6c657260448201527f206e6f74206f776e65720000000000000000000000000000000000000000000060648201526084016101c2565b8051600103610781578273ffffffffffffffffffffffffffffffffffffffff16634cc822158260008151811061072857610728610e2b565b60200260200101516040518263ffffffff1660e01b815260040161074e91815260200190565b600060405180830381600087803b15801561076857600080fd5b505af115801561077c573d6000803e3d6000fd5b505050505b6040517f1ab06ee5000000000000000000000000000000000000000000000000000000008152600481018390526024810185905273ffffffffffffffffffffffffffffffffffffffff841690631ab06ee590604401600060405180830381600087803b1580156107f057600080fd5b505af1158015610804573d6000803e3d6000fd5b5050505050505050505050919050565b60025473ffffffffffffffffffffffffffffffffffffffff163314610895576040517f08c379a000000000000000000000000000000000000000000000000000000000815260206004820152600a60248201527f4f4e4c595f4f574e45520000000000000000000000000000000000000000000060448201526064016101c2565b60025460405173ffffffffffffffffffffffffffffffffffffffff8084169216907f8be0079c531659141344cd1fd0a4f28419497f9722a3daafe3b4186f6b6457e090600090a3600280547fffffffffffffffffffffffff00000000000000000000000000000000000000001673ffffffffffffffffffffffffffffffffffffffff92909216919091179055565b60606109538585858560405160200161093f9493929190610e77565b6040516020818303038152906040526100f9565b95945050505050565b6040517ffbdfa1ea00000000000000000000000000000000000000000000000000000000815260048101829052600090819073ffffffffffffffffffffffffffffffffffffffff85169063fbdfa1ea90602401600060405180830381865afa1580156109cc573d6000803e3d6000fd5b505050506040513d6000823e601f3d9081017fffffffffffffffffffffffffffffffffffffffffffffffffffffffffffffffe0168201604052610a129190810190610d85565b90508051600003610a7f576040517f08c379a000000000000000000000000000000000000000000000000000000000815260206004820152601160248201527f6964206e6f74207265676973746572656400000000000000000000000000000060448201526064016101c2565b610a95816000815181106105d3576105d3610e2b565b949350505050565b7f4e487b7100000000000000000000000000000000000000000000000000000000600052604160045260246000fd5b604051601f82017fffffffffffffffffffffffffffffffffffffffffffffffffffffffffffffffe016810167ffffffffffffffff81118282101715610b1357610b13610a9d565b604052919050565b60006020808385031215610b2e57600080fd5b823567ffffffffffffffff80821115610b4657600080fd5b818501915085601f830112610b5a57600080fd5b813581811115610b6c57610b6c610a9d565b610b9c847fffffffffffffffffffffffffffffffffffffffffffffffffffffffffffffffe0601f84011601610acc565b91508082528684828501011115610bb257600080fd5b8084840185840137600090820190930192909252509392505050565b600060208083528351808285015260005b81811015610bfb57858101830151858201604001528201610bdf565b5060006040828601015260407fffffffffffffffffffffffffffffffffffffffffffffffffffffffffffffffe0601f8301168501019250505092915050565b73ffffffffffffffffffffffffffffffffffffffff81168114610c5c57600080fd5b50565b600060208284031215610c7157600080fd5b8135610c7c81610c3a565b9392505050565b60028110610c5c57600080fd5b60008060008060808587031215610ca657600080fd5b8435610cb181610c3a565b93506020850135610cc181610c83565b92506040850135610cd181610c3a565b9396929550929360600135925050565b60008060008060808587031215610cf757600080fd5b8451610d0281610c3a565b6020860151909450610d1381610c83565b6040860151909350610d2481610c3a565b6060959095015193969295505050565b7f4e487b7100000000000000000000000000000000000000000000000000000000600052602160045260246000fd5b600060208284031215610d7557600080fd5b81518015158114610c7c57600080fd5b60006020808385031215610d9857600080fd5b825167ffffffffffffffff80821115610db057600080fd5b818501915085601f830112610dc457600080fd5b815181811115610dd657610dd6610a9d565b8060051b9150610de7848301610acc565b8181529183018401918481019088841115610e0157600080fd5b938501935b83851015610e1f57845182529385019390850190610e06565b98975050505050505050565b7f4e487b7100000000000000000000000000000000000000000000000000000000600052603260045260246000fd5b600060208284031215610e6c57600080fd5b8151610c7c81610c3a565b73ffffffffffffffffffffffffffffffffffffffff8581168252608082019060028610610ecd577f4e487b7100000000000000000000000000000000000000000000000000000000600052602160045260246000fd5b8560208401528085166040840152508260608301529594505050505056fea264697066735822122007ab1a2f2f5d80935482523757f2fc67ba89ffa31b83dc5f79fe56c5e122badd64736f6c63430008110033",
    "linkReferences": {}
  },
  "methodIdentifiers": {
    "components()": "ba62fbe4",
    "getComponent(uint256)": "4f27da18",
    "getComponentIdFromAddress(address)": "9f54f545",
    "getNumEntities()": "d7ecf62b",
    "getSystemAddress(uint256)": "fb3ec48b",
    "getUniqueEntityId()": "614bfa6e",
    "hasEntity(uint256)": "e3d12875",
    "init()": "e1c7392a",
    "query((uint8,uint256,bytes)[])": "687485a6",
    "register()": "1aa3a008",
    "registerComponent(address,uint256)": "f3034770",
    "registerComponentValueRemoved(address,uint256)": "d803064a",
    "registerComponentValueRemoved(uint256)": "0de3b7b5",
    "registerComponentValueSet(address,uint256,bytes)": "af104e40",
    "registerComponentValueSet(uint256,bytes)": "cfd3c57f",
    "registerSystem(address,uint256)": "1ee444b7",
    "systems()": "0d59332e"
  },
  "id": 7
}